{
  "address": "0x98a2194c4fA9ceE2Cedd1c2D37875784B2B56D63",
  "abi": [
    {
      "anonymous": false,
      "inputs": [
        {
          "indexed": false,
          "internalType": "address",
          "name": "registry",
          "type": "address"
        },
        {
          "indexed": false,
          "internalType": "address",
          "name": "operator",
          "type": "address"
        },
        {
          "indexed": false,
          "internalType": "string",
          "name": "reason",
          "type": "string"
        }
      ],
      "name": "FlagRegistry",
      "type": "event"
    },
    {
      "anonymous": false,
      "inputs": [
        {
          "indexed": false,
          "internalType": "address",
          "name": "registry",
          "type": "address"
        },
        {
          "indexed": false,
          "internalType": "uint256",
          "name": "tokenId",
          "type": "uint256"
        },
        {
          "indexed": false,
          "internalType": "address",
          "name": "operator",
          "type": "address"
        },
        {
          "indexed": false,
          "internalType": "string",
          "name": "reason",
          "type": "string"
        }
      ],
      "name": "FlagToken",
      "type": "event"
    },
    {
      "anonymous": false,
      "inputs": [
        {
          "indexed": false,
          "internalType": "address",
          "name": "registry",
          "type": "address"
        },
        {
          "indexed": false,
          "internalType": "uint256[]",
          "name": "tokenIds",
          "type": "uint256[]"
        }
      ],
      "name": "ForceIndexing",
      "type": "event"
    },
    {
      "anonymous": false,
      "inputs": [
        {
          "indexed": true,
          "internalType": "address",
          "name": "module",
          "type": "address"
        }
      ],
      "name": "ModuleAdded",
      "type": "event"
    },
    {
      "anonymous": false,
      "inputs": [
        {
          "indexed": true,
          "internalType": "address",
          "name": "module",
          "type": "address"
        }
      ],
      "name": "ModuleRemoved",
      "type": "event"
    },
    {
      "anonymous": false,
      "inputs": [
        {
          "indexed": true,
          "internalType": "address",
          "name": "previousOwner",
          "type": "address"
        },
        {
          "indexed": true,
          "internalType": "address",
          "name": "newOwner",
          "type": "address"
        }
      ],
      "name": "OwnershipTransferred",
      "type": "event"
    },
    {
      "anonymous": false,
      "inputs": [
        {
          "indexed": true,
          "internalType": "address",
          "name": "registry",
          "type": "address"
        },
        {
          "indexed": false,
          "internalType": "string",
          "name": "context",
          "type": "string"
        }
      ],
      "name": "RegistryCreated",
      "type": "event"
    },
    {
      "anonymous": false,
      "inputs": [
        {
          "indexed": true,
          "internalType": "address",
          "name": "registry",
          "type": "address"
        },
        {
          "indexed": false,
          "internalType": "string",
          "name": "slug",
          "type": "string"
        }
      ],
      "name": "RegistrySlug",
      "type": "event"
    },
    {
      "inputs": [
        {
          "internalType": "address",
          "name": "module",
          "type": "address"
        }
      ],
      "name": "addModule",
      "outputs": [],
      "stateMutability": "nonpayable",
      "type": "function"
    },
    {
      "inputs": [
        {
          "internalType": "string",
          "name": "name_",
          "type": "string"
        },
        {
          "internalType": "string",
          "name": "symbol_",
          "type": "string"
        },
        {
          "internalType": "string",
          "name": "contractURI_",
          "type": "string"
        },
        {
          "internalType": "string",
          "name": "baseURI_",
          "type": "string"
        },
        {
          "internalType": "address",
          "name": "owner_",
          "type": "address"
        },
        {
          "components": [
            {
              "internalType": "address",
              "name": "module",
              "type": "address"
            },
            {
              "internalType": "bool",
              "name": "enabled",
              "type": "bool"
            },
            {
              "internalType": "bool",
              "name": "minter",
              "type": "bool"
            }
          ],
          "internalType": "struct INiftyForge721.ModuleInit[]",
          "name": "modulesInit",
          "type": "tuple[]"
        },
        {
          "internalType": "address",
          "name": "contractRoyaltiesRecipient",
          "type": "address"
        },
        {
          "internalType": "uint256",
          "name": "contractRoyaltiesValue",
          "type": "uint256"
        },
        {
          "internalType": "string",
          "name": "slug",
          "type": "string"
        },
        {
          "internalType": "string",
          "name": "context",
          "type": "string"
        }
      ],
      "name": "createERC721",
      "outputs": [
        {
          "internalType": "address",
          "name": "newContract",
          "type": "address"
        }
      ],
      "stateMutability": "nonpayable",
      "type": "function"
    },
    {
      "inputs": [
        {
          "internalType": "string",
          "name": "name_",
          "type": "string"
        },
        {
          "internalType": "string",
          "name": "symbol_",
          "type": "string"
        },
        {
          "internalType": "string",
          "name": "contractURI_",
          "type": "string"
        },
        {
          "internalType": "string",
          "name": "baseURI_",
          "type": "string"
        },
        {
          "internalType": "address",
          "name": "owner_",
          "type": "address"
        },
        {
          "internalType": "address",
          "name": "minter",
          "type": "address"
        },
        {
          "internalType": "address",
          "name": "contractRoyaltiesRecipient",
          "type": "address"
        },
        {
          "internalType": "uint256",
          "name": "contractRoyaltiesValue",
          "type": "uint256"
        },
        {
          "internalType": "string",
          "name": "slug",
          "type": "string"
        },
        {
          "internalType": "string",
          "name": "context",
          "type": "string"
        }
      ],
      "name": "createERC721Slim",
      "outputs": [
        {
          "internalType": "address",
          "name": "newContract",
          "type": "address"
        }
      ],
      "stateMutability": "nonpayable",
      "type": "function"
    },
    {
      "inputs": [
        {
          "internalType": "address",
          "name": "registry",
          "type": "address"
        },
        {
          "internalType": "string",
          "name": "reason",
          "type": "string"
        }
      ],
      "name": "flagRegistry",
      "outputs": [],
      "stateMutability": "nonpayable",
      "type": "function"
    },
    {
      "inputs": [
        {
          "internalType": "address",
          "name": "registry",
          "type": "address"
        },
        {
          "internalType": "uint256",
          "name": "tokenId",
          "type": "uint256"
        },
        {
          "internalType": "string",
          "name": "reason",
          "type": "string"
        }
      ],
      "name": "flagToken",
      "outputs": [],
      "stateMutability": "nonpayable",
      "type": "function"
    },
    {
      "inputs": [
        {
          "internalType": "address",
          "name": "",
          "type": "address"
        }
      ],
      "name": "flaggedRegistries",
      "outputs": [
        {
          "internalType": "bool",
          "name": "",
          "type": "bool"
        }
      ],
      "stateMutability": "view",
      "type": "function"
    },
    {
      "inputs": [
        {
          "internalType": "address",
          "name": "registry",
          "type": "address"
        },
        {
          "internalType": "uint256[]",
          "name": "tokenIds",
          "type": "uint256[]"
        }
      ],
      "name": "forceReindexing",
      "outputs": [],
      "stateMutability": "nonpayable",
      "type": "function"
    },
    {
      "inputs": [],
      "name": "getERC1155Implementation",
      "outputs": [
        {
          "internalType": "address",
          "name": "",
          "type": "address"
        }
      ],
      "stateMutability": "view",
      "type": "function"
    },
    {
      "inputs": [],
      "name": "getERC1155ProxyRegistry",
      "outputs": [
        {
          "internalType": "address",
          "name": "",
          "type": "address"
        }
      ],
      "stateMutability": "view",
      "type": "function"
    },
    {
      "inputs": [],
      "name": "getERC721Implementation",
      "outputs": [
        {
          "internalType": "address",
          "name": "",
          "type": "address"
        }
      ],
      "stateMutability": "view",
      "type": "function"
    },
    {
      "inputs": [],
      "name": "getERC721ProxyRegistry",
      "outputs": [
        {
          "internalType": "address",
          "name": "",
          "type": "address"
        }
      ],
      "stateMutability": "view",
      "type": "function"
    },
    {
      "inputs": [
        {
          "internalType": "string",
          "name": "slug",
          "type": "string"
        }
      ],
      "name": "getRegistryBySlug",
      "outputs": [
        {
          "internalType": "address",
          "name": "",
          "type": "address"
        }
      ],
      "stateMutability": "view",
      "type": "function"
    },
    {
      "inputs": [
        {
          "internalType": "bool",
          "name": "locked",
          "type": "bool"
        },
        {
          "internalType": "address",
          "name": "owner_",
          "type": "address"
        }
      ],
      "name": "initialize",
      "outputs": [],
      "stateMutability": "nonpayable",
      "type": "function"
    },
    {
      "inputs": [],
      "name": "isLocked",
      "outputs": [
        {
          "internalType": "bool",
          "name": "",
          "type": "bool"
        }
      ],
      "stateMutability": "view",
      "type": "function"
    },
    {
      "inputs": [
        {
          "internalType": "string",
          "name": "slug",
          "type": "string"
        }
      ],
      "name": "isSlugFree",
      "outputs": [
        {
          "internalType": "bool",
          "name": "",
          "type": "bool"
        }
      ],
      "stateMutability": "view",
      "type": "function"
    },
    {
      "inputs": [
        {
          "internalType": "address",
          "name": "registry",
          "type": "address"
        },
        {
          "internalType": "uint256",
          "name": "tokenId",
          "type": "uint256"
        }
      ],
      "name": "isTokenFlagged",
      "outputs": [
        {
          "internalType": "bool",
          "name": "",
          "type": "bool"
        }
      ],
      "stateMutability": "view",
      "type": "function"
    },
    {
      "inputs": [
        {
          "internalType": "address",
          "name": "",
          "type": "address"
        }
      ],
      "name": "lastIndexing",
      "outputs": [
        {
          "internalType": "uint256",
          "name": "",
          "type": "uint256"
        }
      ],
      "stateMutability": "view",
      "type": "function"
    },
    {
      "inputs": [],
      "name": "listModules",
      "outputs": [
        {
          "internalType": "address[]",
          "name": "list",
          "type": "address[]"
        }
      ],
      "stateMutability": "view",
      "type": "function"
    },
    {
      "inputs": [
        {
          "internalType": "uint256",
          "name": "startAt",
          "type": "uint256"
        },
        {
          "internalType": "uint256",
          "name": "limit",
          "type": "uint256"
        }
      ],
      "name": "listRegistries",
      "outputs": [
        {
          "internalType": "address[]",
          "name": "list",
          "type": "address[]"
        }
      ],
      "stateMutability": "view",
      "type": "function"
    },
    {
      "inputs": [],
      "name": "owner",
      "outputs": [
        {
          "internalType": "address",
          "name": "",
          "type": "address"
        }
      ],
      "stateMutability": "view",
      "type": "function"
    },
    {
      "inputs": [
        {
          "internalType": "address",
          "name": "module",
          "type": "address"
        }
      ],
      "name": "removeModule",
      "outputs": [],
      "stateMutability": "nonpayable",
      "type": "function"
    },
    {
      "inputs": [],
      "name": "renounceOwnership",
      "outputs": [],
      "stateMutability": "nonpayable",
      "type": "function"
    },
    {
      "inputs": [
        {
          "internalType": "address",
          "name": "implementation",
          "type": "address"
        }
      ],
      "name": "setERC1155Implementation",
      "outputs": [],
      "stateMutability": "nonpayable",
      "type": "function"
    },
    {
      "inputs": [
        {
          "internalType": "address",
          "name": "proxy",
          "type": "address"
        }
      ],
      "name": "setERC1155ProxyRegistry",
      "outputs": [],
      "stateMutability": "nonpayable",
      "type": "function"
    },
    {
      "inputs": [
        {
          "internalType": "address",
          "name": "implementation",
          "type": "address"
        }
      ],
      "name": "setERC721Implementation",
      "outputs": [],
      "stateMutability": "nonpayable",
      "type": "function"
    },
    {
      "inputs": [
        {
          "internalType": "address",
          "name": "proxy",
          "type": "address"
        }
      ],
      "name": "setERC721ProxyRegistry",
      "outputs": [],
      "stateMutability": "nonpayable",
      "type": "function"
    },
    {
      "inputs": [
        {
          "internalType": "address",
          "name": "implementation",
          "type": "address"
        }
      ],
      "name": "setERC721SlimImplementation",
      "outputs": [],
      "stateMutability": "nonpayable",
      "type": "function"
    },
    {
      "inputs": [
        {
          "internalType": "bool",
          "name": "locked",
          "type": "bool"
        }
      ],
      "name": "setLocked",
      "outputs": [],
      "stateMutability": "nonpayable",
      "type": "function"
    },
    {
      "inputs": [
        {
          "internalType": "string",
          "name": "slug",
          "type": "string"
        },
        {
          "internalType": "address",
          "name": "registry",
          "type": "address"
        }
      ],
      "name": "setSlug",
      "outputs": [],
      "stateMutability": "nonpayable",
      "type": "function"
    },
    {
      "inputs": [
        {
          "internalType": "address",
          "name": "newOwner",
          "type": "address"
        }
      ],
      "name": "transferOwnership",
      "outputs": [],
      "stateMutability": "nonpayable",
      "type": "function"
    }
  ],
  "transactionHash": "0x1b5db3854ab5fbfd2a03a0e3a1e9e81d6d1d86de9ceccbf535b97d51325e71ee",
  "args": [],
  "solcInputHash": "b2a9555ed8e97279d3715bf9bce5a3d4",
  "bytecode": "0x608060405234801561001057600080fd5b506123a1806100206000396000f3fe608060405234801561001057600080fd5b50600436106101da5760003560e01c80638da5cb5b11610104578063ab98cb91116100a2578063ee45454811610071578063ee45454814610418578063f2fde38b1461042b578063f3d2f9941461043e578063f58b41fa1461045157600080fd5b8063ab98cb91146103b1578063c5a2835d146103c4578063e80dac57146103d7578063ebed7dd3146103ea57600080fd5b8063a0632461116100de578063a06324611461036f578063a0918b3c14610382578063a4e2d63414610393578063a9a269d41461039e57600080fd5b80638da5cb5b1461033a5780639b84ec801461034b5780639ccaabf61461035e57600080fd5b8063426ce4121161017c578063715018a61161014b578063715018a6146102fb5780637d2405bb1461030357806384663e531461031657806385ee7ba61461032757600080fd5b8063426ce4121461029b5780634cfa6487146102c05780636314c120146102d5578063641254bd146102e857600080fd5b8063211e28b6116101b8578063211e28b61461024f57806321d4495d14610262578063355e446314610275578063367913791461028857600080fd5b80631792405d146101df57806318e3f5de146101f45780631ed86f191461023c575b600080fd5b6101f26101ed3660046118d7565b610474565b005b6102276102023660046119cf565b80516020918201206000908152607090915260409020546001600160a01b0316151590565b60405190151581526020015b60405180910390f35b6101f261024a3660046118d7565b6104c9565b6101f261025d366004611a19565b61053b565b6101f2610270366004611a36565b610578565b6101f2610283366004611a83565b610747565b6101f2610296366004611ad0565b610864565b606a546001600160a01b03165b6040516001600160a01b039091168152602001610233565b6102c8610a80565b6040516102339190611b26565b6102a86102e33660046119cf565b610b2b565b6101f26102f63660046118d7565b610ba9565b6101f2610bf1565b6101f26103113660046118d7565b610c27565b6068546001600160a01b03166102a8565b6101f2610335366004611b73565b610c6f565b6033546001600160a01b03166102a8565b6101f26103593660046118d7565b610d0b565b6069546001600160a01b03166102a8565b6101f261037d3660046118d7565b610d53565b606b546001600160a01b03166102a8565b60655460ff16610227565b6101f26103ac366004611bc2565b610dc4565b6101f26103bf3660046118d7565b610fa5565b6102a86103d2366004611d17565b610ff1565b6102c86103e5366004611e5e565b61116d565b61040a6103f83660046118d7565b60726020526000908152604090205481565b604051908152602001610233565b610227610426366004611e80565b61127f565b6101f26104393660046118d7565b6112ad565b6102a861044c366004611eaa565b611345565b61022761045f3660046118d7565b60736020526000908152604090205460ff1681565b6033546001600160a01b031633146104a75760405162461bcd60e51b815260040161049e90611f6f565b60405180910390fd5b606b80546001600160a01b0319166001600160a01b0392909216919091179055565b6033546001600160a01b031633146104f35760405162461bcd60e51b815260040161049e90611f6f565b6104fe606e82611466565b15610538576040516001600160a01b038216907fead6a006345da1073a106d5f32372d2d2204f46cb0b4bca8f5ebafcbbed12b8a90600090a25b50565b6033546001600160a01b031633146105655760405162461bcd60e51b815260040161049e90611f6f565b6065805460ff1916911515919091179055565b8151602080840191909120600081815260709092526040909120546001600160a01b0316156105d95760405162461bcd60e51b815260206004820152600d60248201526c21534c55475f494e5f5553452160981b604482015260640161049e565b604051630a9b245360e01b81523360048201526001600160a01b03831690630a9b24539060240160206040518083038186803b15801561061857600080fd5b505afa15801561062c573d6000803e3d6000fd5b505050506040513d601f19601f820116820180604052508101906106509190611fa4565b61066c5760405162461bcd60e51b815260040161049e90611fc1565b6001600160a01b038216600090815260716020526040902054600081815260706020526040902080546001600160a01b03191690558351156106e657600082815260706020908152604080832080546001600160a01b0319166001600160a01b038816908117909155835260719091529020829055610700565b6001600160a01b0383166000908152607160205260408120555b826001600160a01b03167fe37648a46d06de2f30335ddc5016767bfa24ad089e73f8ece9ccefb54ad5e057856040516107399190612034565b60405180910390a250505050565b6033546001600160a01b031633146107715760405162461bcd60e51b815260040161049e90611f6f565b61077c606c83611482565b6107985760405162461bcd60e51b815260040161049e90612047565b6001600160a01b03821660009081526073602052604090205460ff16156108015760405162461bcd60e51b815260206004820152601a60248201527f2152454749535452595f414c52454144595f464c414747454421000000000000604482015260640161049e565b6001600160a01b03821660009081526073602052604090819020805460ff19166001179055517fe625e87faebb42432377cdf4c1c043dfbbb827f01178e8a2f03c8353ff11b60b9061085890849033908590612073565b60405180910390a15050565b61086f606c84611482565b61088b5760405162461bcd60e51b815260040161049e90612047565b6001600160a01b03831660009081526073602052604090205460ff16156108f45760405162461bcd60e51b815260206004820152601a60248201527f2152454749535452595f414c52454144595f464c414747454421000000000000604482015260640161049e565b6001600160a01b038316600090815260746020908152604080832085845290915290205460ff16156109685760405162461bcd60e51b815260206004820152601760248201527f21544f4b454e5f414c52454144595f464c414747454421000000000000000000604482015260640161049e565b6033546001600160a01b03163314806109f35750604051630a9b245360e01b81523360048201526001600160a01b03841690630a9b24539060240160206040518083038186803b1580156109bb57600080fd5b505afa1580156109cf573d6000803e3d6000fd5b505050506040513d601f19601f820116820180604052508101906109f39190611fa4565b610a0f5760405162461bcd60e51b815260040161049e90611fc1565b6001600160a01b038316600090815260746020908152604080832085845290915290819020805460ff19166001179055517f0e2cf25cd9b779efedc23c9f83ac715c3dcf1336ebb9cbd61b08be3f5f292fdb90610a739085908590339086906120a8565b60405180910390a1505050565b60606000610a8e606e6114a4565b9050806001600160401b03811115610aa857610aa86118f2565b604051908082528060200260200182016040528015610ad1578160200160208202803683370190505b50915060005b81811015610b2657610aea606e826114ae565b838281518110610afc57610afc6120e5565b6001600160a01b039092166020928302919091019091015280610b1e81612111565b915050610ad7565b505090565b80516020808301919091206000818152607090925260408220546001600160a01b0316610b8b5760405162461bcd60e51b815260206004820152600e60248201526d21554e4b4e4f574e5f534c55472160901b604482015260640161049e565b6000908152607060205260409020546001600160a01b031692915050565b6033546001600160a01b03163314610bd35760405162461bcd60e51b815260040161049e90611f6f565b606880546001600160a01b0319166001600160a01b03831617905550565b6033546001600160a01b03163314610c1b5760405162461bcd60e51b815260040161049e90611f6f565b610c2560006114ba565b565b6033546001600160a01b03163314610c515760405162461bcd60e51b815260040161049e90611f6f565b606980546001600160a01b0319166001600160a01b03831617905550565b600054610100900460ff1680610c88575060005460ff16155b610ca45760405162461bcd60e51b815260040161049e9061212c565b600054610100900460ff16158015610cc6576000805461ffff19166101011790555b610cce61150c565b6065805460ff19168415151790556001600160a01b03821615610cf457610cf4826112ad565b8015610d06576000805461ff00191690555b505050565b6033546001600160a01b03163314610d355760405162461bcd60e51b815260040161049e90611f6f565b607580546001600160a01b0319166001600160a01b03831617905550565b6033546001600160a01b03163314610d7d5760405162461bcd60e51b815260040161049e90611f6f565b610d88606e82611587565b15610538576040516001600160a01b038216907f0a1ee69f55c33d8467c69ca59ce2007a737a88603d75392972520bf67cb513b890600090a250565b610dcf606c83611482565b610deb5760405162461bcd60e51b815260040161049e90612047565b6001600160a01b03821660009081526073602052604090205460ff1615610e495760405162461bcd60e51b815260206004820152601260248201527121464c41474745445f52454749535452592160701b604482015260640161049e565b80511580610e585750600a8151115b15610f74576001600160a01b03821660009081526072602052604090205462015180610e84824261217a565b11610ec45760405162461bcd60e51b815260206004820152601060248201526f21494e444558494e475f44454c41592160801b604482015260640161049e565b604051630a9b245360e01b81523360048201526001600160a01b03841690630a9b24539060240160206040518083038186803b158015610f0357600080fd5b505afa158015610f17573d6000803e3d6000fd5b505050506040513d601f19601f82011682018060405250810190610f3b9190611fa4565b610f575760405162461bcd60e51b815260040161049e90611fc1565b506001600160a01b03821660009081526072602052604090204290555b7f035d90f6cb38077eb55e4cef4caa780d8517587e64cb520b220f259dd456ffae8282604051610858929190612191565b6033546001600160a01b03163314610fcf5760405162461bcd60e51b815260040161049e90611f6f565b606a80546001600160a01b0319166001600160a01b0392909216919091179055565b6068546000906001600160a01b031661104c5760405162461bcd60e51b815260206004820152601760248201527f214e4f5f3732315f494d504c454d454e544154494f4e21000000000000000000604482015260640161049e565b60655460ff16158061106857506033546001600160a01b031633145b61109f5760405162461bcd60e51b8152602060048201526008602482015267214c4f434b45442160c01b604482015260640161049e565b6068546110b4906001600160a01b031661159c565b9050806001600160a01b0316636ead3f088c8c8c8c60006001600160a01b03168d6001600160a01b031614156110ea57336110ec565b8c5b8c8c8c6040518963ffffffff1660e01b81526004016111129897969594939291906121da565b600060405180830381600087803b15801561112c57600080fd5b505af1158015611140573d6000803e3d6000fd5b5050505061114e8183611639565b82511561115f5761115f8382610578565b9a9950505050505050505050565b6060600061117b606c6114a4565b90508084106111b95760405162461bcd60e51b815260206004820152600a602482015269214f564552464c4f572160b01b604482015260640161049e565b806111c484866122bb565b11156111d7576111d4848261217a565b92505b826001600160401b038111156111ef576111ef6118f2565b604051908082528060200260200182016040528015611218578160200160208202803683370190505b50915060005b838110156112775761123b61123382876122bb565b606c906114ae565b83828151811061124d5761124d6120e5565b6001600160a01b03909216602092830291909101909101528061126f81612111565b91505061121e565b505092915050565b6001600160a01b038216600090815260746020908152604080832084845290915290205460ff165b92915050565b6033546001600160a01b031633146112d75760405162461bcd60e51b815260040161049e90611f6f565b6001600160a01b03811661133c5760405162461bcd60e51b815260206004820152602660248201527f4f776e61626c653a206e6577206f776e657220697320746865207a65726f206160448201526564647265737360d01b606482015260840161049e565b610538816114ba565b6075546000906001600160a01b03166113a05760405162461bcd60e51b815260206004820152601b60248201527f214e4f5f373231534c494d5f494d504c454d454e544154494f4e210000000000604482015260640161049e565b60655460ff1615806113bc57506033546001600160a01b031633145b6113f35760405162461bcd60e51b8152602060048201526008602482015267214c4f434b45442160c01b604482015260640161049e565b607554611408906001600160a01b031661159c565b9050806001600160a01b031663c285c4428c8c8c8c60006001600160a01b03168d6001600160a01b0316141561143e5733611440565b8c5b8c8c8c6040518963ffffffff1660e01b81526004016111129897969594939291906122d3565b600061147b836001600160a01b03841661168a565b9392505050565b6001600160a01b0381166000908152600183016020526040812054151561147b565b60006112a7825490565b600061147b83836116d9565b603380546001600160a01b038381166001600160a01b0319831681179093556040519116919082907f8be0079c531659141344cd1fd0a4f28419497f9722a3daafe3b4186f6b6457e090600090a35050565b600054610100900460ff1680611525575060005460ff16155b6115415760405162461bcd60e51b815260040161049e9061212c565b600054610100900460ff16158015611563576000805461ffff19166101011790555b61156b611703565b61157361176d565b8015610538576000805461ff001916905550565b600061147b836001600160a01b0384166117cd565b6000604051733d602d80600a3d3981f3363d3d373d3d3d363d7360601b81528260601b60148201526e5af43d82803e903d91602b57fd5bf360881b60288201526037816000f09150506001600160a01b0381166116345760405162461bcd60e51b8152602060048201526016602482015275115490cc4c4d8dce8818dc99585d194819985a5b195960521b604482015260640161049e565b919050565b611644606c83611466565b50816001600160a01b03167f9cbe1f94226d9017b1e95b6529c3c02e89030c93a2039fd800580237d919913f8260405161167e9190612034565b60405180910390a25050565b60008181526001830160205260408120546116d1575081546001818101845560008481526020808220909301849055845484825282860190935260409020919091556112a7565b5060006112a7565b60008260000182815481106116f0576116f06120e5565b9060005260206000200154905092915050565b600054610100900460ff168061171c575060005460ff16155b6117385760405162461bcd60e51b815260040161049e9061212c565b600054610100900460ff16158015611573576000805461ffff19166101011790558015610538576000805461ff001916905550565b600054610100900460ff1680611786575060005460ff16155b6117a25760405162461bcd60e51b815260040161049e9061212c565b600054610100900460ff161580156117c4576000805461ffff19166101011790555b611573336114ba565b600081815260018301602052604081205480156118b65760006117f160018361217a565b85549091506000906118059060019061217a565b905081811461186a576000866000018281548110611825576118256120e5565b9060005260206000200154905080876000018481548110611848576118486120e5565b6000918252602080832090910192909255918252600188019052604090208390555b855486908061187b5761187b612355565b6001900381819060005260206000200160009055905585600101600086815260200190815260200160002060009055600193505050506112a7565b60009150506112a7565b80356001600160a01b038116811461163457600080fd5b6000602082840312156118e957600080fd5b61147b826118c0565b634e487b7160e01b600052604160045260246000fd5b604051606081016001600160401b038111828210171561192a5761192a6118f2565b60405290565b604051601f8201601f191681016001600160401b0381118282101715611958576119586118f2565b604052919050565b600082601f83011261197157600080fd5b81356001600160401b0381111561198a5761198a6118f2565b61199d601f8201601f1916602001611930565b8181528460208386010111156119b257600080fd5b816020850160208301376000918101602001919091529392505050565b6000602082840312156119e157600080fd5b81356001600160401b038111156119f757600080fd5b611a0384828501611960565b949350505050565b801515811461053857600080fd5b600060208284031215611a2b57600080fd5b813561147b81611a0b565b60008060408385031215611a4957600080fd5b82356001600160401b03811115611a5f57600080fd5b611a6b85828601611960565b925050611a7a602084016118c0565b90509250929050565b60008060408385031215611a9657600080fd5b611a9f836118c0565b915060208301356001600160401b03811115611aba57600080fd5b611ac685828601611960565b9150509250929050565b600080600060608486031215611ae557600080fd5b611aee846118c0565b92506020840135915060408401356001600160401b03811115611b1057600080fd5b611b1c86828701611960565b9150509250925092565b6020808252825182820181905260009190848201906040850190845b81811015611b675783516001600160a01b031683529284019291840191600101611b42565b50909695505050505050565b60008060408385031215611b8657600080fd5b8235611b9181611a0b565b9150611a7a602084016118c0565b60006001600160401b03821115611bb857611bb86118f2565b5060051b60200190565b60008060408385031215611bd557600080fd5b611bde836118c0565b91506020808401356001600160401b03811115611bfa57600080fd5b8401601f81018613611c0b57600080fd5b8035611c1e611c1982611b9f565b611930565b81815260059190911b82018301908381019088831115611c3d57600080fd5b928401925b82841015611c5b57833582529284019290840190611c42565b80955050505050509250929050565b600082601f830112611c7b57600080fd5b81356020611c8b611c1983611b9f565b82815260609283028501820192828201919087851115611caa57600080fd5b8387015b85811015611d0a5781818a031215611cc65760008081fd5b611cce611908565b611cd7826118c0565b815285820135611ce681611a0b565b81870152604082810135611cf981611a0b565b908201528452928401928101611cae565b5090979650505050505050565b6000806000806000806000806000806101408b8d031215611d3757600080fd5b8a356001600160401b0380821115611d4e57600080fd5b611d5a8e838f01611960565b9b5060208d0135915080821115611d7057600080fd5b611d7c8e838f01611960565b9a5060408d0135915080821115611d9257600080fd5b611d9e8e838f01611960565b995060608d0135915080821115611db457600080fd5b611dc08e838f01611960565b9850611dce60808e016118c0565b975060a08d0135915080821115611de457600080fd5b611df08e838f01611c6a565b9650611dfe60c08e016118c0565b955060e08d013594506101008d0135915080821115611e1c57600080fd5b611e288e838f01611960565b93506101208d0135915080821115611e3f57600080fd5b50611e4c8d828e01611960565b9150509295989b9194979a5092959850565b60008060408385031215611e7157600080fd5b50508035926020909101359150565b60008060408385031215611e9357600080fd5b611e9c836118c0565b946020939093013593505050565b6000806000806000806000806000806101408b8d031215611eca57600080fd5b8a356001600160401b0380821115611ee157600080fd5b611eed8e838f01611960565b9b5060208d0135915080821115611f0357600080fd5b611f0f8e838f01611960565b9a5060408d0135915080821115611f2557600080fd5b611f318e838f01611960565b995060608d0135915080821115611f4757600080fd5b611f538e838f01611960565b9850611f6160808e016118c0565b9750611df060a08e016118c0565b6020808252818101527f4f776e61626c653a2063616c6c6572206973206e6f7420746865206f776e6572604082015260600190565b600060208284031215611fb657600080fd5b815161147b81611a0b565b6020808252600c908201526b214e4f545f454449544f522160a01b604082015260600190565b6000815180845260005b8181101561200d57602081850181015186830182015201611ff1565b8181111561201f576000602083870101525b50601f01601f19169290920160200192915050565b60208152600061147b6020830184611fe7565b60208082526012908201527121554e4b4e4f574e5f52454749535452592160701b604082015260600190565b6001600160a01b0384811682528316602082015260606040820181905260009061209f90830184611fe7565b95945050505050565b6001600160a01b03858116825260208201859052831660408201526080606082018190526000906120db90830184611fe7565b9695505050505050565b634e487b7160e01b600052603260045260246000fd5b634e487b7160e01b600052601160045260246000fd5b6000600019821415612125576121256120fb565b5060010190565b6020808252602e908201527f496e697469616c697a61626c653a20636f6e747261637420697320616c72656160408201526d191e481a5b9a5d1a585b1a5e995960921b606082015260800190565b60008282101561218c5761218c6120fb565b500390565b6001600160a01b038316815260406020808301829052835191830182905260009184820191906060850190845b81811015611d0a578451835293830193918301916001016121be565b60006101008083526121ee8184018c611fe7565b9050602083820381850152612203828c611fe7565b9150604084830381860152612218838c611fe7565b925060608584038187015261222d848c611fe7565b6001600160a01b038b8116608089015287820360a08901528a51808352858c019650909185019060005b8181101561228a578751805185168452878101511515888501528601511515868401529686019691840191600101612257565b50506001600160a01b038a1660c089015295506122a8945050505050565b8260e08301529998505050505050505050565b600082198211156122ce576122ce6120fb565b500190565b60006101008083526122e78184018c611fe7565b905082810360208401526122fb818b611fe7565b9050828103604084015261230f818a611fe7565b905082810360608401526123238189611fe7565b6001600160a01b03978816608085015295871660a084015250509190931660c082015260e00191909152949350505050565b634e487b7160e01b600052603160045260246000fdfea264697066735822122004c7ba4f7c5bd0539befc85669947e62ac4546563dff462fea0a9078db7f8d9e64736f6c63430008090033",
  "devdoc": {
    "author": "Simon Fremaux (@dievardump)",
    "kind": "dev",
    "methods": {
      "addModule(address)": {
        "params": {
          "module": "address of the module to add to the list"
        }
      },
      "createERC721(string,string,string,string,address,(address,bool,bool)[],address,uint256,string,string)": {
        "details": "the contract created is a minimal proxy to the _erc721Implementation",
        "params": {
          "baseURI_": "The contract base URI (where to find the NFTs) - can be empty \"\"",
          "contractRoyaltiesRecipient": "the recipient, if the contract has \"contract wide royalties\"",
          "contractRoyaltiesValue": "the value, modules to add / enable directly at creation",
          "contractURI_": "The contract URI (containing its metadata) - can be empty \"\"",
          "modulesInit": "array of ModuleInit",
          "name_": "name of the contract (see ERC721)",
          "owner_": "Address to whom transfer ownership",
          "symbol_": "symbol of the contract (see ERC721)"
        },
        "returns": {
          "newContract": "the address of the new contract"
        }
      },
      "createERC721Slim(string,string,string,string,address,address,address,uint256,string,string)": {
        "details": "the contract created is a minimal proxy to the _erc721SlimImplementation",
        "params": {
          "baseURI_": "The contract base URI (where to find the NFTs) - can be empty \"\"",
          "contractRoyaltiesRecipient": "the recipient, if the contract has \"contract wide royalties\"",
          "contractRoyaltiesValue": "the value, modules to add / enable directly at creation",
          "contractURI_": "The contract URI (containing its metadata) - can be empty \"\"",
          "minter": "The address that has the right to mint on the collection (see INiftyForge721Slim)",
          "name_": "name of the contract (see ERC721)",
          "owner_": "Address to whom transfer ownership",
          "symbol_": "symbol of the contract (see ERC721)"
        },
        "returns": {
          "newContract": "the address of the new contract"
        }
      },
      "flagRegistry(address,string)": {
        "params": {
          "reason": "the reason to flag",
          "registry": "the registry to flag"
        }
      },
      "flagToken(address,uint256,string)": {
        "params": {
          "reason": "the reason to flag",
          "registry": "the registry to flag",
          "tokenId": "the tokenId"
        }
      },
      "forceReindexing(address,uint256[])": {
        "params": {
          "registry": "the registry to reindex",
          "tokenIds": "the ids to reindex. If empty, will try to reindex all tokens for this registry"
        }
      },
      "getRegistryBySlug(string)": {
        "params": {
          "slug": "the slug to get the registry address"
        },
        "returns": {
          "_0": "the registry address"
        }
      },
      "isLocked()": {
        "returns": {
          "_0": "if the contract is locked for new creations or not"
        }
      },
      "isSlugFree(string)": {
        "params": {
          "slug": "the slug to check"
        },
        "returns": {
          "_0": "if the slug is used"
        }
      },
      "isTokenFlagged(address,uint256)": {
        "params": {
          "registry": "the registry",
          "tokenId": "the tokenId"
        }
      },
      "listModules()": {
        "returns": {
          "list": "of modules"
        }
      },
      "listRegistries(uint256,uint256)": {
        "params": {
          "limit": "the number of elements we request",
          "startAt": "the index to start at (will come in handy if one day we have too many contracts)"
        },
        "returns": {
          "list": "of registries"
        }
      },
      "owner()": {
        "details": "Returns the address of the current owner."
      },
      "removeModule(address)": {
        "params": {
          "module": "address of the module to remove from the list"
        }
      },
      "renounceOwnership()": {
        "details": "Leaves the contract without owner. It will not be possible to call `onlyOwner` functions anymore. Can only be called by the current owner. NOTE: Renouncing ownership will leave the contract without an owner, thereby removing any functionality that is only available to the owner."
      },
      "setERC1155Implementation(address)": {
        "params": {
          "implementation": "the address to proxy calls to"
        }
      },
      "setERC1155ProxyRegistry(address)": {
        "params": {
          "proxy": "the address of the proxy"
        }
      },
      "setERC721Implementation(address)": {
        "params": {
          "implementation": "the address to proxy calls to"
        }
      },
      "setERC721ProxyRegistry(address)": {
        "params": {
          "proxy": "the address of the proxy"
        }
      },
      "setERC721SlimImplementation(address)": {
        "params": {
          "implementation": "the address to proxy calls to"
        }
      },
      "setLocked(bool)": {
        "params": {
          "locked": "the new state"
        }
      },
      "setSlug(string,address)": {
        "details": "only someone with Editor role on registry can call this",
        "params": {
          "registry": "the collection to link the slug with",
          "slug": "the slug for the collection.        be aware that slugs will only work in the frontend if        they are composed of a-zA-Z0-9 and -        with no double dashed (--) allowed.        Any other character will render the slug invalid."
        }
      },
      "transferOwnership(address)": {
        "details": "Transfers ownership of the contract to a new account (`newOwner`). Can only be called by the current owner."
      }
    },
    "title": "ForgeMaster",
    "version": 1
  },
  "userdoc": {
    "kind": "user",
    "methods": {
      "addModule(address)": {
        "notice": "Helper to add an official module to the list"
      },
      "createERC721(string,string,string,string,address,(address,bool,bool)[],address,uint256,string,string)": {
        "notice": "Creates a new NiftyForge721"
      },
      "createERC721Slim(string,string,string,string,address,address,address,uint256,string,string)": {
        "notice": "Creates a new NiftyForge721Slim"
      },
      "flagRegistry(address,string)": {
        "notice": "Method allowing to flag a registry"
      },
      "flagToken(address,uint256,string)": {
        "notice": "Method allowing this owner, or an editor of the registry, to flag a token"
      },
      "forceReindexing(address,uint256[])": {
        "notice": "Method allowing an editor to ask for reindexing on a regisytry         (for example if baseURI changes)         This will be listen to by the NiftyForgeMetadata graph, and launch;         - either a reindexation of alist of tokenIds (if tokenIds.length != 0)         - a full reindexation if tokenIds.length == 0         This can be very long and block the indexer         so calling this with a list of tokenIds > 10 or for a full reindexation is limited         Abuse on this function can also result in the Registry banned.         Only an Editor on the Registry can request a full reindexing"
      },
      "getERC1155Implementation()": {
        "notice": "Getter for the ERC1155 Implementation"
      },
      "getERC1155ProxyRegistry()": {
        "notice": "Getter for the ERC1155 OpenSea registry / proxy"
      },
      "getERC721Implementation()": {
        "notice": "Getter for the ERC721 Implementation"
      },
      "getERC721ProxyRegistry()": {
        "notice": "Getter for the ERC721 OpenSea registry / proxy"
      },
      "getRegistryBySlug(string)": {
        "notice": "returns a registry address from a slug"
      },
      "isLocked()": {
        "notice": "Helper to know if the contract is locked"
      },
      "isSlugFree(string)": {
        "notice": "allows to check if a slug can be used"
      },
      "isTokenFlagged(address,uint256)": {
        "notice": "helper to know if a token is flagged"
      },
      "listModules()": {
        "notice": "Helper to list all modules"
      },
      "listRegistries(uint256,uint256)": {
        "notice": "Helper to list all registries"
      },
      "removeModule(address)": {
        "notice": "Helper to remove an official module from the list"
      },
      "setERC1155Implementation(address)": {
        "notice": "Setter for the ERC1155 Implementation"
      },
      "setERC1155ProxyRegistry(address)": {
        "notice": "Setter for the ERC1155 OpenSea registry / proxy"
      },
      "setERC721Implementation(address)": {
        "notice": "Setter for the ERC721 Implementation"
      },
      "setERC721ProxyRegistry(address)": {
        "notice": "Setter for the ERC721 OpenSea registry / proxy"
      },
      "setERC721SlimImplementation(address)": {
        "notice": "Setter for the ERC721Slim Implementation"
      },
      "setLocked(bool)": {
        "notice": "Setter for owner to stop the registries creation or not"
      },
      "setSlug(string,address)": {
        "notice": "Allows to change the slug for a registry"
      }
    },
    "notice": "This contract allows anyone to create ERC721 contract with role management         modules, Permits, on-chain Royalties, for pretty cheap.         Those contract & nfts are all referenced in the same Subgraph that can be used to create         a small, customizable, Storefront for anyone that wishes to.",
    "version": 1
  },
  "storageLayout": {
    "storage": [
      {
        "astId": 224,
        "contract": "contracts/ForgeMaster.sol:ForgeMaster",
        "label": "_initialized",
        "offset": 0,
        "slot": "0",
        "type": "t_bool"
      },
      {
        "astId": 227,
        "contract": "contracts/ForgeMaster.sol:ForgeMaster",
        "label": "_initializing",
        "offset": 1,
        "slot": "0",
        "type": "t_bool"
      },
      {
        "astId": 1973,
        "contract": "contracts/ForgeMaster.sol:ForgeMaster",
        "label": "__gap",
        "offset": 0,
        "slot": "1",
        "type": "t_array(t_uint256)50_storage"
      },
      {
        "astId": 10,
        "contract": "contracts/ForgeMaster.sol:ForgeMaster",
        "label": "_owner",
        "offset": 0,
        "slot": "51",
        "type": "t_address"
      },
      {
        "astId": 123,
        "contract": "contracts/ForgeMaster.sol:ForgeMaster",
        "label": "__gap",
        "offset": 0,
        "slot": "52",
        "type": "t_array(t_uint256)49_storage"
      },
      {
        "astId": 4910,
        "contract": "contracts/ForgeMaster.sol:ForgeMaster",
        "label": "_locked",
        "offset": 0,
        "slot": "101",
        "type": "t_bool"
      },
      {
        "astId": 4912,
        "contract": "contracts/ForgeMaster.sol:ForgeMaster",
        "label": "_fee",
        "offset": 0,
        "slot": "102",
        "type": "t_uint256"
      },
      {
        "astId": 4914,
        "contract": "contracts/ForgeMaster.sol:ForgeMaster",
        "label": "_freeCreations",
        "offset": 0,
        "slot": "103",
        "type": "t_uint256"
      },
      {
        "astId": 4916,
        "contract": "contracts/ForgeMaster.sol:ForgeMaster",
        "label": "_erc721Implementation",
        "offset": 0,
        "slot": "104",
        "type": "t_address"
      },
      {
        "astId": 4918,
        "contract": "contracts/ForgeMaster.sol:ForgeMaster",
        "label": "_erc1155Implementation",
        "offset": 0,
        "slot": "105",
        "type": "t_address"
      },
      {
        "astId": 4920,
        "contract": "contracts/ForgeMaster.sol:ForgeMaster",
        "label": "_openseaERC721ProxyRegistry",
        "offset": 0,
        "slot": "106",
        "type": "t_address"
      },
      {
        "astId": 4922,
        "contract": "contracts/ForgeMaster.sol:ForgeMaster",
        "label": "_openseaERC1155ProxyRegistry",
        "offset": 0,
        "slot": "107",
        "type": "t_address"
      },
      {
        "astId": 4925,
        "contract": "contracts/ForgeMaster.sol:ForgeMaster",
        "label": "_registries",
        "offset": 0,
        "slot": "108",
        "type": "t_struct(AddressSet)2993_storage"
      },
      {
        "astId": 4928,
        "contract": "contracts/ForgeMaster.sol:ForgeMaster",
        "label": "_modules",
        "offset": 0,
        "slot": "110",
        "type": "t_struct(AddressSet)2993_storage"
      },
      {
        "astId": 4932,
        "contract": "contracts/ForgeMaster.sol:ForgeMaster",
        "label": "_slugsToRegistry",
        "offset": 0,
        "slot": "112",
        "type": "t_mapping(t_bytes32,t_address)"
      },
      {
        "astId": 4936,
        "contract": "contracts/ForgeMaster.sol:ForgeMaster",
        "label": "_registryToSlug",
        "offset": 0,
        "slot": "113",
        "type": "t_mapping(t_address,t_bytes32)"
      },
      {
        "astId": 4940,
        "contract": "contracts/ForgeMaster.sol:ForgeMaster",
        "label": "lastIndexing",
        "offset": 0,
        "slot": "114",
        "type": "t_mapping(t_address,t_uint256)"
      },
      {
        "astId": 4944,
        "contract": "contracts/ForgeMaster.sol:ForgeMaster",
        "label": "flaggedRegistries",
        "offset": 0,
        "slot": "115",
        "type": "t_mapping(t_address,t_bool)"
      },
      {
        "astId": 4950,
        "contract": "contracts/ForgeMaster.sol:ForgeMaster",
        "label": "_flaggedTokens",
        "offset": 0,
        "slot": "116",
        "type": "t_mapping(t_address,t_mapping(t_uint256,t_bool))"
      },
      {
        "astId": 4952,
        "contract": "contracts/ForgeMaster.sol:ForgeMaster",
        "label": "_erc721SlimImplementation",
        "offset": 0,
        "slot": "117",
        "type": "t_address"
      },
      {
        "astId": 4956,
        "contract": "contracts/ForgeMaster.sol:ForgeMaster",
        "label": "__gap",
        "offset": 0,
        "slot": "118",
        "type": "t_array(t_uint256)49_storage"
      }
    ],
    "types": {
      "t_address": {
        "encoding": "inplace",
        "label": "address",
        "numberOfBytes": "20"
      },
      "t_array(t_bytes32)dyn_storage": {
        "base": "t_bytes32",
        "encoding": "dynamic_array",
        "label": "bytes32[]",
        "numberOfBytes": "32"
      },
      "t_array(t_uint256)49_storage": {
        "base": "t_uint256",
        "encoding": "inplace",
        "label": "uint256[49]",
        "numberOfBytes": "1568"
      },
      "t_array(t_uint256)50_storage": {
        "base": "t_uint256",
        "encoding": "inplace",
        "label": "uint256[50]",
        "numberOfBytes": "1600"
      },
      "t_bool": {
        "encoding": "inplace",
        "label": "bool",
        "numberOfBytes": "1"
      },
      "t_bytes32": {
        "encoding": "inplace",
        "label": "bytes32",
        "numberOfBytes": "32"
      },
      "t_mapping(t_address,t_bool)": {
        "encoding": "mapping",
        "key": "t_address",
        "label": "mapping(address => bool)",
        "numberOfBytes": "32",
        "value": "t_bool"
      },
      "t_mapping(t_address,t_bytes32)": {
        "encoding": "mapping",
        "key": "t_address",
        "label": "mapping(address => bytes32)",
        "numberOfBytes": "32",
        "value": "t_bytes32"
      },
      "t_mapping(t_address,t_mapping(t_uint256,t_bool))": {
        "encoding": "mapping",
        "key": "t_address",
        "label": "mapping(address => mapping(uint256 => bool))",
        "numberOfBytes": "32",
        "value": "t_mapping(t_uint256,t_bool)"
      },
      "t_mapping(t_address,t_uint256)": {
        "encoding": "mapping",
        "key": "t_address",
        "label": "mapping(address => uint256)",
        "numberOfBytes": "32",
        "value": "t_uint256"
      },
      "t_mapping(t_bytes32,t_address)": {
        "encoding": "mapping",
        "key": "t_bytes32",
        "label": "mapping(bytes32 => address)",
        "numberOfBytes": "32",
        "value": "t_address"
      },
      "t_mapping(t_bytes32,t_uint256)": {
        "encoding": "mapping",
        "key": "t_bytes32",
        "label": "mapping(bytes32 => uint256)",
        "numberOfBytes": "32",
        "value": "t_uint256"
      },
      "t_mapping(t_uint256,t_bool)": {
        "encoding": "mapping",
        "key": "t_uint256",
        "label": "mapping(uint256 => bool)",
        "numberOfBytes": "32",
        "value": "t_bool"
      },
      "t_struct(AddressSet)2993_storage": {
        "encoding": "inplace",
        "label": "struct EnumerableSetUpgradeable.AddressSet",
        "members": [
          {
            "astId": 2992,
            "contract": "contracts/ForgeMaster.sol:ForgeMaster",
            "label": "_inner",
            "offset": 0,
            "slot": "0",
            "type": "t_struct(Set)2692_storage"
          }
        ],
        "numberOfBytes": "64"
      },
      "t_struct(Set)2692_storage": {
        "encoding": "inplace",
        "label": "struct EnumerableSetUpgradeable.Set",
        "members": [
          {
            "astId": 2687,
            "contract": "contracts/ForgeMaster.sol:ForgeMaster",
            "label": "_values",
            "offset": 0,
            "slot": "0",
            "type": "t_array(t_bytes32)dyn_storage"
          },
          {
            "astId": 2691,
            "contract": "contracts/ForgeMaster.sol:ForgeMaster",
            "label": "_indexes",
            "offset": 0,
            "slot": "1",
            "type": "t_mapping(t_bytes32,t_uint256)"
          }
        ],
        "numberOfBytes": "64"
      },
      "t_uint256": {
        "encoding": "inplace",
        "label": "uint256",
        "numberOfBytes": "32"
      }
    }
  }
}