{
  "address": "0x3ee29caeFc678Ddc68EEDfaA1d7406C1b075EAe1",
  "abi": [
    {
      "inputs": [],
      "name": "AlreadyMinted",
      "type": "error"
    },
    {
      "inputs": [],
      "name": "AlreadySet",
      "type": "error"
    },
    {
      "inputs": [],
      "name": "OutOfJpegs",
      "type": "error"
    },
    {
      "inputs": [],
      "name": "UnknownToken",
      "type": "error"
    },
    {
      "anonymous": false,
      "inputs": [
        {
          "indexed": true,
          "internalType": "address",
          "name": "owner",
          "type": "address"
        },
        {
          "indexed": true,
          "internalType": "address",
          "name": "approved",
          "type": "address"
        },
        {
          "indexed": true,
          "internalType": "uint256",
          "name": "tokenId",
          "type": "uint256"
        }
      ],
      "name": "Approval",
      "type": "event"
    },
    {
      "anonymous": false,
      "inputs": [
        {
          "indexed": true,
          "internalType": "address",
          "name": "owner",
          "type": "address"
        },
        {
          "indexed": true,
          "internalType": "address",
          "name": "operator",
          "type": "address"
        },
        {
          "indexed": false,
          "internalType": "bool",
          "name": "approved",
          "type": "bool"
        }
      ],
      "name": "ApprovalForAll",
      "type": "event"
    },
    {
      "anonymous": false,
      "inputs": [
        {
          "indexed": false,
          "internalType": "address",
          "name": "module",
          "type": "address"
        }
      ],
      "name": "ModuleChanged",
      "type": "event"
    },
    {
      "anonymous": false,
      "inputs": [
        {
          "indexed": false,
          "internalType": "string",
          "name": "contractURI",
          "type": "string"
        }
      ],
      "name": "NewContractURI",
      "type": "event"
    },
    {
      "anonymous": false,
      "inputs": [
        {
          "indexed": true,
          "internalType": "address",
          "name": "previousOwner",
          "type": "address"
        },
        {
          "indexed": true,
          "internalType": "address",
          "name": "newOwner",
          "type": "address"
        }
      ],
      "name": "OwnershipTransferred",
      "type": "event"
    },
    {
      "anonymous": false,
      "inputs": [
        {
          "indexed": true,
          "internalType": "bytes32",
          "name": "role",
          "type": "bytes32"
        },
        {
          "indexed": true,
          "internalType": "address",
          "name": "user",
          "type": "address"
        }
      ],
      "name": "RoleGranted",
      "type": "event"
    },
    {
      "anonymous": false,
      "inputs": [
        {
          "indexed": true,
          "internalType": "bytes32",
          "name": "role",
          "type": "bytes32"
        },
        {
          "indexed": true,
          "internalType": "address",
          "name": "user",
          "type": "address"
        }
      ],
      "name": "RoleRevoked",
      "type": "event"
    },
    {
      "anonymous": false,
      "inputs": [
        {
          "indexed": true,
          "internalType": "address",
          "name": "from",
          "type": "address"
        },
        {
          "indexed": true,
          "internalType": "address",
          "name": "to",
          "type": "address"
        },
        {
          "indexed": true,
          "internalType": "uint256",
          "name": "tokenId",
          "type": "uint256"
        }
      ],
      "name": "Transfer",
      "type": "event"
    },
    {
      "inputs": [],
      "name": "DOMAIN_SEPARATOR",
      "outputs": [
        {
          "internalType": "bytes32",
          "name": "",
          "type": "bytes32"
        }
      ],
      "stateMutability": "view",
      "type": "function"
    },
    {
      "inputs": [],
      "name": "PERMIT_TYPEHASH",
      "outputs": [
        {
          "internalType": "bytes32",
          "name": "",
          "type": "bytes32"
        }
      ],
      "stateMutability": "view",
      "type": "function"
    },
    {
      "inputs": [],
      "name": "ROLE_EDITOR",
      "outputs": [
        {
          "internalType": "bytes32",
          "name": "",
          "type": "bytes32"
        }
      ],
      "stateMutability": "view",
      "type": "function"
    },
    {
      "inputs": [],
      "name": "ROLE_MINTER",
      "outputs": [
        {
          "internalType": "bytes32",
          "name": "",
          "type": "bytes32"
        }
      ],
      "stateMutability": "view",
      "type": "function"
    },
    {
      "inputs": [
        {
          "internalType": "address[]",
          "name": "users",
          "type": "address[]"
        }
      ],
      "name": "addEditors",
      "outputs": [],
      "stateMutability": "nonpayable",
      "type": "function"
    },
    {
      "inputs": [
        {
          "internalType": "enum INFModuleWithEvents.Events",
          "name": "eventType",
          "type": "uint8"
        }
      ],
      "name": "addEventListener",
      "outputs": [],
      "stateMutability": "nonpayable",
      "type": "function"
    },
    {
      "inputs": [
        {
          "internalType": "address[]",
          "name": "users",
          "type": "address[]"
        }
      ],
      "name": "addMinters",
      "outputs": [],
      "stateMutability": "nonpayable",
      "type": "function"
    },
    {
      "inputs": [
        {
          "internalType": "address",
          "name": "to",
          "type": "address"
        },
        {
          "internalType": "uint256",
          "name": "tokenId",
          "type": "uint256"
        }
      ],
      "name": "approve",
      "outputs": [],
      "stateMutability": "nonpayable",
      "type": "function"
    },
    {
      "inputs": [
        {
          "internalType": "address",
          "name": "module",
          "type": "address"
        },
        {
          "internalType": "bool",
          "name": "enabled",
          "type": "bool"
        },
        {
          "internalType": "bool",
          "name": "moduleCanMint",
          "type": "bool"
        }
      ],
      "name": "attachModule",
      "outputs": [],
      "stateMutability": "nonpayable",
      "type": "function"
    },
    {
      "inputs": [
        {
          "internalType": "address",
          "name": "owner",
          "type": "address"
        }
      ],
      "name": "balanceOf",
      "outputs": [
        {
          "internalType": "uint256",
          "name": "",
          "type": "uint256"
        }
      ],
      "stateMutability": "view",
      "type": "function"
    },
    {
      "inputs": [],
      "name": "baseMutableURI",
      "outputs": [
        {
          "internalType": "string",
          "name": "",
          "type": "string"
        }
      ],
      "stateMutability": "view",
      "type": "function"
    },
    {
      "inputs": [],
      "name": "baseURI",
      "outputs": [
        {
          "internalType": "string",
          "name": "",
          "type": "string"
        }
      ],
      "stateMutability": "view",
      "type": "function"
    },
    {
      "inputs": [
        {
          "internalType": "uint256",
          "name": "tokenId",
          "type": "uint256"
        }
      ],
      "name": "burn",
      "outputs": [],
      "stateMutability": "nonpayable",
      "type": "function"
    },
    {
      "inputs": [
        {
          "internalType": "address",
          "name": "account",
          "type": "address"
        }
      ],
      "name": "canEdit",
      "outputs": [
        {
          "internalType": "bool",
          "name": "",
          "type": "bool"
        }
      ],
      "stateMutability": "view",
      "type": "function"
    },
    {
      "inputs": [
        {
          "internalType": "address",
          "name": "user",
          "type": "address"
        }
      ],
      "name": "canMint",
      "outputs": [
        {
          "internalType": "bool",
          "name": "",
          "type": "bool"
        }
      ],
      "stateMutability": "view",
      "type": "function"
    },
    {
      "inputs": [],
      "name": "contractURI",
      "outputs": [
        {
          "internalType": "string",
          "name": "",
          "type": "string"
        }
      ],
      "stateMutability": "view",
      "type": "function"
    },
    {
      "inputs": [
        {
          "internalType": "address",
          "name": "module",
          "type": "address"
        },
        {
          "internalType": "bool",
          "name": "keepListeners",
          "type": "bool"
        }
      ],
      "name": "disableModule",
      "outputs": [],
      "stateMutability": "nonpayable",
      "type": "function"
    },
    {
      "inputs": [
        {
          "internalType": "address",
          "name": "module",
          "type": "address"
        },
        {
          "internalType": "bool",
          "name": "moduleCanMint",
          "type": "bool"
        }
      ],
      "name": "enableModule",
      "outputs": [],
      "stateMutability": "nonpayable",
      "type": "function"
    },
    {
      "inputs": [
        {
          "internalType": "uint256",
          "name": "tokenId",
          "type": "uint256"
        }
      ],
      "name": "getApproved",
      "outputs": [
        {
          "internalType": "address",
          "name": "",
          "type": "address"
        }
      ],
      "stateMutability": "view",
      "type": "function"
    },
    {
      "inputs": [
        {
          "internalType": "uint256",
          "name": "tokenId",
          "type": "uint256"
        }
      ],
      "name": "getFeeBps",
      "outputs": [
        {
          "internalType": "uint256[]",
          "name": "fees",
          "type": "uint256[]"
        }
      ],
      "stateMutability": "view",
      "type": "function"
    },
    {
      "inputs": [
        {
          "internalType": "uint256",
          "name": "tokenId",
          "type": "uint256"
        }
      ],
      "name": "getFeeRecipients",
      "outputs": [
        {
          "internalType": "address payable[]",
          "name": "recipients",
          "type": "address[]"
        }
      ],
      "stateMutability": "view",
      "type": "function"
    },
    {
      "inputs": [
        {
          "internalType": "uint256",
          "name": "tokenId",
          "type": "uint256"
        }
      ],
      "name": "getFees",
      "outputs": [
        {
          "internalType": "address payable[]",
          "name": "recipients",
          "type": "address[]"
        },
        {
          "internalType": "uint256[]",
          "name": "fees",
          "type": "uint256[]"
        }
      ],
      "stateMutability": "view",
      "type": "function"
    },
    {
      "inputs": [],
      "name": "hasPerTokenRoyalties",
      "outputs": [
        {
          "internalType": "bool",
          "name": "",
          "type": "bool"
        }
      ],
      "stateMutability": "view",
      "type": "function"
    },
    {
      "inputs": [
        {
          "internalType": "bytes32",
          "name": "role",
          "type": "bytes32"
        },
        {
          "internalType": "address",
          "name": "user",
          "type": "address"
        }
      ],
      "name": "hasRole",
      "outputs": [
        {
          "internalType": "bool",
          "name": "",
          "type": "bool"
        }
      ],
      "stateMutability": "view",
      "type": "function"
    },
    {
      "inputs": [
        {
          "internalType": "string",
          "name": "name_",
          "type": "string"
        },
        {
          "internalType": "string",
          "name": "symbol_",
          "type": "string"
        },
        {
          "internalType": "string",
          "name": "contractURI_",
          "type": "string"
        },
        {
          "internalType": "string",
          "name": "baseURI_",
          "type": "string"
        },
        {
          "internalType": "address",
          "name": "owner_",
          "type": "address"
        },
        {
          "components": [
            {
              "internalType": "address",
              "name": "module",
              "type": "address"
            },
            {
              "internalType": "bool",
              "name": "enabled",
              "type": "bool"
            },
            {
              "internalType": "bool",
              "name": "minter",
              "type": "bool"
            }
          ],
          "internalType": "struct INiftyForge721.ModuleInit[]",
          "name": "modulesInit_",
          "type": "tuple[]"
        },
        {
          "internalType": "address",
          "name": "contractRoyaltiesRecipient",
          "type": "address"
        },
        {
          "internalType": "uint256",
          "name": "contractRoyaltiesValue",
          "type": "uint256"
        }
      ],
      "name": "initialize",
      "outputs": [],
      "stateMutability": "nonpayable",
      "type": "function"
    },
    {
      "inputs": [
        {
          "internalType": "address",
          "name": "owner",
          "type": "address"
        },
        {
          "internalType": "address",
          "name": "operator",
          "type": "address"
        }
      ],
      "name": "isApprovedForAll",
      "outputs": [
        {
          "internalType": "bool",
          "name": "",
          "type": "bool"
        }
      ],
      "stateMutability": "view",
      "type": "function"
    },
    {
      "inputs": [
        {
          "internalType": "address",
          "name": "account",
          "type": "address"
        }
      ],
      "name": "isEditor",
      "outputs": [
        {
          "internalType": "bool",
          "name": "",
          "type": "bool"
        }
      ],
      "stateMutability": "view",
      "type": "function"
    },
    {
      "inputs": [
        {
          "internalType": "address",
          "name": "account",
          "type": "address"
        }
      ],
      "name": "isMinter",
      "outputs": [
        {
          "internalType": "bool",
          "name": "",
          "type": "bool"
        }
      ],
      "stateMutability": "view",
      "type": "function"
    },
    {
      "inputs": [],
      "name": "isMintingOpenToAll",
      "outputs": [
        {
          "internalType": "bool",
          "name": "",
          "type": "bool"
        }
      ],
      "stateMutability": "view",
      "type": "function"
    },
    {
      "inputs": [],
      "name": "listModules",
      "outputs": [
        {
          "internalType": "address[]",
          "name": "list",
          "type": "address[]"
        },
        {
          "internalType": "uint256[]",
          "name": "status",
          "type": "uint256[]"
        }
      ],
      "stateMutability": "view",
      "type": "function"
    },
    {
      "inputs": [
        {
          "internalType": "bytes32",
          "name": "role",
          "type": "bytes32"
        }
      ],
      "name": "listRole",
      "outputs": [
        {
          "internalType": "address[]",
          "name": "list",
          "type": "address[]"
        }
      ],
      "stateMutability": "view",
      "type": "function"
    },
    {
      "inputs": [
        {
          "internalType": "address",
          "name": "spender",
          "type": "address"
        },
        {
          "internalType": "uint256",
          "name": "tokenId",
          "type": "uint256"
        },
        {
          "internalType": "uint256",
          "name": "nonce_",
          "type": "uint256"
        },
        {
          "internalType": "uint256",
          "name": "deadline",
          "type": "uint256"
        }
      ],
      "name": "makePermitDigest",
      "outputs": [
        {
          "internalType": "bytes32",
          "name": "",
          "type": "bytes32"
        }
      ],
      "stateMutability": "view",
      "type": "function"
    },
    {
      "inputs": [],
      "name": "maxSupply",
      "outputs": [
        {
          "internalType": "uint256",
          "name": "",
          "type": "uint256"
        }
      ],
      "stateMutability": "view",
      "type": "function"
    },
    {
      "inputs": [
        {
          "internalType": "address",
          "name": "to",
          "type": "address"
        },
        {
          "internalType": "string",
          "name": "uri",
          "type": "string"
        },
        {
          "internalType": "address",
          "name": "feeRecipient",
          "type": "address"
        },
        {
          "internalType": "uint256",
          "name": "feeAmount",
          "type": "uint256"
        },
        {
          "internalType": "address",
          "name": "transferTo",
          "type": "address"
        }
      ],
      "name": "mint",
      "outputs": [
        {
          "internalType": "uint256",
          "name": "tokenId",
          "type": "uint256"
        }
      ],
      "stateMutability": "nonpayable",
      "type": "function"
    },
    {
      "inputs": [
        {
          "internalType": "address",
          "name": "to",
          "type": "address"
        }
      ],
      "name": "mint",
      "outputs": [
        {
          "internalType": "uint256",
          "name": "tokenId",
          "type": "uint256"
        }
      ],
      "stateMutability": "nonpayable",
      "type": "function"
    },
    {
      "inputs": [
        {
          "internalType": "address",
          "name": "to",
          "type": "address"
        },
        {
          "internalType": "address",
          "name": "transferTo",
          "type": "address"
        }
      ],
      "name": "mint",
      "outputs": [
        {
          "internalType": "uint256",
          "name": "tokenId",
          "type": "uint256"
        }
      ],
      "stateMutability": "nonpayable",
      "type": "function"
    },
    {
      "inputs": [
        {
          "internalType": "address",
          "name": "to",
          "type": "address"
        },
        {
          "internalType": "string",
          "name": "uri",
          "type": "string"
        },
        {
          "internalType": "uint256",
          "name": "tokenId",
          "type": "uint256"
        },
        {
          "internalType": "address",
          "name": "feeRecipient",
          "type": "address"
        },
        {
          "internalType": "uint256",
          "name": "feeAmount",
          "type": "uint256"
        },
        {
          "internalType": "address",
          "name": "transferTo",
          "type": "address"
        }
      ],
      "name": "mint",
      "outputs": [
        {
          "internalType": "uint256",
          "name": "",
          "type": "uint256"
        }
      ],
      "stateMutability": "nonpayable",
      "type": "function"
    },
    {
      "inputs": [
        {
          "internalType": "address[]",
          "name": "to",
          "type": "address[]"
        },
        {
          "internalType": "string[]",
          "name": "uris",
          "type": "string[]"
        },
        {
          "internalType": "address[]",
          "name": "feeRecipients",
          "type": "address[]"
        },
        {
          "internalType": "uint256[]",
          "name": "feeAmounts",
          "type": "uint256[]"
        }
      ],
      "name": "mintBatch",
      "outputs": [
        {
          "internalType": "uint256",
          "name": "startId",
          "type": "uint256"
        },
        {
          "internalType": "uint256",
          "name": "endId",
          "type": "uint256"
        }
      ],
      "stateMutability": "nonpayable",
      "type": "function"
    },
    {
      "inputs": [
        {
          "internalType": "address[]",
          "name": "to",
          "type": "address[]"
        },
        {
          "internalType": "string[]",
          "name": "uris",
          "type": "string[]"
        },
        {
          "internalType": "uint256[]",
          "name": "tokenIds",
          "type": "uint256[]"
        },
        {
          "internalType": "address[]",
          "name": "feeRecipients",
          "type": "address[]"
        },
        {
          "internalType": "uint256[]",
          "name": "feeAmounts",
          "type": "uint256[]"
        }
      ],
      "name": "mintBatch",
      "outputs": [],
      "stateMutability": "nonpayable",
      "type": "function"
    },
    {
      "inputs": [
        {
          "internalType": "address",
          "name": "",
          "type": "address"
        }
      ],
      "name": "modulesStatus",
      "outputs": [
        {
          "internalType": "enum INiftyForgeWithModules.ModuleStatus",
          "name": "",
          "type": "uint8"
        }
      ],
      "stateMutability": "view",
      "type": "function"
    },
    {
      "inputs": [
        {
          "internalType": "uint256",
          "name": "tokenId",
          "type": "uint256"
        }
      ],
      "name": "mutableURI",
      "outputs": [
        {
          "internalType": "string",
          "name": "uri",
          "type": "string"
        }
      ],
      "stateMutability": "view",
      "type": "function"
    },
    {
      "inputs": [],
      "name": "name",
      "outputs": [
        {
          "internalType": "string",
          "name": "",
          "type": "string"
        }
      ],
      "stateMutability": "view",
      "type": "function"
    },
    {
      "inputs": [
        {
          "internalType": "uint256",
          "name": "tokenId",
          "type": "uint256"
        }
      ],
      "name": "nonce",
      "outputs": [
        {
          "internalType": "uint256",
          "name": "",
          "type": "uint256"
        }
      ],
      "stateMutability": "view",
      "type": "function"
    },
    {
      "inputs": [
        {
          "internalType": "uint256",
          "name": "tokenId",
          "type": "uint256"
        }
      ],
      "name": "nonces",
      "outputs": [
        {
          "internalType": "uint256",
          "name": "",
          "type": "uint256"
        }
      ],
      "stateMutability": "view",
      "type": "function"
    },
    {
      "inputs": [],
      "name": "offsetId",
      "outputs": [
        {
          "internalType": "uint256",
          "name": "",
          "type": "uint256"
        }
      ],
      "stateMutability": "view",
      "type": "function"
    },
    {
      "inputs": [],
      "name": "owner",
      "outputs": [
        {
          "internalType": "address",
          "name": "",
          "type": "address"
        }
      ],
      "stateMutability": "view",
      "type": "function"
    },
    {
      "inputs": [
        {
          "internalType": "uint256",
          "name": "tokenId",
          "type": "uint256"
        }
      ],
      "name": "ownerOf",
      "outputs": [
        {
          "internalType": "address",
          "name": "",
          "type": "address"
        }
      ],
      "stateMutability": "view",
      "type": "function"
    },
    {
      "inputs": [
        {
          "internalType": "address",
          "name": "spender",
          "type": "address"
        },
        {
          "internalType": "uint256",
          "name": "tokenId",
          "type": "uint256"
        },
        {
          "internalType": "uint256",
          "name": "deadline",
          "type": "uint256"
        },
        {
          "internalType": "bytes",
          "name": "signature",
          "type": "bytes"
        }
      ],
      "name": "permit",
      "outputs": [],
      "stateMutability": "nonpayable",
      "type": "function"
    },
    {
      "inputs": [
        {
          "internalType": "address[]",
          "name": "users",
          "type": "address[]"
        }
      ],
      "name": "removeEditors",
      "outputs": [],
      "stateMutability": "nonpayable",
      "type": "function"
    },
    {
      "inputs": [
        {
          "internalType": "enum INFModuleWithEvents.Events",
          "name": "eventType",
          "type": "uint8"
        }
      ],
      "name": "removeEventListener",
      "outputs": [],
      "stateMutability": "nonpayable",
      "type": "function"
    },
    {
      "inputs": [
        {
          "internalType": "address[]",
          "name": "users",
          "type": "address[]"
        }
      ],
      "name": "removeMinters",
      "outputs": [],
      "stateMutability": "nonpayable",
      "type": "function"
    },
    {
      "inputs": [
        {
          "internalType": "uint256",
          "name": "tokenId",
          "type": "uint256"
        }
      ],
      "name": "renderTokenURI",
      "outputs": [
        {
          "internalType": "string",
          "name": "uri",
          "type": "string"
        }
      ],
      "stateMutability": "view",
      "type": "function"
    },
    {
      "inputs": [],
      "name": "renounceOwnership",
      "outputs": [],
      "stateMutability": "nonpayable",
      "type": "function"
    },
    {
      "inputs": [
        {
          "internalType": "uint256",
          "name": "tokenId",
          "type": "uint256"
        },
        {
          "internalType": "uint256",
          "name": "value",
          "type": "uint256"
        }
      ],
      "name": "royaltyInfo",
      "outputs": [
        {
          "internalType": "address",
          "name": "receiver",
          "type": "address"
        },
        {
          "internalType": "uint256",
          "name": "royaltyAmount",
          "type": "uint256"
        }
      ],
      "stateMutability": "view",
      "type": "function"
    },
    {
      "inputs": [
        {
          "internalType": "address",
          "name": "from",
          "type": "address"
        },
        {
          "internalType": "address",
          "name": "to",
          "type": "address"
        },
        {
          "internalType": "uint256",
          "name": "tokenId",
          "type": "uint256"
        }
      ],
      "name": "safeTransferFrom",
      "outputs": [],
      "stateMutability": "nonpayable",
      "type": "function"
    },
    {
      "inputs": [
        {
          "internalType": "address",
          "name": "from",
          "type": "address"
        },
        {
          "internalType": "address",
          "name": "to",
          "type": "address"
        },
        {
          "internalType": "uint256",
          "name": "tokenId",
          "type": "uint256"
        },
        {
          "internalType": "bytes",
          "name": "_data",
          "type": "bytes"
        }
      ],
      "name": "safeTransferFrom",
      "outputs": [],
      "stateMutability": "nonpayable",
      "type": "function"
    },
    {
      "inputs": [
        {
          "internalType": "address",
          "name": "from",
          "type": "address"
        },
        {
          "internalType": "address",
          "name": "to",
          "type": "address"
        },
        {
          "internalType": "uint256",
          "name": "tokenId",
          "type": "uint256"
        },
        {
          "internalType": "bytes",
          "name": "_data",
          "type": "bytes"
        },
        {
          "internalType": "uint256",
          "name": "deadline",
          "type": "uint256"
        },
        {
          "internalType": "bytes",
          "name": "signature",
          "type": "bytes"
        }
      ],
      "name": "safeTransferFromWithPermit",
      "outputs": [],
      "stateMutability": "nonpayable",
      "type": "function"
    },
    {
      "inputs": [
        {
          "internalType": "address",
          "name": "operator",
          "type": "address"
        },
        {
          "internalType": "bool",
          "name": "approved",
          "type": "bool"
        }
      ],
      "name": "setApprovalForAll",
      "outputs": [],
      "stateMutability": "nonpayable",
      "type": "function"
    },
    {
      "inputs": [
        {
          "internalType": "string",
          "name": "baseMutableURI_",
          "type": "string"
        }
      ],
      "name": "setBaseMutableURI",
      "outputs": [],
      "stateMutability": "nonpayable",
      "type": "function"
    },
    {
      "inputs": [
        {
          "internalType": "string",
          "name": "baseURI_",
          "type": "string"
        }
      ],
      "name": "setBaseURI",
      "outputs": [],
      "stateMutability": "nonpayable",
      "type": "function"
    },
    {
      "inputs": [
        {
          "internalType": "string",
          "name": "contractURI_",
          "type": "string"
        }
      ],
      "name": "setContractURI",
      "outputs": [],
      "stateMutability": "nonpayable",
      "type": "function"
    },
    {
      "inputs": [
        {
          "internalType": "address",
          "name": "recipient",
          "type": "address"
        }
      ],
      "name": "setDefaultRoyaltiesRecipient",
      "outputs": [],
      "stateMutability": "nonpayable",
      "type": "function"
    },
    {
      "inputs": [
        {
          "internalType": "uint256",
          "name": "maxSupply_",
          "type": "uint256"
        }
      ],
      "name": "setMaxSupply",
      "outputs": [],
      "stateMutability": "nonpayable",
      "type": "function"
    },
    {
      "inputs": [
        {
          "internalType": "bool",
          "name": "isOpen",
          "type": "bool"
        }
      ],
      "name": "setMintingOpenToAll",
      "outputs": [],
      "stateMutability": "nonpayable",
      "type": "function"
    },
    {
      "inputs": [
        {
          "internalType": "uint256",
          "name": "tokenId",
          "type": "uint256"
        },
        {
          "internalType": "string",
          "name": "mutableURI_",
          "type": "string"
        }
      ],
      "name": "setMutableURI",
      "outputs": [],
      "stateMutability": "nonpayable",
      "type": "function"
    },
    {
      "inputs": [
        {
          "internalType": "uint256",
          "name": "tokenId",
          "type": "uint256"
        },
        {
          "internalType": "address",
          "name": "recipient",
          "type": "address"
        }
      ],
      "name": "setTokenRoyaltiesRecipient",
      "outputs": [],
      "stateMutability": "nonpayable",
      "type": "function"
    },
    {
      "inputs": [],
      "name": "startAtZero",
      "outputs": [],
      "stateMutability": "nonpayable",
      "type": "function"
    },
    {
      "inputs": [
        {
          "internalType": "bytes4",
          "name": "interfaceId",
          "type": "bytes4"
        }
      ],
      "name": "supportsInterface",
      "outputs": [
        {
          "internalType": "bool",
          "name": "",
          "type": "bool"
        }
      ],
      "stateMutability": "view",
      "type": "function"
    },
    {
      "inputs": [],
      "name": "symbol",
      "outputs": [
        {
          "internalType": "string",
          "name": "",
          "type": "string"
        }
      ],
      "stateMutability": "view",
      "type": "function"
    },
    {
      "inputs": [
        {
          "internalType": "uint256",
          "name": "",
          "type": "uint256"
        }
      ],
      "name": "tokenIdToModule",
      "outputs": [
        {
          "internalType": "address",
          "name": "",
          "type": "address"
        }
      ],
      "stateMutability": "view",
      "type": "function"
    },
    {
      "inputs": [
        {
          "internalType": "uint256",
          "name": "tokenId",
          "type": "uint256"
        }
      ],
      "name": "tokenURI",
      "outputs": [
        {
          "internalType": "string",
          "name": "uri",
          "type": "string"
        }
      ],
      "stateMutability": "view",
      "type": "function"
    },
    {
      "inputs": [],
      "name": "totalSupply",
      "outputs": [
        {
          "internalType": "uint256",
          "name": "",
          "type": "uint256"
        }
      ],
      "stateMutability": "view",
      "type": "function"
    },
    {
      "inputs": [
        {
          "internalType": "address",
          "name": "from",
          "type": "address"
        },
        {
          "internalType": "address",
          "name": "to",
          "type": "address"
        },
        {
          "internalType": "uint256",
          "name": "tokenId",
          "type": "uint256"
        }
      ],
      "name": "transferFrom",
      "outputs": [],
      "stateMutability": "nonpayable",
      "type": "function"
    },
    {
      "inputs": [
        {
          "internalType": "address",
          "name": "newOwner",
          "type": "address"
        }
      ],
      "name": "transferOwnership",
      "outputs": [],
      "stateMutability": "nonpayable",
      "type": "function"
    },
    {
      "inputs": [],
      "name": "version",
      "outputs": [
        {
          "internalType": "bytes3",
          "name": "",
          "type": "bytes3"
        }
      ],
      "stateMutability": "view",
      "type": "function"
    },
    {
      "inputs": [
        {
          "internalType": "address",
          "name": "token",
          "type": "address"
        },
        {
          "internalType": "uint256",
          "name": "amount",
          "type": "uint256"
        },
        {
          "internalType": "uint256",
          "name": "tokenId",
          "type": "uint256"
        }
      ],
      "name": "withdraw",
      "outputs": [],
      "stateMutability": "nonpayable",
      "type": "function"
    }
  ],
  "transactionHash": "0x9586ce6f8cc0f3e9929a5a0dfc87ce005f51b6b0c01b933d5e5c5f2300288c7b",
  "args": [],
  "solcInputHash": "b2a9555ed8e97279d3715bf9bce5a3d4",
  "bytecode": "0x608060405234801561001057600080fd5b50615f4580620000216000396000f3fe608060405234801561001057600080fd5b50600436106104545760003560e01c8063745a41bc11610241578063c4ee7f4d1161013b578063e985e9c5116100c3578063f2e3561e11610087578063f2e3561e14610a19578063f2fde38b14610a2c578063f372854714610a3f578063f4ed532d14610a52578063f7d0ee6a14610a6057600080fd5b8063e985e9c5146109c3578063ee1fe2ad146109d6578063eeeea2ed146109e9578063f1386cb8146109fc578063f270257c14610a0657600080fd5b8063d5a06d4c1161010a578063d5a06d4c14610978578063d5abeb011461098b578063df1b2d4c14610995578063e2ba6aa7146109a8578063e8a3d485146109bb57600080fd5b8063c4ee7f4d14610937578063c87b56dd1461093f578063ce03fdab14610952578063cf7d220b1461096557600080fd5b8063938e3d7b116101c9578063aa271e1a1161018d578063aa271e1a146108cb578063b5c5f672146108de578063b88d4fde146108f1578063b9c4d9fb14610904578063c2ba47441461092457600080fd5b8063938e3d7b1461086357806395d89b41146108765780639c557adc1461087e578063a0748154146108a5578063a22cb465146108b857600080fd5b8063800428511161021057806380042851146107e7578063850eadd7146107fa5780638da5cb5b1461082a57806391d148541461083b57806392afc33a1461084e57600080fd5b8063745a41bc146107a65780637477b22a146107b95780637df1bc08146107c15780637ecc4724146107d457600080fd5b80633644e515116103525780636352211e116102da5780636f8b44b01161029e5780636f8b44b01461075257806370a0823114610765578063715018a61461077857806371e2a65714610780578063734afad11461079357600080fd5b80636352211e146106e7578063662f0332146106fa5780636a627842146107245780636c0360eb146107375780636ead3f081461073f57600080fd5b806354fd4d501161032157806354fd4d501461068957806355f804b31461069b5780635c8f97de146106ae5780635fc1964f146106c157806361e5355d146106d457600080fd5b80633644e5151461064557806342842e0e1461064d57806342966c68146106605780634cfa64871461067357600080fd5b806318160ddd116103e057806324f72a13116103a457806324f72a131461059e5780632a55205a146105b157806330adf81f146105e357806335cd2ab81461060a578063361754911461063257600080fd5b806318160ddd1461054a5780631f22d2fe14610552578063224e62f01461056557806323b872dd1461057857806324744d541461058b57600080fd5b8063095ea7b311610427578063095ea7b3146104d65780630a9b2453146104e95780630ebd4c7f146104fc578063141a468c1461051c578063163c1f191461053d57600080fd5b806301ffc9a714610459578063049f58e41461048157806306fdde0314610496578063081812fc146104ab575b600080fd5b61046c610467366004614e02565b610a73565b60405190151581526020015b60405180910390f35b61049461048f366004614f0a565b610b0a565b005b61049e610b46565b6040516104789190614f96565b6104be6104b9366004614fa9565b610bd8565b6040516001600160a01b039091168152602001610478565b6104946104e4366004614fe7565b610c60565b61046c6104f7366004615013565b610d76565b61050f61050a366004614fa9565b610db3565b604051610478919061506b565b61052f61052a366004614fa9565b610e10565b604051908152602001610478565b6101375460ff161561046c565b61052f610e1b565b61049e610560366004614fa9565b610e34565b61049e610573366004614fa9565b610f00565b61049461058636600461507e565b610fd4565b6104946105993660046150bf565b611006565b6104946105ac366004615159565b611026565b6105c46105bf366004615189565b6110fd565b604080516001600160a01b039093168352602083019190915201610478565b61052f7f49ecf333e5b8c95c40fdafc95c1ad136e8914a8fb55e9dc8bb01eaa83a2df9ad81565b61061d610618366004615317565b611135565b60408051928352602083019190915201610478565b61052f6106403660046153c3565b6112fd565b61052f6113b5565b61049461065b36600461507e565b6113dd565b61049461066e366004614fa9565b6113f8565b61067b611472565b604051610478929190615437565b604051600160e81b8152602001610478565b6104946106a9366004614f0a565b6115d6565b6104946106bc366004615013565b611610565b6104946106cf366004615465565b6116a1565b61052f6106e2366004615499565b611717565b6104be6106f5366004614fa9565b61178d565b6104be610708366004614fa9565b610147602052600090815260409020546001600160a01b031681565b61052f610732366004615013565b611804565b61049e611887565b61049461074d3660046155d6565b611916565b610494610760366004614fa9565b611ab8565b61052f610773366004615013565b611b07565b610494611b8e565b61049461078e366004615465565b611bc4565b6104946107a13660046156d2565b611c3a565b6104946107b43660046156f3565b611cd6565b61049e611dfb565b6104946107cf366004615749565b611e09565b6104946107e2366004615766565b611e44565b6104946107f5366004615465565b611e74565b61081d610808366004615013565b60086020526000908152604090205460ff1681565b60405161047891906157c8565b603c546001600160a01b03166104be565b61046c610849366004615159565b611ee1565b61052f600080516020615ef083398151915281565b610494610871366004614f0a565b611f01565b61049e611f3b565b61052f7f8c93699475be54d1d73bbbabee1213ba5867c90fcebb8234a4274f68c8da497781565b61046c6108b3366004615013565b611f4a565b6104946108c6366004615766565b611f76565b61046c6108d9366004615013565b61203b565b6104946108ec3660046157db565b612055565b6104946108ff366004615810565b6123ed565b610917610912366004614fa9565b61241f565b6040516104789190615863565b61046c610932366004615013565b612494565b6104946124b2565b61049e61094d366004614fa9565b612503565b61052f610960366004614fa9565b6125dd565b610494610973366004615876565b612618565b61067b610986366004614fa9565b6127cf565b61052f6101465481565b6104946109a3366004615465565b61287c565b6104946109b6366004615947565b6128e9565b61049e612942565b61046c6109d1366004615992565b612950565b61052f6109e4366004615992565b61297e565b6104946109f73660046159c0565b612a01565b61052f6101445481565b610494610a14366004615766565b612a56565b61052f610a27366004615a06565b612aa5565b610494610a3a366004615013565b612b44565b610494610a4d3660046156d2565b612bdc565b6101455461046c9060ff1681565b610917610a6e366004614fa9565b612c78565b60006001600160e01b03198216630224e62f60e41b1480610aa457506001600160e01b0319821663152a902d60e11b145b80610abf57506001600160e01b03198216632dde656160e21b145b80610ada57506001600160e01b031982166335681b5360e21b145b80610af557506001600160e01b03198216635604e22560e01b145b80610b045750610b0482612d3a565b92915050565b33610b1481610d76565b610b395760405162461bcd60e51b8152600401610b3090615a8e565b60405180910390fd5b610b4282612d8a565b5050565b606060a08054610b5590615ab4565b80601f0160208091040260200160405190810160405280929190818152602001828054610b8190615ab4565b8015610bce5780601f10610ba357610100808354040283529160200191610bce565b820191906000526020600020905b815481529060010190602001808311610bb157829003601f168201915b5050505050905090565b6000610be382612d9e565b610c445760405162461bcd60e51b815260206004820152602c60248201527f4552433732313a20617070726f76656420717565727920666f72206e6f6e657860448201526b34b9ba32b73a103a37b5b2b760a11b6064820152608401610b30565b50600090815260a460205260409020546001600160a01b031690565b6000610c6b8261178d565b9050806001600160a01b0316836001600160a01b03161415610cd95760405162461bcd60e51b815260206004820152602160248201527f4552433732313a20617070726f76616c20746f2063757272656e74206f776e656044820152603960f91b6064820152608401610b30565b336001600160a01b0382161480610cf55750610cf58133612950565b610d675760405162461bcd60e51b815260206004820152603860248201527f4552433732313a20617070726f76652063616c6c6572206973206e6f74206f7760448201527f6e6572206e6f7220617070726f76656420666f7220616c6c00000000000000006064820152608401610b30565b610d718383612dbb565b505050565b6000610d8182611f4a565b80610b045750816001600160a01b0316610da3603c546001600160a01b031690565b6001600160a01b03161492915050565b60606000610dc083612e29565b9150508015610e0a5760408051600180825281830190925290602080830190803683370190505091508082600081518110610dfd57610dfd615ae9565b6020026020010181815250505b50919050565b6000610b04826125dd565b60006101425461014154610e2f9190615b15565b905090565b6060610e3f82612d9e565b610e5c57604051638698bf3760e01b815260040160405180910390fd5b600080610e7084633d855c6160e21b612ee7565b915091508115610ef957604051630f91697f60e11b8152600481018590526001600160a01b03821690631f22d2fe9060240160006040518083038186803b158015610eba57600080fd5b505afa158015610ece573d6000803e3d6000fd5b505050506040513d6000823e601f3d908101601f19168201604052610ef69190810190615b2c565b92505b5050919050565b6060610f0b82612d9e565b610f2857604051638698bf3760e01b815260040160405180910390fd5b600080610f3c84631e4eed6360e31b612ee7565b915091508115610fc557604051630224e62f60e41b8152600481018590526001600160a01b0382169063224e62f09060240160006040518083038186803b158015610f8657600080fd5b505afa158015610f9a573d6000803e3d6000fd5b505050506040513d6000823e601f3d908101601f19168201604052610fc29190810190615b2c565b92505b8251610ef957610ef684612f94565b610fdf335b826130ea565b610ffb5760405162461bcd60e51b8152600401610b3090615b99565b610d718383836131ac565b61101233858484611cd6565b61101e868686866123ed565b505050505050565b6101375460ff161561107a5760405162461bcd60e51b815260206004820152601960248201527f21434f4e54524143545f574944455f524f59414c5449455321000000000000006044820152606401610b30565b600061108583612e29565b509050336001600160a01b038216146110d05760405162461bcd60e51b815260206004820152600d60248201526c214e4f545f414c4c4f5745442160981b6044820152606401610b30565b60008381526101396020526040902080546001600160a01b0319166001600160a01b038416179055505050565b60008061110984612e29565b9092509050801561112e576127106111218285615bea565b61112b9190615c1f565b90505b9250929050565b6000803361114281612494565b61115e5760405162461bcd60e51b8152600401610b3090615c33565b85518751148015611170575084518751145b801561117d575083518751145b6111bd5760405162461bcd60e51b8152602060048201526011602482015270214c454e4754485f4d49534d415443482160781b6044820152606401610b30565b61014454610143548851826111d3836001615c59565b6111dd9190615b15565b955060016111eb8288615c59565b6111f59190615b15565b945061121881610141600082825461120d9190615c59565b9250508190556131e4565b600060013360009081526008602052604090205460ff16600281111561124057611240615794565b14905060005b828110156112dd576112cb8c828151811061126357611263615ae9565b60200260200101518c838151811061127d5761127d615ae9565b6020026020010151838b6112919190615c59565b8d85815181106112a3576112a3615ae9565b60200260200101518d86815181106112bd576112bd615ae9565b602002602001015187613214565b806112d581615c71565b915050611246565b506112e88284615c59565b61014381905550505050505094509492505050565b60006113aa61130a6113b5565b604080517f49ecf333e5b8c95c40fdafc95c1ad136e8914a8fb55e9dc8bb01eaa83a2df9ad6020808301919091526001600160a01b038a1682840152606082018990526080820188905260a08083018890528351808403909101815260c08301845280519082012061190160f01b60e084015260e28301949094526101028083019490945282518083039094018452610122909101909152815191012090565b90505b949350505050565b61013b54600090469081146113d2576113cd8161327d565b6113d7565b61013a545b91505090565b610d71838383604051806020016040528060008152506123ed565b61140133610fd9565b6114665760405162461bcd60e51b815260206004820152603060248201527f4552433732314275726e61626c653a2063616c6c6572206973206e6f74206f7760448201526f1b995c881b9bdc88185c1c1c9bdd995960821b6064820152608401610b30565b61146f81613329565b50565b60608060006114816006613363565b9050806001600160401b0381111561149b5761149b614e1f565b6040519080825280602002602001820160405280156114c4578160200160208202803683370190505b509250806001600160401b038111156114df576114df614e1f565b604051908082528060200260200182016040528015611508578160200160208202803683370190505b50915060005b818110156115d05761152160068261336d565b84828151811061153357611533615ae9565b60200260200101906001600160a01b031690816001600160a01b0316815250506008600085838151811061156957611569615ae9565b6020908102919091018101516001600160a01b031682528101919091526040016000205460ff1660028111156115a1576115a1615794565b8382815181106115b3576115b3615ae9565b6020908102919091010152806115c881615c71565b91505061150e565b50509091565b336115e081610d76565b6115fc5760405162461bcd60e51b8152600401610b3090615a8e565b8151610d719061013f906020850190614d1d565b3361161a81610d76565b6116365760405162461bcd60e51b8152600401610b3090615a8e565b6101375460ff166116815760405162461bcd60e51b8152602060048201526015602482015274215045525f544f4b454e5f524f59414c544945532160581b6044820152606401610b30565b61013880546001600160a01b0319166001600160a01b0384161790555050565b336116ab81610d76565b6116c75760405162461bcd60e51b8152600401610b3090615a8e565b60005b8251811015610d7157611704600080516020615ef08339815191528483815181106116f7576116f7615ae9565b6020026020010151613379565b508061170f81615c71565b9150506116ca565b60003361172381612494565b61173f5760405162461bcd60e51b8152600401610b3090615c33565b6101445461014354611752906001615c59565b61175c9190615b15565b915061176c878784888888612aa5565b50610143805490600061177e83615c71565b91905055505095945050505050565b600081815260a260205260408120546001600160a01b031680610b045760405162461bcd60e51b815260206004820152602960248201527f4552433732313a206f776e657220717565727920666f72206e6f6e657869737460448201526832b73a103a37b5b2b760b91b6064820152608401610b30565b60003361181081612494565b61182c5760405162461bcd60e51b8152600401610b3090615c33565b610144546101435461183f906001615c59565b6118499190615b15565b915061186a8360405180602001604052806000815250846000806000612aa5565b50610143805490600061187c83615c71565b919050555050919050565b61013f805461189590615ab4565b80601f01602080910402602001604051908101604052809291908181526020018280546118c190615ab4565b801561190e5780601f106118e35761010080835404028352916020019161190e565b820191906000526020600020905b8154815290600101906020018083116118f157829003601f168201915b505050505081565b600954610100900460ff168061192f575060095460ff16155b61194b5760405162461bcd60e51b8152600401610b3090615c8c565b600954610100900460ff1615801561196d576009805461ffff19166101011790555b61197b8989898960006133de565b60005b8451811015611a5d576119cb85828151811061199c5761199c615ae9565b6020026020010151600001518683815181106119ba576119ba615ae9565b602002602001015160200151613451565b8481815181106119dd576119dd615ae9565b6020026020010151602001518015611a0f5750848181518110611a0257611a02615ae9565b6020026020010151604001515b15611a4b57611a49600080516020615ef0833981519152868381518110611a3857611a38615ae9565b602002602001015160000151613597565b505b80611a5581615c71565b91505061197e565b506001600160a01b038316151580611a7457508115155b15611a8357611a8383836135f3565b6001600160a01b03851615611a9b57611a9b85612b44565b8015611aad576009805461ff00191690555b505050505050505050565b33611ac281610d76565b611ade5760405162461bcd60e51b8152600401610b3090615a8e565b6101465415611b005760405163a741a04560e01b815260040160405180910390fd5b5061014655565b60006001600160a01b038216611b725760405162461bcd60e51b815260206004820152602a60248201527f4552433732313a2062616c616e636520717565727920666f7220746865207a65604482015269726f206164647265737360b01b6064820152608401610b30565b506001600160a01b0316600090815260a3602052604090205490565b603c546001600160a01b03163314611bb85760405162461bcd60e51b8152600401610b3090615cda565b611bc260006136f0565b565b33611bce81610d76565b611bea5760405162461bcd60e51b8152600401610b3090615a8e565b60005b8251811015610d7157611c27600080516020615ef0833981519152848381518110611c1a57611c1a615ae9565b6020026020010151613597565b5080611c3281615c71565b915050611bed565b60013360009081526008602052604090205460ff166002811115611c6057611c60615794565b14611ca45760405162461bcd60e51b8152602060048201526014602482015273214d4f44554c455f4e4f545f454e41424c45442160601b6044820152606401610b30565b610b42336000836002811115611cbc57611cbc615794565b60038110611ccc57611ccc615ae9565b6002020190613742565b42821015611d265760405162461bcd60e51b815260206004820152601960248201527f215045524d49545f444541444c494e455f4558504952454421000000000000006044820152606401610b30565b6000611d318461178d565b90506000611d55868661013c600089815260200190815260200160002054876112fd565b90506000611d638285613757565b509050826001600160a01b0316816001600160a01b03161480611d8b5750611d8b8382612950565b80611d9c5750611d9c8383866137c4565b611de85760405162461bcd60e51b815260206004820152601a60248201527f21494e56414c49445f5045524d49545f5349474e4154555245210000000000006044820152606401610b30565b611df28787612dbb565b50505050505050565b61013d805461189590615ab4565b33611e1381610d76565b611e2f5760405162461bcd60e51b8152600401610b3090615a8e565b50610145805460ff1916911515919091179055565b33611e4e81610d76565b611e6a5760405162461bcd60e51b8152600401610b3090615a8e565b610d718383613910565b603c546001600160a01b03163314611e9e5760405162461bcd60e51b8152600401610b3090615cda565b60005b8151811015610b4257611ece600080516020615ef0833981519152838381518110611c1a57611c1a615ae9565b5080611ed981615c71565b915050611ea1565b600082815261013660205260408120611efa9083613933565b9392505050565b33611f0b81610d76565b611f275760405162461bcd60e51b8152600401610b3090615a8e565b8151610d7190610140906020850190614d1d565b606060a18054610b5590615ab4565b6000610b047f8c93699475be54d1d73bbbabee1213ba5867c90fcebb8234a4274f68c8da497783611ee1565b6001600160a01b038216331415611fcf5760405162461bcd60e51b815260206004820152601960248201527f4552433732313a20617070726f766520746f2063616c6c6572000000000000006044820152606401610b30565b33600081815260a5602090815260408083206001600160a01b03871680855290835292819020805460ff191686151590811790915590519081529192917f17307eab39ab6107e8899845ad3d59bd9653f200f220920489ca2b5937696c31910160405180910390a35050565b6000610b04600080516020615ef083398151915283611ee1565b603c546001600160a01b0316331461207f5760405162461bcd60e51b8152600401610b3090615cda565b6001600160a01b0383166121685781158061209a5750814710155b6120d65760405162461bcd60e51b815260206004820152600d60248201526c2157524f4e475f56414c55452160981b6044820152606401610b30565b604051600090339084908381818185875af1925050503d8060008114612118576040519150601f19603f3d011682016040523d82523d6000602084013e61211d565b606091505b50509050806121625760405162461bcd60e51b8152602060048201526011602482015270215452414e534645525f4641494c45442160781b6044820152606401610b30565b50505050565b6040516301ffc9a760e01b8152636cdb3d1360e11b60048201526001600160a01b038416906301ffc9a79060240160206040518083038186803b1580156121ae57600080fd5b505afa1580156121c2573d6000803e3d6000fd5b505050506040513d601f19601f820116820180604052508101906121e69190615d0f565b1561226357604051637921219560e11b8152306004820152336024820152604481018290526064810183905260a06084820152600060a48201526001600160a01b0384169063f242432a9060c4015b600060405180830381600087803b15801561224f57600080fd5b505af1158015611df2573d6000803e3d6000fd5b6040516301ffc9a760e01b81526380ac58cd60e01b60048201526001600160a01b038416906301ffc9a79060240160206040518083038186803b1580156122a957600080fd5b505afa1580156122bd573d6000803e3d6000fd5b505050506040513d601f19601f820116820180604052508101906122e19190615d0f565b1561232d57604051635c46a7ef60e11b81523060048201523360248201526044810182905260806064820152600060848201526001600160a01b0384169063b88d4fde9060a401612235565b60405163a9059cbb60e01b8152336004820152602481018390526001600160a01b0384169063a9059cbb90604401602060405180830381600087803b15801561237557600080fd5b505af1158015612389573d6000803e3d6000fd5b505050506040513d601f19601f820116820180604052508101906123ad9190615d0f565b610d715760405162461bcd60e51b8152602060048201526011602482015270215452414e534645525f4641494c45442160781b6044820152606401610b30565b6123f733836130ea565b6124135760405162461bcd60e51b8152600401610b3090615b99565b61216284848484613955565b606060008061242d84612e29565b9150915080600014610ef9576040805160018082528183019092529060208083019080368337019050509250818360008151811061246d5761246d615ae9565b60200260200101906001600160a01b031690816001600160a01b0316815250505050919050565b600061249f82613988565b80610b0457506101455460ff1692915050565b336124bc81610d76565b6124d85760405162461bcd60e51b8152600401610b3090615a8e565b61014154156124fa57604051631bbdf5c560e31b815260040160405180910390fd5b50600161014455565b606061250e82612d9e565b61252b57604051638698bf3760e01b815260040160405180910390fd5b60008061253f8463e9dc637560e01b612ee7565b9150915081156125ce5760405163e9dc637560e01b8152306004820152602481018590526001600160a01b0382169063e9dc63759060440160006040518083038186803b15801561258f57600080fd5b505afa1580156125a3573d6000803e3d6000fd5b505050506040513d6000823e601f3d908101601f191682016040526125cb9190810190615b2c565b92505b8251610ef957610ef6846139a2565b60006125e882612d9e565b6126045760405162461bcd60e51b8152600401610b3090615d2c565b50600090815261013c602052604090205490565b3361262281612494565b61263e5760405162461bcd60e51b8152600401610b3090615c33565b85518551811480156126505750845181145b801561265c5750835181145b80156126685750825181145b6126a85760405162461bcd60e51b8152602060048201526011602482015270214c454e4754485f4d49534d415443482160781b6044820152606401610b30565b60006126c082610141600082825461120d9190615c59565b600060013360009081526008602052604090205460ff1660028111156126e8576126e8615794565b14905060005b838110156127c3578288828151811061270957612709615ae9565b602002602001015111156127345787818151811061272957612729615ae9565b602002602001015192505b6127b18a828151811061274957612749615ae9565b60200260200101518a838151811061276357612763615ae9565b60200260200101518a848151811061277d5761277d615ae9565b60200260200101518a858151811061279757612797615ae9565b60200260200101518a86815181106112bd576112bd615ae9565b806127bb81615c71565b9150506126ee565b50505050505050505050565b6060806000806127de85612e29565b9150915080600014612875576040805160018082528183019092529060208083019080368337019050509350818460008151811061281e5761281e615ae9565b6001600160a01b0392909216602092830291909101820152604080516001808252818301909252918281019080368337019050509250808360008151811061286857612868615ae9565b6020026020010181815250505b5050915091565b603c546001600160a01b031633146128a65760405162461bcd60e51b8152600401610b3090615cda565b60005b8151811015610b42576128d6600080516020615ef08339815191528383815181106116f7576116f7615ae9565b50806128e181615c71565b9150506128a9565b336128f381610d76565b61290f5760405162461bcd60e51b8152600401610b3090615a8e565b8180156129195750825b1561293857612936600080516020615ef083398151915285613597565b505b6121628484613451565b610140805461189590615ab4565b6001600160a01b03918216600090815260a56020908152604080832093909416825291909152205460ff1690565b60003361298a81612494565b6129a65760405162461bcd60e51b8152600401610b3090615c33565b61014454610143546129b9906001615c59565b6129c39190615b15565b91506129e384604051806020016040528060008152508460008088612aa5565b5061014380549060006129f583615c71565b91905055505092915050565b33612a0b81610d76565b612a275760405162461bcd60e51b8152600401610b3090615a8e565b612a3083612d9e565b612a4c5760405162461bcd60e51b8152600401610b3090615d2c565b610d7183836139ad565b33612a6081610d76565b612a7c5760405162461bcd60e51b8152600401610b3090615a8e565b8115612a9c57612a9a600080516020615ef083398151915284613597565b505b610d7183613a0d565b600033612ab181612494565b612acd5760405162461bcd60e51b8152600401610b3090615c33565b612aea61014160008154612ae090615c71565b91829055506131e4565b612b1e888888888860013360009081526008602052604090205460ff166002811115612b1857612b18615794565b14613214565b6001600160a01b03831615612b3857612b388884886131ac565b50939695505050505050565b603c546001600160a01b03163314612b6e5760405162461bcd60e51b8152600401610b3090615cda565b6001600160a01b038116612bd35760405162461bcd60e51b815260206004820152602660248201527f4f776e61626c653a206e6577206f776e657220697320746865207a65726f206160448201526564647265737360d01b6064820152608401610b30565b61146f816136f0565b60013360009081526008602052604090205460ff166002811115612c0257612c02615794565b14612c465760405162461bcd60e51b8152602060048201526014602482015273214d4f44554c455f4e4f545f454e41424c45442160601b6044820152606401610b30565b610b42336000836002811115612c5e57612c5e615794565b60038110612c6e57612c6e615ae9565b6002020190613b89565b60008181526101366020526040812060609190612c9490613363565b9050806001600160401b03811115612cae57612cae614e1f565b604051908082528060200260200182016040528015612cd7578160200160208202803683370190505b50915060005b81811015610ef957600084815261013660205260409020612cfe908261336d565b838281518110612d1057612d10615ae9565b6001600160a01b039092166020928302919091019091015280612d3281615c71565b915050612cdd565b60006001600160e01b031982166380ac58cd60e01b1480612d6b57506001600160e01b03198216635b5e139f60e01b145b80610b0457506301ffc9a760e01b6001600160e01b0319831614610b04565b8051610b429061013d906020840190614d1d565b600090815260a260205260409020546001600160a01b0316151590565b600081815260a46020526040902080546001600160a01b0319166001600160a01b0384169081179091558190612df08261178d565b6001600160a01b03167f8c5be1e5ebec7d5bd14f71427d1e84f3dd0314c0f7b2291e5b200ac8c7c3b92560405160405180910390a45050565b600080612e3583613b9e565b909250905080612ee257600080612e5385632782d6c760e01b612ee7565b91509150811561287557604051632782d6c760e01b8152306004820152602481018690526001600160a01b03821690632782d6c790604401604080518083038186803b158015612ea257600080fd5b505afa158015612eb6573d6000803e3d6000fd5b505050506040513d601f19601f82011682018060405250810190612eda9190615d55565b909450925050505b915091565b600082815261014760205260408120546001600160a01b03168015801590612f8b57506040516301ffc9a760e01b81526001600160e01b0319841660048201526001600160a01b038216906301ffc9a79060240160206040518083038186803b158015612f5357600080fd5b505afa158015612f67573d6000803e3d6000fd5b505050506040513d601f19601f82011682018060405250810190612f8b9190615d0f565b91509250929050565b6060612f9f82612d9e565b612fbb5760405162461bcd60e51b8152600401610b3090615d2c565b600082815261013e602052604081208054612fd590615ab4565b80601f016020809104026020016040519081016040528092919081815260200182805461300190615ab4565b801561304e5780601f106130235761010080835404028352916020019161304e565b820191906000526020600020905b81548152906001019060200180831161303157829003601f168201915b50505050509050600061305f613c53565b905060008151118015613073575060008251115b156130a357808260405160200161308b929190615d83565b60405160208183030381529060405292505050919050565b8151156130b1575092915050565b60008151116130cf5760405180602001604052806000815250610ef6565b806130d985613c63565b60405160200161308b929190615d83565b60006130f582612d9e565b6131565760405162461bcd60e51b815260206004820152602c60248201527f4552433732313a206f70657261746f7220717565727920666f72206e6f6e657860448201526b34b9ba32b73a103a37b5b2b760a11b6064820152608401610b30565b60006131618361178d565b9050806001600160a01b0316846001600160a01b0316148061319c5750836001600160a01b031661319184610bd8565b6001600160a01b0316145b806113ad57506113ad8185612950565b6131b7838383613d60565b6001600160a01b03821661dead14156131d757610d716002828585613d6b565b610d716001828585613d6b565b6101465480158015906131f657508082115b15610b425760405163db5be9b160e01b815260040160405180910390fd5b61322e868560405180602001604052806000815250613e2e565b84511561323f5761323f8486613e61565b811561325057613250848484613eed565b801561101e5760008481526101476020526040902080546001600160a01b03191633179055505050505050565b60007f8b73c3c69bb8fe3d512ecc4cf759cc79239f7b179b0ffacaa9a75d522b39400f6132a8610b46565b805160209182012060408051808201825260018152603160f81b90840152805192830193909352918101919091527fc89efdaa54c0f20c7adf612882df0950f5a951637e0307cdcb4c672f298b8bc66060820152608081018390523060a082015260c001604051602081830303815290604052805190602001209050919050565b60006133348261178d565b905061333f82613ff1565b610142805490600061335083615c71565b9190505550610b42600283836000613d6b565b6000610b04825490565b6000611efa8383614023565b6000828152610136602052604081206133929083613b89565b156133d5576040516001600160a01b0383169084907f155aaafb6329a2098580462df33ec4b7441b19729b9601c5fc17ae1cf99a8a5290600090a3506001610b04565b50600092915050565b6133e661404d565b6133f085856140c8565b6133f861415d565b82511561341557825161341390610140906020860190614d1d565b505b8151156134325781516134309061013f906020850190614d1d565b505b6001600160a01b0381161561344a5761344a81612b44565b5050505050565b6001600160a01b03821660009081526008602052604081205460ff16600281111561347e5761347e615794565b146134c05760405162461bcd60e51b815260206004820152601260248201527121414c52454144595f41545441434845442160701b6044820152606401610b30565b6134cb600683613742565b50816001600160a01b031663ed1b31446040518163ffffffff1660e01b8152600401602060405180830381600087803b15801561350757600080fd5b505af115801561351b573d6000803e3d6000fd5b505050506040513d601f19601f8201168201806040525081019061353f9190615d0f565b61357d5760405162461bcd60e51b815260206004820152600f60248201526e214154544143485f4641494c45442160881b6044820152606401610b30565b801561358c57610b4282613a0d565b610b42826001613910565b6000828152610136602052604081206135b09083613742565b156133d5576040516001600160a01b0383169084907f2ae6a113c0ed5b78a53413ffbb7679881f11145ccfba4fb92e863dfcd5a1d2f390600090a3506001610b04565b6101375460ff16156136565760405162461bcd60e51b815260206004820152602660248201527f2145524332393831526f79616c746965733a44454641554c545f414c52454144604482015265595f5345542160d01b6064820152608401610b30565b6127108111156136a85760405162461bcd60e51b815260206004820152601b60248201527f2145524332393831526f79616c746965733a544f4f5f484947482100000000006044820152606401610b30565b610137805460ff19166001179055604080518082019091526001600160a01b039092168083526001600160601b039091166020909201829052600160a01b9091021761013855565b603c80546001600160a01b038381166001600160a01b0319831681179093556040519116919082907f8be0079c531659141344cd1fd0a4f28419497f9722a3daafe3b4186f6b6457e090600090a35050565b6000611efa836001600160a01b038416614174565b60008082516041141561378e5760208301516040840151606085015160001a613782878285856141c3565b9450945050505061112e565b8251604014156137b857602083015160408401516137ad8683836142b0565b93509350505061112e565b5060009050600261112e565b60008060006137d38585613757565b909250905060008160048111156137ec576137ec615794565b14801561380a5750856001600160a01b0316826001600160a01b0316145b1561381a57600192505050611efa565b600080876001600160a01b0316631626ba7e60e01b8888604051602401613842929190615db2565b60408051601f198184030181529181526020820180516001600160e01b03166001600160e01b03199094169390931790925290516138809190615dcb565b600060405180830381855afa9150503d80600081146138bb576040519150601f19603f3d011682016040523d82523d6000602084013e6138c0565b606091505b50915091508180156138d3575080516020145b801561390457508051630b135d3f60e11b906138f89083016020908101908401615de7565b6001600160e01b031916145b98975050505050505050565b613928600080516020615ef083398151915283613379565b50610b4282826142df565b6001600160a01b03811660009081526001830160205260408120541515611efa565b6139608484846131ac565b61396c84848484614423565b6121625760405162461bcd60e51b8152600401610b3090615e04565b60006139938261203b565b80610b045750610b0482610d76565b6060610b048261452d565b80516139ed57600082815261013e6020526040812080546139cd90615ab4565b90501115610b4257600082815261013e60205260408120610b4291614da1565b600082815261013e602090815260409091208251610d7192840190614d1d565b60016001600160a01b03821660009081526008602052604090205460ff166002811115613a3c57613a3c615794565b1415613a7b5760405162461bcd60e51b815260206004820152600e60248201526d214e4f545f44495341424c45442160901b6044820152606401610b30565b6001600160a01b0381166000818152600860209081526040808320805460ff191660011790558051630b079ac960e41b8152905163b079ac9093600480840194938390030190829087803b158015613ad257600080fd5b505af1158015613ae6573d6000803e3d6000fd5b505050506040513d601f19601f82011682018060405250810190613b0a9190615d0f565b613b4a5760405162461bcd60e51b815260206004820152601160248201527021454e41424c494e475f4641494c45442160781b6044820152606401610b30565b6040516001600160a01b03821681527ffc4a50edaab584aa3017077c8f45812aef30d87def3a21ce37e214e51994daa29060200160405180910390a150565b6000611efa836001600160a01b038416614678565b604080518082019091526000808252602082018190529081906101375460ff1615613bf8575060408051808201909152610138546001600160a01b0381168252600160a01b90046001600160601b03166020820152613c36565b50600083815261013960209081526040918290208251808401909352546001600160a01b0381168352600160a01b90046001600160601b0316908201525b806000015181602001516001600160601b03169250925050915091565b606061013d8054610b5590615ab4565b606081613c875750506040805180820190915260018152600360fc1b602082015290565b8160005b8115613cb15780613c9b81615c71565b9150613caa9050600a83615c1f565b9150613c8b565b6000816001600160401b03811115613ccb57613ccb614e1f565b6040519080825280601f01601f191660200182016040528015613cf5576020820181803683370190505b5090505b84156113ad57613d0a600183615b15565b9150613d17600a86615e56565b613d22906030615c59565b60f81b818381518110613d3757613d37615ae9565b60200101906001600160f81b031916908160001a905350613d59600a86615c1f565b9450613cf9565b610d7183838361476b565b600080856002811115613d8057613d80615794565b60038110613d9057613d90615ae9565b6002020190506000613da182613363565b905060005b81811015611df257613db8838261336d565b6001600160a01b0316633dc0e1a6888888886040518563ffffffff1660e01b8152600401613de99493929190615e6a565b600060405180830381600087803b158015613e0357600080fd5b505af1158015613e17573d6000803e3d6000fd5b505050508080613e2690615c71565b915050613da6565b613e38838361478e565b613e456000848484614423565b610d715760405162461bcd60e51b8152600401610b3090615e04565b613e6a82612d9e565b613ecd5760405162461bcd60e51b815260206004820152602e60248201527f45524337323155524953746f726167653a2055524920736574206f66206e6f6e60448201526d32bc34b9ba32b73a103a37b5b2b760911b6064820152608401610b30565b6000828152610104602090815260409091208251610d7192840190614d1d565b6101375460ff1615613f545760405162461bcd60e51b815260206004820152602a60248201527f2145524332393831526f79616c746965733a524f59414c544945535f434f4e54604482015269524143545f574944452160b01b6064820152608401610b30565b612710811115613fa65760405162461bcd60e51b815260206004820152601b60248201527f2145524332393831526f79616c746965733a544f4f5f484947482100000000006044820152606401610b30565b6040805180820182526001600160a01b0393841681526001600160601b039283166020808301918252600096875261013990529190942093519051909116600160a01b029116179055565b6000818152610139602052604081205561401a81604051806020016040528060008152506139ad565b61146f816147a6565b600082600001828154811061403a5761403a615ae9565b9060005260206000200154905092915050565b600954610100900460ff1680614066575060095460ff16155b6140825760405162461bcd60e51b8152600401610b3090615c8c565b600954610100900460ff161580156140a4576009805461ffff19166101011790555b6140ac6147e8565b6140b4614852565b801561146f576009805461ff001916905550565b600954610100900460ff16806140e1575060095460ff16155b6140fd5760405162461bcd60e51b8152600401610b3090615c8c565b600954610100900460ff1615801561411f576009805461ffff19166101011790555b82516141329060a0906020860190614d1d565b5081516141469060a1906020850190614d1d565b508015610d71576009805461ff0019169055505050565b4661013b81905561416d8161327d565b61013a5550565b60008181526001830160205260408120546141bb57508154600181810184556000848152602080822090930184905584548482528286019093526040902091909155610b04565b506000610b04565b6000807f7fffffffffffffffffffffffffffffff5d576e7357a4501ddfe92f46681b20a08311156141fa57506000905060036142a7565b8460ff16601b1415801561421257508460ff16601c14155b1561422357506000905060046142a7565b6040805160008082526020820180845289905260ff881692820192909252606081018690526080810185905260019060a0016020604051602081039080840390855afa158015614277573d6000803e3d6000fd5b5050604051601f1901519150506001600160a01b0381166142a0576000600192509250506142a7565b9150600090505b94509492505050565b6000806001600160ff1b03831660ff84901c601b016142d1878288856141c3565b935093505050935093915050565b60026001600160a01b03831660009081526008602052604090205460ff16600281111561430e5761430e615794565b141561434c5760405162461bcd60e51b815260206004820152600d60248201526c214e4f545f454e41424c45442160981b6044820152606401610b30565b6001600160a01b038216600081815260086020526040808220805460ff191660021790558051634c85eb1f60e01b81529051634c85eb1f9260048084019391929182900301818387803b1580156143a257600080fd5b505af19250505080156143b3575060015b50806143e3576143c582600080612c5e565b506143d38260006001612c5e565b506143e18260006002612c5e565b505b6040516001600160a01b03831681527ffc4a50edaab584aa3017077c8f45812aef30d87def3a21ce37e214e51994daa29060200160405180910390a15050565b60006001600160a01b0384163b1561452557604051630a85bd0160e11b81526001600160a01b0385169063150b7a0290614467903390899088908890600401615e9c565b602060405180830381600087803b15801561448157600080fd5b505af19250505080156144b1575060408051601f3d908101601f191682019092526144ae91810190615de7565b60015b61450b573d8080156144df576040519150601f19603f3d011682016040523d82523d6000602084013e6144e4565b606091505b5080516145035760405162461bcd60e51b8152600401610b3090615e04565b805181602001fd5b6001600160e01b031916630a85bd0160e11b1490506113ad565b5060016113ad565b606061453882612d9e565b61459e5760405162461bcd60e51b815260206004820152603160248201527f45524337323155524953746f726167653a2055524920717565727920666f72206044820152703737b732bc34b9ba32b73a103a37b5b2b760791b6064820152608401610b30565b60008281526101046020526040812080546145b890615ab4565b80601f01602080910402602001604051908101604052809291908181526020018280546145e490615ab4565b80156146315780601f1061460657610100808354040283529160200191614631565b820191906000526020600020905b81548152906001019060200180831161461457829003601f168201915b5050505050905060006146426148b2565b9050805160001415614655575092915050565b81511561466f57808260405160200161308b929190615d83565b610ef6846148c2565b6000818152600183016020526040812054801561476157600061469c600183615b15565b85549091506000906146b090600190615b15565b90508181146147155760008660000182815481106146d0576146d0615ae9565b90600052602060002001549050808760000184815481106146f3576146f3615ae9565b6000918252602080832090910192909255918252600188019052604090208390555b855486908061472657614726615ed9565b600190038181906000526020600020016000905590558560010160008681526020019081526020016000206000905560019350505050610b04565b6000915050610b04565b6001600160a01b03831615614783576147838161498c565b610d718383836149af565b6147988282614b4f565b610b42600082600085613d6b565b6147af81614c82565b60008181526101046020526040902080546147c990615ab4565b15905061146f5760008181526101046020526040812061146f91614da1565b600954610100900460ff1680614801575060095460ff16155b61481d5760405162461bcd60e51b8152600401610b3090615c8c565b600954610100900460ff161580156140b4576009805461ffff1916610101179055801561146f576009805461ff001916905550565b600954610100900460ff168061486b575060095460ff16155b6148875760405162461bcd60e51b8152600401610b3090615c8c565b600954610100900460ff161580156148a9576009805461ffff19166101011790555b6140b4336136f0565b606061013f8054610b5590615ab4565b60606148cd82612d9e565b6149315760405162461bcd60e51b815260206004820152602f60248201527f4552433732314d657461646174613a2055524920717565727920666f72206e6f60448201526e3732bc34b9ba32b73a103a37b5b2b760891b6064820152608401610b30565b600061493b6148b2565b9050600081511161495b5760405180602001604052806000815250611efa565b8061496584613c63565b604051602001614976929190615d83565b6040516020818303038152906040529392505050565b600081815261013c602052604081208054916149a783615c71565b919050555050565b826001600160a01b03166149c28261178d565b6001600160a01b031614614a2a5760405162461bcd60e51b815260206004820152602960248201527f4552433732313a207472616e73666572206f6620746f6b656e2074686174206960448201526839903737ba1037bbb760b91b6064820152608401610b30565b6001600160a01b038216614a8c5760405162461bcd60e51b8152602060048201526024808201527f4552433732313a207472616e7366657220746f20746865207a65726f206164646044820152637265737360e01b6064820152608401610b30565b614a97600082612dbb565b6001600160a01b038316600090815260a360205260408120805460019290614ac0908490615b15565b90915550506001600160a01b038216600090815260a360205260408120805460019290614aee908490615c59565b9091555050600081815260a2602052604080822080546001600160a01b0319166001600160a01b0386811691821790925591518493918716917fddf252ad1be2c89b69c2b068fc378daa952ba7f163c4a11628f55a4df523b3ef91a4505050565b6001600160a01b038216614ba55760405162461bcd60e51b815260206004820181905260248201527f4552433732313a206d696e7420746f20746865207a65726f20616464726573736044820152606401610b30565b614bae81612d9e565b15614bfb5760405162461bcd60e51b815260206004820152601c60248201527f4552433732313a20746f6b656e20616c7265616479206d696e746564000000006044820152606401610b30565b6001600160a01b038216600090815260a360205260408120805460019290614c24908490615c59565b9091555050600081815260a2602052604080822080546001600160a01b0319166001600160a01b03861690811790915590518392907fddf252ad1be2c89b69c2b068fc378daa952ba7f163c4a11628f55a4df523b3ef908290a45050565b6000614c8d8261178d565b9050614c9a600083612dbb565b6001600160a01b038116600090815260a360205260408120805460019290614cc3908490615b15565b9091555050600082815260a2602052604080822080546001600160a01b0319169055518391906001600160a01b038416907fddf252ad1be2c89b69c2b068fc378daa952ba7f163c4a11628f55a4df523b3ef908390a45050565b828054614d2990615ab4565b90600052602060002090601f016020900481019282614d4b5760008555614d91565b82601f10614d6457805160ff1916838001178555614d91565b82800160010185558215614d91579182015b82811115614d91578251825591602001919060010190614d76565b50614d9d929150614dd7565b5090565b508054614dad90615ab4565b6000825580601f10614dbd575050565b601f01602090049060005260206000209081019061146f91905b5b80821115614d9d5760008155600101614dd8565b6001600160e01b03198116811461146f57600080fd5b600060208284031215614e1457600080fd5b8135611efa81614dec565b634e487b7160e01b600052604160045260246000fd5b604051606081016001600160401b0381118282101715614e5757614e57614e1f565b60405290565b604051601f8201601f191681016001600160401b0381118282101715614e8557614e85614e1f565b604052919050565b60006001600160401b03821115614ea657614ea6614e1f565b50601f01601f191660200190565b600082601f830112614ec557600080fd5b8135614ed8614ed382614e8d565b614e5d565b818152846020838601011115614eed57600080fd5b816020850160208301376000918101602001919091529392505050565b600060208284031215614f1c57600080fd5b81356001600160401b03811115614f3257600080fd5b6113ad84828501614eb4565b60005b83811015614f59578181015183820152602001614f41565b838111156121625750506000910152565b60008151808452614f82816020860160208601614f3e565b601f01601f19169290920160200192915050565b602081526000611efa6020830184614f6a565b600060208284031215614fbb57600080fd5b5035919050565b6001600160a01b038116811461146f57600080fd5b8035614fe281614fc2565b919050565b60008060408385031215614ffa57600080fd5b823561500581614fc2565b946020939093013593505050565b60006020828403121561502557600080fd5b8135611efa81614fc2565b600081518084526020808501945080840160005b8381101561506057815187529582019590820190600101615044565b509495945050505050565b602081526000611efa6020830184615030565b60008060006060848603121561509357600080fd5b833561509e81614fc2565b925060208401356150ae81614fc2565b929592945050506040919091013590565b60008060008060008060c087890312156150d857600080fd5b86356150e381614fc2565b955060208701356150f381614fc2565b94506040870135935060608701356001600160401b038082111561511657600080fd5b6151228a838b01614eb4565b94506080890135935060a089013591508082111561513f57600080fd5b5061514c89828a01614eb4565b9150509295509295509295565b6000806040838503121561516c57600080fd5b82359150602083013561517e81614fc2565b809150509250929050565b6000806040838503121561519c57600080fd5b50508035926020909101359150565b60006001600160401b038211156151c4576151c4614e1f565b5060051b60200190565b600082601f8301126151df57600080fd5b813560206151ef614ed3836151ab565b82815260059290921b8401810191818101908684111561520e57600080fd5b8286015b8481101561523257803561522581614fc2565b8352918301918301615212565b509695505050505050565b600082601f83011261524e57600080fd5b8135602061525e614ed3836151ab565b82815260059290921b8401810191818101908684111561527d57600080fd5b8286015b848110156152325780356001600160401b038111156152a05760008081fd5b6152ae8986838b0101614eb4565b845250918301918301615281565b600082601f8301126152cd57600080fd5b813560206152dd614ed3836151ab565b82815260059290921b840181019181810190868411156152fc57600080fd5b8286015b848110156152325780358352918301918301615300565b6000806000806080858703121561532d57600080fd5b84356001600160401b038082111561534457600080fd5b615350888389016151ce565b9550602087013591508082111561536657600080fd5b6153728883890161523d565b9450604087013591508082111561538857600080fd5b615394888389016151ce565b935060608701359150808211156153aa57600080fd5b506153b7878288016152bc565b91505092959194509250565b600080600080608085870312156153d957600080fd5b84356153e481614fc2565b966020860135965060408601359560600135945092505050565b600081518084526020808501945080840160005b838110156150605781516001600160a01b031687529582019590820190600101615412565b60408152600061544a60408301856153fe565b828103602084015261545c8185615030565b95945050505050565b60006020828403121561547757600080fd5b81356001600160401b0381111561548d57600080fd5b6113ad848285016151ce565b600080600080600060a086880312156154b157600080fd5b85356154bc81614fc2565b945060208601356001600160401b038111156154d757600080fd5b6154e388828901614eb4565b94505060408601356154f481614fc2565b925060608601359150608086013561550b81614fc2565b809150509295509295909350565b801515811461146f57600080fd5b600082601f83011261553857600080fd5b81356020615548614ed3836151ab565b8281526060928302850182019282820191908785111561556757600080fd5b8387015b858110156155c95781818a0312156155835760008081fd5b61558b614e35565b813561559681614fc2565b8152818601356155a581615519565b818701526040828101356155b881615519565b90820152845292840192810161556b565b5090979650505050505050565b600080600080600080600080610100898b0312156155f357600080fd5b88356001600160401b038082111561560a57600080fd5b6156168c838d01614eb4565b995060208b013591508082111561562c57600080fd5b6156388c838d01614eb4565b985060408b013591508082111561564e57600080fd5b61565a8c838d01614eb4565b975060608b013591508082111561567057600080fd5b61567c8c838d01614eb4565b965061568a60808c01614fd7565b955060a08b01359150808211156156a057600080fd5b506156ad8b828c01615527565b9350506156bc60c08a01614fd7565b915060e089013590509295985092959890939650565b6000602082840312156156e457600080fd5b813560038110611efa57600080fd5b6000806000806080858703121561570957600080fd5b843561571481614fc2565b9350602085013592506040850135915060608501356001600160401b0381111561573d57600080fd5b6153b787828801614eb4565b60006020828403121561575b57600080fd5b8135611efa81615519565b6000806040838503121561577957600080fd5b823561578481614fc2565b9150602083013561517e81615519565b634e487b7160e01b600052602160045260246000fd5b6003811061146f57634e487b7160e01b600052602160045260246000fd5b602081016157d5836157aa565b91905290565b6000806000606084860312156157f057600080fd5b83356157fb81614fc2565b95602085013595506040909401359392505050565b6000806000806080858703121561582657600080fd5b843561583181614fc2565b9350602085013561584181614fc2565b92506040850135915060608501356001600160401b0381111561573d57600080fd5b602081526000611efa60208301846153fe565b600080600080600060a0868803121561588e57600080fd5b85356001600160401b03808211156158a557600080fd5b6158b189838a016151ce565b965060208801359150808211156158c757600080fd5b6158d389838a0161523d565b955060408801359150808211156158e957600080fd5b6158f589838a016152bc565b9450606088013591508082111561590b57600080fd5b61591789838a016151ce565b9350608088013591508082111561592d57600080fd5b5061593a888289016152bc565b9150509295509295909350565b60008060006060848603121561595c57600080fd5b833561596781614fc2565b9250602084013561597781615519565b9150604084013561598781615519565b809150509250925092565b600080604083850312156159a557600080fd5b82356159b081614fc2565b9150602083013561517e81614fc2565b600080604083850312156159d357600080fd5b8235915060208301356001600160401b038111156159f057600080fd5b6159fc85828601614eb4565b9150509250929050565b60008060008060008060c08789031215615a1f57600080fd5b8635615a2a81614fc2565b955060208701356001600160401b03811115615a4557600080fd5b615a5189828a01614eb4565b955050604087013593506060870135615a6981614fc2565b92506080870135915060a0870135615a8081614fc2565b809150509295509295509295565b6020808252600c908201526b214e4f545f454449544f522160a01b604082015260600190565b600181811c90821680615ac857607f821691505b60208210811415610e0a57634e487b7160e01b600052602260045260246000fd5b634e487b7160e01b600052603260045260246000fd5b634e487b7160e01b600052601160045260246000fd5b600082821015615b2757615b27615aff565b500390565b600060208284031215615b3e57600080fd5b81516001600160401b03811115615b5457600080fd5b8201601f81018413615b6557600080fd5b8051615b73614ed382614e8d565b818152856020838501011115615b8857600080fd5b61545c826020830160208601614f3e565b60208082526031908201527f4552433732313a207472616e736665722063616c6c6572206973206e6f74206f6040820152701ddb995c881b9bdc88185c1c1c9bdd9959607a1b606082015260800190565b6000816000190483118215151615615c0457615c04615aff565b500290565b634e487b7160e01b600052601260045260246000fd5b600082615c2e57615c2e615c09565b500490565b6020808252600c908201526b214e4f545f4d494e5445522160a01b604082015260600190565b60008219821115615c6c57615c6c615aff565b500190565b6000600019821415615c8557615c85615aff565b5060010190565b6020808252602e908201527f496e697469616c697a61626c653a20636f6e747261637420697320616c72656160408201526d191e481a5b9a5d1a585b1a5e995960921b606082015260800190565b6020808252818101527f4f776e61626c653a2063616c6c6572206973206e6f7420746865206f776e6572604082015260600190565b600060208284031215615d2157600080fd5b8151611efa81615519565b6020808252600f908201526e21554e4b4e4f574e5f544f4b454e2160881b604082015260600190565b60008060408385031215615d6857600080fd5b8251615d7381614fc2565b6020939093015192949293505050565b60008351615d95818460208801614f3e565b835190830190615da9818360208801614f3e565b01949350505050565b8281526040602082015260006113ad6040830184614f6a565b60008251615ddd818460208701614f3e565b9190910192915050565b600060208284031215615df957600080fd5b8151611efa81614dec565b60208082526032908201527f4552433732313a207472616e7366657220746f206e6f6e20455243373231526560408201527131b2b4bb32b91034b6b83632b6b2b73a32b960711b606082015260800190565b600082615e6557615e65615c09565b500690565b60808101615e77866157aa565b94815260208101939093526001600160a01b0391821660408401521660609091015290565b6001600160a01b0385811682528416602082015260408101839052608060608201819052600090615ecf90830184614f6a565b9695505050505050565b634e487b7160e01b600052603160045260246000fdfef0887ba65ee2024ea881d91b74c2450ef19e1557f03bed3ea9f16b037cbe2dc9a2646970667358221220a7a265fbfddd940e05220d157678303eec435968aa394e7f0614a7c43605f15964736f6c63430008090033",
  "devdoc": {
    "author": "Simon Fremaux (@dievardump)",
    "kind": "dev",
    "methods": {
      "DOMAIN_SEPARATOR()": {
        "details": "Return the DOMAIN_SEPARATOR."
      },
      "addEditors(address[])": {
        "details": "needs to be owner",
        "params": {
          "users": "list of new editors"
        }
      },
      "addEventListener(uint8)": {
        "params": {
          "eventType": "the type of event to listen to"
        }
      },
      "addMinters(address[])": {
        "details": "needs to be owner",
        "params": {
          "users": "list of new minters"
        }
      },
      "approve(address,uint256)": {
        "details": "See {IERC721-approve}."
      },
      "attachModule(address,bool,bool)": {
        "params": {
          "enabled": "if the module is enabled by default",
          "module": "a module to attach",
          "moduleCanMint": "if the module has to be given the minter role"
        }
      },
      "balanceOf(address)": {
        "details": "See {IERC721-balanceOf}."
      },
      "burn(uint256)": {
        "details": "Burns `tokenId`. See {ERC721-_burn}. Requirements: - The caller must own `tokenId` or be an approved operator."
      },
      "canEdit(address)": {
        "params": {
          "account": "the address to check"
        }
      },
      "canMint(address)": {
        "params": {
          "user": "the address to check"
        }
      },
      "disableModule(address,bool)": {
        "details": "Allows owner to disable a module",
        "params": {
          "module": "to disable"
        }
      },
      "enableModule(address,bool)": {
        "details": "Allows owner to enable a module",
        "params": {
          "module": "to enable",
          "moduleCanMint": "if the module has to be given the minter role"
        }
      },
      "getApproved(uint256)": {
        "details": "See {IERC721-getApproved}."
      },
      "hasRole(bytes32,address)": {
        "params": {
          "role": "the role to check",
          "user": "the address to check"
        }
      },
      "initialize(string,string,string,string,address,(address,bool,bool)[],address,uint256)": {
        "params": {
          "baseURI_": "the contract baseURI (if there is)  - can be empty \"\"",
          "contractRoyaltiesRecipient": "the recipient, if the contract has \"contract wide royalties\"",
          "contractRoyaltiesValue": "the value, modules to add / enable directly at creation",
          "contractURI_": "The contract URI (containing its metadata) - can be empty \"\"",
          "modulesInit_": "modules to add / enable directly at creation",
          "name_": "name of the contract (see ERC721)",
          "owner_": "Address to whom transfer ownership",
          "symbol_": "symbol of the contract (see ERC721)"
        }
      },
      "isApprovedForAll(address,address)": {
        "details": "See {IERC721-isApprovedForAll}."
      },
      "isEditor(address)": {
        "params": {
          "account": "the address to check"
        }
      },
      "isMinter(address)": {
        "params": {
          "account": "the address to check"
        }
      },
      "listModules()": {
        "returns": {
          "list": "of modules and status"
        }
      },
      "listRole(bytes32)": {
        "returns": {
          "list": "of role members"
        }
      },
      "mint(address)": {
        "params": {
          "to": "address of recipient"
        },
        "returns": {
          "tokenId": "the tokenId"
        }
      },
      "mint(address,address)": {
        "params": {
          "to": "address of first recipient",
          "transferTo": "address to transfer token to"
        },
        "returns": {
          "tokenId": "the tokenId"
        }
      },
      "mint(address,string,address,uint256,address)": {
        "params": {
          "feeAmount": "the royalties amount. From 0 to 10000        where 10000 == 100.00%; 1000 == 10.00%; 250 == 2.50%",
          "feeRecipient": "the recipient of royalties",
          "to": "address of recipient",
          "transferTo": "the address to transfer the NFT to after mint        this is used when we want to mint the NFT to the creator address        before transfering it to a recipient",
          "uri": "token metadata uri"
        },
        "returns": {
          "tokenId": "the tokenId"
        }
      },
      "mint(address,string,uint256,address,uint256,address)": {
        "params": {
          "feeAmount": "the royalties amount. From 0 to 10000        where 10000 == 100.00%; 1000 == 10.00%; 250 == 2.50%",
          "feeRecipient": "the recipient of royalties",
          "to": "address of recipient",
          "tokenId": "token id wanted",
          "transferTo": "the address to transfer the NFT to after mint        this is used when we want to mint the NFT to the creator address        before transfering it to a recipient",
          "uri": "token metadata uri"
        },
        "returns": {
          "_0": "the tokenId"
        }
      },
      "mintBatch(address[],string[],address[],uint256[])": {
        "params": {
          "feeAmounts": "the royalties amounts for each id. From 0 to 10000        where 10000 == 100.00%; 1000 == 10.00%; 250 == 2.50%",
          "feeRecipients": "the recipients of royalties for each id",
          "to": "array of address of recipients",
          "uris": "array of token metadata uris"
        },
        "returns": {
          "endId": "the last id",
          "startId": "the first id"
        }
      },
      "mintBatch(address[],string[],uint256[],address[],uint256[])": {
        "params": {
          "feeAmounts": "the royalties amounts for each id. From 0 to 10000        where 10000 == 100.00%; 1000 == 10.00%; 250 == 2.50%",
          "feeRecipients": "the recipients of royalties for each id",
          "to": "array of address of recipients",
          "tokenIds": "array of token ids wanted",
          "uris": "array of token metadata uris"
        }
      },
      "mutableURI(uint256)": {
        "params": {
          "tokenId": "tokenId"
        },
        "returns": {
          "uri": "the URI where mutable can be found"
        }
      },
      "name()": {
        "details": "See {IERC721Metadata-name}."
      },
      "nonce(uint256)": {
        "params": {
          "tokenId": "token id"
        },
        "returns": {
          "_0": "current nonce"
        }
      },
      "nonces(uint256)": {
        "params": {
          "tokenId": "token id"
        },
        "returns": {
          "_0": "current nonce"
        }
      },
      "owner()": {
        "details": "Returns the address of the current owner."
      },
      "ownerOf(uint256)": {
        "details": "See {IERC721-ownerOf}."
      },
      "permit(address,uint256,uint256,bytes)": {
        "details": "Anyone can call this to approve `spender`, even a third-party",
        "params": {
          "deadline": "the deadline for the permit to be used",
          "signature": "permit",
          "spender": "the actor to approve",
          "tokenId": "the token id"
        }
      },
      "removeEditors(address[])": {
        "details": "needs to be owner",
        "params": {
          "users": "list of removed editors"
        }
      },
      "removeEventListener(uint8)": {
        "params": {
          "eventType": "the type of event to stop listen to"
        }
      },
      "removeMinters(address[])": {
        "details": "needs to be owner",
        "params": {
          "users": "list of removed minters"
        }
      },
      "renderTokenURI(uint256)": {
        "params": {
          "tokenId": "tokenId"
        },
        "returns": {
          "uri": "the URI to render token"
        }
      },
      "renounceOwnership()": {
        "details": "Leaves the contract without owner. It will not be possible to call `onlyOwner` functions anymore. Can only be called by the current owner. NOTE: Renouncing ownership will leave the contract without an owner, thereby removing any functionality that is only available to the owner."
      },
      "royaltyInfo(uint256,uint256)": {
        "params": {
          "_tokenId": "- the NFT asset queried for royalty information",
          "_value": "- the sale price of the NFT asset specified by _tokenId"
        },
        "returns": {
          "receiver": "- address of who should be sent the royalty payment",
          "royaltyAmount": "- the royalty payment amount for value sale price"
        }
      },
      "safeTransferFrom(address,address,uint256)": {
        "details": "See {IERC721-safeTransferFrom}."
      },
      "safeTransferFrom(address,address,uint256,bytes)": {
        "details": "See {IERC721-safeTransferFrom}."
      },
      "safeTransferFromWithPermit(address,address,uint256,bytes,uint256,bytes)": {
        "details": "this supposes that the permit is for msg.sender",
        "params": {
          "_data": "optional data to add",
          "deadline": "the deadline for the permit to be used",
          "from": "current owner",
          "signature": "of permit",
          "to": "recipient",
          "tokenId": "the token id"
        }
      },
      "setApprovalForAll(address,bool)": {
        "details": "See {IERC721-setApprovalForAll}."
      },
      "setBaseMutableURI(string)": {
        "params": {
          "baseMutableURI_": "the new base for mutable meta uri used in mutableURI()"
        }
      },
      "setBaseURI(string)": {
        "details": "only an editor can do that (account or module)",
        "params": {
          "baseURI_": "the new base token uri used in tokenURI()"
        }
      },
      "setContractURI(string)": {
        "details": "needs to be owner",
        "params": {
          "contractURI_": "new contract URI"
        }
      },
      "setDefaultRoyaltiesRecipient(address)": {
        "details": "an editor can call this",
        "params": {
          "recipient": "new default royalties recipient"
        }
      },
      "setMaxSupply(uint256)": {
        "params": {
          "maxSupply_": "the max token id possible"
        }
      },
      "setMintingOpenToAll(bool)": {
        "params": {
          "isOpen": "if the new state is open or not"
        }
      },
      "setMutableURI(uint256,string)": {
        "details": "only an editor (account or module) can call this",
        "params": {
          "mutableURI_": "the mutable URI",
          "tokenId": "the token to set the mutable URI for"
        }
      },
      "setTokenRoyaltiesRecipient(uint256,address)": {
        "details": "only the current token royalty recipient can change the address",
        "params": {
          "recipient": "new default royalties recipient",
          "tokenId": "the token to change the recipient for"
        }
      },
      "supportsInterface(bytes4)": {
        "details": "See {IERC165-supportsInterface}."
      },
      "symbol()": {
        "details": "See {IERC721Metadata-symbol}."
      },
      "tokenURI(uint256)": {
        "details": "This function will first check if the token comes from a Module, and if yes, try to get the tokenURI from it      else it will try to get the tokenURI directly from the storage",
        "params": {
          "tokenId": "the tokenId"
        },
        "returns": {
          "uri": "the tokenURI"
        }
      },
      "totalSupply()": {
        "returns": {
          "_0": "the current total supply"
        }
      },
      "transferFrom(address,address,uint256)": {
        "details": "See {IERC721-transferFrom}."
      },
      "transferOwnership(address)": {
        "details": "Transfers ownership of the contract to a new account (`newOwner`). Can only be called by the current owner."
      },
      "version()": {
        "returns": {
          "_0": "the current implementation version following the scheme 0x[erc][type][version] erc: 00 => ERC721 | 01 => ERC1155 type: 00 => full | 01 => slim version: 00, 01, 02, 03..."
        }
      },
      "withdraw(address,uint256,uint256)": {
        "params": {
          "amount": "the amount to withdraw if native token, erc20 or erc1155 - must be 0 for ERC721",
          "token": "the token to withdraw from. address(0) means native chain token",
          "tokenId": "the tokenId to withdraw for ERC1155 and ERC721"
        }
      }
    },
    "stateVariables": {
      "_counter": {
        "details": "incremential token id counter"
      }
    },
    "title": "NiftyForge721",
    "version": 1
  },
  "userdoc": {
    "events": {
      "RoleGranted(bytes32,address)": {
        "notice": "emitted when a role is given to a user"
      },
      "RoleRevoked(bytes32,address)": {
        "notice": "emitted when a role is givrevoked from a user"
      }
    },
    "kind": "user",
    "methods": {
      "addEditors(address[])": {
        "notice": "Helper for the owner to add new editors"
      },
      "addEventListener(uint8)": {
        "notice": "allows a module to listen to events (mint, transfer, burn)"
      },
      "addMinters(address[])": {
        "notice": "Helper for an editor to add new minter"
      },
      "attachModule(address,bool,bool)": {
        "notice": "Attach a module"
      },
      "canEdit(address)": {
        "notice": "Helper to know if an address can do the action an Editor can"
      },
      "canMint(address)": {
        "notice": "Helper to know if an address can do the action a Minter can"
      },
      "getFeeBps(uint256)": {
        "notice": "see\tIRaribleSecondarySales"
      },
      "getFeeRecipients(uint256)": {
        "notice": "see\tIRaribleSecondarySales"
      },
      "hasRole(bytes32,address)": {
        "notice": "Helper to know is an address has a role"
      },
      "initialize(string,string,string,string,address,(address,bool,bool)[],address,uint256)": {
        "notice": "this is the constructor of the contract, called at the time of creation         Although it uses what are called upgradeable contracts, this is only to         be able to make deployment cheap using a Proxy but NiftyForge contracts         ARE NOT UPGRADEABLE => the proxy used is not an upgradeable proxy, the implementation is immutable"
      },
      "isEditor(address)": {
        "notice": "Helper to know if an address is editor"
      },
      "isMinter(address)": {
        "notice": "Helper to know if an address is minter"
      },
      "listModules()": {
        "notice": "Helper to list all modules with their state"
      },
      "listRole(bytes32)": {
        "notice": "Helper to list all users in a role"
      },
      "maxSupply()": {
        "notice": "maxSupply this can be set only once by the owner of the contract"
      },
      "mint(address)": {
        "notice": "Mint next token to `to`"
      },
      "mint(address,address)": {
        "notice": "Mint next token to `to` and then transfers to `transferTo`"
      },
      "mint(address,string,address,uint256,address)": {
        "notice": "Mint token to `to` with `uri`"
      },
      "mint(address,string,uint256,address,uint256,address)": {
        "notice": "Mint `tokenId` to to` with `uri` and transfer to transferTo if not null         Because not all tokenIds have incremental ids         be careful with this function, it does not increment _counter         and expects the minter to actually know what it is doing."
      },
      "mintBatch(address[],string[],address[],uint256[])": {
        "notice": "Mint batch tokens to `to[i]` with `uri[i]`"
      },
      "mintBatch(address[],string[],uint256[],address[],uint256[])": {
        "notice": "Mint batch tokens to `to[i]` with `uris[i]`         Because not all tokenIds have incremental ids         be careful with this function, it does not increment _counter         and expects the minter to actually know what it's doing.         this also means, this function does not verify maxTokenId"
      },
      "mutableURI(uint256)": {
        "notice": "function that returns a string that can be used to add metadata on top of what is in tokenURI         This function has been added because sometimes, we want some metadata to be completly immutable         But to have others that aren't (for example if a token is linked to a physical token, and the physical         token state can change over time)         This way we can reflect those changes without risking breaking the base meta (tokenURI)"
      },
      "nonce(uint256)": {
        "notice": "Allows to retrieve current nonce for token"
      },
      "nonces(uint256)": {
        "notice": "Allows to retrieve current nonce for token"
      },
      "offsetId()": {
        "notice": "offset used to start token id at 0 if needed"
      },
      "permit(address,uint256,uint256,bytes)": {
        "notice": "function to be called by anyone to approve `spender` using a Permit signature"
      },
      "removeEditors(address[])": {
        "notice": "Helper for the owner to remove editors"
      },
      "removeEventListener(uint8)": {
        "notice": "allows a module to stop listening to events (mint, transfer, burn)"
      },
      "removeMinters(address[])": {
        "notice": "Helper for an editor to remove minters"
      },
      "renderTokenURI(uint256)": {
        "notice": "function that returns a string that can be used to render the current token         this can be an URL but also any other data uri         This is something that I would like to present as an EIP later to allow dynamique         render URL"
      },
      "safeTransferFromWithPermit(address,address,uint256,bytes,uint256,bytes)": {
        "notice": "Allows to get approved using a permit and transfer in the same call"
      },
      "setBaseMutableURI(string)": {
        "notice": "Set the base mutable meta URI for tokens"
      },
      "setBaseURI(string)": {
        "notice": "Set the base token URI"
      },
      "setContractURI(string)": {
        "notice": "Helper for the owner of the contract to set the new contract URI"
      },
      "setDefaultRoyaltiesRecipient(address)": {
        "notice": "Allows to change the default royalties recipient"
      },
      "setMaxSupply(uint256)": {
        "notice": "allows owner to set a maxSupply (be careful, this is a one time call function)      When set, the max supply can not be reverted nor changed"
      },
      "setMintingOpenToAll(bool)": {
        "notice": "Toggle minting open to all state"
      },
      "setTokenRoyaltiesRecipient(uint256,address)": {
        "notice": "Allows a royalty recipient of a token to change their recipient address"
      },
      "startAtZero()": {
        "notice": "This function allows to offset minted in order to start ids at 0"
      },
      "tokenURI(uint256)": {
        "notice": "returns a tokenURI"
      },
      "totalSupply()": {
        "notice": "Since this contract can only mint in sequence, we can keep track of totalSupply easily"
      },
      "version()": {
        "notice": "getter for the version of the implementation"
      },
      "withdraw(address,uint256,uint256)": {
        "notice": "This is a generic function that allows this contract's owner to withdraw         any balance / ERC20 / ERC721 / ERC1155 it can have         this contract has no payable nor receive function so it should not get any nativ token         but this could save some ERC20, 721 or 1155"
      }
    },
    "version": 1
  },
  "storageLayout": {
    "storage": [
      {
        "astId": 8372,
        "contract": "contracts/NiftyForge721.sol:NiftyForge721",
        "label": "_listeners",
        "offset": 0,
        "slot": "0",
        "type": "t_array(t_struct(AddressSet)2993_storage)3_storage"
      },
      {
        "astId": 8375,
        "contract": "contracts/NiftyForge721.sol:NiftyForge721",
        "label": "modules",
        "offset": 0,
        "slot": "6",
        "type": "t_struct(AddressSet)2993_storage"
      },
      {
        "astId": 8380,
        "contract": "contracts/NiftyForge721.sol:NiftyForge721",
        "label": "modulesStatus",
        "offset": 0,
        "slot": "8",
        "type": "t_mapping(t_address,t_enum(ModuleStatus)8325)"
      },
      {
        "astId": 224,
        "contract": "contracts/NiftyForge721.sol:NiftyForge721",
        "label": "_initialized",
        "offset": 0,
        "slot": "9",
        "type": "t_bool"
      },
      {
        "astId": 227,
        "contract": "contracts/NiftyForge721.sol:NiftyForge721",
        "label": "_initializing",
        "offset": 1,
        "slot": "9",
        "type": "t_bool"
      },
      {
        "astId": 1973,
        "contract": "contracts/NiftyForge721.sol:NiftyForge721",
        "label": "__gap",
        "offset": 0,
        "slot": "10",
        "type": "t_array(t_uint256)50_storage"
      },
      {
        "astId": 10,
        "contract": "contracts/NiftyForge721.sol:NiftyForge721",
        "label": "_owner",
        "offset": 0,
        "slot": "60",
        "type": "t_address"
      },
      {
        "astId": 123,
        "contract": "contracts/NiftyForge721.sol:NiftyForge721",
        "label": "__gap",
        "offset": 0,
        "slot": "61",
        "type": "t_array(t_uint256)49_storage"
      },
      {
        "astId": 2668,
        "contract": "contracts/NiftyForge721.sol:NiftyForge721",
        "label": "__gap",
        "offset": 0,
        "slot": "110",
        "type": "t_array(t_uint256)50_storage"
      },
      {
        "astId": 493,
        "contract": "contracts/NiftyForge721.sol:NiftyForge721",
        "label": "_name",
        "offset": 0,
        "slot": "160",
        "type": "t_string_storage"
      },
      {
        "astId": 495,
        "contract": "contracts/NiftyForge721.sol:NiftyForge721",
        "label": "_symbol",
        "offset": 0,
        "slot": "161",
        "type": "t_string_storage"
      },
      {
        "astId": 499,
        "contract": "contracts/NiftyForge721.sol:NiftyForge721",
        "label": "_owners",
        "offset": 0,
        "slot": "162",
        "type": "t_mapping(t_uint256,t_address)"
      },
      {
        "astId": 503,
        "contract": "contracts/NiftyForge721.sol:NiftyForge721",
        "label": "_balances",
        "offset": 0,
        "slot": "163",
        "type": "t_mapping(t_address,t_uint256)"
      },
      {
        "astId": 507,
        "contract": "contracts/NiftyForge721.sol:NiftyForge721",
        "label": "_tokenApprovals",
        "offset": 0,
        "slot": "164",
        "type": "t_mapping(t_uint256,t_address)"
      },
      {
        "astId": 513,
        "contract": "contracts/NiftyForge721.sol:NiftyForge721",
        "label": "_operatorApprovals",
        "offset": 0,
        "slot": "165",
        "type": "t_mapping(t_address,t_mapping(t_address,t_bool))"
      },
      {
        "astId": 1309,
        "contract": "contracts/NiftyForge721.sol:NiftyForge721",
        "label": "__gap",
        "offset": 0,
        "slot": "166",
        "type": "t_array(t_uint256)44_storage"
      },
      {
        "astId": 1501,
        "contract": "contracts/NiftyForge721.sol:NiftyForge721",
        "label": "__gap",
        "offset": 0,
        "slot": "210",
        "type": "t_array(t_uint256)50_storage"
      },
      {
        "astId": 1539,
        "contract": "contracts/NiftyForge721.sol:NiftyForge721",
        "label": "_tokenURIs",
        "offset": 0,
        "slot": "260",
        "type": "t_mapping(t_uint256,t_string_storage)"
      },
      {
        "astId": 1657,
        "contract": "contracts/NiftyForge721.sol:NiftyForge721",
        "label": "__gap",
        "offset": 0,
        "slot": "261",
        "type": "t_array(t_uint256)49_storage"
      },
      {
        "astId": 6221,
        "contract": "contracts/NiftyForge721.sol:NiftyForge721",
        "label": "_roleMembers",
        "offset": 0,
        "slot": "310",
        "type": "t_mapping(t_bytes32,t_struct(AddressSet)2993_storage)"
      },
      {
        "astId": 7894,
        "contract": "contracts/NiftyForge721.sol:NiftyForge721",
        "label": "_useContractRoyalties",
        "offset": 0,
        "slot": "311",
        "type": "t_bool"
      },
      {
        "astId": 7897,
        "contract": "contracts/NiftyForge721.sol:NiftyForge721",
        "label": "_contractRoyalties",
        "offset": 0,
        "slot": "312",
        "type": "t_struct(RoyaltyData)7892_storage"
      },
      {
        "astId": 7902,
        "contract": "contracts/NiftyForge721.sol:NiftyForge721",
        "label": "_royalties",
        "offset": 0,
        "slot": "313",
        "type": "t_mapping(t_uint256,t_struct(RoyaltyData)7892_storage)"
      },
      {
        "astId": 5934,
        "contract": "contracts/NiftyForge721.sol:NiftyForge721",
        "label": "_deploymentDomainSeparator",
        "offset": 0,
        "slot": "314",
        "type": "t_bytes32"
      },
      {
        "astId": 5936,
        "contract": "contracts/NiftyForge721.sol:NiftyForge721",
        "label": "_deploymentChainId",
        "offset": 0,
        "slot": "315",
        "type": "t_uint256"
      },
      {
        "astId": 5940,
        "contract": "contracts/NiftyForge721.sol:NiftyForge721",
        "label": "_nonces",
        "offset": 0,
        "slot": "316",
        "type": "t_mapping(t_uint256,t_uint256)"
      },
      {
        "astId": 5768,
        "contract": "contracts/NiftyForge721.sol:NiftyForge721",
        "label": "baseMutableURI",
        "offset": 0,
        "slot": "317",
        "type": "t_string_storage"
      },
      {
        "astId": 5772,
        "contract": "contracts/NiftyForge721.sol:NiftyForge721",
        "label": "_tokensMutableURIs",
        "offset": 0,
        "slot": "318",
        "type": "t_mapping(t_uint256,t_string_storage)"
      },
      {
        "astId": 6588,
        "contract": "contracts/NiftyForge721.sol:NiftyForge721",
        "label": "baseURI",
        "offset": 0,
        "slot": "319",
        "type": "t_string_storage"
      },
      {
        "astId": 6590,
        "contract": "contracts/NiftyForge721.sol:NiftyForge721",
        "label": "contractURI",
        "offset": 0,
        "slot": "320",
        "type": "t_string_storage"
      },
      {
        "astId": 8752,
        "contract": "contracts/NiftyForge721.sol:NiftyForge721",
        "label": "_totalMinted",
        "offset": 0,
        "slot": "321",
        "type": "t_uint256"
      },
      {
        "astId": 8754,
        "contract": "contracts/NiftyForge721.sol:NiftyForge721",
        "label": "_burned",
        "offset": 0,
        "slot": "322",
        "type": "t_uint256"
      },
      {
        "astId": 8757,
        "contract": "contracts/NiftyForge721.sol:NiftyForge721",
        "label": "_counter",
        "offset": 0,
        "slot": "323",
        "type": "t_uint256"
      },
      {
        "astId": 8760,
        "contract": "contracts/NiftyForge721.sol:NiftyForge721",
        "label": "offsetId",
        "offset": 0,
        "slot": "324",
        "type": "t_uint256"
      },
      {
        "astId": 8762,
        "contract": "contracts/NiftyForge721.sol:NiftyForge721",
        "label": "isMintingOpenToAll",
        "offset": 0,
        "slot": "325",
        "type": "t_bool"
      },
      {
        "astId": 8765,
        "contract": "contracts/NiftyForge721.sol:NiftyForge721",
        "label": "maxSupply",
        "offset": 0,
        "slot": "326",
        "type": "t_uint256"
      },
      {
        "astId": 8769,
        "contract": "contracts/NiftyForge721.sol:NiftyForge721",
        "label": "tokenIdToModule",
        "offset": 0,
        "slot": "327",
        "type": "t_mapping(t_uint256,t_address)"
      }
    ],
    "types": {
      "t_address": {
        "encoding": "inplace",
        "label": "address",
        "numberOfBytes": "20"
      },
      "t_array(t_bytes32)dyn_storage": {
        "base": "t_bytes32",
        "encoding": "dynamic_array",
        "label": "bytes32[]",
        "numberOfBytes": "32"
      },
      "t_array(t_struct(AddressSet)2993_storage)3_storage": {
        "base": "t_struct(AddressSet)2993_storage",
        "encoding": "inplace",
        "label": "struct EnumerableSetUpgradeable.AddressSet[3]",
        "numberOfBytes": "192"
      },
      "t_array(t_uint256)44_storage": {
        "base": "t_uint256",
        "encoding": "inplace",
        "label": "uint256[44]",
        "numberOfBytes": "1408"
      },
      "t_array(t_uint256)49_storage": {
        "base": "t_uint256",
        "encoding": "inplace",
        "label": "uint256[49]",
        "numberOfBytes": "1568"
      },
      "t_array(t_uint256)50_storage": {
        "base": "t_uint256",
        "encoding": "inplace",
        "label": "uint256[50]",
        "numberOfBytes": "1600"
      },
      "t_bool": {
        "encoding": "inplace",
        "label": "bool",
        "numberOfBytes": "1"
      },
      "t_bytes32": {
        "encoding": "inplace",
        "label": "bytes32",
        "numberOfBytes": "32"
      },
      "t_enum(ModuleStatus)8325": {
        "encoding": "inplace",
        "label": "enum INiftyForgeWithModules.ModuleStatus",
        "numberOfBytes": "1"
      },
      "t_mapping(t_address,t_bool)": {
        "encoding": "mapping",
        "key": "t_address",
        "label": "mapping(address => bool)",
        "numberOfBytes": "32",
        "value": "t_bool"
      },
      "t_mapping(t_address,t_enum(ModuleStatus)8325)": {
        "encoding": "mapping",
        "key": "t_address",
        "label": "mapping(address => enum INiftyForgeWithModules.ModuleStatus)",
        "numberOfBytes": "32",
        "value": "t_enum(ModuleStatus)8325"
      },
      "t_mapping(t_address,t_mapping(t_address,t_bool))": {
        "encoding": "mapping",
        "key": "t_address",
        "label": "mapping(address => mapping(address => bool))",
        "numberOfBytes": "32",
        "value": "t_mapping(t_address,t_bool)"
      },
      "t_mapping(t_address,t_uint256)": {
        "encoding": "mapping",
        "key": "t_address",
        "label": "mapping(address => uint256)",
        "numberOfBytes": "32",
        "value": "t_uint256"
      },
      "t_mapping(t_bytes32,t_struct(AddressSet)2993_storage)": {
        "encoding": "mapping",
        "key": "t_bytes32",
        "label": "mapping(bytes32 => struct EnumerableSetUpgradeable.AddressSet)",
        "numberOfBytes": "32",
        "value": "t_struct(AddressSet)2993_storage"
      },
      "t_mapping(t_bytes32,t_uint256)": {
        "encoding": "mapping",
        "key": "t_bytes32",
        "label": "mapping(bytes32 => uint256)",
        "numberOfBytes": "32",
        "value": "t_uint256"
      },
      "t_mapping(t_uint256,t_address)": {
        "encoding": "mapping",
        "key": "t_uint256",
        "label": "mapping(uint256 => address)",
        "numberOfBytes": "32",
        "value": "t_address"
      },
      "t_mapping(t_uint256,t_string_storage)": {
        "encoding": "mapping",
        "key": "t_uint256",
        "label": "mapping(uint256 => string)",
        "numberOfBytes": "32",
        "value": "t_string_storage"
      },
      "t_mapping(t_uint256,t_struct(RoyaltyData)7892_storage)": {
        "encoding": "mapping",
        "key": "t_uint256",
        "label": "mapping(uint256 => struct ERC2981Royalties.RoyaltyData)",
        "numberOfBytes": "32",
        "value": "t_struct(RoyaltyData)7892_storage"
      },
      "t_mapping(t_uint256,t_uint256)": {
        "encoding": "mapping",
        "key": "t_uint256",
        "label": "mapping(uint256 => uint256)",
        "numberOfBytes": "32",
        "value": "t_uint256"
      },
      "t_string_storage": {
        "encoding": "bytes",
        "label": "string",
        "numberOfBytes": "32"
      },
      "t_struct(AddressSet)2993_storage": {
        "encoding": "inplace",
        "label": "struct EnumerableSetUpgradeable.AddressSet",
        "members": [
          {
            "astId": 2992,
            "contract": "contracts/NiftyForge721.sol:NiftyForge721",
            "label": "_inner",
            "offset": 0,
            "slot": "0",
            "type": "t_struct(Set)2692_storage"
          }
        ],
        "numberOfBytes": "64"
      },
      "t_struct(RoyaltyData)7892_storage": {
        "encoding": "inplace",
        "label": "struct ERC2981Royalties.RoyaltyData",
        "members": [
          {
            "astId": 7889,
            "contract": "contracts/NiftyForge721.sol:NiftyForge721",
            "label": "recipient",
            "offset": 0,
            "slot": "0",
            "type": "t_address"
          },
          {
            "astId": 7891,
            "contract": "contracts/NiftyForge721.sol:NiftyForge721",
            "label": "amount",
            "offset": 20,
            "slot": "0",
            "type": "t_uint96"
          }
        ],
        "numberOfBytes": "32"
      },
      "t_struct(Set)2692_storage": {
        "encoding": "inplace",
        "label": "struct EnumerableSetUpgradeable.Set",
        "members": [
          {
            "astId": 2687,
            "contract": "contracts/NiftyForge721.sol:NiftyForge721",
            "label": "_values",
            "offset": 0,
            "slot": "0",
            "type": "t_array(t_bytes32)dyn_storage"
          },
          {
            "astId": 2691,
            "contract": "contracts/NiftyForge721.sol:NiftyForge721",
            "label": "_indexes",
            "offset": 0,
            "slot": "1",
            "type": "t_mapping(t_bytes32,t_uint256)"
          }
        ],
        "numberOfBytes": "64"
      },
      "t_uint256": {
        "encoding": "inplace",
        "label": "uint256",
        "numberOfBytes": "32"
      },
      "t_uint96": {
        "encoding": "inplace",
        "label": "uint96",
        "numberOfBytes": "12"
      }
    }
  }
}