{
  "address": "0x69906f4e94648F1b419364ae306b4c4e267a4872",
  "abi": [
    {
      "inputs": [],
      "name": "AlreadyMinted",
      "type": "error"
    },
    {
      "inputs": [],
      "name": "MaxTokenAlreadySet",
      "type": "error"
    },
    {
      "inputs": [],
      "name": "NotAuthorized",
      "type": "error"
    },
    {
      "inputs": [],
      "name": "NotZeroMint",
      "type": "error"
    },
    {
      "inputs": [],
      "name": "OutOfJpegs",
      "type": "error"
    },
    {
      "inputs": [],
      "name": "WrongTransferTo",
      "type": "error"
    },
    {
      "anonymous": false,
      "inputs": [
        {
          "indexed": true,
          "internalType": "address",
          "name": "owner",
          "type": "address"
        },
        {
          "indexed": true,
          "internalType": "address",
          "name": "approved",
          "type": "address"
        },
        {
          "indexed": true,
          "internalType": "uint256",
          "name": "tokenId",
          "type": "uint256"
        }
      ],
      "name": "Approval",
      "type": "event"
    },
    {
      "anonymous": false,
      "inputs": [
        {
          "indexed": true,
          "internalType": "address",
          "name": "owner",
          "type": "address"
        },
        {
          "indexed": true,
          "internalType": "address",
          "name": "operator",
          "type": "address"
        },
        {
          "indexed": false,
          "internalType": "bool",
          "name": "approved",
          "type": "bool"
        }
      ],
      "name": "ApprovalForAll",
      "type": "event"
    },
    {
      "anonymous": false,
      "inputs": [
        {
          "indexed": false,
          "internalType": "string",
          "name": "contractURI",
          "type": "string"
        }
      ],
      "name": "NewContractURI",
      "type": "event"
    },
    {
      "anonymous": false,
      "inputs": [
        {
          "indexed": true,
          "internalType": "address",
          "name": "previousOwner",
          "type": "address"
        },
        {
          "indexed": true,
          "internalType": "address",
          "name": "newOwner",
          "type": "address"
        }
      ],
      "name": "OwnershipTransferred",
      "type": "event"
    },
    {
      "anonymous": false,
      "inputs": [
        {
          "indexed": true,
          "internalType": "address",
          "name": "from",
          "type": "address"
        },
        {
          "indexed": true,
          "internalType": "address",
          "name": "to",
          "type": "address"
        },
        {
          "indexed": true,
          "internalType": "uint256",
          "name": "tokenId",
          "type": "uint256"
        }
      ],
      "name": "Transfer",
      "type": "event"
    },
    {
      "inputs": [],
      "name": "DOMAIN_SEPARATOR",
      "outputs": [
        {
          "internalType": "bytes32",
          "name": "",
          "type": "bytes32"
        }
      ],
      "stateMutability": "view",
      "type": "function"
    },
    {
      "inputs": [],
      "name": "PERMIT_TYPEHASH",
      "outputs": [
        {
          "internalType": "bytes32",
          "name": "",
          "type": "bytes32"
        }
      ],
      "stateMutability": "view",
      "type": "function"
    },
    {
      "inputs": [
        {
          "internalType": "address",
          "name": "to",
          "type": "address"
        },
        {
          "internalType": "uint256",
          "name": "tokenId",
          "type": "uint256"
        }
      ],
      "name": "approve",
      "outputs": [],
      "stateMutability": "nonpayable",
      "type": "function"
    },
    {
      "inputs": [
        {
          "internalType": "address",
          "name": "owner",
          "type": "address"
        }
      ],
      "name": "balanceOf",
      "outputs": [
        {
          "internalType": "uint256",
          "name": "",
          "type": "uint256"
        }
      ],
      "stateMutability": "view",
      "type": "function"
    },
    {
      "inputs": [],
      "name": "baseURI",
      "outputs": [
        {
          "internalType": "string",
          "name": "",
          "type": "string"
        }
      ],
      "stateMutability": "view",
      "type": "function"
    },
    {
      "inputs": [
        {
          "internalType": "uint256",
          "name": "tokenId",
          "type": "uint256"
        }
      ],
      "name": "burn",
      "outputs": [],
      "stateMutability": "nonpayable",
      "type": "function"
    },
    {
      "inputs": [
        {
          "internalType": "address",
          "name": "account",
          "type": "address"
        }
      ],
      "name": "canEdit",
      "outputs": [
        {
          "internalType": "bool",
          "name": "",
          "type": "bool"
        }
      ],
      "stateMutability": "view",
      "type": "function"
    },
    {
      "inputs": [],
      "name": "contractURI",
      "outputs": [
        {
          "internalType": "string",
          "name": "",
          "type": "string"
        }
      ],
      "stateMutability": "view",
      "type": "function"
    },
    {
      "inputs": [
        {
          "internalType": "uint256",
          "name": "tokenId",
          "type": "uint256"
        }
      ],
      "name": "getApproved",
      "outputs": [
        {
          "internalType": "address",
          "name": "",
          "type": "address"
        }
      ],
      "stateMutability": "view",
      "type": "function"
    },
    {
      "inputs": [
        {
          "internalType": "uint256",
          "name": "tokenId",
          "type": "uint256"
        }
      ],
      "name": "getFeeBps",
      "outputs": [
        {
          "internalType": "uint256[]",
          "name": "fees",
          "type": "uint256[]"
        }
      ],
      "stateMutability": "view",
      "type": "function"
    },
    {
      "inputs": [
        {
          "internalType": "uint256",
          "name": "tokenId",
          "type": "uint256"
        }
      ],
      "name": "getFeeRecipients",
      "outputs": [
        {
          "internalType": "address payable[]",
          "name": "recipients",
          "type": "address[]"
        }
      ],
      "stateMutability": "view",
      "type": "function"
    },
    {
      "inputs": [
        {
          "internalType": "uint256",
          "name": "tokenId",
          "type": "uint256"
        }
      ],
      "name": "getFees",
      "outputs": [
        {
          "internalType": "address payable[]",
          "name": "recipients",
          "type": "address[]"
        },
        {
          "internalType": "uint256[]",
          "name": "fees",
          "type": "uint256[]"
        }
      ],
      "stateMutability": "view",
      "type": "function"
    },
    {
      "inputs": [],
      "name": "hasPerTokenRoyalties",
      "outputs": [
        {
          "internalType": "bool",
          "name": "",
          "type": "bool"
        }
      ],
      "stateMutability": "view",
      "type": "function"
    },
    {
      "inputs": [
        {
          "internalType": "string",
          "name": "name_",
          "type": "string"
        },
        {
          "internalType": "string",
          "name": "symbol_",
          "type": "string"
        },
        {
          "internalType": "string",
          "name": "contractURI_",
          "type": "string"
        },
        {
          "internalType": "string",
          "name": "baseURI_",
          "type": "string"
        },
        {
          "internalType": "address",
          "name": "owner_",
          "type": "address"
        },
        {
          "internalType": "address",
          "name": "minter_",
          "type": "address"
        },
        {
          "internalType": "address",
          "name": "contractRoyaltiesRecipient",
          "type": "address"
        },
        {
          "internalType": "uint256",
          "name": "contractRoyaltiesValue",
          "type": "uint256"
        }
      ],
      "name": "initialize",
      "outputs": [],
      "stateMutability": "nonpayable",
      "type": "function"
    },
    {
      "inputs": [
        {
          "internalType": "address",
          "name": "owner",
          "type": "address"
        },
        {
          "internalType": "address",
          "name": "operator",
          "type": "address"
        }
      ],
      "name": "isApprovedForAll",
      "outputs": [
        {
          "internalType": "bool",
          "name": "",
          "type": "bool"
        }
      ],
      "stateMutability": "view",
      "type": "function"
    },
    {
      "inputs": [
        {
          "internalType": "address",
          "name": "spender",
          "type": "address"
        },
        {
          "internalType": "uint256",
          "name": "tokenId",
          "type": "uint256"
        },
        {
          "internalType": "uint256",
          "name": "nonce_",
          "type": "uint256"
        },
        {
          "internalType": "uint256",
          "name": "deadline",
          "type": "uint256"
        }
      ],
      "name": "makePermitDigest",
      "outputs": [
        {
          "internalType": "bytes32",
          "name": "",
          "type": "bytes32"
        }
      ],
      "stateMutability": "view",
      "type": "function"
    },
    {
      "inputs": [],
      "name": "maxSupply",
      "outputs": [
        {
          "internalType": "uint256",
          "name": "",
          "type": "uint256"
        }
      ],
      "stateMutability": "view",
      "type": "function"
    },
    {
      "inputs": [
        {
          "internalType": "address",
          "name": "to",
          "type": "address"
        }
      ],
      "name": "mint",
      "outputs": [
        {
          "internalType": "uint256",
          "name": "tokenId",
          "type": "uint256"
        }
      ],
      "stateMutability": "nonpayable",
      "type": "function"
    },
    {
      "inputs": [
        {
          "internalType": "address",
          "name": "to",
          "type": "address"
        },
        {
          "internalType": "address",
          "name": "transferTo",
          "type": "address"
        }
      ],
      "name": "mint",
      "outputs": [
        {
          "internalType": "uint256",
          "name": "tokenId",
          "type": "uint256"
        }
      ],
      "stateMutability": "nonpayable",
      "type": "function"
    },
    {
      "inputs": [
        {
          "internalType": "address",
          "name": "to",
          "type": "address"
        },
        {
          "internalType": "uint256",
          "name": "count",
          "type": "uint256"
        }
      ],
      "name": "mintBatch",
      "outputs": [
        {
          "internalType": "uint256",
          "name": "startId",
          "type": "uint256"
        },
        {
          "internalType": "uint256",
          "name": "endId",
          "type": "uint256"
        }
      ],
      "stateMutability": "nonpayable",
      "type": "function"
    },
    {
      "inputs": [],
      "name": "minted",
      "outputs": [
        {
          "internalType": "uint256",
          "name": "",
          "type": "uint256"
        }
      ],
      "stateMutability": "view",
      "type": "function"
    },
    {
      "inputs": [],
      "name": "minter",
      "outputs": [
        {
          "internalType": "address",
          "name": "",
          "type": "address"
        }
      ],
      "stateMutability": "view",
      "type": "function"
    },
    {
      "inputs": [],
      "name": "name",
      "outputs": [
        {
          "internalType": "string",
          "name": "",
          "type": "string"
        }
      ],
      "stateMutability": "view",
      "type": "function"
    },
    {
      "inputs": [
        {
          "internalType": "uint256",
          "name": "tokenId",
          "type": "uint256"
        }
      ],
      "name": "nonce",
      "outputs": [
        {
          "internalType": "uint256",
          "name": "",
          "type": "uint256"
        }
      ],
      "stateMutability": "view",
      "type": "function"
    },
    {
      "inputs": [
        {
          "internalType": "uint256",
          "name": "tokenId",
          "type": "uint256"
        }
      ],
      "name": "nonces",
      "outputs": [
        {
          "internalType": "uint256",
          "name": "",
          "type": "uint256"
        }
      ],
      "stateMutability": "view",
      "type": "function"
    },
    {
      "inputs": [],
      "name": "offsetId",
      "outputs": [
        {
          "internalType": "uint256",
          "name": "",
          "type": "uint256"
        }
      ],
      "stateMutability": "view",
      "type": "function"
    },
    {
      "inputs": [],
      "name": "owner",
      "outputs": [
        {
          "internalType": "address",
          "name": "",
          "type": "address"
        }
      ],
      "stateMutability": "view",
      "type": "function"
    },
    {
      "inputs": [
        {
          "internalType": "uint256",
          "name": "tokenId",
          "type": "uint256"
        }
      ],
      "name": "ownerOf",
      "outputs": [
        {
          "internalType": "address",
          "name": "",
          "type": "address"
        }
      ],
      "stateMutability": "view",
      "type": "function"
    },
    {
      "inputs": [
        {
          "internalType": "address",
          "name": "spender",
          "type": "address"
        },
        {
          "internalType": "uint256",
          "name": "tokenId",
          "type": "uint256"
        },
        {
          "internalType": "uint256",
          "name": "deadline",
          "type": "uint256"
        },
        {
          "internalType": "bytes",
          "name": "signature",
          "type": "bytes"
        }
      ],
      "name": "permit",
      "outputs": [],
      "stateMutability": "nonpayable",
      "type": "function"
    },
    {
      "inputs": [],
      "name": "renounceOwnership",
      "outputs": [],
      "stateMutability": "nonpayable",
      "type": "function"
    },
    {
      "inputs": [
        {
          "internalType": "uint256",
          "name": "tokenId",
          "type": "uint256"
        },
        {
          "internalType": "uint256",
          "name": "value",
          "type": "uint256"
        }
      ],
      "name": "royaltyInfo",
      "outputs": [
        {
          "internalType": "address",
          "name": "receiver",
          "type": "address"
        },
        {
          "internalType": "uint256",
          "name": "royaltyAmount",
          "type": "uint256"
        }
      ],
      "stateMutability": "view",
      "type": "function"
    },
    {
      "inputs": [
        {
          "internalType": "address",
          "name": "from",
          "type": "address"
        },
        {
          "internalType": "address",
          "name": "to",
          "type": "address"
        },
        {
          "internalType": "uint256",
          "name": "tokenId",
          "type": "uint256"
        }
      ],
      "name": "safeTransferFrom",
      "outputs": [],
      "stateMutability": "nonpayable",
      "type": "function"
    },
    {
      "inputs": [
        {
          "internalType": "address",
          "name": "from",
          "type": "address"
        },
        {
          "internalType": "address",
          "name": "to",
          "type": "address"
        },
        {
          "internalType": "uint256",
          "name": "tokenId",
          "type": "uint256"
        },
        {
          "internalType": "bytes",
          "name": "_data",
          "type": "bytes"
        }
      ],
      "name": "safeTransferFrom",
      "outputs": [],
      "stateMutability": "nonpayable",
      "type": "function"
    },
    {
      "inputs": [
        {
          "internalType": "address",
          "name": "from",
          "type": "address"
        },
        {
          "internalType": "address",
          "name": "to",
          "type": "address"
        },
        {
          "internalType": "uint256",
          "name": "tokenId",
          "type": "uint256"
        },
        {
          "internalType": "bytes",
          "name": "_data",
          "type": "bytes"
        },
        {
          "internalType": "uint256",
          "name": "deadline",
          "type": "uint256"
        },
        {
          "internalType": "bytes",
          "name": "signature",
          "type": "bytes"
        }
      ],
      "name": "safeTransferFromWithPermit",
      "outputs": [],
      "stateMutability": "nonpayable",
      "type": "function"
    },
    {
      "inputs": [
        {
          "internalType": "address",
          "name": "operator",
          "type": "address"
        },
        {
          "internalType": "bool",
          "name": "approved",
          "type": "bool"
        }
      ],
      "name": "setApprovalForAll",
      "outputs": [],
      "stateMutability": "nonpayable",
      "type": "function"
    },
    {
      "inputs": [
        {
          "internalType": "string",
          "name": "baseURI_",
          "type": "string"
        }
      ],
      "name": "setBaseURI",
      "outputs": [],
      "stateMutability": "nonpayable",
      "type": "function"
    },
    {
      "inputs": [
        {
          "internalType": "string",
          "name": "contractURI_",
          "type": "string"
        }
      ],
      "name": "setContractURI",
      "outputs": [],
      "stateMutability": "nonpayable",
      "type": "function"
    },
    {
      "inputs": [
        {
          "internalType": "address",
          "name": "recipient",
          "type": "address"
        }
      ],
      "name": "setDefaultRoyaltiesRecipient",
      "outputs": [],
      "stateMutability": "nonpayable",
      "type": "function"
    },
    {
      "inputs": [
        {
          "internalType": "uint256",
          "name": "maxSupply_",
          "type": "uint256"
        }
      ],
      "name": "setMaxSupply",
      "outputs": [],
      "stateMutability": "nonpayable",
      "type": "function"
    },
    {
      "inputs": [],
      "name": "startAtZero",
      "outputs": [],
      "stateMutability": "nonpayable",
      "type": "function"
    },
    {
      "inputs": [
        {
          "internalType": "bytes4",
          "name": "interfaceId",
          "type": "bytes4"
        }
      ],
      "name": "supportsInterface",
      "outputs": [
        {
          "internalType": "bool",
          "name": "",
          "type": "bool"
        }
      ],
      "stateMutability": "view",
      "type": "function"
    },
    {
      "inputs": [],
      "name": "symbol",
      "outputs": [
        {
          "internalType": "string",
          "name": "",
          "type": "string"
        }
      ],
      "stateMutability": "view",
      "type": "function"
    },
    {
      "inputs": [
        {
          "internalType": "uint256",
          "name": "tokenId",
          "type": "uint256"
        }
      ],
      "name": "tokenURI",
      "outputs": [
        {
          "internalType": "string",
          "name": "uri",
          "type": "string"
        }
      ],
      "stateMutability": "view",
      "type": "function"
    },
    {
      "inputs": [],
      "name": "totalSupply",
      "outputs": [
        {
          "internalType": "uint256",
          "name": "",
          "type": "uint256"
        }
      ],
      "stateMutability": "view",
      "type": "function"
    },
    {
      "inputs": [
        {
          "internalType": "address",
          "name": "from",
          "type": "address"
        },
        {
          "internalType": "address",
          "name": "to",
          "type": "address"
        },
        {
          "internalType": "uint256",
          "name": "tokenId",
          "type": "uint256"
        }
      ],
      "name": "transferFrom",
      "outputs": [],
      "stateMutability": "nonpayable",
      "type": "function"
    },
    {
      "inputs": [
        {
          "internalType": "address",
          "name": "newOwner",
          "type": "address"
        }
      ],
      "name": "transferOwnership",
      "outputs": [],
      "stateMutability": "nonpayable",
      "type": "function"
    },
    {
      "inputs": [],
      "name": "version",
      "outputs": [
        {
          "internalType": "bytes3",
          "name": "",
          "type": "bytes3"
        }
      ],
      "stateMutability": "view",
      "type": "function"
    },
    {
      "inputs": [
        {
          "internalType": "address",
          "name": "token",
          "type": "address"
        },
        {
          "internalType": "uint256",
          "name": "amount",
          "type": "uint256"
        },
        {
          "internalType": "uint256",
          "name": "tokenId",
          "type": "uint256"
        }
      ],
      "name": "withdraw",
      "outputs": [],
      "stateMutability": "nonpayable",
      "type": "function"
    }
  ],
  "transactionHash": "0x7c5c9ecbc7d0d6cda5086985716376e61258b4701affa9671e86f621ab680dba",
  "args": [],
  "solcInputHash": "b2a9555ed8e97279d3715bf9bce5a3d4",
  "bytecode": "0x608060405234801561001057600080fd5b506139e9806100206000396000f3fe608060405234801561001057600080fd5b50600436106102a05760003560e01c80636a62784211610167578063b9c4d9fb116100ce578063d5abeb0111610087578063d5abeb011461061f578063e8a3d48514610629578063e985e9c514610631578063ee1fe2ad14610644578063f1386cb814610657578063f2fde38b1461066157600080fd5b8063b9c4d9fb1461059d578063c285c442146105bd578063c4ee7f4d146105d0578063c87b56dd146105d8578063ce03fdab146105eb578063d5a06d4c146105fe57600080fd5b80638da5cb5b116101205780638da5cb5b14610538578063938e3d7b1461054957806395d89b411461055c578063a22cb46514610564578063b5c5f67214610577578063b88d4fde1461058a57600080fd5b80636a627842146104dc5780636c0360eb146104ef5780636f8b44b0146104f757806370a082311461050a578063715018a61461051d578063745a41bc1461052557600080fd5b8063248b71fc1161020b57806342966c68116101c457806342966c68146104735780634f02c4201461048657806354fd4d501461049057806355f804b3146104a35780635c8f97de146104b65780636352211e146104c957600080fd5b8063248b71fc146103c45780632a55205a146103ec57806330adf81f1461041e57806336175491146104455780633644e5151461045857806342842e0e1461046057600080fd5b80630ebd4c7f1161025d5780630ebd4c7f14610349578063141a468c14610369578063163c1f191461038a57806318160ddd1461039657806323b872dd1461039e57806324744d54146103b157600080fd5b806301ffc9a7146102a557806306fdde03146102cd57806307546172146102e2578063081812fc1461030e578063095ea7b3146103215780630a9b245314610336575b600080fd5b6102b86102b3366004612f84565b610674565b60405190151581526020015b60405180910390f35b6102d56106f0565b6040516102c49190612ff9565b610103546102f6906001600160a01b031681565b6040516001600160a01b0390911681526020016102c4565b6102f661031c36600461300c565b610782565b61033461032f36600461304a565b61080f565b005b6102b8610344366004613076565b610925565b61035c61035736600461300c565b610953565b6040516102c491906130ce565b61037c61037736600461300c565b6109b0565b6040519081526020016102c4565b60fb5460ff16156102b8565b61037c6109bb565b6103346103ac3660046130e1565b6109d4565b6103346103bf3660046131e7565b610a06565b6103d76103d236600461304a565b610a26565b604080519283526020830191909152016102c4565b6103ff6103fa366004613282565b610b86565b604080516001600160a01b0390931683526020830191909152016102c4565b61037c7f49ecf333e5b8c95c40fdafc95c1ad136e8914a8fb55e9dc8bb01eaa83a2df9ad81565b61037c6104533660046132a4565b610bbe565b61037c610c76565b61033461046e3660046130e1565b610c9c565b61033461048136600461300c565b610cb7565b61037c6101045481565b60405161010160e81b81526020016102c4565b6103346104b13660046132df565b610d31565b6103346104c4366004613076565b610d73565b6102f66104d736600461300c565b610e05565b61037c6104ea366004613076565b610e7c565b6102d5610f03565b61033461050536600461300c565b610f92565b61037c610518366004613076565b610fe4565b61033461106b565b610334610533366004613314565b6110a1565b6033546001600160a01b03166102f6565b6103346105573660046132df565b6111c6565b6102d5611204565b610334610572366004613385565b611213565b6103346105853660046133be565b6112d8565b6103346105983660046133f3565b611670565b6105b06105ab36600461300c565b6116a2565b6040516102c49190613480565b6103346105cb366004613493565b611718565b6103346117e8565b6102d56105e636600461300c565b61183c565b61037c6105f936600461300c565b6119a4565b61061161060c36600461300c565b6119df565b6040516102c492919061357c565b61037c6101075481565b6102d5611a8c565b6102b861063f3660046135a1565b611a9a565b61037c6106523660046135a1565b611ac8565b61037c6101055481565b61033461066f366004613076565b611b57565b60006001600160e01b0319821663152a902d60e11b14806106a557506001600160e01b03198216632dde656160e21b145b806106c057506001600160e01b031982166335681b5360e21b145b806106db57506001600160e01b03198216635604e22560e01b145b806106ea57506106ea82611bef565b92915050565b6060609780546106ff906135cf565b80601f016020809104026020016040519081016040528092919081815260200182805461072b906135cf565b80156107785780601f1061074d57610100808354040283529160200191610778565b820191906000526020600020905b81548152906001019060200180831161075b57829003601f168201915b5050505050905090565b600061078d82611c3f565b6107f35760405162461bcd60e51b815260206004820152602c60248201527f4552433732313a20617070726f76656420717565727920666f72206e6f6e657860448201526b34b9ba32b73a103a37b5b2b760a11b60648201526084015b60405180910390fd5b506000908152609b60205260409020546001600160a01b031690565b600061081a82610e05565b9050806001600160a01b0316836001600160a01b031614156108885760405162461bcd60e51b815260206004820152602160248201527f4552433732313a20617070726f76616c20746f2063757272656e74206f776e656044820152603960f91b60648201526084016107ea565b336001600160a01b03821614806108a457506108a48133611a9a565b6109165760405162461bcd60e51b815260206004820152603860248201527f4552433732313a20617070726f76652063616c6c6572206973206e6f74206f7760448201527f6e6572206e6f7220617070726f76656420666f7220616c6c000000000000000060648201526084016107ea565b6109208383611c5c565b505050565b6000816001600160a01b03166109436033546001600160a01b031690565b6001600160a01b03161492915050565b6060600061096083611cca565b91505080156109aa576040805160018082528183019092529060208083019080368337019050509150808260008151811061099d5761099d613604565b6020026020010181815250505b50919050565b60006106ea826119a4565b600061010654610104546109cf9190613630565b905090565b6109df335b82611e35565b6109fb5760405162461bcd60e51b81526004016107ea90613647565b610920838383611ef7565b610a12338584846110a1565b610a1e86868686611670565b505050505050565b6101035460009081906001600160a01b0316338115610a7657816001600160a01b0316816001600160a01b031614610a715760405163ea8e4eb560e01b815260040160405180910390fd5b610aa4565b6033546001600160a01b03828116911614610aa45760405163ea8e4eb560e01b815260040160405180910390fd5b84610ac25760405163592331f760e01b815260040160405180910390fd5b610105546101045481610ad6826001613698565b610ae09190613630565b95506001610aee8888613698565b610af89190613630565b945061010754600014158015610b1b57508161010754610b189190613630565b85115b15610b395760405163db5be9b160e01b815260040160405180910390fd5b60005b87811015610b6957610b5789610b52838a613698565b611f02565b80610b61816136b0565b915050610b3c565b50610b748782613698565b61010481905550505050509250929050565b600080610b9284611cca565b90925090508015610bb757612710610baa82856136cb565b610bb49190613700565b90505b9250929050565b6000610c6b610bcb610c76565b604080517f49ecf333e5b8c95c40fdafc95c1ad136e8914a8fb55e9dc8bb01eaa83a2df9ad6020808301919091526001600160a01b038a1682840152606082018990526080820188905260a08083018890528351808403909101815260c08301845280519082012061190160f01b60e084015260e28301949094526101028083019490945282518083039094018452610122909101909152815191012090565b90505b949350505050565b60ff5460009046908114610c9257610c8d81611f1c565b610c96565b60fe545b91505090565b61092083838360405180602001604052806000815250611670565b610cc0336109d9565b610d255760405162461bcd60e51b815260206004820152603060248201527f4552433732314275726e61626c653a2063616c6c6572206973206e6f74206f7760448201526f1b995c881b9bdc88185c1c1c9bdd995960821b60648201526084016107ea565b610d2e81611fc8565b50565b6033546001600160a01b03163314610d5b5760405162461bcd60e51b81526004016107ea90613714565b8051610d6f90610101906020840190612ed5565b5050565b6033546001600160a01b03163314610d9d5760405162461bcd60e51b81526004016107ea90613714565b60fb5460ff16610de75760405162461bcd60e51b8152602060048201526015602482015274215045525f544f4b454e5f524f59414c544945532160581b60448201526064016107ea565b60fc80546001600160a01b0319166001600160a01b03831617905550565b6000818152609960205260408120546001600160a01b0316806106ea5760405162461bcd60e51b815260206004820152602960248201527f4552433732313a206f776e657220717565727920666f72206e6f6e657869737460448201526832b73a103a37b5b2b760b91b60648201526084016107ea565b610103546000906001600160a01b0316338115610eca57816001600160a01b0316816001600160a01b031614610ec55760405163ea8e4eb560e01b815260040160405180910390fd5b610ef8565b6033546001600160a01b03828116911614610ef85760405163ea8e4eb560e01b815260040160405180910390fd5b610c6e846000611fe7565b6101018054610f11906135cf565b80601f0160208091040260200160405190810160405280929190818152602001828054610f3d906135cf565b8015610f8a5780601f10610f5f57610100808354040283529160200191610f8a565b820191906000526020600020905b815481529060010190602001808311610f6d57829003601f168201915b505050505081565b6033546001600160a01b03163314610fbc5760405162461bcd60e51b81526004016107ea90613714565b6101075415610fde576040516337d6328b60e11b815260040160405180910390fd5b61010755565b60006001600160a01b03821661104f5760405162461bcd60e51b815260206004820152602a60248201527f4552433732313a2062616c616e636520717565727920666f7220746865207a65604482015269726f206164647265737360b01b60648201526084016107ea565b506001600160a01b03166000908152609a602052604090205490565b6033546001600160a01b031633146110955760405162461bcd60e51b81526004016107ea90613714565b61109f600061208c565b565b428210156110f15760405162461bcd60e51b815260206004820152601960248201527f215045524d49545f444541444c494e455f45585049524544210000000000000060448201526064016107ea565b60006110fc84610e05565b90506000611120868661010060008981526020019081526020016000205487610bbe565b9050600061112e82856120de565b509050826001600160a01b0316816001600160a01b0316148061115657506111568382611a9a565b80611167575061116783838661214b565b6111b35760405162461bcd60e51b815260206004820152601a60248201527f21494e56414c49445f5045524d49545f5349474e41545552452100000000000060448201526064016107ea565b6111bd8787611c5c565b50505050505050565b6033546001600160a01b031633146111f05760405162461bcd60e51b81526004016107ea90613714565b8051610d6f90610102906020840190612ed5565b6060609880546106ff906135cf565b6001600160a01b03821633141561126c5760405162461bcd60e51b815260206004820152601960248201527f4552433732313a20617070726f766520746f2063616c6c65720000000000000060448201526064016107ea565b336000818152609c602090815260408083206001600160a01b03871680855290835292819020805460ff191686151590811790915590519081529192917f17307eab39ab6107e8899845ad3d59bd9653f200f220920489ca2b5937696c31910160405180910390a35050565b6033546001600160a01b031633146113025760405162461bcd60e51b81526004016107ea90613714565b6001600160a01b0383166113eb5781158061131d5750814710155b6113595760405162461bcd60e51b815260206004820152600d60248201526c2157524f4e475f56414c55452160981b60448201526064016107ea565b604051600090339084908381818185875af1925050503d806000811461139b576040519150601f19603f3d011682016040523d82523d6000602084013e6113a0565b606091505b50509050806113e55760405162461bcd60e51b8152602060048201526011602482015270215452414e534645525f4641494c45442160781b60448201526064016107ea565b50505050565b6040516301ffc9a760e01b8152636cdb3d1360e11b60048201526001600160a01b038416906301ffc9a79060240160206040518083038186803b15801561143157600080fd5b505afa158015611445573d6000803e3d6000fd5b505050506040513d601f19601f820116820180604052508101906114699190613749565b156114e657604051637921219560e11b8152306004820152336024820152604481018290526064810183905260a06084820152600060a48201526001600160a01b0384169063f242432a9060c4015b600060405180830381600087803b1580156114d257600080fd5b505af11580156111bd573d6000803e3d6000fd5b6040516301ffc9a760e01b81526380ac58cd60e01b60048201526001600160a01b038416906301ffc9a79060240160206040518083038186803b15801561152c57600080fd5b505afa158015611540573d6000803e3d6000fd5b505050506040513d601f19601f820116820180604052508101906115649190613749565b156115b057604051635c46a7ef60e11b81523060048201523360248201526044810182905260806064820152600060848201526001600160a01b0384169063b88d4fde9060a4016114b8565b60405163a9059cbb60e01b8152336004820152602481018390526001600160a01b0384169063a9059cbb90604401602060405180830381600087803b1580156115f857600080fd5b505af115801561160c573d6000803e3d6000fd5b505050506040513d601f19601f820116820180604052508101906116309190613749565b6109205760405162461bcd60e51b8152602060048201526011602482015270215452414e534645525f4641494c45442160781b60448201526064016107ea565b61167a3383611e35565b6116965760405162461bcd60e51b81526004016107ea90613647565b6113e584848484612297565b60606000806116b084611cca565b915091508060001461171157604080516001808252818301909252906020808301908036833701905050925081836000815181106116f0576116f0613604565b60200260200101906001600160a01b031690816001600160a01b0316815250505b5050919050565b600054610100900460ff1680611731575060005460ff16155b61174d5760405162461bcd60e51b81526004016107ea90613766565b600054610100900460ff1615801561176f576000805461ffff19166101011790555b61177d8989898960006122ca565b6001600160a01b038416156117a95761010380546001600160a01b0319166001600160a01b0386161790555b6117b3838361233d565b6001600160a01b038516156117cb576117cb85611b57565b80156117dd576000805461ff00191690555b505050505050505050565b6033546001600160a01b031633146118125760405162461bcd60e51b81526004016107ea90613714565b610104541561183457604051631bbdf5c560e31b815260040160405180910390fd5b600161010555565b606061184782611c3f565b6118635760405162461bcd60e51b81526004016107ea906137b4565b610103546001600160a01b0316801580159061187f5750803b15155b801561190457506040516301ffc9a760e01b815263e9dc637560e01b60048201526001600160a01b038216906301ffc9a79060240160206040518083038186803b1580156118cc57600080fd5b505afa1580156118e0573d6000803e3d6000fd5b505050506040513d601f19601f820116820180604052508101906119049190613749565b1561198e5760405163e9dc637560e01b8152306004820152602481018490526001600160a01b0382169063e9dc63759060440160006040518083038186803b15801561194f57600080fd5b505afa158015611963573d6000803e3d6000fd5b505050506040513d6000823e601f3d908101601f1916820160405261198b91908101906137dd565b91505b81516109aa5761199d83612437565b9392505050565b60006119af82611c3f565b6119cb5760405162461bcd60e51b81526004016107ea906137b4565b506000908152610100602052604090205490565b6060806000806119ee85611cca565b9150915080600014611a855760408051600180825281830190925290602080830190803683370190505093508184600081518110611a2e57611a2e613604565b6001600160a01b03929092166020928302919091018201526040805160018082528183019092529182810190803683370190505092508083600081518110611a7857611a78613604565b6020026020010181815250505b5050915091565b6101028054610f11906135cf565b6001600160a01b039182166000908152609c6020908152604080832093909416825291909152205460ff1690565b610103546000906001600160a01b0316338115611b1657816001600160a01b0316816001600160a01b031614611b115760405163ea8e4eb560e01b815260040160405180910390fd5b611b44565b6033546001600160a01b03828116911614611b445760405163ea8e4eb560e01b815260040160405180910390fd5b611b4e8585611fe7565b95945050505050565b6033546001600160a01b03163314611b815760405162461bcd60e51b81526004016107ea90613714565b6001600160a01b038116611be65760405162461bcd60e51b815260206004820152602660248201527f4f776e61626c653a206e6577206f776e657220697320746865207a65726f206160448201526564647265737360d01b60648201526084016107ea565b610d2e8161208c565b60006001600160e01b031982166380ac58cd60e01b1480611c2057506001600160e01b03198216635b5e139f60e01b145b806106ea57506301ffc9a760e01b6001600160e01b03198316146106ea565b6000908152609960205260409020546001600160a01b0316151590565b6000818152609b6020526040902080546001600160a01b0319166001600160a01b0384169081179091558190611c9182610e05565b6001600160a01b03167f8c5be1e5ebec7d5bd14f71427d1e84f3dd0314c0f7b2291e5b200ac8c7c3b92560405160405180910390a45050565b600080611cd683611c3f565b611cf25760405162461bcd60e51b81526004016107ea906137b4565b611cfb83612501565b909250905080611e3057610103546001600160a01b03168015801590611d215750803b15155b8015611da657506040516301ffc9a760e01b8152632782d6c760e01b60048201526001600160a01b038216906301ffc9a79060240160206040518083038186803b158015611d6e57600080fd5b505afa158015611d82573d6000803e3d6000fd5b505050506040513d601f19601f82011682018060405250810190611da69190613749565b15611e2e57604051632782d6c760e01b8152306004820152602481018590526001600160a01b03821690632782d6c790604401604080518083038186803b158015611df057600080fd5b505afa158015611e04573d6000803e3d6000fd5b505050506040513d601f19601f82011682018060405250810190611e28919061384b565b90935091505b505b915091565b6000611e4082611c3f565b611ea15760405162461bcd60e51b815260206004820152602c60248201527f4552433732313a206f70657261746f7220717565727920666f72206e6f6e657860448201526b34b9ba32b73a103a37b5b2b760a11b60648201526084016107ea565b6000611eac83610e05565b9050806001600160a01b0316846001600160a01b03161480611ee75750836001600160a01b0316611edc84610782565b6001600160a01b0316145b80610c6e5750610c6e8185611a9a565b6109208383836125b3565b610d6f8282604051806020016040528060008152506125d6565b60007f8b73c3c69bb8fe3d512ecc4cf759cc79239f7b179b0ffacaa9a75d522b39400f611f476106f0565b805160209182012060408051808201825260018152603160f81b90840152805192830193909352918101919091527fc89efdaa54c0f20c7adf612882df0950f5a951637e0307cdcb4c672f298b8bc66060820152608081018390523060a082015260c001604051602081830303815290604052805190602001209050919050565b6101068054906000611fd9836136b0565b9190505550610d2e81612609565b6101055461010454600091908190612000906001613698565b61200a9190613630565b91506101075460001415801561202d5750806101075461202a9190613630565b82115b1561204b5760405163db5be9b160e01b815260040160405180910390fd5b6120558483611f02565b6001600160a01b0383161561206f5761206f848484611ef7565b6101048054906000612080836136b0565b91905055505092915050565b603380546001600160a01b038381166001600160a01b0319831681179093556040519116919082907f8be0079c531659141344cd1fd0a4f28419497f9722a3daafe3b4186f6b6457e090600090a35050565b6000808251604114156121155760208301516040840151606085015160001a61210987828585612621565b94509450505050610bb7565b82516040141561213f576020830151604084015161213486838361270e565b935093505050610bb7565b50600090506002610bb7565b600080600061215a85856120de565b9092509050600081600481111561217357612173613879565b1480156121915750856001600160a01b0316826001600160a01b0316145b156121a15760019250505061199d565b600080876001600160a01b0316631626ba7e60e01b88886040516024016121c992919061388f565b60408051601f198184030181529181526020820180516001600160e01b03166001600160e01b031990941693909317909252905161220791906138a8565b600060405180830381855afa9150503d8060008114612242576040519150601f19603f3d011682016040523d82523d6000602084013e612247565b606091505b509150915081801561225a575080516020145b801561228b57508051630b135d3f60e11b9061227f90830160209081019084016138c4565b6001600160e01b031916145b98975050505050505050565b6122a2848484611ef7565b6122ae8484848461273d565b6113e55760405162461bcd60e51b81526004016107ea906138e1565b6122d2612847565b6122dc85856128c2565b6122e4612957565b8251156123015782516122ff90610102906020860190612ed5565b505b81511561231e57815161231c90610101906020850190612ed5565b505b6001600160a01b038116156123365761233681611b57565b5050505050565b60fb5460ff161561239f5760405162461bcd60e51b815260206004820152602660248201527f2145524332393831526f79616c746965733a44454641554c545f414c52454144604482015265595f5345542160d01b60648201526084016107ea565b6127108111156123f15760405162461bcd60e51b815260206004820152601b60248201527f2145524332393831526f79616c746965733a544f4f5f4849474821000000000060448201526064016107ea565b60fb805460ff19166001179055604080518082019091526001600160a01b039092168083526001600160601b039091166020909201829052600160a01b9091021760fc55565b606061244282611c3f565b6124a65760405162461bcd60e51b815260206004820152602f60248201527f4552433732314d657461646174613a2055524920717565727920666f72206e6f60448201526e3732bc34b9ba32b73a103a37b5b2b760891b60648201526084016107ea565b60006124b061296c565b905060008151116124d0576040518060200160405280600081525061199d565b806124da8461297c565b6040516020016124eb929190613933565b6040516020818303038152906040529392505050565b6040805180820190915260008082526020820181905290819060fb5460ff161561255957506040805180820190915260fc546001600160a01b0381168252600160a01b90046001600160601b03166020820152612596565b50600083815260fd60209081526040918290208251808401909352546001600160a01b0381168352600160a01b90046001600160601b0316908201525b806000015181602001516001600160601b03169250925050915091565b6001600160a01b038316156125cb576125cb81612a7a565b610920838383612a9d565b6125e08383612c3d565b6125ed600084848461273d565b6109205760405162461bcd60e51b81526004016107ea906138e1565b600081815260fd6020526040812055610d2e81612d70565b6000807f7fffffffffffffffffffffffffffffff5d576e7357a4501ddfe92f46681b20a08311156126585750600090506003612705565b8460ff16601b1415801561267057508460ff16601c14155b156126815750600090506004612705565b6040805160008082526020820180845289905260ff881692820192909252606081018690526080810185905260019060a0016020604051602081039080840390855afa1580156126d5573d6000803e3d6000fd5b5050604051601f1901519150506001600160a01b0381166126fe57600060019250925050612705565b9150600090505b94509492505050565b6000806001600160ff1b03831660ff84901c601b0161272f87828885612621565b935093505050935093915050565b60006001600160a01b0384163b1561283f57604051630a85bd0160e11b81526001600160a01b0385169063150b7a0290612781903390899088908890600401613962565b602060405180830381600087803b15801561279b57600080fd5b505af19250505080156127cb575060408051601f3d908101601f191682019092526127c8918101906138c4565b60015b612825573d8080156127f9576040519150601f19603f3d011682016040523d82523d6000602084013e6127fe565b606091505b50805161281d5760405162461bcd60e51b81526004016107ea906138e1565b805181602001fd5b6001600160e01b031916630a85bd0160e11b149050610c6e565b506001610c6e565b600054610100900460ff1680612860575060005460ff16155b61287c5760405162461bcd60e51b81526004016107ea90613766565b600054610100900460ff1615801561289e576000805461ffff19166101011790555b6128a6612e0b565b6128ae612e75565b8015610d2e576000805461ff001916905550565b600054610100900460ff16806128db575060005460ff16155b6128f75760405162461bcd60e51b81526004016107ea90613766565b600054610100900460ff16158015612919576000805461ffff19166101011790555b825161292c906097906020860190612ed5565b508151612940906098906020850190612ed5565b508015610920576000805461ff0019169055505050565b4660ff81905561296681611f1c565b60fe5550565b606061010180546106ff906135cf565b6060816129a05750506040805180820190915260018152600360fc1b602082015290565b8160005b81156129ca57806129b4816136b0565b91506129c39050600a83613700565b91506129a4565b60008167ffffffffffffffff8111156129e5576129e5613122565b6040519080825280601f01601f191660200182016040528015612a0f576020820181803683370190505b5090505b8415610c6e57612a24600183613630565b9150612a31600a8661399f565b612a3c906030613698565b60f81b818381518110612a5157612a51613604565b60200101906001600160f81b031916908160001a905350612a73600a86613700565b9450612a13565b600081815261010060205260408120805491612a95836136b0565b919050555050565b826001600160a01b0316612ab082610e05565b6001600160a01b031614612b185760405162461bcd60e51b815260206004820152602960248201527f4552433732313a207472616e73666572206f6620746f6b656e2074686174206960448201526839903737ba1037bbb760b91b60648201526084016107ea565b6001600160a01b038216612b7a5760405162461bcd60e51b8152602060048201526024808201527f4552433732313a207472616e7366657220746f20746865207a65726f206164646044820152637265737360e01b60648201526084016107ea565b612b85600082611c5c565b6001600160a01b0383166000908152609a60205260408120805460019290612bae908490613630565b90915550506001600160a01b0382166000908152609a60205260408120805460019290612bdc908490613698565b909155505060008181526099602052604080822080546001600160a01b0319166001600160a01b0386811691821790925591518493918716917fddf252ad1be2c89b69c2b068fc378daa952ba7f163c4a11628f55a4df523b3ef91a4505050565b6001600160a01b038216612c935760405162461bcd60e51b815260206004820181905260248201527f4552433732313a206d696e7420746f20746865207a65726f206164647265737360448201526064016107ea565b612c9c81611c3f565b15612ce95760405162461bcd60e51b815260206004820152601c60248201527f4552433732313a20746f6b656e20616c7265616479206d696e7465640000000060448201526064016107ea565b6001600160a01b0382166000908152609a60205260408120805460019290612d12908490613698565b909155505060008181526099602052604080822080546001600160a01b0319166001600160a01b03861690811790915590518392907fddf252ad1be2c89b69c2b068fc378daa952ba7f163c4a11628f55a4df523b3ef908290a45050565b6000612d7b82610e05565b9050612d88600083611c5c565b6001600160a01b0381166000908152609a60205260408120805460019290612db1908490613630565b909155505060008281526099602052604080822080546001600160a01b0319169055518391906001600160a01b038416907fddf252ad1be2c89b69c2b068fc378daa952ba7f163c4a11628f55a4df523b3ef908390a45050565b600054610100900460ff1680612e24575060005460ff16155b612e405760405162461bcd60e51b81526004016107ea90613766565b600054610100900460ff161580156128ae576000805461ffff19166101011790558015610d2e576000805461ff001916905550565b600054610100900460ff1680612e8e575060005460ff16155b612eaa5760405162461bcd60e51b81526004016107ea90613766565b600054610100900460ff16158015612ecc576000805461ffff19166101011790555b6128ae3361208c565b828054612ee1906135cf565b90600052602060002090601f016020900481019282612f035760008555612f49565b82601f10612f1c57805160ff1916838001178555612f49565b82800160010185558215612f49579182015b82811115612f49578251825591602001919060010190612f2e565b50612f55929150612f59565b5090565b5b80821115612f555760008155600101612f5a565b6001600160e01b031981168114610d2e57600080fd5b600060208284031215612f9657600080fd5b813561199d81612f6e565b60005b83811015612fbc578181015183820152602001612fa4565b838111156113e55750506000910152565b60008151808452612fe5816020860160208601612fa1565b601f01601f19169290920160200192915050565b60208152600061199d6020830184612fcd565b60006020828403121561301e57600080fd5b5035919050565b6001600160a01b0381168114610d2e57600080fd5b803561304581613025565b919050565b6000806040838503121561305d57600080fd5b823561306881613025565b946020939093013593505050565b60006020828403121561308857600080fd5b813561199d81613025565b600081518084526020808501945080840160005b838110156130c3578151875295820195908201906001016130a7565b509495945050505050565b60208152600061199d6020830184613093565b6000806000606084860312156130f657600080fd5b833561310181613025565b9250602084013561311181613025565b929592945050506040919091013590565b634e487b7160e01b600052604160045260246000fd5b604051601f8201601f1916810167ffffffffffffffff8111828210171561316157613161613122565b604052919050565b600067ffffffffffffffff82111561318357613183613122565b50601f01601f191660200190565b600082601f8301126131a257600080fd5b81356131b56131b082613169565b613138565b8181528460208386010111156131ca57600080fd5b816020850160208301376000918101602001919091529392505050565b60008060008060008060c0878903121561320057600080fd5b863561320b81613025565b9550602087013561321b81613025565b945060408701359350606087013567ffffffffffffffff8082111561323f57600080fd5b61324b8a838b01613191565b94506080890135935060a089013591508082111561326857600080fd5b5061327589828a01613191565b9150509295509295509295565b6000806040838503121561329557600080fd5b50508035926020909101359150565b600080600080608085870312156132ba57600080fd5b84356132c581613025565b966020860135965060408601359560600135945092505050565b6000602082840312156132f157600080fd5b813567ffffffffffffffff81111561330857600080fd5b610c6e84828501613191565b6000806000806080858703121561332a57600080fd5b843561333581613025565b93506020850135925060408501359150606085013567ffffffffffffffff81111561335f57600080fd5b61336b87828801613191565b91505092959194509250565b8015158114610d2e57600080fd5b6000806040838503121561339857600080fd5b82356133a381613025565b915060208301356133b381613377565b809150509250929050565b6000806000606084860312156133d357600080fd5b83356133de81613025565b95602085013595506040909401359392505050565b6000806000806080858703121561340957600080fd5b843561341481613025565b9350602085013561342481613025565b925060408501359150606085013567ffffffffffffffff81111561335f57600080fd5b600081518084526020808501945080840160005b838110156130c35781516001600160a01b03168752958201959082019060010161345b565b60208152600061199d6020830184613447565b600080600080600080600080610100898b0312156134b057600080fd5b883567ffffffffffffffff808211156134c857600080fd5b6134d48c838d01613191565b995060208b01359150808211156134ea57600080fd5b6134f68c838d01613191565b985060408b013591508082111561350c57600080fd5b6135188c838d01613191565b975060608b013591508082111561352e57600080fd5b5061353b8b828c01613191565b95505061354a60808a0161303a565b935061355860a08a0161303a565b925061356660c08a0161303a565b915060e089013590509295985092959890939650565b60408152600061358f6040830185613447565b8281036020840152611b4e8185613093565b600080604083850312156135b457600080fd5b82356135bf81613025565b915060208301356133b381613025565b600181811c908216806135e357607f821691505b602082108114156109aa57634e487b7160e01b600052602260045260246000fd5b634e487b7160e01b600052603260045260246000fd5b634e487b7160e01b600052601160045260246000fd5b6000828210156136425761364261361a565b500390565b60208082526031908201527f4552433732313a207472616e736665722063616c6c6572206973206e6f74206f6040820152701ddb995c881b9bdc88185c1c1c9bdd9959607a1b606082015260800190565b600082198211156136ab576136ab61361a565b500190565b60006000198214156136c4576136c461361a565b5060010190565b60008160001904831182151516156136e5576136e561361a565b500290565b634e487b7160e01b600052601260045260246000fd5b60008261370f5761370f6136ea565b500490565b6020808252818101527f4f776e61626c653a2063616c6c6572206973206e6f7420746865206f776e6572604082015260600190565b60006020828403121561375b57600080fd5b815161199d81613377565b6020808252602e908201527f496e697469616c697a61626c653a20636f6e747261637420697320616c72656160408201526d191e481a5b9a5d1a585b1a5e995960921b606082015260800190565b6020808252600f908201526e21554e4b4e4f574e5f544f4b454e2160881b604082015260600190565b6000602082840312156137ef57600080fd5b815167ffffffffffffffff81111561380657600080fd5b8201601f8101841361381757600080fd5b80516138256131b082613169565b81815285602083850101111561383a57600080fd5b611b4e826020830160208601612fa1565b6000806040838503121561385e57600080fd5b825161386981613025565b6020939093015192949293505050565b634e487b7160e01b600052602160045260246000fd5b828152604060208201526000610c6e6040830184612fcd565b600082516138ba818460208701612fa1565b9190910192915050565b6000602082840312156138d657600080fd5b815161199d81612f6e565b60208082526032908201527f4552433732313a207472616e7366657220746f206e6f6e20455243373231526560408201527131b2b4bb32b91034b6b83632b6b2b73a32b960711b606082015260800190565b60008351613945818460208801612fa1565b835190830190613959818360208801612fa1565b01949350505050565b6001600160a01b038581168252841660208201526040810183905260806060820181905260009061399590830184612fcd565b9695505050505050565b6000826139ae576139ae6136ea565b50069056fea264697066735822122050be9a15dc804f635682476d3871205439bbaac18019bd54ebebccc43b01c08a64736f6c63430008090033",
  "devdoc": {
    "author": "Simon Fremaux (@dievardump)",
    "details": "This is a \"slim\" version of an ERC721 for NiftyForge      Slim ERC721 do not have all the bells and whistle (no roles, no modules, no events)      Slim is mostly made for series (Generative stuff, Series with incremntial token ids, PFPs...)      or for controlled env      The mint starts from 1 (or 0) and goes up, until maxTokenId      If a minter is set at initialisation, only this address can mint. forever.      else, only the owner can mint.      royalties are not managed per item, but are contract wide.",
    "kind": "dev",
    "methods": {
      "DOMAIN_SEPARATOR()": {
        "details": "Return the DOMAIN_SEPARATOR."
      },
      "approve(address,uint256)": {
        "details": "See {IERC721-approve}."
      },
      "balanceOf(address)": {
        "details": "See {IERC721-balanceOf}."
      },
      "burn(uint256)": {
        "details": "Burns `tokenId`. See {ERC721-_burn}. Requirements: - The caller must own `tokenId` or be an approved operator."
      },
      "canEdit(address)": {
        "params": {
          "account": "the address to check"
        }
      },
      "getApproved(uint256)": {
        "details": "See {IERC721-getApproved}."
      },
      "initialize(string,string,string,string,address,address,address,uint256)": {
        "params": {
          "baseURI_": "the contract baseURI (if there is)  - can be empty \"\"",
          "contractRoyaltiesRecipient": "the recipient, if the contract has \"contract wide royalties\"",
          "contractRoyaltiesValue": "the value, modules to add / enable directly at creation",
          "contractURI_": "The contract URI (containing its metadata) - can be empty \"\"",
          "minter_": "The address that has the right to mint on the collection",
          "name_": "name of the contract (see ERC721)",
          "owner_": "Address to whom transfer ownership",
          "symbol_": "symbol of the contract (see ERC721)"
        }
      },
      "isApprovedForAll(address,address)": {
        "details": "See {IERC721-isApprovedForAll}."
      },
      "mint(address)": {
        "params": {
          "to": "the recipient"
        },
        "returns": {
          "tokenId": "the tokenId minted"
        }
      },
      "mint(address,address)": {
        "params": {
          "to": "the first recipient",
          "transferTo": "the end recipient"
        },
        "returns": {
          "tokenId": "the tokenId minted"
        }
      },
      "mintBatch(address,uint256)": {
        "params": {
          "to": "array of address of recipients"
        },
        "returns": {
          "startId": "and endId"
        }
      },
      "name()": {
        "details": "See {IERC721Metadata-name}."
      },
      "nonce(uint256)": {
        "params": {
          "tokenId": "token id"
        },
        "returns": {
          "_0": "current nonce"
        }
      },
      "nonces(uint256)": {
        "params": {
          "tokenId": "token id"
        },
        "returns": {
          "_0": "current nonce"
        }
      },
      "owner()": {
        "details": "Returns the address of the current owner."
      },
      "ownerOf(uint256)": {
        "details": "See {IERC721-ownerOf}."
      },
      "permit(address,uint256,uint256,bytes)": {
        "details": "Anyone can call this to approve `spender`, even a third-party",
        "params": {
          "deadline": "the deadline for the permit to be used",
          "signature": "permit",
          "spender": "the actor to approve",
          "tokenId": "the token id"
        }
      },
      "renounceOwnership()": {
        "details": "Leaves the contract without owner. It will not be possible to call `onlyOwner` functions anymore. Can only be called by the current owner. NOTE: Renouncing ownership will leave the contract without an owner, thereby removing any functionality that is only available to the owner."
      },
      "royaltyInfo(uint256,uint256)": {
        "params": {
          "_tokenId": "- the NFT asset queried for royalty information",
          "_value": "- the sale price of the NFT asset specified by _tokenId"
        },
        "returns": {
          "receiver": "- address of who should be sent the royalty payment",
          "royaltyAmount": "- the royalty payment amount for value sale price"
        }
      },
      "safeTransferFrom(address,address,uint256)": {
        "details": "See {IERC721-safeTransferFrom}."
      },
      "safeTransferFrom(address,address,uint256,bytes)": {
        "details": "See {IERC721-safeTransferFrom}."
      },
      "safeTransferFromWithPermit(address,address,uint256,bytes,uint256,bytes)": {
        "details": "this supposes that the permit is for msg.sender",
        "params": {
          "_data": "optional data to add",
          "deadline": "the deadline for the permit to be used",
          "from": "current owner",
          "signature": "of permit",
          "to": "recipient",
          "tokenId": "the token id"
        }
      },
      "setApprovalForAll(address,bool)": {
        "details": "See {IERC721-setApprovalForAll}."
      },
      "setBaseURI(string)": {
        "details": "only an editor can do that (account or module)",
        "params": {
          "baseURI_": "the new base token uri used in tokenURI()"
        }
      },
      "setContractURI(string)": {
        "details": "needs to be owner",
        "params": {
          "contractURI_": "new contract URI"
        }
      },
      "setDefaultRoyaltiesRecipient(address)": {
        "details": "an editor can call this",
        "params": {
          "recipient": "new default royalties recipient"
        }
      },
      "setMaxSupply(uint256)": {
        "details": "be careful, this is a one time call function.      When set, the maxSupply can not be reverted nor changed",
        "params": {
          "maxSupply_": "the max supply for this contract"
        }
      },
      "supportsInterface(bytes4)": {
        "details": "See {IERC165-supportsInterface}."
      },
      "symbol()": {
        "details": "See {IERC721Metadata-symbol}."
      },
      "tokenURI(uint256)": {
        "details": "This function will first check if the minter is an INFModuleTokenURI      if yes, tries to get the tokenURI from it      else it lets the tokenURI be built as usual using _baseURI",
        "params": {
          "tokenId": "the tokenId"
        },
        "returns": {
          "uri": "the tokenURI"
        }
      },
      "totalSupply()": {
        "returns": {
          "_0": "the current total supply"
        }
      },
      "transferFrom(address,address,uint256)": {
        "details": "See {IERC721-transferFrom}."
      },
      "transferOwnership(address)": {
        "details": "Transfers ownership of the contract to a new account (`newOwner`). Can only be called by the current owner."
      },
      "version()": {
        "returns": {
          "_0": "the current implementation version following the scheme 0x[erc][type][version] erc: 00 => ERC721 | 01 => ERC1155 type: 00 => full | 01 => slim version: 00, 01, 02, 03..."
        }
      },
      "withdraw(address,uint256,uint256)": {
        "params": {
          "amount": "the amount to withdraw if native token, erc20 or erc1155 - must be 0 for ERC721",
          "token": "the token to withdraw from. address(0) means native chain token",
          "tokenId": "the tokenId to withdraw for ERC1155 and ERC721"
        }
      }
    },
    "title": "NiftyForge721Slim",
    "version": 1
  },
  "userdoc": {
    "kind": "user",
    "methods": {
      "canEdit(address)": {
        "notice": "Helper to know if an address can do the action an Editor can"
      },
      "contractURI()": {
        "notice": "contract URI (collection description)"
      },
      "getFeeBps(uint256)": {
        "notice": "see\tIRaribleSecondarySales"
      },
      "getFeeRecipients(uint256)": {
        "notice": "see\tIRaribleSecondarySales"
      },
      "initialize(string,string,string,string,address,address,address,uint256)": {
        "notice": "this is the constructor of the contract, called at the time of creation         Although it uses what are called upgradeable contracts, this is only to         be able to make deployment cheap using a Proxy but NiftyForge contracts         ARE NOT UPGRADEABLE => the proxy used is not an upgradeable proxy, the implementation is immutable"
      },
      "maxSupply()": {
        "notice": "maximum tokens that can be created on this contract"
      },
      "mint(address)": {
        "notice": "Mint one token to `to`"
      },
      "mint(address,address)": {
        "notice": "Mint one token to `to` and transfers to `transferTo`"
      },
      "mintBatch(address,uint256)": {
        "notice": "Mint `count` tokens to `to`"
      },
      "minted()": {
        "notice": "how many were minted so far"
      },
      "minter()": {
        "notice": "the only address that can mint on this collection. It can never be changed"
      },
      "nonce(uint256)": {
        "notice": "Allows to retrieve current nonce for token"
      },
      "nonces(uint256)": {
        "notice": "Allows to retrieve current nonce for token"
      },
      "offsetId()": {
        "notice": "offset used to start token id at 0 if needed"
      },
      "permit(address,uint256,uint256,bytes)": {
        "notice": "function to be called by anyone to approve `spender` using a Permit signature"
      },
      "safeTransferFromWithPermit(address,address,uint256,bytes,uint256,bytes)": {
        "notice": "Allows to get approved using a permit and transfer in the same call"
      },
      "setBaseURI(string)": {
        "notice": "Set the base token URI"
      },
      "setContractURI(string)": {
        "notice": "Helper for the owner of the contract to set the new contract URI"
      },
      "setDefaultRoyaltiesRecipient(address)": {
        "notice": "Allows to change the default royalties recipient"
      },
      "setMaxSupply(uint256)": {
        "notice": "allows owner to set maxsupply"
      },
      "startAtZero()": {
        "notice": "This function allows to offset the next id in order to start ids at 0"
      },
      "tokenURI(uint256)": {
        "notice": "returns a tokenURI"
      },
      "totalSupply()": {
        "notice": "Since this contract can only mint in sequence, we can keep track of totalSupply easily"
      },
      "version()": {
        "notice": "getter for the version of the implementation"
      },
      "withdraw(address,uint256,uint256)": {
        "notice": "This is a generic function that allows this contract's owner to withdraw         any balance / ERC20 / ERC721 / ERC1155 it can have         this contract has no payable nor receive function so it should not get any nativ token         but this could save some ERC20, 721 or 1155"
      }
    },
    "version": 1
  },
  "storageLayout": {
    "storage": [
      {
        "astId": 224,
        "contract": "contracts/NiftyForge721Slim.sol:NiftyForge721Slim",
        "label": "_initialized",
        "offset": 0,
        "slot": "0",
        "type": "t_bool"
      },
      {
        "astId": 227,
        "contract": "contracts/NiftyForge721Slim.sol:NiftyForge721Slim",
        "label": "_initializing",
        "offset": 1,
        "slot": "0",
        "type": "t_bool"
      },
      {
        "astId": 1973,
        "contract": "contracts/NiftyForge721Slim.sol:NiftyForge721Slim",
        "label": "__gap",
        "offset": 0,
        "slot": "1",
        "type": "t_array(t_uint256)50_storage"
      },
      {
        "astId": 10,
        "contract": "contracts/NiftyForge721Slim.sol:NiftyForge721Slim",
        "label": "_owner",
        "offset": 0,
        "slot": "51",
        "type": "t_address"
      },
      {
        "astId": 123,
        "contract": "contracts/NiftyForge721Slim.sol:NiftyForge721Slim",
        "label": "__gap",
        "offset": 0,
        "slot": "52",
        "type": "t_array(t_uint256)49_storage"
      },
      {
        "astId": 2668,
        "contract": "contracts/NiftyForge721Slim.sol:NiftyForge721Slim",
        "label": "__gap",
        "offset": 0,
        "slot": "101",
        "type": "t_array(t_uint256)50_storage"
      },
      {
        "astId": 493,
        "contract": "contracts/NiftyForge721Slim.sol:NiftyForge721Slim",
        "label": "_name",
        "offset": 0,
        "slot": "151",
        "type": "t_string_storage"
      },
      {
        "astId": 495,
        "contract": "contracts/NiftyForge721Slim.sol:NiftyForge721Slim",
        "label": "_symbol",
        "offset": 0,
        "slot": "152",
        "type": "t_string_storage"
      },
      {
        "astId": 499,
        "contract": "contracts/NiftyForge721Slim.sol:NiftyForge721Slim",
        "label": "_owners",
        "offset": 0,
        "slot": "153",
        "type": "t_mapping(t_uint256,t_address)"
      },
      {
        "astId": 503,
        "contract": "contracts/NiftyForge721Slim.sol:NiftyForge721Slim",
        "label": "_balances",
        "offset": 0,
        "slot": "154",
        "type": "t_mapping(t_address,t_uint256)"
      },
      {
        "astId": 507,
        "contract": "contracts/NiftyForge721Slim.sol:NiftyForge721Slim",
        "label": "_tokenApprovals",
        "offset": 0,
        "slot": "155",
        "type": "t_mapping(t_uint256,t_address)"
      },
      {
        "astId": 513,
        "contract": "contracts/NiftyForge721Slim.sol:NiftyForge721Slim",
        "label": "_operatorApprovals",
        "offset": 0,
        "slot": "156",
        "type": "t_mapping(t_address,t_mapping(t_address,t_bool))"
      },
      {
        "astId": 1309,
        "contract": "contracts/NiftyForge721Slim.sol:NiftyForge721Slim",
        "label": "__gap",
        "offset": 0,
        "slot": "157",
        "type": "t_array(t_uint256)44_storage"
      },
      {
        "astId": 1501,
        "contract": "contracts/NiftyForge721Slim.sol:NiftyForge721Slim",
        "label": "__gap",
        "offset": 0,
        "slot": "201",
        "type": "t_array(t_uint256)50_storage"
      },
      {
        "astId": 7894,
        "contract": "contracts/NiftyForge721Slim.sol:NiftyForge721Slim",
        "label": "_useContractRoyalties",
        "offset": 0,
        "slot": "251",
        "type": "t_bool"
      },
      {
        "astId": 7897,
        "contract": "contracts/NiftyForge721Slim.sol:NiftyForge721Slim",
        "label": "_contractRoyalties",
        "offset": 0,
        "slot": "252",
        "type": "t_struct(RoyaltyData)7892_storage"
      },
      {
        "astId": 7902,
        "contract": "contracts/NiftyForge721Slim.sol:NiftyForge721Slim",
        "label": "_royalties",
        "offset": 0,
        "slot": "253",
        "type": "t_mapping(t_uint256,t_struct(RoyaltyData)7892_storage)"
      },
      {
        "astId": 5934,
        "contract": "contracts/NiftyForge721Slim.sol:NiftyForge721Slim",
        "label": "_deploymentDomainSeparator",
        "offset": 0,
        "slot": "254",
        "type": "t_bytes32"
      },
      {
        "astId": 5936,
        "contract": "contracts/NiftyForge721Slim.sol:NiftyForge721Slim",
        "label": "_deploymentChainId",
        "offset": 0,
        "slot": "255",
        "type": "t_uint256"
      },
      {
        "astId": 5940,
        "contract": "contracts/NiftyForge721Slim.sol:NiftyForge721Slim",
        "label": "_nonces",
        "offset": 0,
        "slot": "256",
        "type": "t_mapping(t_uint256,t_uint256)"
      },
      {
        "astId": 7291,
        "contract": "contracts/NiftyForge721Slim.sol:NiftyForge721Slim",
        "label": "baseURI",
        "offset": 0,
        "slot": "257",
        "type": "t_string_storage"
      },
      {
        "astId": 7294,
        "contract": "contracts/NiftyForge721Slim.sol:NiftyForge721Slim",
        "label": "contractURI",
        "offset": 0,
        "slot": "258",
        "type": "t_string_storage"
      },
      {
        "astId": 9956,
        "contract": "contracts/NiftyForge721Slim.sol:NiftyForge721Slim",
        "label": "minter",
        "offset": 0,
        "slot": "259",
        "type": "t_address"
      },
      {
        "astId": 9959,
        "contract": "contracts/NiftyForge721Slim.sol:NiftyForge721Slim",
        "label": "minted",
        "offset": 0,
        "slot": "260",
        "type": "t_uint256"
      },
      {
        "astId": 9962,
        "contract": "contracts/NiftyForge721Slim.sol:NiftyForge721Slim",
        "label": "offsetId",
        "offset": 0,
        "slot": "261",
        "type": "t_uint256"
      },
      {
        "astId": 9964,
        "contract": "contracts/NiftyForge721Slim.sol:NiftyForge721Slim",
        "label": "_burned",
        "offset": 0,
        "slot": "262",
        "type": "t_uint256"
      },
      {
        "astId": 9967,
        "contract": "contracts/NiftyForge721Slim.sol:NiftyForge721Slim",
        "label": "maxSupply",
        "offset": 0,
        "slot": "263",
        "type": "t_uint256"
      }
    ],
    "types": {
      "t_address": {
        "encoding": "inplace",
        "label": "address",
        "numberOfBytes": "20"
      },
      "t_array(t_uint256)44_storage": {
        "base": "t_uint256",
        "encoding": "inplace",
        "label": "uint256[44]",
        "numberOfBytes": "1408"
      },
      "t_array(t_uint256)49_storage": {
        "base": "t_uint256",
        "encoding": "inplace",
        "label": "uint256[49]",
        "numberOfBytes": "1568"
      },
      "t_array(t_uint256)50_storage": {
        "base": "t_uint256",
        "encoding": "inplace",
        "label": "uint256[50]",
        "numberOfBytes": "1600"
      },
      "t_bool": {
        "encoding": "inplace",
        "label": "bool",
        "numberOfBytes": "1"
      },
      "t_bytes32": {
        "encoding": "inplace",
        "label": "bytes32",
        "numberOfBytes": "32"
      },
      "t_mapping(t_address,t_bool)": {
        "encoding": "mapping",
        "key": "t_address",
        "label": "mapping(address => bool)",
        "numberOfBytes": "32",
        "value": "t_bool"
      },
      "t_mapping(t_address,t_mapping(t_address,t_bool))": {
        "encoding": "mapping",
        "key": "t_address",
        "label": "mapping(address => mapping(address => bool))",
        "numberOfBytes": "32",
        "value": "t_mapping(t_address,t_bool)"
      },
      "t_mapping(t_address,t_uint256)": {
        "encoding": "mapping",
        "key": "t_address",
        "label": "mapping(address => uint256)",
        "numberOfBytes": "32",
        "value": "t_uint256"
      },
      "t_mapping(t_uint256,t_address)": {
        "encoding": "mapping",
        "key": "t_uint256",
        "label": "mapping(uint256 => address)",
        "numberOfBytes": "32",
        "value": "t_address"
      },
      "t_mapping(t_uint256,t_struct(RoyaltyData)7892_storage)": {
        "encoding": "mapping",
        "key": "t_uint256",
        "label": "mapping(uint256 => struct ERC2981Royalties.RoyaltyData)",
        "numberOfBytes": "32",
        "value": "t_struct(RoyaltyData)7892_storage"
      },
      "t_mapping(t_uint256,t_uint256)": {
        "encoding": "mapping",
        "key": "t_uint256",
        "label": "mapping(uint256 => uint256)",
        "numberOfBytes": "32",
        "value": "t_uint256"
      },
      "t_string_storage": {
        "encoding": "bytes",
        "label": "string",
        "numberOfBytes": "32"
      },
      "t_struct(RoyaltyData)7892_storage": {
        "encoding": "inplace",
        "label": "struct ERC2981Royalties.RoyaltyData",
        "members": [
          {
            "astId": 7889,
            "contract": "contracts/NiftyForge721Slim.sol:NiftyForge721Slim",
            "label": "recipient",
            "offset": 0,
            "slot": "0",
            "type": "t_address"
          },
          {
            "astId": 7891,
            "contract": "contracts/NiftyForge721Slim.sol:NiftyForge721Slim",
            "label": "amount",
            "offset": 20,
            "slot": "0",
            "type": "t_uint96"
          }
        ],
        "numberOfBytes": "32"
      },
      "t_uint256": {
        "encoding": "inplace",
        "label": "uint256",
        "numberOfBytes": "32"
      },
      "t_uint96": {
        "encoding": "inplace",
        "label": "uint96",
        "numberOfBytes": "12"
      }
    }
  }
}