{
  "address": "0xfC920332dF7B59806774529041087b6b42e32d05",
  "abi": [
    {
      "anonymous": false,
      "inputs": [
        {
          "indexed": true,
          "internalType": "address",
          "name": "owner",
          "type": "address"
        },
        {
          "indexed": true,
          "internalType": "address",
          "name": "approved",
          "type": "address"
        },
        {
          "indexed": true,
          "internalType": "uint256",
          "name": "tokenId",
          "type": "uint256"
        }
      ],
      "name": "Approval",
      "type": "event"
    },
    {
      "anonymous": false,
      "inputs": [
        {
          "indexed": true,
          "internalType": "address",
          "name": "owner",
          "type": "address"
        },
        {
          "indexed": true,
          "internalType": "address",
          "name": "operator",
          "type": "address"
        },
        {
          "indexed": false,
          "internalType": "bool",
          "name": "approved",
          "type": "bool"
        }
      ],
      "name": "ApprovalForAll",
      "type": "event"
    },
    {
      "anonymous": false,
      "inputs": [
        {
          "indexed": false,
          "internalType": "address",
          "name": "module",
          "type": "address"
        }
      ],
      "name": "ModuleChanged",
      "type": "event"
    },
    {
      "anonymous": false,
      "inputs": [
        {
          "indexed": false,
          "internalType": "string",
          "name": "contractURI",
          "type": "string"
        }
      ],
      "name": "NewContractURI",
      "type": "event"
    },
    {
      "anonymous": false,
      "inputs": [
        {
          "indexed": true,
          "internalType": "address",
          "name": "previousOwner",
          "type": "address"
        },
        {
          "indexed": true,
          "internalType": "address",
          "name": "newOwner",
          "type": "address"
        }
      ],
      "name": "OwnershipTransferred",
      "type": "event"
    },
    {
      "anonymous": false,
      "inputs": [
        {
          "indexed": true,
          "internalType": "bytes32",
          "name": "role",
          "type": "bytes32"
        },
        {
          "indexed": true,
          "internalType": "address",
          "name": "user",
          "type": "address"
        }
      ],
      "name": "RoleGranted",
      "type": "event"
    },
    {
      "anonymous": false,
      "inputs": [
        {
          "indexed": true,
          "internalType": "bytes32",
          "name": "role",
          "type": "bytes32"
        },
        {
          "indexed": true,
          "internalType": "address",
          "name": "user",
          "type": "address"
        }
      ],
      "name": "RoleRevoked",
      "type": "event"
    },
    {
      "anonymous": false,
      "inputs": [
        {
          "indexed": true,
          "internalType": "address",
          "name": "from",
          "type": "address"
        },
        {
          "indexed": true,
          "internalType": "address",
          "name": "to",
          "type": "address"
        },
        {
          "indexed": true,
          "internalType": "uint256",
          "name": "tokenId",
          "type": "uint256"
        }
      ],
      "name": "Transfer",
      "type": "event"
    },
    {
      "inputs": [],
      "name": "DOMAIN_SEPARATOR",
      "outputs": [
        {
          "internalType": "bytes32",
          "name": "",
          "type": "bytes32"
        }
      ],
      "stateMutability": "view",
      "type": "function"
    },
    {
      "inputs": [],
      "name": "PERMIT_TYPEHASH",
      "outputs": [
        {
          "internalType": "bytes32",
          "name": "",
          "type": "bytes32"
        }
      ],
      "stateMutability": "view",
      "type": "function"
    },
    {
      "inputs": [],
      "name": "ROLE_EDITOR",
      "outputs": [
        {
          "internalType": "bytes32",
          "name": "",
          "type": "bytes32"
        }
      ],
      "stateMutability": "view",
      "type": "function"
    },
    {
      "inputs": [],
      "name": "ROLE_MINTER",
      "outputs": [
        {
          "internalType": "bytes32",
          "name": "",
          "type": "bytes32"
        }
      ],
      "stateMutability": "view",
      "type": "function"
    },
    {
      "inputs": [
        {
          "internalType": "address[]",
          "name": "users",
          "type": "address[]"
        }
      ],
      "name": "addEditors",
      "outputs": [],
      "stateMutability": "nonpayable",
      "type": "function"
    },
    {
      "inputs": [
        {
          "internalType": "enum INFModuleWithEvents.Events",
          "name": "eventType",
          "type": "uint8"
        }
      ],
      "name": "addEventListener",
      "outputs": [],
      "stateMutability": "nonpayable",
      "type": "function"
    },
    {
      "inputs": [
        {
          "internalType": "address[]",
          "name": "users",
          "type": "address[]"
        }
      ],
      "name": "addMinters",
      "outputs": [],
      "stateMutability": "nonpayable",
      "type": "function"
    },
    {
      "inputs": [
        {
          "internalType": "address",
          "name": "to",
          "type": "address"
        },
        {
          "internalType": "uint256",
          "name": "tokenId",
          "type": "uint256"
        }
      ],
      "name": "approve",
      "outputs": [],
      "stateMutability": "nonpayable",
      "type": "function"
    },
    {
      "inputs": [
        {
          "internalType": "address",
          "name": "module",
          "type": "address"
        },
        {
          "internalType": "bool",
          "name": "enabled",
          "type": "bool"
        },
        {
          "internalType": "bool",
          "name": "moduleCanMint",
          "type": "bool"
        }
      ],
      "name": "attachModule",
      "outputs": [],
      "stateMutability": "nonpayable",
      "type": "function"
    },
    {
      "inputs": [
        {
          "internalType": "address",
          "name": "owner",
          "type": "address"
        }
      ],
      "name": "balanceOf",
      "outputs": [
        {
          "internalType": "uint256",
          "name": "",
          "type": "uint256"
        }
      ],
      "stateMutability": "view",
      "type": "function"
    },
    {
      "inputs": [],
      "name": "baseMutableURI",
      "outputs": [
        {
          "internalType": "string",
          "name": "",
          "type": "string"
        }
      ],
      "stateMutability": "view",
      "type": "function"
    },
    {
      "inputs": [],
      "name": "baseURI",
      "outputs": [
        {
          "internalType": "string",
          "name": "",
          "type": "string"
        }
      ],
      "stateMutability": "view",
      "type": "function"
    },
    {
      "inputs": [
        {
          "internalType": "uint256",
          "name": "tokenId",
          "type": "uint256"
        }
      ],
      "name": "burn",
      "outputs": [],
      "stateMutability": "nonpayable",
      "type": "function"
    },
    {
      "inputs": [
        {
          "internalType": "address",
          "name": "user",
          "type": "address"
        }
      ],
      "name": "canEdit",
      "outputs": [
        {
          "internalType": "bool",
          "name": "",
          "type": "bool"
        }
      ],
      "stateMutability": "view",
      "type": "function"
    },
    {
      "inputs": [
        {
          "internalType": "address",
          "name": "user",
          "type": "address"
        }
      ],
      "name": "canMint",
      "outputs": [
        {
          "internalType": "bool",
          "name": "",
          "type": "bool"
        }
      ],
      "stateMutability": "view",
      "type": "function"
    },
    {
      "inputs": [],
      "name": "contractURI",
      "outputs": [
        {
          "internalType": "string",
          "name": "",
          "type": "string"
        }
      ],
      "stateMutability": "view",
      "type": "function"
    },
    {
      "inputs": [
        {
          "internalType": "address",
          "name": "module",
          "type": "address"
        },
        {
          "internalType": "bool",
          "name": "keepListeners",
          "type": "bool"
        }
      ],
      "name": "disableModule",
      "outputs": [],
      "stateMutability": "nonpayable",
      "type": "function"
    },
    {
      "inputs": [
        {
          "internalType": "address",
          "name": "module",
          "type": "address"
        },
        {
          "internalType": "bool",
          "name": "moduleCanMint",
          "type": "bool"
        }
      ],
      "name": "enableModule",
      "outputs": [],
      "stateMutability": "nonpayable",
      "type": "function"
    },
    {
      "inputs": [
        {
          "internalType": "uint256",
          "name": "tokenId",
          "type": "uint256"
        }
      ],
      "name": "getApproved",
      "outputs": [
        {
          "internalType": "address",
          "name": "",
          "type": "address"
        }
      ],
      "stateMutability": "view",
      "type": "function"
    },
    {
      "inputs": [
        {
          "internalType": "uint256",
          "name": "tokenId",
          "type": "uint256"
        }
      ],
      "name": "getFeeBps",
      "outputs": [
        {
          "internalType": "uint256[]",
          "name": "fees",
          "type": "uint256[]"
        }
      ],
      "stateMutability": "view",
      "type": "function"
    },
    {
      "inputs": [
        {
          "internalType": "uint256",
          "name": "tokenId",
          "type": "uint256"
        }
      ],
      "name": "getFeeRecipients",
      "outputs": [
        {
          "internalType": "address payable[]",
          "name": "recipients",
          "type": "address[]"
        }
      ],
      "stateMutability": "view",
      "type": "function"
    },
    {
      "inputs": [
        {
          "internalType": "uint256",
          "name": "tokenId",
          "type": "uint256"
        }
      ],
      "name": "getFees",
      "outputs": [
        {
          "internalType": "address payable[]",
          "name": "recipients",
          "type": "address[]"
        },
        {
          "internalType": "uint256[]",
          "name": "fees",
          "type": "uint256[]"
        }
      ],
      "stateMutability": "view",
      "type": "function"
    },
    {
      "inputs": [],
      "name": "hasPerTokenRoyalties",
      "outputs": [
        {
          "internalType": "bool",
          "name": "",
          "type": "bool"
        }
      ],
      "stateMutability": "view",
      "type": "function"
    },
    {
      "inputs": [
        {
          "internalType": "bytes32",
          "name": "role",
          "type": "bytes32"
        },
        {
          "internalType": "address",
          "name": "user",
          "type": "address"
        }
      ],
      "name": "hasRole",
      "outputs": [
        {
          "internalType": "bool",
          "name": "",
          "type": "bool"
        }
      ],
      "stateMutability": "view",
      "type": "function"
    },
    {
      "inputs": [
        {
          "internalType": "string",
          "name": "name_",
          "type": "string"
        },
        {
          "internalType": "string",
          "name": "symbol_",
          "type": "string"
        },
        {
          "internalType": "string",
          "name": "contractURI_",
          "type": "string"
        },
        {
          "internalType": "address",
          "name": "openseaProxyRegistry_",
          "type": "address"
        },
        {
          "internalType": "address",
          "name": "owner_",
          "type": "address"
        },
        {
          "components": [
            {
              "internalType": "address",
              "name": "module",
              "type": "address"
            },
            {
              "internalType": "bool",
              "name": "enabled",
              "type": "bool"
            },
            {
              "internalType": "bool",
              "name": "minter",
              "type": "bool"
            }
          ],
          "internalType": "struct INiftyForge721.ModuleInit[]",
          "name": "modulesInit_",
          "type": "tuple[]"
        },
        {
          "internalType": "address",
          "name": "contractRoyaltiesRecipient",
          "type": "address"
        },
        {
          "internalType": "uint256",
          "name": "contractRoyaltiesValue",
          "type": "uint256"
        }
      ],
      "name": "initialize",
      "outputs": [],
      "stateMutability": "nonpayable",
      "type": "function"
    },
    {
      "inputs": [
        {
          "internalType": "address",
          "name": "owner_",
          "type": "address"
        },
        {
          "internalType": "address",
          "name": "operator",
          "type": "address"
        }
      ],
      "name": "isApprovedForAll",
      "outputs": [
        {
          "internalType": "bool",
          "name": "",
          "type": "bool"
        }
      ],
      "stateMutability": "view",
      "type": "function"
    },
    {
      "inputs": [
        {
          "internalType": "address",
          "name": "user",
          "type": "address"
        }
      ],
      "name": "isEditor",
      "outputs": [
        {
          "internalType": "bool",
          "name": "",
          "type": "bool"
        }
      ],
      "stateMutability": "view",
      "type": "function"
    },
    {
      "inputs": [
        {
          "internalType": "address",
          "name": "user",
          "type": "address"
        }
      ],
      "name": "isMinter",
      "outputs": [
        {
          "internalType": "bool",
          "name": "",
          "type": "bool"
        }
      ],
      "stateMutability": "view",
      "type": "function"
    },
    {
      "inputs": [],
      "name": "isMintingOpenToAll",
      "outputs": [
        {
          "internalType": "bool",
          "name": "",
          "type": "bool"
        }
      ],
      "stateMutability": "view",
      "type": "function"
    },
    {
      "inputs": [
        {
          "internalType": "address",
          "name": "owner",
          "type": "address"
        },
        {
          "internalType": "address",
          "name": "operator",
          "type": "address"
        }
      ],
      "name": "isOwnersOpenSeaProxy",
      "outputs": [
        {
          "internalType": "bool",
          "name": "",
          "type": "bool"
        }
      ],
      "stateMutability": "view",
      "type": "function"
    },
    {
      "inputs": [],
      "name": "lastTokenId",
      "outputs": [
        {
          "internalType": "uint256",
          "name": "",
          "type": "uint256"
        }
      ],
      "stateMutability": "view",
      "type": "function"
    },
    {
      "inputs": [],
      "name": "listModules",
      "outputs": [
        {
          "internalType": "address[]",
          "name": "list",
          "type": "address[]"
        },
        {
          "internalType": "uint256[]",
          "name": "status",
          "type": "uint256[]"
        }
      ],
      "stateMutability": "view",
      "type": "function"
    },
    {
      "inputs": [
        {
          "internalType": "bytes32",
          "name": "role",
          "type": "bytes32"
        }
      ],
      "name": "listRole",
      "outputs": [
        {
          "internalType": "address[]",
          "name": "list",
          "type": "address[]"
        }
      ],
      "stateMutability": "view",
      "type": "function"
    },
    {
      "inputs": [
        {
          "internalType": "address",
          "name": "spender",
          "type": "address"
        },
        {
          "internalType": "uint256",
          "name": "tokenId",
          "type": "uint256"
        },
        {
          "internalType": "uint256",
          "name": "nonce_",
          "type": "uint256"
        },
        {
          "internalType": "uint256",
          "name": "deadline",
          "type": "uint256"
        }
      ],
      "name": "makePermitDigest",
      "outputs": [
        {
          "internalType": "bytes32",
          "name": "",
          "type": "bytes32"
        }
      ],
      "stateMutability": "view",
      "type": "function"
    },
    {
      "inputs": [],
      "name": "maxTokenId",
      "outputs": [
        {
          "internalType": "uint256",
          "name": "",
          "type": "uint256"
        }
      ],
      "stateMutability": "view",
      "type": "function"
    },
    {
      "inputs": [
        {
          "internalType": "address",
          "name": "to",
          "type": "address"
        },
        {
          "internalType": "string",
          "name": "uri",
          "type": "string"
        },
        {
          "internalType": "address",
          "name": "feeRecipient",
          "type": "address"
        },
        {
          "internalType": "uint256",
          "name": "feeAmount",
          "type": "uint256"
        },
        {
          "internalType": "address",
          "name": "transferTo",
          "type": "address"
        }
      ],
      "name": "mint",
      "outputs": [
        {
          "internalType": "uint256",
          "name": "tokenId",
          "type": "uint256"
        }
      ],
      "stateMutability": "nonpayable",
      "type": "function"
    },
    {
      "inputs": [
        {
          "internalType": "address",
          "name": "to",
          "type": "address"
        },
        {
          "internalType": "string",
          "name": "uri",
          "type": "string"
        },
        {
          "internalType": "uint256",
          "name": "tokenId_",
          "type": "uint256"
        },
        {
          "internalType": "address",
          "name": "feeRecipient",
          "type": "address"
        },
        {
          "internalType": "uint256",
          "name": "feeAmount",
          "type": "uint256"
        },
        {
          "internalType": "address",
          "name": "transferTo",
          "type": "address"
        }
      ],
      "name": "mint",
      "outputs": [
        {
          "internalType": "uint256",
          "name": "",
          "type": "uint256"
        }
      ],
      "stateMutability": "nonpayable",
      "type": "function"
    },
    {
      "inputs": [
        {
          "internalType": "address[]",
          "name": "to",
          "type": "address[]"
        },
        {
          "internalType": "string[]",
          "name": "uris",
          "type": "string[]"
        },
        {
          "internalType": "address[]",
          "name": "feeRecipients",
          "type": "address[]"
        },
        {
          "internalType": "uint256[]",
          "name": "feeAmounts",
          "type": "uint256[]"
        }
      ],
      "name": "mintBatch",
      "outputs": [
        {
          "internalType": "uint256[]",
          "name": "tokenIds",
          "type": "uint256[]"
        }
      ],
      "stateMutability": "nonpayable",
      "type": "function"
    },
    {
      "inputs": [
        {
          "internalType": "address[]",
          "name": "to",
          "type": "address[]"
        },
        {
          "internalType": "string[]",
          "name": "uris",
          "type": "string[]"
        },
        {
          "internalType": "uint256[]",
          "name": "tokenIds",
          "type": "uint256[]"
        },
        {
          "internalType": "address[]",
          "name": "feeRecipients",
          "type": "address[]"
        },
        {
          "internalType": "uint256[]",
          "name": "feeAmounts",
          "type": "uint256[]"
        }
      ],
      "name": "mintBatch",
      "outputs": [
        {
          "internalType": "uint256[]",
          "name": "",
          "type": "uint256[]"
        }
      ],
      "stateMutability": "nonpayable",
      "type": "function"
    },
    {
      "inputs": [
        {
          "internalType": "address",
          "name": "",
          "type": "address"
        }
      ],
      "name": "modulesStatus",
      "outputs": [
        {
          "internalType": "enum INiftyForgeModules.ModuleStatus",
          "name": "",
          "type": "uint8"
        }
      ],
      "stateMutability": "view",
      "type": "function"
    },
    {
      "inputs": [
        {
          "internalType": "uint256",
          "name": "tokenId",
          "type": "uint256"
        }
      ],
      "name": "mutableURI",
      "outputs": [
        {
          "internalType": "string",
          "name": "uri",
          "type": "string"
        }
      ],
      "stateMutability": "view",
      "type": "function"
    },
    {
      "inputs": [],
      "name": "name",
      "outputs": [
        {
          "internalType": "string",
          "name": "",
          "type": "string"
        }
      ],
      "stateMutability": "view",
      "type": "function"
    },
    {
      "inputs": [
        {
          "internalType": "uint256",
          "name": "tokenId",
          "type": "uint256"
        }
      ],
      "name": "nonce",
      "outputs": [
        {
          "internalType": "uint256",
          "name": "",
          "type": "uint256"
        }
      ],
      "stateMutability": "view",
      "type": "function"
    },
    {
      "inputs": [],
      "name": "owner",
      "outputs": [
        {
          "internalType": "address",
          "name": "",
          "type": "address"
        }
      ],
      "stateMutability": "view",
      "type": "function"
    },
    {
      "inputs": [
        {
          "internalType": "uint256",
          "name": "tokenId",
          "type": "uint256"
        }
      ],
      "name": "ownerOf",
      "outputs": [
        {
          "internalType": "address",
          "name": "",
          "type": "address"
        }
      ],
      "stateMutability": "view",
      "type": "function"
    },
    {
      "inputs": [
        {
          "internalType": "address",
          "name": "spender",
          "type": "address"
        },
        {
          "internalType": "uint256",
          "name": "tokenId",
          "type": "uint256"
        },
        {
          "internalType": "uint256",
          "name": "deadline",
          "type": "uint256"
        },
        {
          "internalType": "bytes",
          "name": "signature",
          "type": "bytes"
        }
      ],
      "name": "permit",
      "outputs": [],
      "stateMutability": "nonpayable",
      "type": "function"
    },
    {
      "inputs": [],
      "name": "proxyRegistry",
      "outputs": [
        {
          "internalType": "address",
          "name": "",
          "type": "address"
        }
      ],
      "stateMutability": "view",
      "type": "function"
    },
    {
      "inputs": [
        {
          "internalType": "address[]",
          "name": "users",
          "type": "address[]"
        }
      ],
      "name": "removeEditors",
      "outputs": [],
      "stateMutability": "nonpayable",
      "type": "function"
    },
    {
      "inputs": [
        {
          "internalType": "enum INFModuleWithEvents.Events",
          "name": "eventType",
          "type": "uint8"
        }
      ],
      "name": "removeEventListener",
      "outputs": [],
      "stateMutability": "nonpayable",
      "type": "function"
    },
    {
      "inputs": [
        {
          "internalType": "address[]",
          "name": "users",
          "type": "address[]"
        }
      ],
      "name": "removeMinters",
      "outputs": [],
      "stateMutability": "nonpayable",
      "type": "function"
    },
    {
      "inputs": [
        {
          "internalType": "uint256",
          "name": "tokenId",
          "type": "uint256"
        }
      ],
      "name": "renderTokenURI",
      "outputs": [
        {
          "internalType": "string",
          "name": "uri",
          "type": "string"
        }
      ],
      "stateMutability": "view",
      "type": "function"
    },
    {
      "inputs": [],
      "name": "renounceOwnership",
      "outputs": [],
      "stateMutability": "nonpayable",
      "type": "function"
    },
    {
      "inputs": [
        {
          "internalType": "uint256",
          "name": "tokenId",
          "type": "uint256"
        },
        {
          "internalType": "uint256",
          "name": "value",
          "type": "uint256"
        }
      ],
      "name": "royaltyInfo",
      "outputs": [
        {
          "internalType": "address",
          "name": "receiver",
          "type": "address"
        },
        {
          "internalType": "uint256",
          "name": "royaltyAmount",
          "type": "uint256"
        }
      ],
      "stateMutability": "view",
      "type": "function"
    },
    {
      "inputs": [
        {
          "internalType": "address",
          "name": "from",
          "type": "address"
        },
        {
          "internalType": "address",
          "name": "to",
          "type": "address"
        },
        {
          "internalType": "uint256",
          "name": "tokenId",
          "type": "uint256"
        }
      ],
      "name": "safeTransferFrom",
      "outputs": [],
      "stateMutability": "nonpayable",
      "type": "function"
    },
    {
      "inputs": [
        {
          "internalType": "address",
          "name": "from",
          "type": "address"
        },
        {
          "internalType": "address",
          "name": "to",
          "type": "address"
        },
        {
          "internalType": "uint256",
          "name": "tokenId",
          "type": "uint256"
        },
        {
          "internalType": "bytes",
          "name": "_data",
          "type": "bytes"
        }
      ],
      "name": "safeTransferFrom",
      "outputs": [],
      "stateMutability": "nonpayable",
      "type": "function"
    },
    {
      "inputs": [
        {
          "internalType": "address",
          "name": "from",
          "type": "address"
        },
        {
          "internalType": "address",
          "name": "to",
          "type": "address"
        },
        {
          "internalType": "uint256",
          "name": "tokenId",
          "type": "uint256"
        },
        {
          "internalType": "bytes",
          "name": "_data",
          "type": "bytes"
        },
        {
          "internalType": "uint256",
          "name": "deadline",
          "type": "uint256"
        },
        {
          "internalType": "bytes",
          "name": "signature",
          "type": "bytes"
        }
      ],
      "name": "safeTransferFromWithPermit",
      "outputs": [],
      "stateMutability": "nonpayable",
      "type": "function"
    },
    {
      "inputs": [
        {
          "internalType": "address",
          "name": "operator",
          "type": "address"
        },
        {
          "internalType": "bool",
          "name": "approved",
          "type": "bool"
        }
      ],
      "name": "setApprovalForAll",
      "outputs": [],
      "stateMutability": "nonpayable",
      "type": "function"
    },
    {
      "inputs": [
        {
          "internalType": "string",
          "name": "baseMutableURI_",
          "type": "string"
        }
      ],
      "name": "setBaseMutableURI",
      "outputs": [],
      "stateMutability": "nonpayable",
      "type": "function"
    },
    {
      "inputs": [
        {
          "internalType": "string",
          "name": "baseURI_",
          "type": "string"
        }
      ],
      "name": "setBaseURI",
      "outputs": [],
      "stateMutability": "nonpayable",
      "type": "function"
    },
    {
      "inputs": [
        {
          "internalType": "string",
          "name": "contractURI_",
          "type": "string"
        }
      ],
      "name": "setContractURI",
      "outputs": [],
      "stateMutability": "nonpayable",
      "type": "function"
    },
    {
      "inputs": [
        {
          "internalType": "address",
          "name": "recipient",
          "type": "address"
        }
      ],
      "name": "setDefaultRoyaltiesRecipient",
      "outputs": [],
      "stateMutability": "nonpayable",
      "type": "function"
    },
    {
      "inputs": [
        {
          "internalType": "uint256",
          "name": "maxTokenId_",
          "type": "uint256"
        }
      ],
      "name": "setMaxTokenId",
      "outputs": [],
      "stateMutability": "nonpayable",
      "type": "function"
    },
    {
      "inputs": [
        {
          "internalType": "bool",
          "name": "isOpen",
          "type": "bool"
        }
      ],
      "name": "setMintingOpenToAll",
      "outputs": [],
      "stateMutability": "nonpayable",
      "type": "function"
    },
    {
      "inputs": [
        {
          "internalType": "uint256",
          "name": "tokenId",
          "type": "uint256"
        },
        {
          "internalType": "string",
          "name": "mutableURI_",
          "type": "string"
        }
      ],
      "name": "setMutableURI",
      "outputs": [],
      "stateMutability": "nonpayable",
      "type": "function"
    },
    {
      "inputs": [
        {
          "internalType": "address",
          "name": "osProxyRegistry",
          "type": "address"
        }
      ],
      "name": "setOpenSeaRegistry",
      "outputs": [],
      "stateMutability": "nonpayable",
      "type": "function"
    },
    {
      "inputs": [
        {
          "internalType": "uint256",
          "name": "tokenId",
          "type": "uint256"
        },
        {
          "internalType": "address",
          "name": "recipient",
          "type": "address"
        }
      ],
      "name": "setTokenRoyaltiesRecipient",
      "outputs": [],
      "stateMutability": "nonpayable",
      "type": "function"
    },
    {
      "inputs": [
        {
          "internalType": "bytes4",
          "name": "interfaceId",
          "type": "bytes4"
        }
      ],
      "name": "supportsInterface",
      "outputs": [
        {
          "internalType": "bool",
          "name": "",
          "type": "bool"
        }
      ],
      "stateMutability": "view",
      "type": "function"
    },
    {
      "inputs": [],
      "name": "symbol",
      "outputs": [
        {
          "internalType": "string",
          "name": "",
          "type": "string"
        }
      ],
      "stateMutability": "view",
      "type": "function"
    },
    {
      "inputs": [
        {
          "internalType": "uint256",
          "name": "",
          "type": "uint256"
        }
      ],
      "name": "tokenIdToModule",
      "outputs": [
        {
          "internalType": "address",
          "name": "",
          "type": "address"
        }
      ],
      "stateMutability": "view",
      "type": "function"
    },
    {
      "inputs": [
        {
          "internalType": "uint256",
          "name": "tokenId",
          "type": "uint256"
        }
      ],
      "name": "tokenURI",
      "outputs": [
        {
          "internalType": "string",
          "name": "uri",
          "type": "string"
        }
      ],
      "stateMutability": "view",
      "type": "function"
    },
    {
      "inputs": [],
      "name": "totalSupply",
      "outputs": [
        {
          "internalType": "uint256",
          "name": "",
          "type": "uint256"
        }
      ],
      "stateMutability": "view",
      "type": "function"
    },
    {
      "inputs": [
        {
          "internalType": "address",
          "name": "from",
          "type": "address"
        },
        {
          "internalType": "address",
          "name": "to",
          "type": "address"
        },
        {
          "internalType": "uint256",
          "name": "tokenId",
          "type": "uint256"
        }
      ],
      "name": "transferFrom",
      "outputs": [],
      "stateMutability": "nonpayable",
      "type": "function"
    },
    {
      "inputs": [
        {
          "internalType": "address",
          "name": "newOwner",
          "type": "address"
        }
      ],
      "name": "transferOwnership",
      "outputs": [],
      "stateMutability": "nonpayable",
      "type": "function"
    },
    {
      "inputs": [
        {
          "internalType": "address",
          "name": "token",
          "type": "address"
        },
        {
          "internalType": "uint256",
          "name": "amount",
          "type": "uint256"
        },
        {
          "internalType": "uint256",
          "name": "tokenId",
          "type": "uint256"
        }
      ],
      "name": "withdraw",
      "outputs": [],
      "stateMutability": "nonpayable",
      "type": "function"
    }
  ],
  "transactionHash": "0xacef2739993da5197bf224c9cfef0ad188d250da13de2ce5493357cead10d9b8",
  "args": [],
  "solcInputHash": "6473854b06818b0363317dfa3544dacc",
  "bytecode": "0x608060405234801561001057600080fd5b50615fba80620000216000396000f3fe608060405234801561001057600080fd5b506004361061043e5760003560e01c80637df1bc0811610236578063b9c4d9fb1161013b578063e8a3d485116100c3578063f2fde38b11610087578063f2fde38b146109df578063f3728547146109f2578063f4ed532d14610a05578063f7d0ee6a14610a11578063f84ddf0b14610a2457600080fd5b8063e8a3d4851461098b578063e985e9c514610993578063eeeea2ed146109a6578063f270257c146109b9578063f2e3561e146109cc57600080fd5b8063ce03fdab1161010a578063ce03fdab1461092c578063cf7d220b1461093f578063d5a06d4c14610952578063df1b2d4c14610965578063e2ba6aa71461097857600080fd5b8063b9c4d9fb146108d3578063c2ba4744146108f3578063c7fa253714610906578063c87b56dd1461091957600080fd5b806395d89b41116101be578063aa271e1a1161018d578063aa271e1a14610876578063b50cbd9f14610889578063b5c5f6721461089a578063b5f49759146108ad578063b88d4fde146108c057600080fd5b806395d89b41146108215780639c557adc14610829578063a074815414610850578063a22cb4651461086357600080fd5b80638da5cb5b116102055780638da5cb5b146107cb57806391ba317a146107dc57806391d14854146107e657806392afc33a146107f9578063938e3d7b1461080e57600080fd5b80637df1bc08146107625780637ecc4724146107755780638004285114610788578063850eadd71461079b57600080fd5b8063361754911161034757806361e5355d116102cf578063715018a611610293578063715018a61461071957806371e2a65714610721578063734afad114610734578063745a41bc146107475780637477b22a1461075a57600080fd5b806361e5355d146106ae5780636352211e146106c1578063662f0332146106d45780636c0360eb146106fe57806370a082311461070657600080fd5b80634cfa6487116103165780634cfa64871461064c57806355f804b3146106625780635c8f97de146106755780635fc1964f146106885780636102de981461069b57600080fd5b806336175491146106095780633644e5151461061c57806342842e0e1461062657806342966c681461063957600080fd5b80631f22d2fe116103ca57806324744d541161039957806324744d541461057757806324f72a131461058a5780632a55205a1461059d57806330adf81f146105cf57806335cd2ab8146105f657600080fd5b80631f22d2fe1461052b578063202fcbbd1461053e578063224e62f01461055157806323b872dd1461056457600080fd5b8063095ea7b311610411578063095ea7b3146104c05780630a9b2453146104d35780630ebd4c7f146104e6578063163c1f191461050657806318160ddd1461051357600080fd5b806301ffc9a714610443578063049f58e41461046b57806306fdde0314610480578063081812fc14610495575b600080fd5b610456610451366004614e57565b610a2e565b60405190151581526020015b60405180910390f35b61047e610479366004614f5f565b610aaa565b005b610488610ae6565b6040516104629190614feb565b6104a86104a3366004614ffe565b610b78565b6040516001600160a01b039091168152602001610462565b61047e6104ce36600461503c565b610c00565b6104566104e1366004615068565b610d16565b6104f96104f4366004614ffe565b610d53565b60405161046291906150c0565b6101395460ff1615610456565b61051d6101425481565b604051908152602001610462565b610488610539366004614ffe565b610db0565b61047e61054c366004614ffe565b610e7b565b61048861055f366004614ffe565b610ef9565b61047e6105723660046150d3565b610fcc565b61047e610585366004615114565b610ffe565b61047e6105983660046151ae565b61101e565b6105b06105ab3660046151de565b6110f5565b604080516001600160a01b039093168352602083019190915201610462565b61051d7f49ecf333e5b8c95c40fdafc95c1ad136e8914a8fb55e9dc8bb01eaa83a2df9ad81565b6104f961060436600461536c565b61112d565b61051d610617366004615418565b61131a565b61051d61013c5481565b61047e6106343660046150d3565b6113c4565b61047e610647366004614ffe565b6113df565b610654611459565b60405161046292919061548c565b61047e610670366004614f5f565b6115bd565b61047e610683366004615068565b6115f7565b61047e6106963660046154ba565b611688565b6104566106a93660046154ee565b6116fe565b61051d6106bc36600461551c565b6117f4565b6104a86106cf366004614ffe565b61185c565b6104a86106e2366004614ffe565b610145602052600090815260409020546001600160a01b031681565b6104886118d3565b61051d610714366004615068565b611962565b61047e6119e9565b61047e61072f3660046154ba565b611a1f565b61047e61074236600461559c565b611a95565b61047e6107553660046155bd565b611b31565b610488611c56565b61047e610770366004615621565b611c64565b61047e61078336600461563e565b611c9f565b61047e6107963660046154ba565b611ccf565b6107be6107a9366004615068565b60086020526000908152604090205460ff1681565b60405161046291906156a0565b603c546001600160a01b03166104a8565b61051d6101445481565b6104566107f43660046151ae565b611d3c565b61051d600080516020615f6583398151915281565b61047e61081c366004614f5f565b611d5c565b610488611d8b565b61051d7f8c93699475be54d1d73bbbabee1213ba5867c90fcebb8234a4274f68c8da497781565b61045661085e366004615068565b611d9a565b61047e61087136600461563e565b611dc6565b610456610884366004615068565b611e8b565b60d3546001600160a01b03166104a8565b61047e6108a83660046156b3565b611ea5565b61047e6108bb366004615068565b61223d565b61047e6108ce3660046156e8565b61226c565b6108e66108e1366004614ffe565b61229e565b604051610462919061573b565b610456610901366004615068565b612313565b61047e6109143660046157fd565b61232d565b610488610927366004614ffe565b6124b6565b61051d61093a366004614ffe565b612589565b6104f961094d3660046158e5565b6125c4565b610654610960366004614ffe565b6127ca565b61047e6109733660046154ba565b612877565b61047e6109863660046159b6565b6128e4565b61048861293d565b6104566109a13660046154ee565b61294c565b61047e6109b4366004615a01565b612958565b61047e6109c736600461563e565b6129ad565b61051d6109da366004615a47565b6129fc565b61047e6109ed366004615068565b612a9a565b61047e610a0036600461559c565b612b32565b6101435460ff16610456565b6108e6610a1f366004614ffe565b612bce565b61051d6101415481565b60006001600160e01b03198216630224e62f60e41b1480610a5f57506001600160e01b0319821663152a902d60e11b145b80610a7a57506001600160e01b03198216632dde656160e21b145b80610a9557506001600160e01b031982166335681b5360e21b145b80610aa45750610aa482612c90565b92915050565b33610ab481610d16565b610ad95760405162461bcd60e51b8152600401610ad090615acf565b60405180910390fd5b610ae282612ce0565b5050565b606060a08054610af590615af5565b80601f0160208091040260200160405190810160405280929190818152602001828054610b2190615af5565b8015610b6e5780601f10610b4357610100808354040283529160200191610b6e565b820191906000526020600020905b815481529060010190602001808311610b5157829003601f168201915b5050505050905090565b6000610b8382612cf4565b610be45760405162461bcd60e51b815260206004820152602c60248201527f4552433732313a20617070726f76656420717565727920666f72206e6f6e657860448201526b34b9ba32b73a103a37b5b2b760a11b6064820152608401610ad0565b50600090815260a460205260409020546001600160a01b031690565b6000610c0b8261185c565b9050806001600160a01b0316836001600160a01b03161415610c795760405162461bcd60e51b815260206004820152602160248201527f4552433732313a20617070726f76616c20746f2063757272656e74206f776e656044820152603960f91b6064820152608401610ad0565b336001600160a01b0382161480610c955750610c95813361294c565b610d075760405162461bcd60e51b815260206004820152603860248201527f4552433732313a20617070726f76652063616c6c6572206973206e6f74206f7760448201527f6e6572206e6f7220617070726f76656420666f7220616c6c00000000000000006064820152608401610ad0565b610d118383612d11565b505050565b6000610d2182611d9a565b80610aa45750816001600160a01b0316610d43603c546001600160a01b031690565b6001600160a01b03161492915050565b60606000610d6083612d7f565b9150508015610daa5760408051600180825281830190925290602080830190803683370190505091508082600081518110610d9d57610d9d615b2a565b6020026020010181815250505b50919050565b6060610dbb82612cf4565b610dd75760405162461bcd60e51b8152600401610ad090615b40565b600080610deb84633d855c6160e21b612e37565b915091508115610e7457604051630f91697f60e11b8152600481018590526001600160a01b03821690631f22d2fe9060240160006040518083038186803b158015610e3557600080fd5b505afa158015610e49573d6000803e3d6000fd5b505050506040513d6000823e601f3d908101601f19168201604052610e719190810190615b69565b92505b5050919050565b33610e8581610d16565b610ea15760405162461bcd60e51b8152600401610ad090615acf565b6101445415610ef25760405162461bcd60e51b815260206004820152601760248201527f214d41585f544f4b454e5f414c52454144595f534554210000000000000000006044820152606401610ad0565b5061014455565b6060610f0482612cf4565b610f205760405162461bcd60e51b8152600401610ad090615b40565b600080610f3484631e4eed6360e31b612e37565b915091508115610fbd57604051630224e62f60e41b8152600481018590526001600160a01b0382169063224e62f09060240160006040518083038186803b158015610f7e57600080fd5b505afa158015610f92573d6000803e3d6000fd5b505050506040513d6000823e601f3d908101601f19168201604052610fba9190810190615b69565b92505b8251610e7457610e7184612ee4565b610fd7335b8261303a565b610ff35760405162461bcd60e51b8152600401610ad090615bd6565b610d118383836130fc565b61100a33858484611b31565b6110168686868661226c565b505050505050565b6101395460ff16156110725760405162461bcd60e51b815260206004820152601960248201527f21434f4e54524143545f574944455f524f59414c5449455321000000000000006044820152606401610ad0565b600061107d83612d7f565b509050336001600160a01b038216146110c85760405162461bcd60e51b815260206004820152600d60248201526c214e4f545f414c4c4f5745442160981b6044820152606401610ad0565b600083815261013b6020526040902080546001600160a01b0319166001600160a01b038416179055505050565b60008061110184612d7f565b90925090508015611126576127106111198285615c3d565b6111239190615c72565b90505b9250929050565b60603361113d6101435460ff1690565b8061114c575061114c81612313565b6111685760405162461bcd60e51b8152600401610ad090615c86565b8451865114801561117a575083518651145b8015611187575082518651145b6111c75760405162461bcd60e51b8152602060048201526011602482015270214c454e4754485f4d49534d415443482160781b6044820152606401610ad0565b6101415486516001600160401b038111156111e4576111e4614e74565b60405190808252806020026020018201604052801561120d578160200160208202803683370190505b5092506112258751826112209190615cac565b613134565b600060013360009081526008602052604090205460ff16600281111561124d5761124d61566c565b14905060005b885181101561130b578261126681615cc4565b9350506112db89828151811061127e5761127e615b2a565b602002602001015189838151811061129857611298615b2a565b6020026020010151858a85815181106112b3576112b3615b2a565b60200260200101518a86815181106112cd576112cd615b2a565b602002602001015187613182565b828582815181106112ee576112ee615b2a565b60209081029190910101528061130381615cc4565b915050611253565b50506101415550949350505050565b61013c54604080517f49ecf333e5b8c95c40fdafc95c1ad136e8914a8fb55e9dc8bb01eaa83a2df9ad6020808301919091526001600160a01b03881682840152606082018790526080820186905260a08083018690528351808403909101815260c08301845280519082012061190160f01b60e084015260e2830194909452610102808301949094528251808303909401845261012290910190915281519101205b949350505050565b610d118383836040518060200160405280600081525061226c565b6113e833610fd1565b61144d5760405162461bcd60e51b815260206004820152603060248201527f4552433732314275726e61626c653a2063616c6c6572206973206e6f74206f7760448201526f1b995c881b9bdc88185c1c1c9bdd995960821b6064820152608401610ad0565b611456816131eb565b50565b60608060006114686006613225565b9050806001600160401b0381111561148257611482614e74565b6040519080825280602002602001820160405280156114ab578160200160208202803683370190505b509250806001600160401b038111156114c6576114c6614e74565b6040519080825280602002602001820160405280156114ef578160200160208202803683370190505b50915060005b818110156115b75761150860068261322f565b84828151811061151a5761151a615b2a565b60200260200101906001600160a01b031690816001600160a01b0316815250506008600085838151811061155057611550615b2a565b6020908102919091018101516001600160a01b031682528101919091526040016000205460ff1660028111156115885761158861566c565b83828151811061159a5761159a615b2a565b6020908102919091010152806115af81615cc4565b9150506114f5565b50509091565b336115c781610d16565b6115e35760405162461bcd60e51b8152600401610ad090615acf565b8151610d1190610140906020850190614d72565b3361160181610d16565b61161d5760405162461bcd60e51b8152600401610ad090615acf565b6101395460ff166116685760405162461bcd60e51b8152602060048201526015602482015274215045525f544f4b454e5f524f59414c544945532160581b6044820152606401610ad0565b61013a80546001600160a01b0319166001600160a01b0384161790555050565b3361169281610d16565b6116ae5760405162461bcd60e51b8152600401610ad090615acf565b60005b8251811015610d11576116eb600080516020615f658339815191528483815181106116de576116de615b2a565b602002602001015161323b565b50806116f681615cc4565b9150506116b1565b60d3546000906001600160a01b031680156117ea5746600114806117225750466004145b156117b75760405163c455279160e01b81526001600160a01b038581166004830152808516919083169063c45527919060240160206040518083038186803b15801561176d57600080fd5b505afa158015611781573d6000803e3d6000fd5b505050506040513d601f19601f820116820180604052508101906117a59190615cdf565b6001600160a01b031614915050610aa4565b46608914806117c857504662013881145b156117ea57826001600160a01b0316816001600160a01b031614915050610aa4565b5060009392505050565b6000336118046101435460ff1690565b80611813575061181381612313565b61182f5760405162461bcd60e51b8152600401610ad090615c86565b6101415461183e906001615cac565b915061184e8787848888886129fc565b610141555095945050505050565b600081815260a260205260408120546001600160a01b031680610aa45760405162461bcd60e51b815260206004820152602960248201527f4552433732313a206f776e657220717565727920666f72206e6f6e657869737460448201526832b73a103a37b5b2b760b91b6064820152608401610ad0565b61014080546118e190615af5565b80601f016020809104026020016040519081016040528092919081815260200182805461190d90615af5565b801561195a5780601f1061192f5761010080835404028352916020019161195a565b820191906000526020600020905b81548152906001019060200180831161193d57829003601f168201915b505050505081565b60006001600160a01b0382166119cd5760405162461bcd60e51b815260206004820152602a60248201527f4552433732313a2062616c616e636520717565727920666f7220746865207a65604482015269726f206164647265737360b01b6064820152608401610ad0565b506001600160a01b0316600090815260a3602052604090205490565b603c546001600160a01b03163314611a135760405162461bcd60e51b8152600401610ad090615cfc565b611a1d60006132a0565b565b33611a2981610d16565b611a455760405162461bcd60e51b8152600401610ad090615acf565b60005b8251811015610d1157611a82600080516020615f65833981519152848381518110611a7557611a75615b2a565b60200260200101516132f2565b5080611a8d81615cc4565b915050611a48565b60013360009081526008602052604090205460ff166002811115611abb57611abb61566c565b14611aff5760405162461bcd60e51b8152602060048201526014602482015273214d4f44554c455f4e4f545f454e41424c45442160601b6044820152606401610ad0565b610ae2336000836002811115611b1757611b1761566c565b60038110611b2757611b27615b2a565b600202019061334e565b42821015611b815760405162461bcd60e51b815260206004820152601960248201527f215045524d49545f444541444c494e455f4558504952454421000000000000006044820152606401610ad0565b6000611b8c8461185c565b90506000611bb0868661013d6000898152602001908152602001600020548761131a565b90506000611bbe8285613363565b509050826001600160a01b0316816001600160a01b03161480611be65750611be6838261294c565b80611bf75750611bf78383866133d0565b611c435760405162461bcd60e51b815260206004820152601a60248201527f21494e56414c49445f5045524d49545f5349474e4154555245210000000000006044820152606401610ad0565b611c4d8787612d11565b50505050505050565b61013e80546118e190615af5565b33611c6e81610d16565b611c8a5760405162461bcd60e51b8152600401610ad090615acf565b50610143805460ff1916911515919091179055565b33611ca981610d16565b611cc55760405162461bcd60e51b8152600401610ad090615acf565b610d11838361351c565b603c546001600160a01b03163314611cf95760405162461bcd60e51b8152600401610ad090615cfc565b60005b8151811015610ae257611d29600080516020615f65833981519152838381518110611a7557611a75615b2a565b5080611d3481615cc4565b915050611cfc565b600082815261013860205260408120611d55908361353f565b9392505050565b33611d6681610d16565b611d825760405162461bcd60e51b8152600401610ad090615acf565b610ae282613561565b606060a18054610af590615af5565b6000610aa47f8c93699475be54d1d73bbbabee1213ba5867c90fcebb8234a4274f68c8da497783611d3c565b6001600160a01b038216331415611e1f5760405162461bcd60e51b815260206004820152601960248201527f4552433732313a20617070726f766520746f2063616c6c6572000000000000006044820152606401610ad0565b33600081815260a5602090815260408083206001600160a01b03871680855290835292819020805460ff191686151590811790915590519081529192917f17307eab39ab6107e8899845ad3d59bd9653f200f220920489ca2b5937696c31910160405180910390a35050565b6000610aa4600080516020615f6583398151915283611d3c565b603c546001600160a01b03163314611ecf5760405162461bcd60e51b8152600401610ad090615cfc565b6001600160a01b038316611fb857811580611eea5750814710155b611f265760405162461bcd60e51b815260206004820152600d60248201526c2157524f4e475f56414c55452160981b6044820152606401610ad0565b604051600090339084908381818185875af1925050503d8060008114611f68576040519150601f19603f3d011682016040523d82523d6000602084013e611f6d565b606091505b5050905080611fb25760405162461bcd60e51b8152602060048201526011602482015270215452414e534645525f4641494c45442160781b6044820152606401610ad0565b50505050565b6040516301ffc9a760e01b8152636cdb3d1360e11b60048201526001600160a01b038416906301ffc9a79060240160206040518083038186803b158015611ffe57600080fd5b505afa158015612012573d6000803e3d6000fd5b505050506040513d601f19601f820116820180604052508101906120369190615d31565b156120b357604051637921219560e11b8152306004820152336024820152604481018290526064810183905260a06084820152600060a48201526001600160a01b0384169063f242432a9060c4015b600060405180830381600087803b15801561209f57600080fd5b505af1158015611c4d573d6000803e3d6000fd5b6040516301ffc9a760e01b81526380ac58cd60e01b60048201526001600160a01b038416906301ffc9a79060240160206040518083038186803b1580156120f957600080fd5b505afa15801561210d573d6000803e3d6000fd5b505050506040513d601f19601f820116820180604052508101906121319190615d31565b1561217d57604051635c46a7ef60e11b81523060048201523360248201526044810182905260806064820152600060848201526001600160a01b0384169063b88d4fde9060a401612085565b60405163a9059cbb60e01b8152336004820152602481018390526001600160a01b0384169063a9059cbb90604401602060405180830381600087803b1580156121c557600080fd5b505af11580156121d9573d6000803e3d6000fd5b505050506040513d601f19601f820116820180604052508101906121fd9190615d31565b610d115760405162461bcd60e51b8152602060048201526011602482015270215452414e534645525f4641494c45442160781b6044820152606401610ad0565b3361224781610d16565b6122635760405162461bcd60e51b8152600401610ad090615acf565b610ae2826135af565b612276338361303a565b6122925760405162461bcd60e51b8152600401610ad090615bd6565b611fb2848484846135d1565b60606000806122ac84612d7f565b9150915080600014610e7457604080516001808252818301909252906020808301908036833701905050925081836000815181106122ec576122ec615b2a565b60200260200101906001600160a01b031690816001600160a01b0316815250505050919050565b600061231e82611e8b565b80610aa45750610aa482610d16565b600954610100900460ff1680612346575060095460ff16155b6123625760405162461bcd60e51b8152600401610ad090615d4e565b600954610100900460ff16158015612384576009805461ffff19166101011790555b6123918989898989613604565b60005b8451811015612473576123e18582815181106123b2576123b2615b2a565b6020026020010151600001518683815181106123d0576123d0615b2a565b6020026020010151602001516136be565b8481815181106123f3576123f3615b2a565b6020026020010151602001518015612425575084818151811061241857612418615b2a565b6020026020010151604001515b156124615761245f600080516020615f6583398151915286838151811061244e5761244e615b2a565b6020026020010151600001516132f2565b505b8061246b81615cc4565b915050612394565b506001600160a01b03831615158061248a57508115155b15612499576124998383613804565b80156124ab576009805461ff00191690555b505050505050505050565b60606124c182612cf4565b6124dd5760405162461bcd60e51b8152600401610ad090615b40565b6000806124f184630434e6b560e31b612e37565b91509150811561257a5760405163c87b56dd60e01b8152600481018590526001600160a01b0382169063c87b56dd9060240160006040518083038186803b15801561253b57600080fd5b505afa15801561254f573d6000803e3d6000fd5b505050506040513d6000823e601f3d908101601f191682016040526125779190810190615b69565b92505b8251610e7457610e7184613901565b600061259482612cf4565b6125b05760405162461bcd60e51b8152600401610ad090615b40565b50600090815261013d602052604090205490565b6060336125d46101435460ff1690565b806125e357506125e381612313565b6125ff5760405162461bcd60e51b8152600401610ad090615c86565b85518751148015612611575084518751145b801561261e575083518751145b801561262b575082518751145b61266b5760405162461bcd60e51b8152602060048201526011602482015270214c454e4754485f4d49534d415443482160781b6044820152606401610ad0565b6000805b86518110156126c8578187828151811061268b5761268b615b2a565b602002602001015111156126b6578681815181106126ab576126ab615b2a565b602002602001015191505b806126c081615cc4565b91505061266f565b506126d281613134565b600060013360009081526008602052604090205460ff1660028111156126fa576126fa61566c565b14905060005b89518110156127bc578288828151811061271c5761271c615b2a565b602002602001015111156127475787818151811061273c5761273c615b2a565b602002602001015192505b6127aa8a828151811061275c5761275c615b2a565b60200260200101518a838151811061277657612776615b2a565b60200260200101518a848151811061279057612790615b2a565b60200260200101518a85815181106112b3576112b3615b2a565b806127b481615cc4565b915050612700565b509598975050505050505050565b6060806000806127d985612d7f565b9150915080600014612870576040805160018082528183019092529060208083019080368337019050509350818460008151811061281957612819615b2a565b6001600160a01b0392909216602092830291909101820152604080516001808252818301909252918281019080368337019050509250808360008151811061286357612863615b2a565b6020026020010181815250505b5050915091565b603c546001600160a01b031633146128a15760405162461bcd60e51b8152600401610ad090615cfc565b60005b8151811015610ae2576128d1600080516020615f658339815191528383815181106116de576116de615b2a565b50806128dc81615cc4565b9150506128a4565b336128ee81610d16565b61290a5760405162461bcd60e51b8152600401610ad090615acf565b8180156129145750825b1561293357612931600080516020615f65833981519152856132f2565b505b611fb284846136be565b606060d28054610af590615af5565b6000611d55838361390c565b3361296281610d16565b61297e5760405162461bcd60e51b8152600401610ad090615acf565b61298783612cf4565b6129a35760405162461bcd60e51b8152600401610ad090615b40565b610d118383613947565b336129b781610d16565b6129d35760405162461bcd60e51b8152600401610ad090615acf565b81156129f3576129f1600080516020615f65833981519152846132f2565b505b610d11836139a7565b600033612a0c6101435460ff1690565b80612a1b5750612a1b81612313565b612a375760405162461bcd60e51b8152600401610ad090615c86565b612a4086613134565b612a74888888888860013360009081526008602052604090205460ff166002811115612a6e57612a6e61566c565b14613182565b6001600160a01b03831615612a8e57612a8e8884886130fc565b50939695505050505050565b603c546001600160a01b03163314612ac45760405162461bcd60e51b8152600401610ad090615cfc565b6001600160a01b038116612b295760405162461bcd60e51b815260206004820152602660248201527f4f776e61626c653a206e6577206f776e657220697320746865207a65726f206160448201526564647265737360d01b6064820152608401610ad0565b611456816132a0565b60013360009081526008602052604090205460ff166002811115612b5857612b5861566c565b14612b9c5760405162461bcd60e51b8152602060048201526014602482015273214d4f44554c455f4e4f545f454e41424c45442160601b6044820152606401610ad0565b610ae2336000836002811115612bb457612bb461566c565b60038110612bc457612bc4615b2a565b6002020190613b1d565b60008181526101386020526040812060609190612bea90613225565b9050806001600160401b03811115612c0457612c04614e74565b604051908082528060200260200182016040528015612c2d578160200160208202803683370190505b50915060005b81811015610e7457600084815261013860205260409020612c54908261322f565b838281518110612c6657612c66615b2a565b6001600160a01b039092166020928302919091019091015280612c8881615cc4565b915050612c33565b60006001600160e01b031982166380ac58cd60e01b1480612cc157506001600160e01b03198216635b5e139f60e01b145b80610aa457506301ffc9a760e01b6001600160e01b0319831614610aa4565b8051610ae29061013e906020840190614d72565b600090815260a260205260409020546001600160a01b0316151590565b600081815260a46020526040902080546001600160a01b0319166001600160a01b0384169081179091558190612d468261185c565b6001600160a01b03167f8c5be1e5ebec7d5bd14f71427d1e84f3dd0314c0f7b2291e5b200ac8c7c3b92560405160405180910390a45050565b600080612d8b83613b32565b909250905080612e3257600080612da98563e97405af60e01b612e37565b915091508115612870576040516319deda6d60e31b8152600481018690526001600160a01b0382169063cef6d36890602401604080518083038186803b158015612df257600080fd5b505afa158015612e06573d6000803e3d6000fd5b505050506040513d601f19601f82011682018060405250810190612e2a9190615d9c565b909450925050505b915091565b600082815261014560205260408120546001600160a01b03168015801590612edb57506040516301ffc9a760e01b81526001600160e01b0319841660048201526001600160a01b038216906301ffc9a79060240160206040518083038186803b158015612ea357600080fd5b505afa158015612eb7573d6000803e3d6000fd5b505050506040513d601f19601f82011682018060405250810190612edb9190615d31565b91509250929050565b6060612eef82612cf4565b612f0b5760405162461bcd60e51b8152600401610ad090615b40565b600082815261013f602052604081208054612f2590615af5565b80601f0160208091040260200160405190810160405280929190818152602001828054612f5190615af5565b8015612f9e5780601f10612f7357610100808354040283529160200191612f9e565b820191906000526020600020905b815481529060010190602001808311612f8157829003601f168201915b505050505090506000612faf613be7565b905060008151118015612fc3575060008251115b15612ff3578082604051602001612fdb929190615dca565b60405160208183030381529060405292505050919050565b815115613001575092915050565b600081511161301f5760405180602001604052806000815250610e71565b8061302985613bf7565b604051602001612fdb929190615dca565b600061304582612cf4565b6130a65760405162461bcd60e51b815260206004820152602c60248201527f4552433732313a206f70657261746f7220717565727920666f72206e6f6e657860448201526b34b9ba32b73a103a37b5b2b760a11b6064820152608401610ad0565b60006130b18361185c565b9050806001600160a01b0316846001600160a01b031614806130ec5750836001600160a01b03166130e184610b78565b6001600160a01b0316145b806113bc57506113bc818561294c565b613107838383613cf4565b6001600160a01b03821661dead141561312757610d116002828585613cff565b610d116001828585613cff565b610144548015806131455750808211155b610ae25760405162461bcd60e51b815260206004820152600e60248201526d214d41585f544f4b454e5f49442160901b6044820152606401610ad0565b61319c868560405180602001604052806000815250613dc2565b8451156131ad576131ad8486613df5565b81156131be576131be848484613e81565b80156110165760008481526101456020526040902080546001600160a01b03191633179055505050505050565b60006131f68261185c565b905061320182613f85565b610142805490600061321283615df9565b9190505550610ae2600283836000613cff565b6000610aa4825490565b6000611d558383613fb7565b6000828152610138602052604081206132549083613b1d565b15613297576040516001600160a01b0383169084907f155aaafb6329a2098580462df33ec4b7441b19729b9601c5fc17ae1cf99a8a5290600090a3506001610aa4565b50600092915050565b603c80546001600160a01b038381166001600160a01b0319831681179093556040519116919082907f8be0079c531659141344cd1fd0a4f28419497f9722a3daafe3b4186f6b6457e090600090a35050565b60008281526101386020526040812061330b908361334e565b15613297576040516001600160a01b0383169084907f2ae6a113c0ed5b78a53413ffbb7679881f11145ccfba4fb92e863dfcd5a1d2f390600090a3506001610aa4565b6000611d55836001600160a01b038416613fe1565b60008082516041141561339a5760208301516040840151606085015160001a61338e87828585614030565b94509450505050611126565b8251604014156133c457602083015160408401516133b986838361411d565b935093505050611126565b50600090506002611126565b60008060006133df8585613363565b909250905060008160048111156133f8576133f861566c565b1480156134165750856001600160a01b0316826001600160a01b0316145b1561342657600192505050611d55565b600080876001600160a01b0316631626ba7e60e01b888860405160240161344e929190615e10565b60408051601f198184030181529181526020820180516001600160e01b03166001600160e01b031990941693909317909252905161348c9190615e29565b600060405180830381855afa9150503d80600081146134c7576040519150601f19603f3d011682016040523d82523d6000602084013e6134cc565b606091505b50915091508180156134df575080516020145b801561351057508051630b135d3f60e11b906135049083016020908101908401615e45565b6001600160e01b031916145b98975050505050505050565b613534600080516020615f658339815191528361323b565b50610ae2828261414c565b6001600160a01b03811660009081526001830160205260408120541515611d55565b80516135749060d2906020840190614d72565b507fdf1280b84eee5cd4ce59294c59ec7288bd49034d7f3d142f57ba9b4779156364816040516135a49190614feb565b60405180910390a150565b60d380546001600160a01b0319166001600160a01b0392909216919091179055565b6135dc8484846130fc565b6135e884848484614290565b611fb25760405162461bcd60e51b8152600401610ad090615e62565b613611858585858561439a565b6136b785805160208083019190912060408051808201825260018152603160f81b9084015280517f8b73c3c69bb8fe3d512ecc4cf759cc79239f7b179b0ffacaa9a75d522b39400f938101939093528201527fc89efdaa54c0f20c7adf612882df0950f5a951637e0307cdcb4c672f298b8bc660608201524660808201523060a082015260c00160408051601f19818403018152919052805160209091012061013c5550565b5050505050565b6001600160a01b03821660009081526008602052604081205460ff1660028111156136eb576136eb61566c565b1461372d5760405162461bcd60e51b815260206004820152601260248201527121414c52454144595f41545441434845442160701b6044820152606401610ad0565b61373860068361334e565b50816001600160a01b031663ed1b31446040518163ffffffff1660e01b8152600401602060405180830381600087803b15801561377457600080fd5b505af1158015613788573d6000803e3d6000fd5b505050506040513d601f19601f820116820180604052508101906137ac9190615d31565b6137ea5760405162461bcd60e51b815260206004820152600f60248201526e214154544143485f4641494c45442160881b6044820152606401610ad0565b80156137f957610ae2826139a7565b610ae282600161351c565b6101395460ff16156138675760405162461bcd60e51b815260206004820152602660248201527f2145524332393831526f79616c746965733a44454641554c545f414c52454144604482015265595f5345542160d01b6064820152608401610ad0565b6127108111156138b95760405162461bcd60e51b815260206004820152601b60248201527f2145524332393831526f79616c746965733a544f4f5f484947482100000000006044820152606401610ad0565b610139805460ff19166001179055604080518082019091526001600160a01b039092168083526001600160601b039091166020909201829052600160a01b9091021761013a55565b6060610aa48261445c565b6001600160a01b03808316600090815260a56020908152604080832093851683529290529081205460ff1680611d555750611d5583836116fe565b805161398757600082815261013f60205260408120805461396790615af5565b90501115610ae257600082815261013f60205260408120610ae291614df6565b600082815261013f602090815260409091208251610d1192840190614d72565b60016001600160a01b03821660009081526008602052604090205460ff1660028111156139d6576139d661566c565b1415613a155760405162461bcd60e51b815260206004820152600e60248201526d214e4f545f44495341424c45442160901b6044820152606401610ad0565b6001600160a01b0381166000818152600860209081526040808320805460ff191660011790558051630b079ac960e41b8152905163b079ac9093600480840194938390030190829087803b158015613a6c57600080fd5b505af1158015613a80573d6000803e3d6000fd5b505050506040513d601f19601f82011682018060405250810190613aa49190615d31565b613ae45760405162461bcd60e51b815260206004820152601160248201527021454e41424c494e475f4641494c45442160781b6044820152606401610ad0565b6040516001600160a01b03821681527ffc4a50edaab584aa3017077c8f45812aef30d87def3a21ce37e214e51994daa2906020016135a4565b6000611d55836001600160a01b0384166145a7565b604080518082019091526000808252602082018190529081906101395460ff1615613b8c57506040805180820190915261013a546001600160a01b0381168252600160a01b90046001600160601b03166020820152613bca565b50600083815261013b60209081526040918290208251808401909352546001600160a01b0381168352600160a01b90046001600160601b0316908201525b806000015181602001516001600160601b03169250925050915091565b606061013e8054610af590615af5565b606081613c1b5750506040805180820190915260018152600360fc1b602082015290565b8160005b8115613c455780613c2f81615cc4565b9150613c3e9050600a83615c72565b9150613c1f565b6000816001600160401b03811115613c5f57613c5f614e74565b6040519080825280601f01601f191660200182016040528015613c89576020820181803683370190505b5090505b84156113bc57613c9e600183615eb4565b9150613cab600a86615ecb565b613cb6906030615cac565b60f81b818381518110613ccb57613ccb615b2a565b60200101906001600160f81b031916908160001a905350613ced600a86615c72565b9450613c8d565b610d1183838361469a565b600080856002811115613d1457613d1461566c565b60038110613d2457613d24615b2a565b6002020190506000613d3582613225565b905060005b81811015611c4d57613d4c838261322f565b6001600160a01b0316633dc0e1a6888888886040518563ffffffff1660e01b8152600401613d7d9493929190615edf565b600060405180830381600087803b158015613d9757600080fd5b505af1158015613dab573d6000803e3d6000fd5b505050508080613dba90615cc4565b915050613d3a565b613dcc83836146bd565b613dd96000848484614290565b610d115760405162461bcd60e51b8152600401610ad090615e62565b613dfe82612cf4565b613e615760405162461bcd60e51b815260206004820152602e60248201527f45524337323155524953746f726167653a2055524920736574206f66206e6f6e60448201526d32bc34b9ba32b73a103a37b5b2b760911b6064820152608401610ad0565b6000828152610106602090815260409091208251610d1192840190614d72565b6101395460ff1615613ee85760405162461bcd60e51b815260206004820152602a60248201527f2145524332393831526f79616c746965733a524f59414c544945535f434f4e54604482015269524143545f574944452160b01b6064820152608401610ad0565b612710811115613f3a5760405162461bcd60e51b815260206004820152601b60248201527f2145524332393831526f79616c746965733a544f4f5f484947482100000000006044820152606401610ad0565b6040805180820182526001600160a01b0393841681526001600160601b039283166020808301918252600096875261013b90529190942093519051909116600160a01b029116179055565b600081815261013b6020526040812055613fae8160405180602001604052806000815250613947565b611456816146eb565b6000826000018281548110613fce57613fce615b2a565b9060005260206000200154905092915050565b600081815260018301602052604081205461402857508154600181810184556000848152602080822090930184905584548482528286019093526040902091909155610aa4565b506000610aa4565b6000807f7fffffffffffffffffffffffffffffff5d576e7357a4501ddfe92f46681b20a08311156140675750600090506003614114565b8460ff16601b1415801561407f57508460ff16601c14155b156140905750600090506004614114565b6040805160008082526020820180845289905260ff881692820192909252606081018690526080810185905260019060a0016020604051602081039080840390855afa1580156140e4573d6000803e3d6000fd5b5050604051601f1901519150506001600160a01b03811661410d57600060019250925050614114565b9150600090505b94509492505050565b6000806001600160ff1b03831660ff84901c601b0161413e87828885614030565b935093505050935093915050565b60026001600160a01b03831660009081526008602052604090205460ff16600281111561417b5761417b61566c565b14156141b95760405162461bcd60e51b815260206004820152600d60248201526c214e4f545f454e41424c45442160981b6044820152606401610ad0565b6001600160a01b038216600081815260086020526040808220805460ff191660021790558051634c85eb1f60e01b81529051634c85eb1f9260048084019391929182900301818387803b15801561420f57600080fd5b505af1925050508015614220575060015b50806142505761423282600080612bb4565b506142408260006001612bb4565b5061424e8260006002612bb4565b505b6040516001600160a01b03831681527ffc4a50edaab584aa3017077c8f45812aef30d87def3a21ce37e214e51994daa29060200160405180910390a15050565b60006001600160a01b0384163b1561439257604051630a85bd0160e11b81526001600160a01b0385169063150b7a02906142d4903390899088908890600401615f11565b602060405180830381600087803b1580156142ee57600080fd5b505af192505050801561431e575060408051601f3d908101601f1916820190925261431b91810190615e45565b60015b614378573d80801561434c576040519150601f19603f3d011682016040523d82523d6000602084013e614351565b606091505b5080516143705760405162461bcd60e51b8152600401610ad090615e62565b805181602001fd5b6001600160e01b031916630a85bd0160e11b1490506113bc565b5060016113bc565b600954610100900460ff16806143b3575060095460ff16155b6143cf5760405162461bcd60e51b8152600401610ad090615d4e565b600954610100900460ff161580156143f1576009805461ffff19166101011790555b6143f961472d565b61440386866147a8565b8351156144135761441384613561565b6001600160a01b0383161561442b5761442b836135af565b6001600160a01b038216156144435761444382612a9a565b8015611016576009805461ff0019169055505050505050565b606061446782612cf4565b6144cd5760405162461bcd60e51b815260206004820152603160248201527f45524337323155524953746f726167653a2055524920717565727920666f72206044820152703737b732bc34b9ba32b73a103a37b5b2b760791b6064820152608401610ad0565b60008281526101066020526040812080546144e790615af5565b80601f016020809104026020016040519081016040528092919081815260200182805461451390615af5565b80156145605780601f1061453557610100808354040283529160200191614560565b820191906000526020600020905b81548152906001019060200180831161454357829003601f168201915b50505050509050600061457161483d565b9050805160001415614584575092915050565b81511561459e578082604051602001612fdb929190615dca565b610e718461484d565b600081815260018301602052604081205480156146905760006145cb600183615eb4565b85549091506000906145df90600190615eb4565b90508181146146445760008660000182815481106145ff576145ff615b2a565b906000526020600020015490508087600001848154811061462257614622615b2a565b6000918252602080832090910192909255918252600188019052604090208390555b855486908061465557614655615f4e565b600190038181906000526020600020016000905590558560010160008681526020019081526020016000206000905560019350505050610aa4565b6000915050610aa4565b6146a5838383614917565b6001600160a01b03831615610d1157610d1181614ab7565b6146c78282614ada565b61014280549060006146d883615cc4565b9190505550610ae2600082600085613cff565b6146f481614c0d565b600081815261010660205260409020805461470e90615af5565b1590506114565760008181526101066020526040812061145691614df6565b600954610100900460ff1680614746575060095460ff16155b6147625760405162461bcd60e51b8152600401610ad090615d4e565b600954610100900460ff16158015614784576009805461ffff19166101011790555b61478c614ca8565b614794614d12565b8015611456576009805461ff001916905550565b600954610100900460ff16806147c1575060095460ff16155b6147dd5760405162461bcd60e51b8152600401610ad090615d4e565b600954610100900460ff161580156147ff576009805461ffff19166101011790555b82516148129060a0906020860190614d72565b5081516148269060a1906020850190614d72565b508015610d11576009805461ff0019169055505050565b60606101408054610af590615af5565b606061485882612cf4565b6148bc5760405162461bcd60e51b815260206004820152602f60248201527f4552433732314d657461646174613a2055524920717565727920666f72206e6f60448201526e3732bc34b9ba32b73a103a37b5b2b760891b6064820152608401610ad0565b60006148c661483d565b905060008151116148e65760405180602001604052806000815250611d55565b806148f084613bf7565b604051602001614901929190615dca565b6040516020818303038152906040529392505050565b826001600160a01b031661492a8261185c565b6001600160a01b0316146149925760405162461bcd60e51b815260206004820152602960248201527f4552433732313a207472616e73666572206f6620746f6b656e2074686174206960448201526839903737ba1037bbb760b91b6064820152608401610ad0565b6001600160a01b0382166149f45760405162461bcd60e51b8152602060048201526024808201527f4552433732313a207472616e7366657220746f20746865207a65726f206164646044820152637265737360e01b6064820152608401610ad0565b6149ff600082612d11565b6001600160a01b038316600090815260a360205260408120805460019290614a28908490615eb4565b90915550506001600160a01b038216600090815260a360205260408120805460019290614a56908490615cac565b9091555050600081815260a2602052604080822080546001600160a01b0319166001600160a01b0386811691821790925591518493918716917fddf252ad1be2c89b69c2b068fc378daa952ba7f163c4a11628f55a4df523b3ef91a4505050565b600081815261013d60205260408120805491614ad283615cc4565b919050555050565b6001600160a01b038216614b305760405162461bcd60e51b815260206004820181905260248201527f4552433732313a206d696e7420746f20746865207a65726f20616464726573736044820152606401610ad0565b614b3981612cf4565b15614b865760405162461bcd60e51b815260206004820152601c60248201527f4552433732313a20746f6b656e20616c7265616479206d696e746564000000006044820152606401610ad0565b6001600160a01b038216600090815260a360205260408120805460019290614baf908490615cac565b9091555050600081815260a2602052604080822080546001600160a01b0319166001600160a01b03861690811790915590518392907fddf252ad1be2c89b69c2b068fc378daa952ba7f163c4a11628f55a4df523b3ef908290a45050565b6000614c188261185c565b9050614c25600083612d11565b6001600160a01b038116600090815260a360205260408120805460019290614c4e908490615eb4565b9091555050600082815260a2602052604080822080546001600160a01b0319169055518391906001600160a01b038416907fddf252ad1be2c89b69c2b068fc378daa952ba7f163c4a11628f55a4df523b3ef908390a45050565b600954610100900460ff1680614cc1575060095460ff16155b614cdd5760405162461bcd60e51b8152600401610ad090615d4e565b600954610100900460ff16158015614794576009805461ffff19166101011790558015611456576009805461ff001916905550565b600954610100900460ff1680614d2b575060095460ff16155b614d475760405162461bcd60e51b8152600401610ad090615d4e565b600954610100900460ff16158015614d69576009805461ffff19166101011790555b614794336132a0565b828054614d7e90615af5565b90600052602060002090601f016020900481019282614da05760008555614de6565b82601f10614db957805160ff1916838001178555614de6565b82800160010185558215614de6579182015b82811115614de6578251825591602001919060010190614dcb565b50614df2929150614e2c565b5090565b508054614e0290615af5565b6000825580601f10614e12575050565b601f01602090049060005260206000209081019061145691905b5b80821115614df25760008155600101614e2d565b6001600160e01b03198116811461145657600080fd5b600060208284031215614e6957600080fd5b8135611d5581614e41565b634e487b7160e01b600052604160045260246000fd5b604051606081016001600160401b0381118282101715614eac57614eac614e74565b60405290565b604051601f8201601f191681016001600160401b0381118282101715614eda57614eda614e74565b604052919050565b60006001600160401b03821115614efb57614efb614e74565b50601f01601f191660200190565b600082601f830112614f1a57600080fd5b8135614f2d614f2882614ee2565b614eb2565b818152846020838601011115614f4257600080fd5b816020850160208301376000918101602001919091529392505050565b600060208284031215614f7157600080fd5b81356001600160401b03811115614f8757600080fd5b6113bc84828501614f09565b60005b83811015614fae578181015183820152602001614f96565b83811115611fb25750506000910152565b60008151808452614fd7816020860160208601614f93565b601f01601f19169290920160200192915050565b602081526000611d556020830184614fbf565b60006020828403121561501057600080fd5b5035919050565b6001600160a01b038116811461145657600080fd5b803561503781615017565b919050565b6000806040838503121561504f57600080fd5b823561505a81615017565b946020939093013593505050565b60006020828403121561507a57600080fd5b8135611d5581615017565b600081518084526020808501945080840160005b838110156150b557815187529582019590820190600101615099565b509495945050505050565b602081526000611d556020830184615085565b6000806000606084860312156150e857600080fd5b83356150f381615017565b9250602084013561510381615017565b929592945050506040919091013590565b60008060008060008060c0878903121561512d57600080fd5b863561513881615017565b9550602087013561514881615017565b94506040870135935060608701356001600160401b038082111561516b57600080fd5b6151778a838b01614f09565b94506080890135935060a089013591508082111561519457600080fd5b506151a189828a01614f09565b9150509295509295509295565b600080604083850312156151c157600080fd5b8235915060208301356151d381615017565b809150509250929050565b600080604083850312156151f157600080fd5b50508035926020909101359150565b60006001600160401b0382111561521957615219614e74565b5060051b60200190565b600082601f83011261523457600080fd5b81356020615244614f2883615200565b82815260059290921b8401810191818101908684111561526357600080fd5b8286015b8481101561528757803561527a81615017565b8352918301918301615267565b509695505050505050565b600082601f8301126152a357600080fd5b813560206152b3614f2883615200565b82815260059290921b840181019181810190868411156152d257600080fd5b8286015b848110156152875780356001600160401b038111156152f55760008081fd5b6153038986838b0101614f09565b8452509183019183016152d6565b600082601f83011261532257600080fd5b81356020615332614f2883615200565b82815260059290921b8401810191818101908684111561535157600080fd5b8286015b848110156152875780358352918301918301615355565b6000806000806080858703121561538257600080fd5b84356001600160401b038082111561539957600080fd5b6153a588838901615223565b955060208701359150808211156153bb57600080fd5b6153c788838901615292565b945060408701359150808211156153dd57600080fd5b6153e988838901615223565b935060608701359150808211156153ff57600080fd5b5061540c87828801615311565b91505092959194509250565b6000806000806080858703121561542e57600080fd5b843561543981615017565b966020860135965060408601359560600135945092505050565b600081518084526020808501945080840160005b838110156150b55781516001600160a01b031687529582019590820190600101615467565b60408152600061549f6040830185615453565b82810360208401526154b18185615085565b95945050505050565b6000602082840312156154cc57600080fd5b81356001600160401b038111156154e257600080fd5b6113bc84828501615223565b6000806040838503121561550157600080fd5b823561550c81615017565b915060208301356151d381615017565b600080600080600060a0868803121561553457600080fd5b853561553f81615017565b945060208601356001600160401b0381111561555a57600080fd5b61556688828901614f09565b945050604086013561557781615017565b925060608601359150608086013561558e81615017565b809150509295509295909350565b6000602082840312156155ae57600080fd5b813560038110611d5557600080fd5b600080600080608085870312156155d357600080fd5b84356155de81615017565b9350602085013592506040850135915060608501356001600160401b0381111561560757600080fd5b61540c87828801614f09565b801515811461145657600080fd5b60006020828403121561563357600080fd5b8135611d5581615613565b6000806040838503121561565157600080fd5b823561565c81615017565b915060208301356151d381615613565b634e487b7160e01b600052602160045260246000fd5b6003811061145657634e487b7160e01b600052602160045260246000fd5b602081016156ad83615682565b91905290565b6000806000606084860312156156c857600080fd5b83356156d381615017565b95602085013595506040909401359392505050565b600080600080608085870312156156fe57600080fd5b843561570981615017565b9350602085013561571981615017565b92506040850135915060608501356001600160401b0381111561560757600080fd5b602081526000611d556020830184615453565b600082601f83011261575f57600080fd5b8135602061576f614f2883615200565b8281526060928302850182019282820191908785111561578e57600080fd5b8387015b858110156157f05781818a0312156157aa5760008081fd5b6157b2614e8a565b81356157bd81615017565b8152818601356157cc81615613565b818701526040828101356157df81615613565b908201528452928401928101615792565b5090979650505050505050565b600080600080600080600080610100898b03121561581a57600080fd5b88356001600160401b038082111561583157600080fd5b61583d8c838d01614f09565b995060208b013591508082111561585357600080fd5b61585f8c838d01614f09565b985060408b013591508082111561587557600080fd5b6158818c838d01614f09565b975061588f60608c0161502c565b965061589d60808c0161502c565b955060a08b01359150808211156158b357600080fd5b506158c08b828c0161574e565b9350506158cf60c08a0161502c565b915060e089013590509295985092959890939650565b600080600080600060a086880312156158fd57600080fd5b85356001600160401b038082111561591457600080fd5b61592089838a01615223565b9650602088013591508082111561593657600080fd5b61594289838a01615292565b9550604088013591508082111561595857600080fd5b61596489838a01615311565b9450606088013591508082111561597a57600080fd5b61598689838a01615223565b9350608088013591508082111561599c57600080fd5b506159a988828901615311565b9150509295509295909350565b6000806000606084860312156159cb57600080fd5b83356159d681615017565b925060208401356159e681615613565b915060408401356159f681615613565b809150509250925092565b60008060408385031215615a1457600080fd5b8235915060208301356001600160401b03811115615a3157600080fd5b615a3d85828601614f09565b9150509250929050565b60008060008060008060c08789031215615a6057600080fd5b8635615a6b81615017565b955060208701356001600160401b03811115615a8657600080fd5b615a9289828a01614f09565b955050604087013593506060870135615aaa81615017565b92506080870135915060a0870135615ac181615017565b809150509295509295509295565b6020808252600c908201526b214e4f545f454449544f522160a01b604082015260600190565b600181811c90821680615b0957607f821691505b60208210811415610daa57634e487b7160e01b600052602260045260246000fd5b634e487b7160e01b600052603260045260246000fd5b6020808252600f908201526e21554e4b4e4f574e5f544f4b454e2160881b604082015260600190565b600060208284031215615b7b57600080fd5b81516001600160401b03811115615b9157600080fd5b8201601f81018413615ba257600080fd5b8051615bb0614f2882614ee2565b818152856020838501011115615bc557600080fd5b6154b1826020830160208601614f93565b60208082526031908201527f4552433732313a207472616e736665722063616c6c6572206973206e6f74206f6040820152701ddb995c881b9bdc88185c1c1c9bdd9959607a1b606082015260800190565b634e487b7160e01b600052601160045260246000fd5b6000816000190483118215151615615c5757615c57615c27565b500290565b634e487b7160e01b600052601260045260246000fd5b600082615c8157615c81615c5c565b500490565b6020808252600c908201526b214e4f545f4d494e5445522160a01b604082015260600190565b60008219821115615cbf57615cbf615c27565b500190565b6000600019821415615cd857615cd8615c27565b5060010190565b600060208284031215615cf157600080fd5b8151611d5581615017565b6020808252818101527f4f776e61626c653a2063616c6c6572206973206e6f7420746865206f776e6572604082015260600190565b600060208284031215615d4357600080fd5b8151611d5581615613565b6020808252602e908201527f496e697469616c697a61626c653a20636f6e747261637420697320616c72656160408201526d191e481a5b9a5d1a585b1a5e995960921b606082015260800190565b60008060408385031215615daf57600080fd5b8251615dba81615017565b6020939093015192949293505050565b60008351615ddc818460208801614f93565b835190830190615df0818360208801614f93565b01949350505050565b600081615e0857615e08615c27565b506000190190565b8281526040602082015260006113bc6040830184614fbf565b60008251615e3b818460208701614f93565b9190910192915050565b600060208284031215615e5757600080fd5b8151611d5581614e41565b60208082526032908201527f4552433732313a207472616e7366657220746f206e6f6e20455243373231526560408201527131b2b4bb32b91034b6b83632b6b2b73a32b960711b606082015260800190565b600082821015615ec657615ec6615c27565b500390565b600082615eda57615eda615c5c565b500690565b60808101615eec86615682565b94815260208101939093526001600160a01b0391821660408401521660609091015290565b6001600160a01b0385811682528416602082015260408101839052608060608201819052600090615f4490830184614fbf565b9695505050505050565b634e487b7160e01b600052603160045260246000fdfef0887ba65ee2024ea881d91b74c2450ef19e1557f03bed3ea9f16b037cbe2dc9a2646970667358221220fa8e9a5abd4a41291889ddd235dfb4818be1e03a4c5519cf25b1db91991ee6f964736f6c63430008090033",
  "devdoc": {
    "author": "Simon Fremaux (@dievardump)",
    "kind": "dev",
    "methods": {
      "addEditors(address[])": {
        "details": "needs to be owner",
        "params": {
          "users": "list of new editors"
        }
      },
      "addEventListener(uint8)": {
        "params": {
          "eventType": "the type of event to listen to"
        }
      },
      "addMinters(address[])": {
        "details": "needs to be owner",
        "params": {
          "users": "list of new minters"
        }
      },
      "approve(address,uint256)": {
        "details": "See {IERC721-approve}."
      },
      "attachModule(address,bool,bool)": {
        "params": {
          "enabled": "if the module is enabled by default",
          "module": "a module to attach",
          "moduleCanMint": "if the module has to be given the minter role"
        }
      },
      "balanceOf(address)": {
        "details": "See {IERC721-balanceOf}."
      },
      "burn(uint256)": {
        "details": "Burns `tokenId`. See {ERC721-_burn}. Requirements: - The caller must own `tokenId` or be an approved operator."
      },
      "canEdit(address)": {
        "params": {
          "user": "the address to check"
        }
      },
      "canMint(address)": {
        "params": {
          "user": "the address to check"
        }
      },
      "disableModule(address,bool)": {
        "details": "Allows owner to disable a module",
        "params": {
          "module": "to disable"
        }
      },
      "enableModule(address,bool)": {
        "details": "Allows owner to enable a module",
        "params": {
          "module": "to enable",
          "moduleCanMint": "if the module has to be given the minter role"
        }
      },
      "getApproved(uint256)": {
        "details": "See {IERC721-getApproved}."
      },
      "getFeeBps(uint256)": {
        "params": {
          "tokenId": "the token Id to check for"
        },
        "returns": {
          "fees": "all the amounts for tokenId"
        }
      },
      "getFeeRecipients(uint256)": {
        "params": {
          "tokenId": "the token Id to check for"
        },
        "returns": {
          "recipients": "all the recipients for tokenId"
        }
      },
      "getFees(uint256)": {
        "params": {
          "tokenId": "the token Id to check for"
        },
        "returns": {
          "recipients": "all the recipients and their basis points, for tokenId"
        }
      },
      "hasRole(bytes32,address)": {
        "params": {
          "role": "the role to check",
          "user": "the address to check"
        }
      },
      "initialize(string,string,string,address,address,(address,bool,bool)[],address,uint256)": {
        "params": {
          "contractRoyaltiesRecipient": "the recipient, if the contract has \"contract wide royalties\"",
          "contractRoyaltiesValue": "the value, modules to add / enable directly at creation",
          "contractURI_": "The contract URI (containing its metadata) - can be empty \"\"",
          "modulesInit_": "modules to add / enable directly at creation",
          "name_": "name of the contract (see ERC721)",
          "openseaProxyRegistry_": "OpenSea's proxy registry to allow gas-less listings - can be address(0)",
          "owner_": "Address to whom transfer ownership",
          "symbol_": "symbol of the contract (see ERC721)"
        }
      },
      "isApprovedForAll(address,address)": {
        "details": "Override isApprovedForAll to check first if current operator is owner's OpenSea proxy"
      },
      "isEditor(address)": {
        "params": {
          "user": "the address to check"
        }
      },
      "isMinter(address)": {
        "params": {
          "user": "the address to check"
        }
      },
      "isOwnersOpenSeaProxy(address,address)": {
        "details": "Allows to check if `operator` is owner's OpenSea proxy on eth mainnet / rinkeby      or to check if operator is OpenSea's proxy contract on Polygon and Mumbai",
        "params": {
          "operator": "the operator (proxy) we check for",
          "owner": "the owner we check for"
        }
      },
      "listModules()": {
        "returns": {
          "list": "of modules and status"
        }
      },
      "listRole(bytes32)": {
        "returns": {
          "list": "of role members"
        }
      },
      "mint(address,string,address,uint256,address)": {
        "params": {
          "feeAmount": "the royalties amount. From 0 to 10000        where 10000 == 100.00%; 1000 == 10.00%; 250 == 2.50%",
          "feeRecipient": "the recipient of royalties",
          "to": "address of recipient",
          "transferTo": "the address to transfer the NFT to after mint        this is used when we want to mint the NFT to the creator address        before transfering it to a recipient",
          "uri": "token metadata uri"
        },
        "returns": {
          "tokenId": "the tokenId"
        }
      },
      "mint(address,string,uint256,address,uint256,address)": {
        "params": {
          "feeAmount": "the royalties amount. From 0 to 10000        where 10000 == 100.00%; 1000 == 10.00%; 250 == 2.50%",
          "feeRecipient": "the recipient of royalties",
          "to": "address of recipient",
          "tokenId_": "token id wanted",
          "transferTo": "the address to transfer the NFT to after mint        this is used when we want to mint the NFT to the creator address        before transfering it to a recipient",
          "uri": "token metadata uri"
        },
        "returns": {
          "_0": "the tokenId"
        }
      },
      "mintBatch(address[],string[],address[],uint256[])": {
        "params": {
          "feeAmounts": "the royalties amounts for each id. From 0 to 10000        where 10000 == 100.00%; 1000 == 10.00%; 250 == 2.50%",
          "feeRecipients": "the recipients of royalties for each id",
          "to": "array of address of recipients",
          "uris": "array of token metadata uris"
        },
        "returns": {
          "tokenIds": "the tokenIds"
        }
      },
      "mintBatch(address[],string[],uint256[],address[],uint256[])": {
        "params": {
          "feeAmounts": "the royalties amounts for each id. From 0 to 10000        where 10000 == 100.00%; 1000 == 10.00%; 250 == 2.50%",
          "feeRecipients": "the recipients of royalties for each id",
          "to": "array of address of recipients",
          "tokenIds": "array of token ids wanted",
          "uris": "array of token metadata uris"
        },
        "returns": {
          "_0": "tokenIds the tokenIds"
        }
      },
      "mutableURI(uint256)": {
        "params": {
          "tokenId": "tokenId"
        },
        "returns": {
          "uri": "the URI where mutable can be found"
        }
      },
      "name()": {
        "details": "See {IERC721Metadata-name}."
      },
      "nonce(uint256)": {
        "params": {
          "tokenId": "token id"
        },
        "returns": {
          "_0": "current nonce"
        }
      },
      "owner()": {
        "details": "Returns the address of the current owner."
      },
      "ownerOf(uint256)": {
        "details": "See {IERC721-ownerOf}."
      },
      "permit(address,uint256,uint256,bytes)": {
        "details": "Anyone can call this to approve `spender`, even a third-party",
        "params": {
          "deadline": "the deadline for the permit to be used",
          "signature": "permit",
          "spender": "the actor to approve",
          "tokenId": "the token id"
        }
      },
      "removeEditors(address[])": {
        "details": "needs to be owner",
        "params": {
          "users": "list of removed editors"
        }
      },
      "removeEventListener(uint8)": {
        "params": {
          "eventType": "the type of event to stop listen to"
        }
      },
      "removeMinters(address[])": {
        "details": "needs to be owner",
        "params": {
          "users": "list of removed minters"
        }
      },
      "renderTokenURI(uint256)": {
        "params": {
          "tokenId": "tokenId"
        },
        "returns": {
          "uri": "the URI to render token"
        }
      },
      "renounceOwnership()": {
        "details": "Leaves the contract without owner. It will not be possible to call `onlyOwner` functions anymore. Can only be called by the current owner. NOTE: Renouncing ownership will leave the contract without an owner, thereby removing any functionality that is only available to the owner."
      },
      "royaltyInfo(uint256,uint256)": {
        "params": {
          "_tokenId": "- the NFT asset queried for royalty information",
          "_value": "- the sale price of the NFT asset specified by _tokenId"
        },
        "returns": {
          "receiver": "- address of who should be sent the royalty payment",
          "royaltyAmount": "- the royalty payment amount for value sale price"
        }
      },
      "safeTransferFrom(address,address,uint256)": {
        "details": "See {IERC721-safeTransferFrom}."
      },
      "safeTransferFrom(address,address,uint256,bytes)": {
        "details": "See {IERC721-safeTransferFrom}."
      },
      "safeTransferFromWithPermit(address,address,uint256,bytes,uint256,bytes)": {
        "details": "this supposes that the permit is for msg.sender",
        "params": {
          "_data": "optional data to add",
          "deadline": "the deadline for the permit to be used",
          "from": "current owner",
          "signature": "of permit",
          "to": "recipient",
          "tokenId": "the token id"
        }
      },
      "setApprovalForAll(address,bool)": {
        "details": "See {IERC721-setApprovalForAll}."
      },
      "setBaseMutableURI(string)": {
        "params": {
          "baseMutableURI_": "the new base for mutable meta uri used in mutableURI()"
        }
      },
      "setBaseURI(string)": {
        "details": "only an editor can do that (account or module)",
        "params": {
          "baseURI_": "the new base token uri used in tokenURI()"
        }
      },
      "setContractURI(string)": {
        "details": "needs to be owner",
        "params": {
          "contractURI_": "new contract URI"
        }
      },
      "setDefaultRoyaltiesRecipient(address)": {
        "details": "an editor can call this",
        "params": {
          "recipient": "new default royalties recipient"
        }
      },
      "setMaxTokenId(uint256)": {
        "details": "be careful, this is a one time call function.      When set, the maxTokenId can not be reverted nor changed",
        "params": {
          "maxTokenId_": "the max token id possible"
        }
      },
      "setMintingOpenToAll(bool)": {
        "params": {
          "isOpen": "if the new state is open or not"
        }
      },
      "setMutableURI(uint256,string)": {
        "details": "only an editor (account or module) can call this",
        "params": {
          "mutableURI_": "the mutable URI",
          "tokenId": "the token to set the mutable URI for"
        }
      },
      "setOpenSeaRegistry(address)": {
        "details": "needs to be owner",
        "params": {
          "osProxyRegistry": "new opensea proxy registry"
        }
      },
      "setTokenRoyaltiesRecipient(uint256,address)": {
        "details": "only the current token royalty recipient can change the address",
        "params": {
          "recipient": "new default royalties recipient",
          "tokenId": "the token to change the recipient for"
        }
      },
      "supportsInterface(bytes4)": {
        "details": "See {IERC165-supportsInterface}."
      },
      "symbol()": {
        "details": "See {IERC721Metadata-symbol}."
      },
      "tokenURI(uint256)": {
        "details": "This function will first check if there is a tokenURI registered for this token in the contract      if not it will check if the token comes from a Module, and if yes, try to get the tokenURI from it",
        "params": {
          "tokenId": "a parameter just like in doxygen (must be followed by parameter name)"
        },
        "returns": {
          "uri": "the tokenURI"
        }
      },
      "transferFrom(address,address,uint256)": {
        "details": "See {IERC721-transferFrom}."
      },
      "transferOwnership(address)": {
        "details": "Transfers ownership of the contract to a new account (`newOwner`). Can only be called by the current owner."
      },
      "withdraw(address,uint256,uint256)": {
        "params": {
          "amount": "the amount to withdraw if native token, erc20 or erc1155 - must be 0 for ERC721",
          "token": "the token to withdraw from. address(0) means native chain token",
          "tokenId": "the tokenId to withdraw for ERC1155 and ERC721"
        }
      }
    },
    "stateVariables": {
      "lastTokenId": {
        "details": "This contains the last token id that was created"
      }
    },
    "title": "NiftyForge721",
    "version": 1
  },
  "userdoc": {
    "events": {
      "RoleGranted(bytes32,address)": {
        "notice": "emitted when a role is given to a user"
      },
      "RoleRevoked(bytes32,address)": {
        "notice": "emitted when a role is givrevoked from a user"
      }
    },
    "kind": "user",
    "methods": {
      "addEditors(address[])": {
        "notice": "Helper for the owner to add new editors"
      },
      "addEventListener(uint8)": {
        "notice": "allows a module to listen to events (mint, transfer, burn)"
      },
      "addMinters(address[])": {
        "notice": "Helper for an editor to add new minter"
      },
      "attachModule(address,bool,bool)": {
        "notice": "Attach a module"
      },
      "canEdit(address)": {
        "notice": "Helper to know if an address can do the action an Editor can"
      },
      "canMint(address)": {
        "notice": "Helper to know if an address can do the action an Editor can"
      },
      "contractURI()": {
        "notice": "Returns the contract URI function. Used on OpenSea to get details"
      },
      "getFeeBps(uint256)": {
        "notice": "returns a list of royalties amounts"
      },
      "getFeeRecipients(uint256)": {
        "notice": "returns a list of royalties recipients"
      },
      "getFees(uint256)": {
        "notice": "returns a list of royalties recipients and the amount"
      },
      "hasRole(bytes32,address)": {
        "notice": "Helper to know is an address has a role"
      },
      "initialize(string,string,string,address,address,(address,bool,bool)[],address,uint256)": {
        "notice": "this is the constructor of the contract, called at the time of creation         Although it uses what are called upgradeable contracts, this is only to         be able to make deployment cheap using a Proxy but NiftyForge contracts         ARE NOT UPGRADEABLE => the proxy used is not an upgradeable proxy, the implementation is immutable"
      },
      "isApprovedForAll(address,address)": {
        "notice": "Allows gas-less trading on OpenSea by safelisting the Proxy of the user"
      },
      "isEditor(address)": {
        "notice": "Helper to know if an address is editor"
      },
      "isMinter(address)": {
        "notice": "Helper to know if an address is minter"
      },
      "isMintingOpenToAll()": {
        "notice": "helper to know if everyone can mint or only minters"
      },
      "isOwnersOpenSeaProxy(address,address)": {
        "notice": "Helper allowing OpenSea gas-less trading by verifying who's operator         for owner"
      },
      "listModules()": {
        "notice": "Helper to list all modules with their state"
      },
      "listRole(bytes32)": {
        "notice": "Helper to list all users in a role"
      },
      "mint(address,string,address,uint256,address)": {
        "notice": "Mint token to `to` with `uri`"
      },
      "mint(address,string,uint256,address,uint256,address)": {
        "notice": "Mint `tokenId` to to` with `uri` and transfer to transferTo if not null         Because not all tokenIds have incremental ids         be careful with this function, it does not increment lastTokenId         and expects the minter to actually know what it is doing.         this also means, this function does not verify maxTokenId"
      },
      "mintBatch(address[],string[],address[],uint256[])": {
        "notice": "Mint batch tokens to `to[i]` with `uri[i]`"
      },
      "mintBatch(address[],string[],uint256[],address[],uint256[])": {
        "notice": "Mint batch tokens to `to[i]` with `uris[i]`         Because not all tokenIds have incremental ids         be careful with this function, it does not increment lastTokenId         and expects the minter to actually know what it's doing.         this also means, this function does not verify maxTokenId"
      },
      "mutableURI(uint256)": {
        "notice": "function that returns a string that can be used to add metadata on top of what is in tokenURI         This function has been added because sometimes, we want some metadata to be completly immutable         But to have others that aren't (for example if a token is linked to a physical token, and the physical         token state can change over time)         This way we can reflect those changes without risking breaking the base meta (tokenURI)"
      },
      "nonce(uint256)": {
        "notice": "Allows to retrieve current nonce for token"
      },
      "permit(address,uint256,uint256,bytes)": {
        "notice": "function to be called by anyone to approve `spender` using a Permit signature"
      },
      "proxyRegistry()": {
        "notice": "Returns the current OS proxyRegistry address registered"
      },
      "removeEditors(address[])": {
        "notice": "Helper for the owner to remove editors"
      },
      "removeEventListener(uint8)": {
        "notice": "allows a module to stop listening to events (mint, transfer, burn)"
      },
      "removeMinters(address[])": {
        "notice": "Helper for an editor to remove minters"
      },
      "renderTokenURI(uint256)": {
        "notice": "function that returns a string that can be used to render the current token         this can be an URL but also any other data uri         This is something that I would like to present as an EIP later to allow dynamique         render URL"
      },
      "safeTransferFromWithPermit(address,address,uint256,bytes,uint256,bytes)": {
        "notice": "Allows to get approved using a permit and transfer in the same call"
      },
      "setBaseMutableURI(string)": {
        "notice": "Set the base mutable meta URI for tokens"
      },
      "setBaseURI(string)": {
        "notice": "Set the base token URI"
      },
      "setContractURI(string)": {
        "notice": "Helper for the owner of the contract to set the new contract URI"
      },
      "setDefaultRoyaltiesRecipient(address)": {
        "notice": "Allows to change the default royalties recipient"
      },
      "setMaxTokenId(uint256)": {
        "notice": "allows owner to set maxTokenId"
      },
      "setMintingOpenToAll(bool)": {
        "notice": "Toggle minting open to all state"
      },
      "setOpenSeaRegistry(address)": {
        "notice": "Helper for the owner to set OpenSea's proxy (allowing or not gas-less trading)"
      },
      "setTokenRoyaltiesRecipient(uint256,address)": {
        "notice": "Allows a royalty recipient of a token to change their recipient address"
      },
      "tokenURI(uint256)": {
        "notice": "returns a tokenURI"
      },
      "totalSupply()": {
        "notice": "totalSupply access"
      },
      "withdraw(address,uint256,uint256)": {
        "notice": "This is a generic function that allows this contract's owner to withdraw         any balance / ERC20 / ERC721 / ERC1155 it can have         this contract has no payable nor receive function so it should not get any nativ token         but this could save some ERC20, 721 or 1155"
      }
    },
    "version": 1
  },
  "storageLayout": {
    "storage": [
      {
        "astId": 9518,
        "contract": "contracts/NiftyForge721.sol:NiftyForge721",
        "label": "_listeners",
        "offset": 0,
        "slot": "0",
        "type": "t_array(t_struct(AddressSet)2993_storage)3_storage"
      },
      {
        "astId": 9521,
        "contract": "contracts/NiftyForge721.sol:NiftyForge721",
        "label": "modules",
        "offset": 0,
        "slot": "6",
        "type": "t_struct(AddressSet)2993_storage"
      },
      {
        "astId": 9526,
        "contract": "contracts/NiftyForge721.sol:NiftyForge721",
        "label": "modulesStatus",
        "offset": 0,
        "slot": "8",
        "type": "t_mapping(t_address,t_enum(ModuleStatus)9217)"
      },
      {
        "astId": 224,
        "contract": "contracts/NiftyForge721.sol:NiftyForge721",
        "label": "_initialized",
        "offset": 0,
        "slot": "9",
        "type": "t_bool"
      },
      {
        "astId": 227,
        "contract": "contracts/NiftyForge721.sol:NiftyForge721",
        "label": "_initializing",
        "offset": 1,
        "slot": "9",
        "type": "t_bool"
      },
      {
        "astId": 1973,
        "contract": "contracts/NiftyForge721.sol:NiftyForge721",
        "label": "__gap",
        "offset": 0,
        "slot": "10",
        "type": "t_array(t_uint256)50_storage"
      },
      {
        "astId": 10,
        "contract": "contracts/NiftyForge721.sol:NiftyForge721",
        "label": "_owner",
        "offset": 0,
        "slot": "60",
        "type": "t_address"
      },
      {
        "astId": 123,
        "contract": "contracts/NiftyForge721.sol:NiftyForge721",
        "label": "__gap",
        "offset": 0,
        "slot": "61",
        "type": "t_array(t_uint256)49_storage"
      },
      {
        "astId": 2668,
        "contract": "contracts/NiftyForge721.sol:NiftyForge721",
        "label": "__gap",
        "offset": 0,
        "slot": "110",
        "type": "t_array(t_uint256)50_storage"
      },
      {
        "astId": 493,
        "contract": "contracts/NiftyForge721.sol:NiftyForge721",
        "label": "_name",
        "offset": 0,
        "slot": "160",
        "type": "t_string_storage"
      },
      {
        "astId": 495,
        "contract": "contracts/NiftyForge721.sol:NiftyForge721",
        "label": "_symbol",
        "offset": 0,
        "slot": "161",
        "type": "t_string_storage"
      },
      {
        "astId": 499,
        "contract": "contracts/NiftyForge721.sol:NiftyForge721",
        "label": "_owners",
        "offset": 0,
        "slot": "162",
        "type": "t_mapping(t_uint256,t_address)"
      },
      {
        "astId": 503,
        "contract": "contracts/NiftyForge721.sol:NiftyForge721",
        "label": "_balances",
        "offset": 0,
        "slot": "163",
        "type": "t_mapping(t_address,t_uint256)"
      },
      {
        "astId": 507,
        "contract": "contracts/NiftyForge721.sol:NiftyForge721",
        "label": "_tokenApprovals",
        "offset": 0,
        "slot": "164",
        "type": "t_mapping(t_uint256,t_address)"
      },
      {
        "astId": 513,
        "contract": "contracts/NiftyForge721.sol:NiftyForge721",
        "label": "_operatorApprovals",
        "offset": 0,
        "slot": "165",
        "type": "t_mapping(t_address,t_mapping(t_address,t_bool))"
      },
      {
        "astId": 1309,
        "contract": "contracts/NiftyForge721.sol:NiftyForge721",
        "label": "__gap",
        "offset": 0,
        "slot": "166",
        "type": "t_array(t_uint256)44_storage"
      },
      {
        "astId": 8656,
        "contract": "contracts/NiftyForge721.sol:NiftyForge721",
        "label": "_contractURI",
        "offset": 0,
        "slot": "210",
        "type": "t_string_storage"
      },
      {
        "astId": 8658,
        "contract": "contracts/NiftyForge721.sol:NiftyForge721",
        "label": "_proxyRegistry",
        "offset": 0,
        "slot": "211",
        "type": "t_address"
      },
      {
        "astId": 1501,
        "contract": "contracts/NiftyForge721.sol:NiftyForge721",
        "label": "__gap",
        "offset": 0,
        "slot": "212",
        "type": "t_array(t_uint256)50_storage"
      },
      {
        "astId": 1539,
        "contract": "contracts/NiftyForge721.sol:NiftyForge721",
        "label": "_tokenURIs",
        "offset": 0,
        "slot": "262",
        "type": "t_mapping(t_uint256,t_string_storage)"
      },
      {
        "astId": 1657,
        "contract": "contracts/NiftyForge721.sol:NiftyForge721",
        "label": "__gap",
        "offset": 0,
        "slot": "263",
        "type": "t_array(t_uint256)49_storage"
      },
      {
        "astId": 8366,
        "contract": "contracts/NiftyForge721.sol:NiftyForge721",
        "label": "_roleMembers",
        "offset": 0,
        "slot": "312",
        "type": "t_mapping(t_bytes32,t_struct(AddressSet)2993_storage)"
      },
      {
        "astId": 8786,
        "contract": "contracts/NiftyForge721.sol:NiftyForge721",
        "label": "_useContractRoyalties",
        "offset": 0,
        "slot": "313",
        "type": "t_bool"
      },
      {
        "astId": 8789,
        "contract": "contracts/NiftyForge721.sol:NiftyForge721",
        "label": "_contractRoyalties",
        "offset": 0,
        "slot": "314",
        "type": "t_struct(RoyaltyData)8784_storage"
      },
      {
        "astId": 8794,
        "contract": "contracts/NiftyForge721.sol:NiftyForge721",
        "label": "_royalties",
        "offset": 0,
        "slot": "315",
        "type": "t_mapping(t_uint256,t_struct(RoyaltyData)8784_storage)"
      },
      {
        "astId": 8134,
        "contract": "contracts/NiftyForge721.sol:NiftyForge721",
        "label": "DOMAIN_SEPARATOR",
        "offset": 0,
        "slot": "316",
        "type": "t_bytes32"
      },
      {
        "astId": 8138,
        "contract": "contracts/NiftyForge721.sol:NiftyForge721",
        "label": "_nonces",
        "offset": 0,
        "slot": "317",
        "type": "t_mapping(t_uint256,t_uint256)"
      },
      {
        "astId": 7968,
        "contract": "contracts/NiftyForge721.sol:NiftyForge721",
        "label": "baseMutableURI",
        "offset": 0,
        "slot": "318",
        "type": "t_string_storage"
      },
      {
        "astId": 7972,
        "contract": "contracts/NiftyForge721.sol:NiftyForge721",
        "label": "_tokensMutableURIs",
        "offset": 0,
        "slot": "319",
        "type": "t_mapping(t_uint256,t_string_storage)"
      },
      {
        "astId": 7174,
        "contract": "contracts/NiftyForge721.sol:NiftyForge721",
        "label": "baseURI",
        "offset": 0,
        "slot": "320",
        "type": "t_string_storage"
      },
      {
        "astId": 9893,
        "contract": "contracts/NiftyForge721.sol:NiftyForge721",
        "label": "lastTokenId",
        "offset": 0,
        "slot": "321",
        "type": "t_uint256"
      },
      {
        "astId": 9895,
        "contract": "contracts/NiftyForge721.sol:NiftyForge721",
        "label": "totalSupply",
        "offset": 0,
        "slot": "322",
        "type": "t_uint256"
      },
      {
        "astId": 9897,
        "contract": "contracts/NiftyForge721.sol:NiftyForge721",
        "label": "_mintingOpenToAll",
        "offset": 0,
        "slot": "323",
        "type": "t_bool"
      },
      {
        "astId": 9899,
        "contract": "contracts/NiftyForge721.sol:NiftyForge721",
        "label": "maxTokenId",
        "offset": 0,
        "slot": "324",
        "type": "t_uint256"
      },
      {
        "astId": 9903,
        "contract": "contracts/NiftyForge721.sol:NiftyForge721",
        "label": "tokenIdToModule",
        "offset": 0,
        "slot": "325",
        "type": "t_mapping(t_uint256,t_address)"
      }
    ],
    "types": {
      "t_address": {
        "encoding": "inplace",
        "label": "address",
        "numberOfBytes": "20"
      },
      "t_array(t_bytes32)dyn_storage": {
        "base": "t_bytes32",
        "encoding": "dynamic_array",
        "label": "bytes32[]",
        "numberOfBytes": "32"
      },
      "t_array(t_struct(AddressSet)2993_storage)3_storage": {
        "base": "t_struct(AddressSet)2993_storage",
        "encoding": "inplace",
        "label": "struct EnumerableSetUpgradeable.AddressSet[3]",
        "numberOfBytes": "192"
      },
      "t_array(t_uint256)44_storage": {
        "base": "t_uint256",
        "encoding": "inplace",
        "label": "uint256[44]",
        "numberOfBytes": "1408"
      },
      "t_array(t_uint256)49_storage": {
        "base": "t_uint256",
        "encoding": "inplace",
        "label": "uint256[49]",
        "numberOfBytes": "1568"
      },
      "t_array(t_uint256)50_storage": {
        "base": "t_uint256",
        "encoding": "inplace",
        "label": "uint256[50]",
        "numberOfBytes": "1600"
      },
      "t_bool": {
        "encoding": "inplace",
        "label": "bool",
        "numberOfBytes": "1"
      },
      "t_bytes32": {
        "encoding": "inplace",
        "label": "bytes32",
        "numberOfBytes": "32"
      },
      "t_enum(ModuleStatus)9217": {
        "encoding": "inplace",
        "label": "enum INiftyForgeModules.ModuleStatus",
        "numberOfBytes": "1"
      },
      "t_mapping(t_address,t_bool)": {
        "encoding": "mapping",
        "key": "t_address",
        "label": "mapping(address => bool)",
        "numberOfBytes": "32",
        "value": "t_bool"
      },
      "t_mapping(t_address,t_enum(ModuleStatus)9217)": {
        "encoding": "mapping",
        "key": "t_address",
        "label": "mapping(address => enum INiftyForgeModules.ModuleStatus)",
        "numberOfBytes": "32",
        "value": "t_enum(ModuleStatus)9217"
      },
      "t_mapping(t_address,t_mapping(t_address,t_bool))": {
        "encoding": "mapping",
        "key": "t_address",
        "label": "mapping(address => mapping(address => bool))",
        "numberOfBytes": "32",
        "value": "t_mapping(t_address,t_bool)"
      },
      "t_mapping(t_address,t_uint256)": {
        "encoding": "mapping",
        "key": "t_address",
        "label": "mapping(address => uint256)",
        "numberOfBytes": "32",
        "value": "t_uint256"
      },
      "t_mapping(t_bytes32,t_struct(AddressSet)2993_storage)": {
        "encoding": "mapping",
        "key": "t_bytes32",
        "label": "mapping(bytes32 => struct EnumerableSetUpgradeable.AddressSet)",
        "numberOfBytes": "32",
        "value": "t_struct(AddressSet)2993_storage"
      },
      "t_mapping(t_bytes32,t_uint256)": {
        "encoding": "mapping",
        "key": "t_bytes32",
        "label": "mapping(bytes32 => uint256)",
        "numberOfBytes": "32",
        "value": "t_uint256"
      },
      "t_mapping(t_uint256,t_address)": {
        "encoding": "mapping",
        "key": "t_uint256",
        "label": "mapping(uint256 => address)",
        "numberOfBytes": "32",
        "value": "t_address"
      },
      "t_mapping(t_uint256,t_string_storage)": {
        "encoding": "mapping",
        "key": "t_uint256",
        "label": "mapping(uint256 => string)",
        "numberOfBytes": "32",
        "value": "t_string_storage"
      },
      "t_mapping(t_uint256,t_struct(RoyaltyData)8784_storage)": {
        "encoding": "mapping",
        "key": "t_uint256",
        "label": "mapping(uint256 => struct ERC2981Royalties.RoyaltyData)",
        "numberOfBytes": "32",
        "value": "t_struct(RoyaltyData)8784_storage"
      },
      "t_mapping(t_uint256,t_uint256)": {
        "encoding": "mapping",
        "key": "t_uint256",
        "label": "mapping(uint256 => uint256)",
        "numberOfBytes": "32",
        "value": "t_uint256"
      },
      "t_string_storage": {
        "encoding": "bytes",
        "label": "string",
        "numberOfBytes": "32"
      },
      "t_struct(AddressSet)2993_storage": {
        "encoding": "inplace",
        "label": "struct EnumerableSetUpgradeable.AddressSet",
        "members": [
          {
            "astId": 2992,
            "contract": "contracts/NiftyForge721.sol:NiftyForge721",
            "label": "_inner",
            "offset": 0,
            "slot": "0",
            "type": "t_struct(Set)2692_storage"
          }
        ],
        "numberOfBytes": "64"
      },
      "t_struct(RoyaltyData)8784_storage": {
        "encoding": "inplace",
        "label": "struct ERC2981Royalties.RoyaltyData",
        "members": [
          {
            "astId": 8781,
            "contract": "contracts/NiftyForge721.sol:NiftyForge721",
            "label": "recipient",
            "offset": 0,
            "slot": "0",
            "type": "t_address"
          },
          {
            "astId": 8783,
            "contract": "contracts/NiftyForge721.sol:NiftyForge721",
            "label": "amount",
            "offset": 20,
            "slot": "0",
            "type": "t_uint96"
          }
        ],
        "numberOfBytes": "32"
      },
      "t_struct(Set)2692_storage": {
        "encoding": "inplace",
        "label": "struct EnumerableSetUpgradeable.Set",
        "members": [
          {
            "astId": 2687,
            "contract": "contracts/NiftyForge721.sol:NiftyForge721",
            "label": "_values",
            "offset": 0,
            "slot": "0",
            "type": "t_array(t_bytes32)dyn_storage"
          },
          {
            "astId": 2691,
            "contract": "contracts/NiftyForge721.sol:NiftyForge721",
            "label": "_indexes",
            "offset": 0,
            "slot": "1",
            "type": "t_mapping(t_bytes32,t_uint256)"
          }
        ],
        "numberOfBytes": "64"
      },
      "t_uint256": {
        "encoding": "inplace",
        "label": "uint256",
        "numberOfBytes": "32"
      },
      "t_uint96": {
        "encoding": "inplace",
        "label": "uint96",
        "numberOfBytes": "12"
      }
    }
  }
}