{
  "_format": "hh-sol-artifact-1",
  "contractName": "BaseOpenSea",
  "sourceName": "contracts/NFT/OpenSea/BaseOpenSea.sol",
  "abi": [
    {
      "anonymous": false,
      "inputs": [
        {
          "indexed": false,
          "internalType": "string",
          "name": "contractURI",
          "type": "string"
        }
      ],
      "name": "NewContractURI",
      "type": "event"
    },
    {
      "inputs": [],
      "name": "contractURI",
      "outputs": [
        {
          "internalType": "string",
          "name": "",
          "type": "string"
        }
      ],
      "stateMutability": "view",
      "type": "function"
    },
    {
      "inputs": [
        {
          "internalType": "address",
          "name": "owner",
          "type": "address"
        },
        {
          "internalType": "address",
          "name": "operator",
          "type": "address"
        }
      ],
      "name": "isOwnersOpenSeaProxy",
      "outputs": [
        {
          "internalType": "bool",
          "name": "",
          "type": "bool"
        }
      ],
      "stateMutability": "view",
      "type": "function"
    },
    {
      "inputs": [],
      "name": "proxyRegistry",
      "outputs": [
        {
          "internalType": "address",
          "name": "",
          "type": "address"
        }
      ],
      "stateMutability": "view",
      "type": "function"
    }
  ],
  "bytecode": "0x608060405234801561001057600080fd5b50610363806100206000396000f3fe608060405234801561001057600080fd5b50600436106100415760003560e01c80636102de9814610046578063b50cbd9f1461006e578063e8a3d48514610089575b600080fd5b610059610054366004610240565b61009e565b60405190151581526020015b60405180910390f35b6001546040516001600160a01b039091168152602001610065565b610091610196565b6040516100659190610279565b6001546000906001600160a01b0316801561018a5746600114806100c25750466004145b156101575760405163c455279160e01b81526001600160a01b038581166004830152808516919083169063c45527919060240160206040518083038186803b15801561010d57600080fd5b505afa158015610121573d6000803e3d6000fd5b505050506040513d601f19601f8201168201806040525081019061014591906102ce565b6001600160a01b031614915050610190565b466089148061016857504662013881145b1561018a57826001600160a01b0316816001600160a01b031614915050610190565b60009150505b92915050565b6060600080546101a5906102f2565b80601f01602080910402602001604051908101604052809291908181526020018280546101d1906102f2565b801561021e5780601f106101f35761010080835404028352916020019161021e565b820191906000526020600020905b81548152906001019060200180831161020157829003601f168201915b5050505050905090565b6001600160a01b038116811461023d57600080fd5b50565b6000806040838503121561025357600080fd5b823561025e81610228565b9150602083013561026e81610228565b809150509250929050565b600060208083528351808285015260005b818110156102a65785810183015185820160400152820161028a565b818111156102b8576000604083870101525b50601f01601f1916929092016040019392505050565b6000602082840312156102e057600080fd5b81516102eb81610228565b9392505050565b600181811c9082168061030657607f821691505b6020821081141561032757634e487b7160e01b600052602260045260246000fd5b5091905056fea26469706673582212201941a13076a867b40c580f94ecfd733e6c8d06c27e36863d8844e1f049e247fb64736f6c63430008090033",
  "linkReferences": {},
  "deployedLinkReferences": {}
}