{
  "_format": "hh-sol-artifact-1",
  "contractName": "ERC2981Receiver",
  "sourceName": "contracts/NFT/Royalties/ERC2981/extensions/ERC2981Receiver.sol",
  "abi": [
    {
      "anonymous": false,
      "inputs": [
        {
          "indexed": false,
          "internalType": "address",
          "name": "registry",
          "type": "address"
        },
        {
          "indexed": false,
          "internalType": "uint256",
          "name": "tokenId",
          "type": "uint256"
        },
        {
          "indexed": false,
          "internalType": "address",
          "name": "paymentToken",
          "type": "address"
        },
        {
          "indexed": false,
          "internalType": "uint256",
          "name": "paymentAmount",
          "type": "uint256"
        },
        {
          "indexed": false,
          "internalType": "uint256",
          "name": "paymentTokenId",
          "type": "uint256"
        }
      ],
      "name": "RoyaltiesReceived",
      "type": "event"
    },
    {
      "inputs": [
        {
          "internalType": "address",
          "name": "registry",
          "type": "address"
        },
        {
          "internalType": "uint256",
          "name": "tokenId",
          "type": "uint256"
        },
        {
          "internalType": "address",
          "name": "paymentToken",
          "type": "address"
        },
        {
          "internalType": "uint256",
          "name": "paymentAmount",
          "type": "uint256"
        },
        {
          "internalType": "uint256",
          "name": "paymentTokenId",
          "type": "uint256"
        }
      ],
      "name": "onERC2981Received",
      "outputs": [
        {
          "internalType": "bytes4",
          "name": "",
          "type": "bytes4"
        }
      ],
      "stateMutability": "payable",
      "type": "function"
    }
  ],
  "bytecode": "0x608060405234801561001057600080fd5b50610461806100206000396000f3fe60806040526004361061001e5760003560e01c80634478947014610023575b600080fd5b61003661003136600461038e565b610053565b6040516001600160e01b0319909116815260200160405180910390f35b60006001600160a01b03861630146100a55760405162461bcd60e51b815260206004820152601060248201526f2157524f4e475f52454749535452592160801b60448201526064015b60405180910390fd5b6001600160a01b0384166100f7578234146100f25760405162461bcd60e51b815260206004820152600d60248201526c2157524f4e475f56414c55452160981b604482015260640161009c565b6102cb565b6040516301ffc9a760e01b8152636cdb3d1360e11b60048201526001600160a01b038516906301ffc9a79060240160206040518083038186803b15801561013d57600080fd5b505afa158015610151573d6000803e3d6000fd5b505050506040513d601f19601f8201168201806040525081019061017591906103dc565b156101fa57604051637921219560e11b8152336004820152306024820152604481018390526064810184905260a06084820152600060a48201526001600160a01b0385169063f242432a9060c401600060405180830381600087803b1580156101dd57600080fd5b505af11580156101f1573d6000803e3d6000fd5b505050506102cb565b8115801561028f57506040516323b872dd60e01b8152336004820152306024820152604481018490526001600160a01b038516906323b872dd90606401602060405180830381600087803b15801561025157600080fd5b505af1158015610265573d6000803e3d6000fd5b505050506040513d601f19601f8201168201806040525081019061028991906103dc565b15156001145b6102cb5760405162461bcd60e51b815260206004820152600d60248201526c2157524f4e475f56414c55452160981b604482015260640161009c565b6000858152602081815260408083206001600160a01b0388168452825280832085845290915281208054859290610303908490610405565b9091555050604080516001600160a01b03888116825260208201889052861681830152606081018590526080810184905290517f889ff62c5401f5254aa84c9e1a2b147b692ef236278d472b93e4d033d29759899181900360a00190a150630447894760e41b95945050505050565b80356001600160a01b038116811461038957600080fd5b919050565b600080600080600060a086880312156103a657600080fd5b6103af86610372565b9450602086013593506103c460408701610372565b94979396509394606081013594506080013592915050565b6000602082840312156103ee57600080fd5b815180151581146103fe57600080fd5b9392505050565b6000821982111561042657634e487b7160e01b600052601160045260246000fd5b50019056fea2646970667358221220328dde1b30180fa2dd5da1c5215e810a804eca90552ef24ecfc563e73d15084664736f6c63430008090033",
  "linkReferences": {},
  "deployedLinkReferences": {}
}