{
  "_format": "hh-sol-artifact-1",
  "contractName": "ERC721WithRoyalties",
  "sourceName": "contracts/NFT/ERC721/ERC721WithRoyalties.sol",
  "abi": [
    {
      "inputs": [
        {
          "internalType": "uint256",
          "name": "tokenId",
          "type": "uint256"
        }
      ],
      "name": "getFeeBps",
      "outputs": [
        {
          "internalType": "uint256[]",
          "name": "fees",
          "type": "uint256[]"
        }
      ],
      "stateMutability": "view",
      "type": "function"
    },
    {
      "inputs": [
        {
          "internalType": "uint256",
          "name": "tokenId",
          "type": "uint256"
        }
      ],
      "name": "getFeeRecipients",
      "outputs": [
        {
          "internalType": "address payable[]",
          "name": "recipients",
          "type": "address[]"
        }
      ],
      "stateMutability": "view",
      "type": "function"
    },
    {
      "inputs": [
        {
          "internalType": "uint256",
          "name": "tokenId",
          "type": "uint256"
        }
      ],
      "name": "getFees",
      "outputs": [
        {
          "internalType": "address payable[]",
          "name": "recipients",
          "type": "address[]"
        },
        {
          "internalType": "uint256[]",
          "name": "fees",
          "type": "uint256[]"
        }
      ],
      "stateMutability": "view",
      "type": "function"
    },
    {
      "inputs": [],
      "name": "hasPerTokenRoyalties",
      "outputs": [
        {
          "internalType": "bool",
          "name": "",
          "type": "bool"
        }
      ],
      "stateMutability": "view",
      "type": "function"
    },
    {
      "inputs": [
        {
          "internalType": "uint256",
          "name": "tokenId",
          "type": "uint256"
        },
        {
          "internalType": "uint256",
          "name": "value",
          "type": "uint256"
        }
      ],
      "name": "royaltyInfo",
      "outputs": [
        {
          "internalType": "address",
          "name": "receiver",
          "type": "address"
        },
        {
          "internalType": "uint256",
          "name": "royaltyAmount",
          "type": "uint256"
        }
      ],
      "stateMutability": "view",
      "type": "function"
    }
  ],
  "bytecode": "0x608060405234801561001057600080fd5b5061051d806100206000396000f3fe608060405234801561001057600080fd5b50600436106100575760003560e01c80630ebd4c7f1461005c578063163c1f19146100855780632a55205a1461009b578063b9c4d9fb146100cd578063d5a06d4c146100ed575b600080fd5b61006f61006a366004610378565b61010e565b60405161007c91906103cc565b60405180910390f35b60005460405160ff90911615815260200161007c565b6100ae6100a93660046103e6565b61016b565b604080516001600160a01b03909316835260208301919091520161007c565b6100e06100db366004610378565b6101a3565b60405161007c9190610441565b6101006100fb366004610378565b610219565b60405161007c929190610454565b6060600061011b836102c6565b9150508015610165576040805160018082528183019092529060208083019080368337019050509150808260008151811061015857610158610482565b6020026020010181815250505b50919050565b600080610177846102c6565b9092509050801561019c5761271061018f8285610498565b61019991906104c5565b90505b9250929050565b60606000806101b1846102c6565b915091508060001461021257604080516001808252818301909252906020808301908036833701905050925081836000815181106101f1576101f1610482565b60200260200101906001600160a01b031690816001600160a01b0316815250505b5050919050565b606080600080610228856102c6565b91509150806000146102bf576040805160018082528183019092529060208083019080368337019050509350818460008151811061026857610268610482565b6001600160a01b039290921660209283029190910182015260408051600180825281830190925291828101908036833701905050925080836000815181106102b2576102b2610482565b6020026020010181815250505b5050915091565b6040805180820190915260008082526020820181905290819060005460ff161561031e5750604080518082019091526001546001600160a01b0381168252600160a01b90046001600160601b0316602082015261035b565b506000838152600260209081526040918290208251808401909352546001600160a01b0381168352600160a01b90046001600160601b0316908201525b806000015181602001516001600160601b03169250925050915091565b60006020828403121561038a57600080fd5b5035919050565b600081518084526020808501945080840160005b838110156103c1578151875295820195908201906001016103a5565b509495945050505050565b6020815260006103df6020830184610391565b9392505050565b600080604083850312156103f957600080fd5b50508035926020909101359150565b600081518084526020808501945080840160005b838110156103c15781516001600160a01b03168752958201959082019060010161041c565b6020815260006103df6020830184610408565b6040815260006104676040830185610408565b82810360208401526104798185610391565b95945050505050565b634e487b7160e01b600052603260045260246000fd5b60008160001904831182151516156104c057634e487b7160e01b600052601160045260246000fd5b500290565b6000826104e257634e487b7160e01b600052601260045260246000fd5b50049056fea264697066735822122072224e84b2ed22c8c4f82878b50592ea9f2d49850625ec6a39c10b58ed56006864736f6c63430008090033",
  "linkReferences": {},
  "deployedLinkReferences": {}
}