{
  "_format": "hh-sol-artifact-1",
  "contractName": "ERC721Ownable",
  "sourceName": "contracts/NFT/ERC721Helpers/ERC721Ownable.sol",
  "abi": [
    {
      "anonymous": false,
      "inputs": [
        {
          "indexed": true,
          "internalType": "address",
          "name": "owner",
          "type": "address"
        },
        {
          "indexed": true,
          "internalType": "address",
          "name": "approved",
          "type": "address"
        },
        {
          "indexed": true,
          "internalType": "uint256",
          "name": "tokenId",
          "type": "uint256"
        }
      ],
      "name": "Approval",
      "type": "event"
    },
    {
      "anonymous": false,
      "inputs": [
        {
          "indexed": true,
          "internalType": "address",
          "name": "owner",
          "type": "address"
        },
        {
          "indexed": true,
          "internalType": "address",
          "name": "operator",
          "type": "address"
        },
        {
          "indexed": false,
          "internalType": "bool",
          "name": "approved",
          "type": "bool"
        }
      ],
      "name": "ApprovalForAll",
      "type": "event"
    },
    {
      "anonymous": false,
      "inputs": [
        {
          "indexed": false,
          "internalType": "string",
          "name": "contractURI",
          "type": "string"
        }
      ],
      "name": "NewContractURI",
      "type": "event"
    },
    {
      "anonymous": false,
      "inputs": [
        {
          "indexed": true,
          "internalType": "address",
          "name": "previousOwner",
          "type": "address"
        },
        {
          "indexed": true,
          "internalType": "address",
          "name": "newOwner",
          "type": "address"
        }
      ],
      "name": "OwnershipTransferred",
      "type": "event"
    },
    {
      "anonymous": false,
      "inputs": [
        {
          "indexed": true,
          "internalType": "address",
          "name": "from",
          "type": "address"
        },
        {
          "indexed": true,
          "internalType": "address",
          "name": "to",
          "type": "address"
        },
        {
          "indexed": true,
          "internalType": "uint256",
          "name": "tokenId",
          "type": "uint256"
        }
      ],
      "name": "Transfer",
      "type": "event"
    },
    {
      "inputs": [
        {
          "internalType": "address",
          "name": "to",
          "type": "address"
        },
        {
          "internalType": "uint256",
          "name": "tokenId",
          "type": "uint256"
        }
      ],
      "name": "approve",
      "outputs": [],
      "stateMutability": "nonpayable",
      "type": "function"
    },
    {
      "inputs": [
        {
          "internalType": "address",
          "name": "owner",
          "type": "address"
        }
      ],
      "name": "balanceOf",
      "outputs": [
        {
          "internalType": "uint256",
          "name": "",
          "type": "uint256"
        }
      ],
      "stateMutability": "view",
      "type": "function"
    },
    {
      "inputs": [],
      "name": "contractURI",
      "outputs": [
        {
          "internalType": "string",
          "name": "",
          "type": "string"
        }
      ],
      "stateMutability": "view",
      "type": "function"
    },
    {
      "inputs": [
        {
          "internalType": "uint256",
          "name": "tokenId",
          "type": "uint256"
        }
      ],
      "name": "getApproved",
      "outputs": [
        {
          "internalType": "address",
          "name": "",
          "type": "address"
        }
      ],
      "stateMutability": "view",
      "type": "function"
    },
    {
      "inputs": [
        {
          "internalType": "address",
          "name": "owner_",
          "type": "address"
        },
        {
          "internalType": "address",
          "name": "operator",
          "type": "address"
        }
      ],
      "name": "isApprovedForAll",
      "outputs": [
        {
          "internalType": "bool",
          "name": "",
          "type": "bool"
        }
      ],
      "stateMutability": "view",
      "type": "function"
    },
    {
      "inputs": [
        {
          "internalType": "address",
          "name": "owner",
          "type": "address"
        },
        {
          "internalType": "address",
          "name": "operator",
          "type": "address"
        }
      ],
      "name": "isOwnersOpenSeaProxy",
      "outputs": [
        {
          "internalType": "bool",
          "name": "",
          "type": "bool"
        }
      ],
      "stateMutability": "view",
      "type": "function"
    },
    {
      "inputs": [],
      "name": "name",
      "outputs": [
        {
          "internalType": "string",
          "name": "",
          "type": "string"
        }
      ],
      "stateMutability": "view",
      "type": "function"
    },
    {
      "inputs": [],
      "name": "owner",
      "outputs": [
        {
          "internalType": "address",
          "name": "",
          "type": "address"
        }
      ],
      "stateMutability": "view",
      "type": "function"
    },
    {
      "inputs": [
        {
          "internalType": "uint256",
          "name": "tokenId",
          "type": "uint256"
        }
      ],
      "name": "ownerOf",
      "outputs": [
        {
          "internalType": "address",
          "name": "",
          "type": "address"
        }
      ],
      "stateMutability": "view",
      "type": "function"
    },
    {
      "inputs": [],
      "name": "proxyRegistry",
      "outputs": [
        {
          "internalType": "address",
          "name": "",
          "type": "address"
        }
      ],
      "stateMutability": "view",
      "type": "function"
    },
    {
      "inputs": [],
      "name": "renounceOwnership",
      "outputs": [],
      "stateMutability": "nonpayable",
      "type": "function"
    },
    {
      "inputs": [
        {
          "internalType": "address",
          "name": "from",
          "type": "address"
        },
        {
          "internalType": "address",
          "name": "to",
          "type": "address"
        },
        {
          "internalType": "uint256",
          "name": "tokenId",
          "type": "uint256"
        }
      ],
      "name": "safeTransferFrom",
      "outputs": [],
      "stateMutability": "nonpayable",
      "type": "function"
    },
    {
      "inputs": [
        {
          "internalType": "address",
          "name": "from",
          "type": "address"
        },
        {
          "internalType": "address",
          "name": "to",
          "type": "address"
        },
        {
          "internalType": "uint256",
          "name": "tokenId",
          "type": "uint256"
        },
        {
          "internalType": "bytes",
          "name": "_data",
          "type": "bytes"
        }
      ],
      "name": "safeTransferFrom",
      "outputs": [],
      "stateMutability": "nonpayable",
      "type": "function"
    },
    {
      "inputs": [
        {
          "internalType": "address",
          "name": "operator",
          "type": "address"
        },
        {
          "internalType": "bool",
          "name": "approved",
          "type": "bool"
        }
      ],
      "name": "setApprovalForAll",
      "outputs": [],
      "stateMutability": "nonpayable",
      "type": "function"
    },
    {
      "inputs": [
        {
          "internalType": "string",
          "name": "contractURI_",
          "type": "string"
        }
      ],
      "name": "setContractURI",
      "outputs": [],
      "stateMutability": "nonpayable",
      "type": "function"
    },
    {
      "inputs": [
        {
          "internalType": "address",
          "name": "osProxyRegistry",
          "type": "address"
        }
      ],
      "name": "setOpenSeaRegistry",
      "outputs": [],
      "stateMutability": "nonpayable",
      "type": "function"
    },
    {
      "inputs": [
        {
          "internalType": "bytes4",
          "name": "interfaceId",
          "type": "bytes4"
        }
      ],
      "name": "supportsInterface",
      "outputs": [
        {
          "internalType": "bool",
          "name": "",
          "type": "bool"
        }
      ],
      "stateMutability": "view",
      "type": "function"
    },
    {
      "inputs": [],
      "name": "symbol",
      "outputs": [
        {
          "internalType": "string",
          "name": "",
          "type": "string"
        }
      ],
      "stateMutability": "view",
      "type": "function"
    },
    {
      "inputs": [
        {
          "internalType": "uint256",
          "name": "tokenId",
          "type": "uint256"
        }
      ],
      "name": "tokenURI",
      "outputs": [
        {
          "internalType": "string",
          "name": "",
          "type": "string"
        }
      ],
      "stateMutability": "view",
      "type": "function"
    },
    {
      "inputs": [
        {
          "internalType": "address",
          "name": "from",
          "type": "address"
        },
        {
          "internalType": "address",
          "name": "to",
          "type": "address"
        },
        {
          "internalType": "uint256",
          "name": "tokenId",
          "type": "uint256"
        }
      ],
      "name": "transferFrom",
      "outputs": [],
      "stateMutability": "nonpayable",
      "type": "function"
    },
    {
      "inputs": [
        {
          "internalType": "address",
          "name": "newOwner",
          "type": "address"
        }
      ],
      "name": "transferOwnership",
      "outputs": [],
      "stateMutability": "nonpayable",
      "type": "function"
    }
  ],
  "bytecode": "0x608060405234801561001057600080fd5b506117f9806100206000396000f3fe608060405234801561001057600080fd5b50600436106101375760003560e01c80638da5cb5b116100b8578063b5f497591161007c578063b5f497591461027e578063b88d4fde14610291578063c87b56dd146102a4578063e8a3d485146102b7578063e985e9c5146102bf578063f2fde38b146102d257600080fd5b80638da5cb5b1461022e578063938e3d7b1461023f57806395d89b4114610252578063a22cb4651461025a578063b50cbd9f1461026d57600080fd5b806342842e0e116100ff57806342842e0e146101cc5780636102de98146101df5780636352211e146101f257806370a0823114610205578063715018a61461022657600080fd5b806301ffc9a71461013c57806306fdde0314610164578063081812fc14610179578063095ea7b3146101a457806323b872dd146101b9575b600080fd5b61014f61014a36600461128a565b6102e5565b60405190151581526020015b60405180910390f35b61016c610337565b60405161015b91906112ff565b61018c610187366004611312565b6103c9565b6040516001600160a01b03909116815260200161015b565b6101b76101b2366004611340565b610463565b005b6101b76101c736600461136c565b610579565b6101b76101da36600461136c565b6105aa565b61014f6101ed3660046113ad565b6105c5565b61018c610200366004611312565b6106bb565b6102186102133660046113e6565b610732565b60405190815260200161015b565b6101b76107b9565b6033546001600160a01b031661018c565b6101b761024d36600461148f565b61081f565b61016c61088e565b6101b76102683660046114d8565b61089d565b60ca546001600160a01b031661018c565b6101b761028c3660046113e6565b610962565b6101b761029f36600461150b565b6109e3565b61016c6102b2366004611312565b610a1b565b61016c610b03565b61014f6102cd3660046113ad565b610b12565b6101b76102e03660046113e6565b610b4d565b60006001600160e01b031982166380ac58cd60e01b148061031657506001600160e01b03198216635b5e139f60e01b145b8061033157506301ffc9a760e01b6001600160e01b03198316145b92915050565b6060609780546103469061158b565b80601f01602080910402602001604051908101604052809291908181526020018280546103729061158b565b80156103bf5780601f10610394576101008083540402835291602001916103bf565b820191906000526020600020905b8154815290600101906020018083116103a257829003601f168201915b5050505050905090565b6000818152609960205260408120546001600160a01b03166104475760405162461bcd60e51b815260206004820152602c60248201527f4552433732313a20617070726f76656420717565727920666f72206e6f6e657860448201526b34b9ba32b73a103a37b5b2b760a11b60648201526084015b60405180910390fd5b506000908152609b60205260409020546001600160a01b031690565b600061046e826106bb565b9050806001600160a01b0316836001600160a01b031614156104dc5760405162461bcd60e51b815260206004820152602160248201527f4552433732313a20617070726f76616c20746f2063757272656e74206f776e656044820152603960f91b606482015260840161043e565b336001600160a01b03821614806104f857506104f88133610b12565b61056a5760405162461bcd60e51b815260206004820152603860248201527f4552433732313a20617070726f76652063616c6c6572206973206e6f74206f7760448201527f6e6572206e6f7220617070726f76656420666f7220616c6c0000000000000000606482015260840161043e565b6105748383610c18565b505050565b6105833382610c86565b61059f5760405162461bcd60e51b815260040161043e906115c6565b610574838383610d5d565b610574838383604051806020016040528060008152506109e3565b60ca546000906001600160a01b031680156106b15746600114806105e95750466004145b1561067e5760405163c455279160e01b81526001600160a01b038581166004830152808516919083169063c45527919060240160206040518083038186803b15801561063457600080fd5b505afa158015610648573d6000803e3d6000fd5b505050506040513d601f19601f8201168201806040525081019061066c9190611617565b6001600160a01b031614915050610331565b466089148061068f57504662013881145b156106b157826001600160a01b0316816001600160a01b031614915050610331565b5060009392505050565b6000818152609960205260408120546001600160a01b0316806103315760405162461bcd60e51b815260206004820152602960248201527f4552433732313a206f776e657220717565727920666f72206e6f6e657869737460448201526832b73a103a37b5b2b760b91b606482015260840161043e565b60006001600160a01b03821661079d5760405162461bcd60e51b815260206004820152602a60248201527f4552433732313a2062616c616e636520717565727920666f7220746865207a65604482015269726f206164647265737360b01b606482015260840161043e565b506001600160a01b03166000908152609a602052604090205490565b6033546001600160a01b031633146108135760405162461bcd60e51b815260206004820181905260248201527f4f776e61626c653a2063616c6c6572206973206e6f7420746865206f776e6572604482015260640161043e565b61081d6000610efd565b565b336108326033546001600160a01b031690565b6001600160a01b0316816001600160a01b0316146108815760405162461bcd60e51b815260206004820152600c60248201526b214e4f545f454449544f522160a01b604482015260640161043e565b61088a82610f4f565b5050565b6060609880546103469061158b565b6001600160a01b0382163314156108f65760405162461bcd60e51b815260206004820152601960248201527f4552433732313a20617070726f766520746f2063616c6c657200000000000000604482015260640161043e565b336000818152609c602090815260408083206001600160a01b03871680855290835292819020805460ff191686151590811790915590519081529192917f17307eab39ab6107e8899845ad3d59bd9653f200f220920489ca2b5937696c31910160405180910390a35050565b336109756033546001600160a01b031690565b6001600160a01b0316816001600160a01b0316146109c45760405162461bcd60e51b815260206004820152600c60248201526b214e4f545f454449544f522160a01b604482015260640161043e565b60ca80546001600160a01b0319166001600160a01b0384161790555050565b6109ed3383610c86565b610a095760405162461bcd60e51b815260040161043e906115c6565b610a1584848484610f9d565b50505050565b6000818152609960205260409020546060906001600160a01b0316610a9a5760405162461bcd60e51b815260206004820152602f60248201527f4552433732314d657461646174613a2055524920717565727920666f72206e6f60448201526e3732bc34b9ba32b73a103a37b5b2b760891b606482015260840161043e565b6000610ab160408051602081019091526000815290565b90506000815111610ad15760405180602001604052806000815250610afc565b80610adb84610fd0565b604051602001610aec929190611634565b6040516020818303038152906040525b9392505050565b606060c980546103469061158b565b6001600160a01b038083166000908152609c6020908152604080832093851683529290529081205460ff1680610afc5750610afc83836105c5565b6033546001600160a01b03163314610ba75760405162461bcd60e51b815260206004820181905260248201527f4f776e61626c653a2063616c6c6572206973206e6f7420746865206f776e6572604482015260640161043e565b6001600160a01b038116610c0c5760405162461bcd60e51b815260206004820152602660248201527f4f776e61626c653a206e6577206f776e657220697320746865207a65726f206160448201526564647265737360d01b606482015260840161043e565b610c1581610efd565b50565b6000818152609b6020526040902080546001600160a01b0319166001600160a01b0384169081179091558190610c4d826106bb565b6001600160a01b03167f8c5be1e5ebec7d5bd14f71427d1e84f3dd0314c0f7b2291e5b200ac8c7c3b92560405160405180910390a45050565b6000818152609960205260408120546001600160a01b0316610cff5760405162461bcd60e51b815260206004820152602c60248201527f4552433732313a206f70657261746f7220717565727920666f72206e6f6e657860448201526b34b9ba32b73a103a37b5b2b760a11b606482015260840161043e565b6000610d0a836106bb565b9050806001600160a01b0316846001600160a01b03161480610d455750836001600160a01b0316610d3a846103c9565b6001600160a01b0316145b80610d555750610d558185610b12565b949350505050565b826001600160a01b0316610d70826106bb565b6001600160a01b031614610dd85760405162461bcd60e51b815260206004820152602960248201527f4552433732313a207472616e73666572206f6620746f6b656e2074686174206960448201526839903737ba1037bbb760b91b606482015260840161043e565b6001600160a01b038216610e3a5760405162461bcd60e51b8152602060048201526024808201527f4552433732313a207472616e7366657220746f20746865207a65726f206164646044820152637265737360e01b606482015260840161043e565b610e45600082610c18565b6001600160a01b0383166000908152609a60205260408120805460019290610e6e908490611679565b90915550506001600160a01b0382166000908152609a60205260408120805460019290610e9c908490611690565b909155505060008181526099602052604080822080546001600160a01b0319166001600160a01b0386811691821790925591518493918716917fddf252ad1be2c89b69c2b068fc378daa952ba7f163c4a11628f55a4df523b3ef91a4505050565b603380546001600160a01b038381166001600160a01b0319831681179093556040519116919082907f8be0079c531659141344cd1fd0a4f28419497f9722a3daafe3b4186f6b6457e090600090a35050565b8051610f629060c99060208401906111db565b507fdf1280b84eee5cd4ce59294c59ec7288bd49034d7f3d142f57ba9b477915636481604051610f9291906112ff565b60405180910390a150565b610fa8848484610d5d565b610fb4848484846110ce565b610a155760405162461bcd60e51b815260040161043e906116a8565b606081610ff45750506040805180820190915260018152600360fc1b602082015290565b8160005b811561101e5780611008816116fa565b91506110179050600a8361172b565b9150610ff8565b60008167ffffffffffffffff81111561103957611039611403565b6040519080825280601f01601f191660200182016040528015611063576020820181803683370190505b5090505b8415610d5557611078600183611679565b9150611085600a8661173f565b611090906030611690565b60f81b8183815181106110a5576110a5611753565b60200101906001600160f81b031916908160001a9053506110c7600a8661172b565b9450611067565b60006001600160a01b0384163b156111d057604051630a85bd0160e11b81526001600160a01b0385169063150b7a0290611112903390899088908890600401611769565b602060405180830381600087803b15801561112c57600080fd5b505af192505050801561115c575060408051601f3d908101601f19168201909252611159918101906117a6565b60015b6111b6573d80801561118a576040519150601f19603f3d011682016040523d82523d6000602084013e61118f565b606091505b5080516111ae5760405162461bcd60e51b815260040161043e906116a8565b805181602001fd5b6001600160e01b031916630a85bd0160e11b149050610d55565b506001949350505050565b8280546111e79061158b565b90600052602060002090601f016020900481019282611209576000855561124f565b82601f1061122257805160ff191683800117855561124f565b8280016001018555821561124f579182015b8281111561124f578251825591602001919060010190611234565b5061125b92915061125f565b5090565b5b8082111561125b5760008155600101611260565b6001600160e01b031981168114610c1557600080fd5b60006020828403121561129c57600080fd5b8135610afc81611274565b60005b838110156112c25781810151838201526020016112aa565b83811115610a155750506000910152565b600081518084526112eb8160208601602086016112a7565b601f01601f19169290920160200192915050565b602081526000610afc60208301846112d3565b60006020828403121561132457600080fd5b5035919050565b6001600160a01b0381168114610c1557600080fd5b6000806040838503121561135357600080fd5b823561135e8161132b565b946020939093013593505050565b60008060006060848603121561138157600080fd5b833561138c8161132b565b9250602084013561139c8161132b565b929592945050506040919091013590565b600080604083850312156113c057600080fd5b82356113cb8161132b565b915060208301356113db8161132b565b809150509250929050565b6000602082840312156113f857600080fd5b8135610afc8161132b565b634e487b7160e01b600052604160045260246000fd5b600067ffffffffffffffff8084111561143457611434611403565b604051601f8501601f19908116603f0116810190828211818310171561145c5761145c611403565b8160405280935085815286868601111561147557600080fd5b858560208301376000602087830101525050509392505050565b6000602082840312156114a157600080fd5b813567ffffffffffffffff8111156114b857600080fd5b8201601f810184136114c957600080fd5b610d5584823560208401611419565b600080604083850312156114eb57600080fd5b82356114f68161132b565b9150602083013580151581146113db57600080fd5b6000806000806080858703121561152157600080fd5b843561152c8161132b565b9350602085013561153c8161132b565b925060408501359150606085013567ffffffffffffffff81111561155f57600080fd5b8501601f8101871361157057600080fd5b61157f87823560208401611419565b91505092959194509250565b600181811c9082168061159f57607f821691505b602082108114156115c057634e487b7160e01b600052602260045260246000fd5b50919050565b60208082526031908201527f4552433732313a207472616e736665722063616c6c6572206973206e6f74206f6040820152701ddb995c881b9bdc88185c1c1c9bdd9959607a1b606082015260800190565b60006020828403121561162957600080fd5b8151610afc8161132b565b600083516116468184602088016112a7565b83519083019061165a8183602088016112a7565b01949350505050565b634e487b7160e01b600052601160045260246000fd5b60008282101561168b5761168b611663565b500390565b600082198211156116a3576116a3611663565b500190565b60208082526032908201527f4552433732313a207472616e7366657220746f206e6f6e20455243373231526560408201527131b2b4bb32b91034b6b83632b6b2b73a32b960711b606082015260800190565b600060001982141561170e5761170e611663565b5060010190565b634e487b7160e01b600052601260045260246000fd5b60008261173a5761173a611715565b500490565b60008261174e5761174e611715565b500690565b634e487b7160e01b600052603260045260246000fd5b6001600160a01b038581168252841660208201526040810183905260806060820181905260009061179c908301846112d3565b9695505050505050565b6000602082840312156117b857600080fd5b8151610afc8161127456fea2646970667358221220fb4e65a141835053288a6deb1b2363d0ed2cc9baaa40d76ca4b76ef0e312c74d64736f6c63430008090033",
  "linkReferences": {},
  "deployedLinkReferences": {}
}