{
  "_format": "hh-sol-artifact-1",
  "contractName": "ERC721WithMutableURI",
  "sourceName": "contracts/NFT/ERC721Helpers/ERC721WithMutableURI.sol",
  "abi": [
    {
      "anonymous": false,
      "inputs": [
        {
          "indexed": true,
          "internalType": "address",
          "name": "owner",
          "type": "address"
        },
        {
          "indexed": true,
          "internalType": "address",
          "name": "approved",
          "type": "address"
        },
        {
          "indexed": true,
          "internalType": "uint256",
          "name": "tokenId",
          "type": "uint256"
        }
      ],
      "name": "Approval",
      "type": "event"
    },
    {
      "anonymous": false,
      "inputs": [
        {
          "indexed": true,
          "internalType": "address",
          "name": "owner",
          "type": "address"
        },
        {
          "indexed": true,
          "internalType": "address",
          "name": "operator",
          "type": "address"
        },
        {
          "indexed": false,
          "internalType": "bool",
          "name": "approved",
          "type": "bool"
        }
      ],
      "name": "ApprovalForAll",
      "type": "event"
    },
    {
      "anonymous": false,
      "inputs": [
        {
          "indexed": true,
          "internalType": "address",
          "name": "from",
          "type": "address"
        },
        {
          "indexed": true,
          "internalType": "address",
          "name": "to",
          "type": "address"
        },
        {
          "indexed": true,
          "internalType": "uint256",
          "name": "tokenId",
          "type": "uint256"
        }
      ],
      "name": "Transfer",
      "type": "event"
    },
    {
      "inputs": [
        {
          "internalType": "address",
          "name": "to",
          "type": "address"
        },
        {
          "internalType": "uint256",
          "name": "tokenId",
          "type": "uint256"
        }
      ],
      "name": "approve",
      "outputs": [],
      "stateMutability": "nonpayable",
      "type": "function"
    },
    {
      "inputs": [
        {
          "internalType": "address",
          "name": "owner",
          "type": "address"
        }
      ],
      "name": "balanceOf",
      "outputs": [
        {
          "internalType": "uint256",
          "name": "",
          "type": "uint256"
        }
      ],
      "stateMutability": "view",
      "type": "function"
    },
    {
      "inputs": [],
      "name": "baseMutableURI",
      "outputs": [
        {
          "internalType": "string",
          "name": "",
          "type": "string"
        }
      ],
      "stateMutability": "view",
      "type": "function"
    },
    {
      "inputs": [
        {
          "internalType": "uint256",
          "name": "tokenId",
          "type": "uint256"
        }
      ],
      "name": "getApproved",
      "outputs": [
        {
          "internalType": "address",
          "name": "",
          "type": "address"
        }
      ],
      "stateMutability": "view",
      "type": "function"
    },
    {
      "inputs": [
        {
          "internalType": "address",
          "name": "owner",
          "type": "address"
        },
        {
          "internalType": "address",
          "name": "operator",
          "type": "address"
        }
      ],
      "name": "isApprovedForAll",
      "outputs": [
        {
          "internalType": "bool",
          "name": "",
          "type": "bool"
        }
      ],
      "stateMutability": "view",
      "type": "function"
    },
    {
      "inputs": [
        {
          "internalType": "uint256",
          "name": "tokenId",
          "type": "uint256"
        }
      ],
      "name": "mutableURI",
      "outputs": [
        {
          "internalType": "string",
          "name": "",
          "type": "string"
        }
      ],
      "stateMutability": "view",
      "type": "function"
    },
    {
      "inputs": [],
      "name": "name",
      "outputs": [
        {
          "internalType": "string",
          "name": "",
          "type": "string"
        }
      ],
      "stateMutability": "view",
      "type": "function"
    },
    {
      "inputs": [
        {
          "internalType": "uint256",
          "name": "tokenId",
          "type": "uint256"
        }
      ],
      "name": "ownerOf",
      "outputs": [
        {
          "internalType": "address",
          "name": "",
          "type": "address"
        }
      ],
      "stateMutability": "view",
      "type": "function"
    },
    {
      "inputs": [
        {
          "internalType": "address",
          "name": "from",
          "type": "address"
        },
        {
          "internalType": "address",
          "name": "to",
          "type": "address"
        },
        {
          "internalType": "uint256",
          "name": "tokenId",
          "type": "uint256"
        }
      ],
      "name": "safeTransferFrom",
      "outputs": [],
      "stateMutability": "nonpayable",
      "type": "function"
    },
    {
      "inputs": [
        {
          "internalType": "address",
          "name": "from",
          "type": "address"
        },
        {
          "internalType": "address",
          "name": "to",
          "type": "address"
        },
        {
          "internalType": "uint256",
          "name": "tokenId",
          "type": "uint256"
        },
        {
          "internalType": "bytes",
          "name": "_data",
          "type": "bytes"
        }
      ],
      "name": "safeTransferFrom",
      "outputs": [],
      "stateMutability": "nonpayable",
      "type": "function"
    },
    {
      "inputs": [
        {
          "internalType": "address",
          "name": "operator",
          "type": "address"
        },
        {
          "internalType": "bool",
          "name": "approved",
          "type": "bool"
        }
      ],
      "name": "setApprovalForAll",
      "outputs": [],
      "stateMutability": "nonpayable",
      "type": "function"
    },
    {
      "inputs": [
        {
          "internalType": "bytes4",
          "name": "interfaceId",
          "type": "bytes4"
        }
      ],
      "name": "supportsInterface",
      "outputs": [
        {
          "internalType": "bool",
          "name": "",
          "type": "bool"
        }
      ],
      "stateMutability": "view",
      "type": "function"
    },
    {
      "inputs": [],
      "name": "symbol",
      "outputs": [
        {
          "internalType": "string",
          "name": "",
          "type": "string"
        }
      ],
      "stateMutability": "view",
      "type": "function"
    },
    {
      "inputs": [
        {
          "internalType": "uint256",
          "name": "tokenId",
          "type": "uint256"
        }
      ],
      "name": "tokenURI",
      "outputs": [
        {
          "internalType": "string",
          "name": "",
          "type": "string"
        }
      ],
      "stateMutability": "view",
      "type": "function"
    },
    {
      "inputs": [
        {
          "internalType": "address",
          "name": "from",
          "type": "address"
        },
        {
          "internalType": "address",
          "name": "to",
          "type": "address"
        },
        {
          "internalType": "uint256",
          "name": "tokenId",
          "type": "uint256"
        }
      ],
      "name": "transferFrom",
      "outputs": [],
      "stateMutability": "nonpayable",
      "type": "function"
    }
  ],
  "bytecode": "0x608060405234801561001057600080fd5b506114af806100206000396000f3fe608060405234801561001057600080fd5b50600436106100f55760003560e01c80636352211e11610097578063a22cb46511610066578063a22cb465146101f4578063b88d4fde14610207578063c87b56dd1461021a578063e985e9c51461022d57600080fd5b80636352211e146101b057806370a08231146101c35780637477b22a146101e457806395d89b41146101ec57600080fd5b8063095ea7b3116100d3578063095ea7b314610162578063224e62f01461017757806323b872dd1461018a57806342842e0e1461019d57600080fd5b806301ffc9a7146100fa57806306fdde0314610122578063081812fc14610137575b600080fd5b61010d610108366004610fbf565b610269565b60405190151581526020015b60405180910390f35b61012a6102bb565b6040516101199190611034565b61014a610145366004611047565b61034d565b6040516001600160a01b039091168152602001610119565b61017561017036600461107c565b6103e7565b005b61012a610185366004611047565b6104fd565b6101756101983660046110a6565b61068c565b6101756101ab3660046110a6565b6106bd565b61014a6101be366004611047565b6106d8565b6101d66101d13660046110e2565b61074f565b604051908152602001610119565b61012a6107d6565b61012a610864565b6101756102023660046110fd565b610873565b61017561021536600461114f565b610938565b61012a610228366004611047565b610970565b61010d61023b36600461122b565b6001600160a01b039182166000908152606a6020908152604080832093909416825291909152205460ff1690565b60006001600160e01b031982166380ac58cd60e01b148061029a57506001600160e01b03198216635b5e139f60e01b145b806102b557506301ffc9a760e01b6001600160e01b03198316145b92915050565b6060606580546102ca9061125e565b80601f01602080910402602001604051908101604052809291908181526020018280546102f69061125e565b80156103435780601f1061031857610100808354040283529160200191610343565b820191906000526020600020905b81548152906001019060200180831161032657829003601f168201915b5050505050905090565b6000818152606760205260408120546001600160a01b03166103cb5760405162461bcd60e51b815260206004820152602c60248201527f4552433732313a20617070726f76656420717565727920666f72206e6f6e657860448201526b34b9ba32b73a103a37b5b2b760a11b60648201526084015b60405180910390fd5b506000908152606960205260409020546001600160a01b031690565b60006103f2826106d8565b9050806001600160a01b0316836001600160a01b031614156104605760405162461bcd60e51b815260206004820152602160248201527f4552433732313a20617070726f76616c20746f2063757272656e74206f776e656044820152603960f91b60648201526084016103c2565b336001600160a01b038216148061047c575061047c813361023b565b6104ee5760405162461bcd60e51b815260206004820152603860248201527f4552433732313a20617070726f76652063616c6c6572206973206e6f74206f7760448201527f6e6572206e6f7220617070726f76656420666f7220616c6c000000000000000060648201526084016103c2565b6104f88383610a58565b505050565b6000818152606760205260409020546060906001600160a01b03166105565760405162461bcd60e51b815260206004820152600f60248201526e21554e4b4e4f574e5f544f4b454e2160881b60448201526064016103c2565b6000828152609860205260408120805461056f9061125e565b80601f016020809104026020016040519081016040528092919081815260200182805461059b9061125e565b80156105e85780601f106105bd576101008083540402835291602001916105e8565b820191906000526020600020905b8154815290600101906020018083116105cb57829003601f168201915b5050505050905060006105f9610ac6565b90506000815111801561060d575060008251115b1561063d578082604051602001610625929190611299565b60405160208183030381529060405292505050919050565b81511561064b575092915050565b60008151116106695760405180602001604052806000815250610684565b8061067385610ad5565b604051602001610625929190611299565b949350505050565b6106963382610bd3565b6106b25760405162461bcd60e51b81526004016103c2906112c8565b6104f8838383610cc6565b6104f883838360405180602001604052806000815250610938565b6000818152606760205260408120546001600160a01b0316806102b55760405162461bcd60e51b815260206004820152602960248201527f4552433732313a206f776e657220717565727920666f72206e6f6e657869737460448201526832b73a103a37b5b2b760b91b60648201526084016103c2565b60006001600160a01b0382166107ba5760405162461bcd60e51b815260206004820152602a60248201527f4552433732313a2062616c616e636520717565727920666f7220746865207a65604482015269726f206164647265737360b01b60648201526084016103c2565b506001600160a01b031660009081526068602052604090205490565b609780546107e39061125e565b80601f016020809104026020016040519081016040528092919081815260200182805461080f9061125e565b801561085c5780601f106108315761010080835404028352916020019161085c565b820191906000526020600020905b81548152906001019060200180831161083f57829003601f168201915b505050505081565b6060606680546102ca9061125e565b6001600160a01b0382163314156108cc5760405162461bcd60e51b815260206004820152601960248201527f4552433732313a20617070726f766520746f2063616c6c65720000000000000060448201526064016103c2565b336000818152606a602090815260408083206001600160a01b03871680855290835292819020805460ff191686151590811790915590519081529192917f17307eab39ab6107e8899845ad3d59bd9653f200f220920489ca2b5937696c31910160405180910390a35050565b6109423383610bd3565b61095e5760405162461bcd60e51b81526004016103c2906112c8565b61096a84848484610e66565b50505050565b6000818152606760205260409020546060906001600160a01b03166109ef5760405162461bcd60e51b815260206004820152602f60248201527f4552433732314d657461646174613a2055524920717565727920666f72206e6f60448201526e3732bc34b9ba32b73a103a37b5b2b760891b60648201526084016103c2565b6000610a0660408051602081019091526000815290565b90506000815111610a265760405180602001604052806000815250610a51565b80610a3084610ad5565b604051602001610a41929190611299565b6040516020818303038152906040525b9392505050565b600081815260696020526040902080546001600160a01b0319166001600160a01b0384169081179091558190610a8d826106d8565b6001600160a01b03167f8c5be1e5ebec7d5bd14f71427d1e84f3dd0314c0f7b2291e5b200ac8c7c3b92560405160405180910390a45050565b6060609780546102ca9061125e565b606081610af95750506040805180820190915260018152600360fc1b602082015290565b8160005b8115610b235780610b0d8161132f565b9150610b1c9050600a83611360565b9150610afd565b60008167ffffffffffffffff811115610b3e57610b3e611139565b6040519080825280601f01601f191660200182016040528015610b68576020820181803683370190505b5090505b841561068457610b7d600183611374565b9150610b8a600a8661138b565b610b9590603061139f565b60f81b818381518110610baa57610baa6113b7565b60200101906001600160f81b031916908160001a905350610bcc600a86611360565b9450610b6c565b6000818152606760205260408120546001600160a01b0316610c4c5760405162461bcd60e51b815260206004820152602c60248201527f4552433732313a206f70657261746f7220717565727920666f72206e6f6e657860448201526b34b9ba32b73a103a37b5b2b760a11b60648201526084016103c2565b6000610c57836106d8565b9050806001600160a01b0316846001600160a01b03161480610c925750836001600160a01b0316610c878461034d565b6001600160a01b0316145b8061068457506001600160a01b038082166000908152606a602090815260408083209388168352929052205460ff16610684565b826001600160a01b0316610cd9826106d8565b6001600160a01b031614610d415760405162461bcd60e51b815260206004820152602960248201527f4552433732313a207472616e73666572206f6620746f6b656e2074686174206960448201526839903737ba1037bbb760b91b60648201526084016103c2565b6001600160a01b038216610da35760405162461bcd60e51b8152602060048201526024808201527f4552433732313a207472616e7366657220746f20746865207a65726f206164646044820152637265737360e01b60648201526084016103c2565b610dae600082610a58565b6001600160a01b0383166000908152606860205260408120805460019290610dd7908490611374565b90915550506001600160a01b0382166000908152606860205260408120805460019290610e0590849061139f565b909155505060008181526067602052604080822080546001600160a01b0319166001600160a01b0386811691821790925591518493918716917fddf252ad1be2c89b69c2b068fc378daa952ba7f163c4a11628f55a4df523b3ef91a4505050565b610e71848484610cc6565b610e7d84848484610e99565b61096a5760405162461bcd60e51b81526004016103c2906113cd565b60006001600160a01b0384163b15610f9b57604051630a85bd0160e11b81526001600160a01b0385169063150b7a0290610edd90339089908890889060040161141f565b602060405180830381600087803b158015610ef757600080fd5b505af1925050508015610f27575060408051601f3d908101601f19168201909252610f249181019061145c565b60015b610f81573d808015610f55576040519150601f19603f3d011682016040523d82523d6000602084013e610f5a565b606091505b508051610f795760405162461bcd60e51b81526004016103c2906113cd565b805181602001fd5b6001600160e01b031916630a85bd0160e11b149050610684565b506001949350505050565b6001600160e01b031981168114610fbc57600080fd5b50565b600060208284031215610fd157600080fd5b8135610a5181610fa6565b60005b83811015610ff7578181015183820152602001610fdf565b8381111561096a5750506000910152565b60008151808452611020816020860160208601610fdc565b601f01601f19169290920160200192915050565b602081526000610a516020830184611008565b60006020828403121561105957600080fd5b5035919050565b80356001600160a01b038116811461107757600080fd5b919050565b6000806040838503121561108f57600080fd5b61109883611060565b946020939093013593505050565b6000806000606084860312156110bb57600080fd5b6110c484611060565b92506110d260208501611060565b9150604084013590509250925092565b6000602082840312156110f457600080fd5b610a5182611060565b6000806040838503121561111057600080fd5b61111983611060565b91506020830135801515811461112e57600080fd5b809150509250929050565b634e487b7160e01b600052604160045260246000fd5b6000806000806080858703121561116557600080fd5b61116e85611060565b935061117c60208601611060565b925060408501359150606085013567ffffffffffffffff808211156111a057600080fd5b818701915087601f8301126111b457600080fd5b8135818111156111c6576111c6611139565b604051601f8201601f19908116603f011681019083821181831017156111ee576111ee611139565b816040528281528a602084870101111561120757600080fd5b82602086016020830137600060208483010152809550505050505092959194509250565b6000806040838503121561123e57600080fd5b61124783611060565b915061125560208401611060565b90509250929050565b600181811c9082168061127257607f821691505b6020821081141561129357634e487b7160e01b600052602260045260246000fd5b50919050565b600083516112ab818460208801610fdc565b8351908301906112bf818360208801610fdc565b01949350505050565b60208082526031908201527f4552433732313a207472616e736665722063616c6c6572206973206e6f74206f6040820152701ddb995c881b9bdc88185c1c1c9bdd9959607a1b606082015260800190565b634e487b7160e01b600052601160045260246000fd5b600060001982141561134357611343611319565b5060010190565b634e487b7160e01b600052601260045260246000fd5b60008261136f5761136f61134a565b500490565b60008282101561138657611386611319565b500390565b60008261139a5761139a61134a565b500690565b600082198211156113b2576113b2611319565b500190565b634e487b7160e01b600052603260045260246000fd5b60208082526032908201527f4552433732313a207472616e7366657220746f206e6f6e20455243373231526560408201527131b2b4bb32b91034b6b83632b6b2b73a32b960711b606082015260800190565b6001600160a01b038581168252841660208201526040810183905260806060820181905260009061145290830184611008565b9695505050505050565b60006020828403121561146e57600080fd5b8151610a5181610fa656fea26469706673582212209799103a4396c6a2bed0da560b4313dc3fe232191873da10bc154ff51e5ddfef64736f6c63430008090033",
  "linkReferences": {},
  "deployedLinkReferences": {}
}