{
  "_format": "hh-sol-artifact-1",
  "contractName": "EventListenerModuleMock",
  "sourceName": "contracts/mocks/EventListenerModuleMock.sol",
  "abi": [
    {
      "inputs": [
        {
          "internalType": "string",
          "name": "contractURI_",
          "type": "string"
        }
      ],
      "stateMutability": "nonpayable",
      "type": "constructor"
    },
    {
      "anonymous": false,
      "inputs": [
        {
          "indexed": false,
          "internalType": "string",
          "name": "contractURI",
          "type": "string"
        }
      ],
      "name": "NewContractURI",
      "type": "event"
    },
    {
      "inputs": [],
      "name": "burns",
      "outputs": [
        {
          "internalType": "uint256",
          "name": "",
          "type": "uint256"
        }
      ],
      "stateMutability": "view",
      "type": "function"
    },
    {
      "inputs": [],
      "name": "contractURI",
      "outputs": [
        {
          "internalType": "string",
          "name": "",
          "type": "string"
        }
      ],
      "stateMutability": "view",
      "type": "function"
    },
    {
      "inputs": [
        {
          "internalType": "address",
          "name": "toListenTo",
          "type": "address"
        }
      ],
      "name": "listenTo",
      "outputs": [],
      "stateMutability": "nonpayable",
      "type": "function"
    },
    {
      "inputs": [],
      "name": "mints",
      "outputs": [
        {
          "internalType": "uint256",
          "name": "",
          "type": "uint256"
        }
      ],
      "stateMutability": "view",
      "type": "function"
    },
    {
      "inputs": [],
      "name": "onAttach",
      "outputs": [
        {
          "internalType": "bool",
          "name": "",
          "type": "bool"
        }
      ],
      "stateMutability": "nonpayable",
      "type": "function"
    },
    {
      "inputs": [],
      "name": "onDisable",
      "outputs": [],
      "stateMutability": "nonpayable",
      "type": "function"
    },
    {
      "inputs": [],
      "name": "onEnable",
      "outputs": [
        {
          "internalType": "bool",
          "name": "",
          "type": "bool"
        }
      ],
      "stateMutability": "nonpayable",
      "type": "function"
    },
    {
      "inputs": [
        {
          "internalType": "enum INFModuleWithEvents.Events",
          "name": "eventType",
          "type": "uint8"
        },
        {
          "internalType": "uint256",
          "name": "tokenId",
          "type": "uint256"
        },
        {
          "internalType": "address",
          "name": "from",
          "type": "address"
        },
        {
          "internalType": "address",
          "name": "to",
          "type": "address"
        }
      ],
      "name": "onEvent",
      "outputs": [],
      "stateMutability": "nonpayable",
      "type": "function"
    },
    {
      "inputs": [
        {
          "internalType": "address",
          "name": "toListenTo",
          "type": "address"
        }
      ],
      "name": "stopListeningTo",
      "outputs": [],
      "stateMutability": "nonpayable",
      "type": "function"
    },
    {
      "inputs": [
        {
          "internalType": "bytes4",
          "name": "interfaceId",
          "type": "bytes4"
        }
      ],
      "name": "supportsInterface",
      "outputs": [
        {
          "internalType": "bool",
          "name": "",
          "type": "bool"
        }
      ],
      "stateMutability": "view",
      "type": "function"
    },
    {
      "inputs": [],
      "name": "transfers",
      "outputs": [
        {
          "internalType": "uint256",
          "name": "",
          "type": "uint256"
        }
      ],
      "stateMutability": "view",
      "type": "function"
    }
  ],
  "bytecode": "0x60806040523480156200001157600080fd5b5060405162000a1038038062000a10833981016040819052620000349162000189565b80620000408162000048565b5050620002b3565b80516200005d9060029060208401906200009a565b507fdf1280b84eee5cd4ce59294c59ec7288bd49034d7f3d142f57ba9b4779156364816040516200008f919062000241565b60405180910390a150565b828054620000a89062000276565b90600052602060002090601f016020900481019282620000cc576000855562000117565b82601f10620000e757805160ff191683800117855562000117565b8280016001018555821562000117579182015b8281111562000117578251825591602001919060010190620000fa565b506200012592915062000129565b5090565b5b808211156200012557600081556001016200012a565b634e487b7160e01b600052604160045260246000fd5b60005b838110156200017357818101518382015260200162000159565b8381111562000183576000848401525b50505050565b6000602082840312156200019c57600080fd5b81516001600160401b0380821115620001b457600080fd5b818401915084601f830112620001c957600080fd5b815181811115620001de57620001de62000140565b604051601f8201601f19908116603f0116810190838211818310171562000209576200020962000140565b816040528281528760208487010111156200022357600080fd5b6200023683602083016020880162000156565b979650505050505050565b60208152600082518060208401526200026281604085016020870162000156565b601f01601f19169190910160400192915050565b600181811c908216806200028b57607f821691505b60208210811415620002ad57634e487b7160e01b600052602260045260246000fd5b50919050565b61074d80620002c36000396000f3fe608060405234801561001057600080fd5b50600436106100a95760003560e01c8063a1abd39b11610071578063a1abd39b14610122578063ab5e28c514610139578063b079ac9014610142578063dfc7379d14610149578063e8a3d48514610152578063ed1b31441461016757600080fd5b806301ffc9a7146100ae5780633803d662146100e75780633dc0e1a6146100fc57806344eea1e01461010f5780634c85eb1f146100fa575b600080fd5b6100d26100bc366004610565565b6001600160e01b0319166301ffc9a760e01b1490565b60405190151581526020015b60405180910390f35b6100fa6100f53660046105b2565b61016f565b005b6100fa61010a3660046105cd565b61028f565b6100fa61011d3660046105b2565b610323565b61012b60055481565b6040519081526020016100de565b61012b60045481565b60016100d2565b61012b60035481565b61015a61040e565b6040516100de9190610620565b6100d26104a0565b60405163f372854760e01b81526001600160a01b0382169063f37285479061019c9060009060040161068b565b600060405180830381600087803b1580156101b657600080fd5b505af11580156101ca573d6000803e3d6000fd5b505060405163f372854760e01b81526001600160a01b038416925063f372854791506101fb9060029060040161068b565b600060405180830381600087803b15801561021557600080fd5b505af1158015610229573d6000803e3d6000fd5b505060405163f372854760e01b81526001600160a01b038416925063f3728547915061025a9060019060040161068b565b600060405180830381600087803b15801561027457600080fd5b505af1158015610288573d6000803e3d6000fd5b5050505050565b60008460028111156102a3576102a3610675565b14156102c357600380549060006102b9836106b3565b919050555061031d565b60018460028111156102d7576102d7610675565b14156102ed57600480549060006102b9836106b3565b600284600281111561030157610301610675565b141561031d5760058054906000610317836106b3565b91905055505b50505050565b60405163734afad160e01b81526001600160a01b0382169063734afad1906103509060009060040161068b565b600060405180830381600087803b15801561036a57600080fd5b505af115801561037e573d6000803e3d6000fd5b505060405163734afad160e01b81526001600160a01b038416925063734afad191506103af9060029060040161068b565b600060405180830381600087803b1580156103c957600080fd5b505af11580156103dd573d6000803e3d6000fd5b505060405163734afad160e01b81526001600160a01b038416925063734afad1915061025a9060019060040161068b565b60606002805461041d906106dc565b80601f0160208091040260200160405190810160405280929190818152602001828054610449906106dc565b80156104965780601f1061046b57610100808354040283529160200191610496565b820191906000526020600020905b81548152906001019060200180831161047957829003601f168201915b5050505050905090565b60006104ac81336104f8565b156104b75750600190565b60405162461bcd60e51b815260206004820152601260248201527121414c52454144595f41545441434845442160701b604482015260640160405180910390fd5b600061050d836001600160a01b038416610516565b90505b92915050565b600081815260018301602052604081205461055d57508154600181810184556000848152602080822090930184905584548482528286019093526040902091909155610510565b506000610510565b60006020828403121561057757600080fd5b81356001600160e01b03198116811461058f57600080fd5b9392505050565b80356001600160a01b03811681146105ad57600080fd5b919050565b6000602082840312156105c457600080fd5b61050d82610596565b600080600080608085870312156105e357600080fd5b8435600381106105f257600080fd5b93506020850135925061060760408601610596565b915061061560608601610596565b905092959194509250565b600060208083528351808285015260005b8181101561064d57858101830151858201604001528201610631565b8181111561065f576000604083870101525b50601f01601f1916929092016040019392505050565b634e487b7160e01b600052602160045260246000fd5b60208101600383106106ad57634e487b7160e01b600052602160045260246000fd5b91905290565b60006000198214156106d557634e487b7160e01b600052601160045260246000fd5b5060010190565b600181811c908216806106f057607f821691505b6020821081141561071157634e487b7160e01b600052602260045260246000fd5b5091905056fea2646970667358221220ecf250647a4fe7037ed14dd296dbf40a3d5e9fee9092a7fbf62b96b0d0e56d5864736f6c63430008090033",
  "linkReferences": {},
  "deployedLinkReferences": {}
}