{
  "_format": "hh-sol-artifact-1",
  "contractName": "ForgeMasterStorage",
  "sourceName": "contracts/ForgeMaster/ForgeMasterStorage.sol",
  "abi": [
    {
      "inputs": [
        {
          "internalType": "address",
          "name": "",
          "type": "address"
        }
      ],
      "name": "flaggedRegistries",
      "outputs": [
        {
          "internalType": "bool",
          "name": "",
          "type": "bool"
        }
      ],
      "stateMutability": "view",
      "type": "function"
    },
    {
      "inputs": [
        {
          "internalType": "address",
          "name": "",
          "type": "address"
        }
      ],
      "name": "lastIndexing",
      "outputs": [
        {
          "internalType": "uint256",
          "name": "",
          "type": "uint256"
        }
      ],
      "stateMutability": "view",
      "type": "function"
    }
  ],
  "bytecode": "0x608060405234801561001057600080fd5b5060fa8061001f6000396000f3fe6080604052348015600f57600080fd5b506004361060325760003560e01c8063ebed7dd3146037578063f58b41fa146067575b600080fd5b605460423660046096565b600d6020526000908152604090205481565b6040519081526020015b60405180910390f35b608760723660046096565b600e6020526000908152604090205460ff1681565b6040519015158152602001605e565b60006020828403121560a757600080fd5b81356001600160a01b038116811460bd57600080fd5b939250505056fea2646970667358221220ac9fcc8f645a1efee9d093ce76672f4925ce26c4761d9028b634772504ec98ef64736f6c63430008090033",
  "linkReferences": {},
  "deployedLinkReferences": {}
}