{
  "_format": "hh-sol-artifact-1",
  "contractName": "MinterModuleMock",
  "sourceName": "contracts/mocks/MinterModuleMock.sol",
  "abi": [
    {
      "inputs": [
        {
          "internalType": "string",
          "name": "contractURI_",
          "type": "string"
        }
      ],
      "stateMutability": "nonpayable",
      "type": "constructor"
    },
    {
      "anonymous": false,
      "inputs": [
        {
          "indexed": false,
          "internalType": "string",
          "name": "contractURI",
          "type": "string"
        }
      ],
      "name": "NewContractURI",
      "type": "event"
    },
    {
      "inputs": [],
      "name": "contractURI",
      "outputs": [
        {
          "internalType": "string",
          "name": "",
          "type": "string"
        }
      ],
      "stateMutability": "view",
      "type": "function"
    },
    {
      "inputs": [
        {
          "internalType": "address",
          "name": "registry",
          "type": "address"
        }
      ],
      "name": "mint",
      "outputs": [],
      "stateMutability": "nonpayable",
      "type": "function"
    },
    {
      "inputs": [],
      "name": "onAttach",
      "outputs": [
        {
          "internalType": "bool",
          "name": "",
          "type": "bool"
        }
      ],
      "stateMutability": "nonpayable",
      "type": "function"
    },
    {
      "inputs": [],
      "name": "onDisable",
      "outputs": [],
      "stateMutability": "nonpayable",
      "type": "function"
    },
    {
      "inputs": [],
      "name": "onEnable",
      "outputs": [
        {
          "internalType": "bool",
          "name": "",
          "type": "bool"
        }
      ],
      "stateMutability": "nonpayable",
      "type": "function"
    },
    {
      "inputs": [
        {
          "internalType": "bytes4",
          "name": "interfaceId",
          "type": "bytes4"
        }
      ],
      "name": "supportsInterface",
      "outputs": [
        {
          "internalType": "bool",
          "name": "",
          "type": "bool"
        }
      ],
      "stateMutability": "view",
      "type": "function"
    }
  ],
  "bytecode": "0x608060405234801561001057600080fd5b506040516106e53803806106e583398101604081905261002f9161016d565b8061003981610040565b5050610287565b805161005390600290602084019061008e565b507fdf1280b84eee5cd4ce59294c59ec7288bd49034d7f3d142f57ba9b4779156364816040516100839190610219565b60405180910390a150565b82805461009a9061024c565b90600052602060002090601f0160209004810192826100bc5760008555610102565b82601f106100d557805160ff1916838001178555610102565b82800160010185558215610102579182015b828111156101025782518255916020019190600101906100e7565b5061010e929150610112565b5090565b5b8082111561010e5760008155600101610113565b634e487b7160e01b600052604160045260246000fd5b60005b83811015610158578181015183820152602001610140565b83811115610167576000848401525b50505050565b60006020828403121561017f57600080fd5b81516001600160401b038082111561019657600080fd5b818401915084601f8301126101aa57600080fd5b8151818111156101bc576101bc610127565b604051601f8201601f19908116603f011681019083821181831017156101e4576101e4610127565b816040528281528760208487010111156101fd57600080fd5b61020e83602083016020880161013d565b979650505050505050565b602081526000825180602084015261023881604085016020870161013d565b601f01601f19169190910160400192915050565b600181811c9082168061026057607f821691505b6020821081141561028157634e487b7160e01b600052602260045260246000fd5b50919050565b61044f806102966000396000f3fe608060405234801561001057600080fd5b50600436106100625760003560e01c806301ffc9a7146100675780634c85eb1f146100a05780636a627842146100a2578063b079ac90146100b5578063e8a3d485146100bc578063ed1b3144146100d1575b600080fd5b61008b610075366004610316565b6001600160e01b0319166301ffc9a760e01b1490565b60405190151581526020015b60405180910390f35b005b6100a06100b0366004610347565b6100d9565b600161008b565b6100c46101bf565b6040516100979190610370565b61008b610251565b6040516361e5355d60e01b8152336004820181905260a06024830152603560a48301527f697066733a2f2f516d59785574466e50466e745a7372785254435433724a5a5560c4830152745743377469393439663168786e6e666e7a4e42327560581b60e483015260448201526103e86064820152600060848201526001600160a01b038216906361e5355d9061010401602060405180830381600087803b15801561018357600080fd5b505af1158015610197573d6000803e3d6000fd5b505050506040513d601f19601f820116820180604052508101906101bb91906103c5565b5050565b6060600280546101ce906103de565b80601f01602080910402602001604051908101604052809291908181526020018280546101fa906103de565b80156102475780601f1061021c57610100808354040283529160200191610247565b820191906000526020600020905b81548152906001019060200180831161022a57829003601f168201915b5050505050905090565b600061025d81336102a9565b156102685750600190565b60405162461bcd60e51b815260206004820152601260248201527121414c52454144595f41545441434845442160701b604482015260640160405180910390fd5b60006102be836001600160a01b0384166102c7565b90505b92915050565b600081815260018301602052604081205461030e575081546001818101845560008481526020808220909301849055845484825282860190935260409020919091556102c1565b5060006102c1565b60006020828403121561032857600080fd5b81356001600160e01b03198116811461034057600080fd5b9392505050565b60006020828403121561035957600080fd5b81356001600160a01b038116811461034057600080fd5b600060208083528351808285015260005b8181101561039d57858101830151858201604001528201610381565b818111156103af576000604083870101525b50601f01601f1916929092016040019392505050565b6000602082840312156103d757600080fd5b5051919050565b600181811c908216806103f257607f821691505b6020821081141561041357634e487b7160e01b600052602260045260246000fd5b5091905056fea2646970667358221220cf6804f987c975a256713bd523015e64a24e83a67d42f0507af8a54474171f1564736f6c63430008090033",
  "linkReferences": {},
  "deployedLinkReferences": {}
}