{
  "_format": "hh-sol-artifact-1",
  "contractName": "NFBaseModule",
  "sourceName": "contracts/Modules/NFBaseModule.sol",
  "abi": [
    {
      "inputs": [
        {
          "internalType": "string",
          "name": "contractURI_",
          "type": "string"
        }
      ],
      "stateMutability": "nonpayable",
      "type": "constructor"
    },
    {
      "anonymous": false,
      "inputs": [
        {
          "indexed": false,
          "internalType": "string",
          "name": "contractURI",
          "type": "string"
        }
      ],
      "name": "NewContractURI",
      "type": "event"
    },
    {
      "inputs": [],
      "name": "contractURI",
      "outputs": [
        {
          "internalType": "string",
          "name": "",
          "type": "string"
        }
      ],
      "stateMutability": "view",
      "type": "function"
    },
    {
      "inputs": [],
      "name": "onAttach",
      "outputs": [
        {
          "internalType": "bool",
          "name": "",
          "type": "bool"
        }
      ],
      "stateMutability": "nonpayable",
      "type": "function"
    },
    {
      "inputs": [],
      "name": "onDisable",
      "outputs": [],
      "stateMutability": "nonpayable",
      "type": "function"
    },
    {
      "inputs": [],
      "name": "onEnable",
      "outputs": [
        {
          "internalType": "bool",
          "name": "",
          "type": "bool"
        }
      ],
      "stateMutability": "nonpayable",
      "type": "function"
    },
    {
      "inputs": [
        {
          "internalType": "bytes4",
          "name": "interfaceId",
          "type": "bytes4"
        }
      ],
      "name": "supportsInterface",
      "outputs": [
        {
          "internalType": "bool",
          "name": "",
          "type": "bool"
        }
      ],
      "stateMutability": "view",
      "type": "function"
    }
  ],
  "bytecode": "0x608060405234801561001057600080fd5b5060405161059d38038061059d83398101604081905261002f9161016b565b6100388161003e565b50610285565b805161005190600290602084019061008c565b507fdf1280b84eee5cd4ce59294c59ec7288bd49034d7f3d142f57ba9b4779156364816040516100819190610217565b60405180910390a150565b8280546100989061024a565b90600052602060002090601f0160209004810192826100ba5760008555610100565b82601f106100d357805160ff1916838001178555610100565b82800160010185558215610100579182015b828111156101005782518255916020019190600101906100e5565b5061010c929150610110565b5090565b5b8082111561010c5760008155600101610111565b634e487b7160e01b600052604160045260246000fd5b60005b8381101561015657818101518382015260200161013e565b83811115610165576000848401525b50505050565b60006020828403121561017d57600080fd5b81516001600160401b038082111561019457600080fd5b818401915084601f8301126101a857600080fd5b8151818111156101ba576101ba610125565b604051601f8201601f19908116603f011681019083821181831017156101e2576101e2610125565b816040528281528760208487010111156101fb57600080fd5b61020c83602083016020880161013b565b979650505050505050565b602081526000825180602084015261023681604085016020870161013b565b601f01601f19169190910160400192915050565b600181811c9082168061025e57607f821691505b6020821081141561027f57634e487b7160e01b600052602260045260246000fd5b50919050565b610309806102946000396000f3fe608060405234801561001057600080fd5b50600436106100575760003560e01c806301ffc9a71461005c5780634c85eb1f14610095578063b079ac9014610097578063e8a3d4851461009e578063ed1b3144146100b3575b600080fd5b61008061006a366004610212565b6001600160e01b0319166301ffc9a760e01b1490565b60405190151581526020015b60405180910390f35b005b6001610080565b6100a66100bb565b60405161008c9190610243565b61008061014d565b6060600280546100ca90610298565b80601f01602080910402602001604051908101604052809291908181526020018280546100f690610298565b80156101435780601f1061011857610100808354040283529160200191610143565b820191906000526020600020905b81548152906001019060200180831161012657829003601f168201915b5050505050905090565b600061015981336101a5565b156101645750600190565b60405162461bcd60e51b815260206004820152601260248201527121414c52454144595f41545441434845442160701b604482015260640160405180910390fd5b60006101ba836001600160a01b0384166101c3565b90505b92915050565b600081815260018301602052604081205461020a575081546001818101845560008481526020808220909301849055845484825282860190935260409020919091556101bd565b5060006101bd565b60006020828403121561022457600080fd5b81356001600160e01b03198116811461023c57600080fd5b9392505050565b600060208083528351808285015260005b8181101561027057858101830151858201604001528201610254565b81811115610282576000604083870101525b50601f01601f1916929092016040019392505050565b600181811c908216806102ac57607f821691505b602082108114156102cd57634e487b7160e01b600052602260045260246000fd5b5091905056fea26469706673582212209e19fa8ce3ff78ffe389259d7db8cbbba72d12ca166ed309431b87906778ec8b64736f6c63430008090033",
  "linkReferences": {},
  "deployedLinkReferences": {}
}