{
  "_format": "hh-sol-artifact-1",
  "contractName": "NFBaseModuleSlim",
  "sourceName": "contracts/Modules/NFBaseModuleSlim.sol",
  "abi": [
    {
      "inputs": [
        {
          "internalType": "string",
          "name": "contractURI_",
          "type": "string"
        }
      ],
      "stateMutability": "nonpayable",
      "type": "constructor"
    },
    {
      "anonymous": false,
      "inputs": [
        {
          "indexed": false,
          "internalType": "string",
          "name": "contractURI",
          "type": "string"
        }
      ],
      "name": "NewContractURI",
      "type": "event"
    },
    {
      "inputs": [],
      "name": "contractURI",
      "outputs": [
        {
          "internalType": "string",
          "name": "",
          "type": "string"
        }
      ],
      "stateMutability": "view",
      "type": "function"
    },
    {
      "inputs": [
        {
          "internalType": "bytes4",
          "name": "interfaceId",
          "type": "bytes4"
        }
      ],
      "name": "supportsInterface",
      "outputs": [
        {
          "internalType": "bool",
          "name": "",
          "type": "bool"
        }
      ],
      "stateMutability": "view",
      "type": "function"
    }
  ],
  "bytecode": "0x608060405234801561001057600080fd5b506040516104a63803806104a683398101604081905261002f9161016b565b6100388161003e565b50610285565b805161005190600090602084019061008c565b507fdf1280b84eee5cd4ce59294c59ec7288bd49034d7f3d142f57ba9b4779156364816040516100819190610217565b60405180910390a150565b8280546100989061024a565b90600052602060002090601f0160209004810192826100ba5760008555610100565b82601f106100d357805160ff1916838001178555610100565b82800160010185558215610100579182015b828111156101005782518255916020019190600101906100e5565b5061010c929150610110565b5090565b5b8082111561010c5760008155600101610111565b634e487b7160e01b600052604160045260246000fd5b60005b8381101561015657818101518382015260200161013e565b83811115610165576000848401525b50505050565b60006020828403121561017d57600080fd5b81516001600160401b038082111561019457600080fd5b818401915084601f8301126101a857600080fd5b8151818111156101ba576101ba610125565b604051601f8201601f19908116603f011681019083821181831017156101e2576101e2610125565b816040528281528760208487010111156101fb57600080fd5b61020c83602083016020880161013b565b979650505050505050565b602081526000825180602084015261023681604085016020870161013b565b601f01601f19169190910160400192915050565b600181811c9082168061025e57607f821691505b6020821081141561027f57634e487b7160e01b600052602260045260246000fd5b50919050565b610212806102946000396000f3fe608060405234801561001057600080fd5b50600436106100365760003560e01c806301ffc9a71461003b578063e8a3d48514610074575b600080fd5b61005f61004936600461011b565b6001600160e01b0319166301ffc9a760e01b1490565b60405190151581526020015b60405180910390f35b61007c610089565b60405161006b919061014c565b606060008054610098906101a1565b80601f01602080910402602001604051908101604052809291908181526020018280546100c4906101a1565b80156101115780601f106100e657610100808354040283529160200191610111565b820191906000526020600020905b8154815290600101906020018083116100f457829003601f168201915b5050505050905090565b60006020828403121561012d57600080fd5b81356001600160e01b03198116811461014557600080fd5b9392505050565b600060208083528351808285015260005b818110156101795785810183015185820160400152820161015d565b8181111561018b576000604083870101525b50601f01601f1916929092016040019392505050565b600181811c908216806101b557607f821691505b602082108114156101d657634e487b7160e01b600052602260045260246000fd5b5091905056fea2646970667358221220f699c4a998bfdc31d852be86687b59bf348e096d49708e49b541033da9c289c164736f6c63430008090033",
  "linkReferences": {},
  "deployedLinkReferences": {}
}