{
  "_format": "hh-sol-artifact-1",
  "contractName": "NiftyForgeWithModules",
  "sourceName": "contracts/NiftyForge/NiftyForgeWithModules.sol",
  "abi": [
    {
      "anonymous": false,
      "inputs": [
        {
          "indexed": false,
          "internalType": "address",
          "name": "module",
          "type": "address"
        }
      ],
      "name": "ModuleChanged",
      "type": "event"
    },
    {
      "inputs": [
        {
          "internalType": "enum INFModuleWithEvents.Events",
          "name": "eventType",
          "type": "uint8"
        }
      ],
      "name": "addEventListener",
      "outputs": [],
      "stateMutability": "nonpayable",
      "type": "function"
    },
    {
      "inputs": [],
      "name": "listModules",
      "outputs": [
        {
          "internalType": "address[]",
          "name": "list",
          "type": "address[]"
        },
        {
          "internalType": "uint256[]",
          "name": "status",
          "type": "uint256[]"
        }
      ],
      "stateMutability": "view",
      "type": "function"
    },
    {
      "inputs": [
        {
          "internalType": "address",
          "name": "",
          "type": "address"
        }
      ],
      "name": "modulesStatus",
      "outputs": [
        {
          "internalType": "enum INiftyForgeWithModules.ModuleStatus",
          "name": "",
          "type": "uint8"
        }
      ],
      "stateMutability": "view",
      "type": "function"
    },
    {
      "inputs": [
        {
          "internalType": "enum INFModuleWithEvents.Events",
          "name": "eventType",
          "type": "uint8"
        }
      ],
      "name": "removeEventListener",
      "outputs": [],
      "stateMutability": "nonpayable",
      "type": "function"
    }
  ],
  "bytecode": "0x608060405234801561001057600080fd5b506106f4806100206000396000f3fe608060405234801561001057600080fd5b506004361061004c5760003560e01c80634cfa648714610051578063734afad114610070578063850eadd714610085578063f3728547146100b5575b600080fd5b6100596100c8565b604051610067929190610528565b60405180910390f35b61008361007e3660046105ac565b61022e565b005b6100a86100933660046105cd565b60086020526000908152604090205460ff1681565b604051610067919061060c565b6100836100c33660046105ac565b6102d3565b60608060006100d7600661036f565b90508067ffffffffffffffff8111156100f2576100f2610634565b60405190808252806020026020018201604052801561011b578160200160208202803683370190505b5092508067ffffffffffffffff81111561013757610137610634565b604051908082528060200260200182016040528015610160578160200160208202803683370190505b50915060005b818110156102285761017960068261037f565b84828151811061018b5761018b61064a565b60200260200101906001600160a01b031690816001600160a01b031681525050600860008583815181106101c1576101c161064a565b6020908102919091018101516001600160a01b031682528101919091526040016000205460ff1660028111156101f9576101f96105f6565b83828151811061020b5761020b61064a565b60209081029190910101528061022081610676565b915050610166565b50509091565b60013360009081526008602052604090205460ff166002811115610254576102546105f6565b1461029d5760405162461bcd60e51b8152602060048201526014602482015273214d4f44554c455f4e4f545f454e41424c45442160601b60448201526064015b60405180910390fd5b6102cf3360008360028111156102b5576102b56105f6565b600381106102c5576102c561064a565b6002020190610392565b5050565b60013360009081526008602052604090205460ff1660028111156102f9576102f96105f6565b1461033d5760405162461bcd60e51b8152602060048201526014602482015273214d4f44554c455f4e4f545f454e41424c45442160601b6044820152606401610294565b6102cf336000836002811115610355576103556105f6565b600381106103655761036561064a565b60020201906103a7565b6000610379825490565b92915050565b600061038b83836103bc565b9392505050565b600061038b836001600160a01b0384166103e6565b600061038b836001600160a01b038416610435565b60008260000182815481106103d3576103d361064a565b9060005260206000200154905092915050565b600081815260018301602052604081205461042d57508154600181810184556000848152602080822090930184905584548482528286019093526040902091909155610379565b506000610379565b6000818152600183016020526040812054801561051e576000610459600183610691565b855490915060009061046d90600190610691565b90508181146104d257600086600001828154811061048d5761048d61064a565b90600052602060002001549050808760000184815481106104b0576104b061064a565b6000918252602080832090910192909255918252600188019052604090208390555b85548690806104e3576104e36106a8565b600190038181906000526020600020016000905590558560010160008681526020019081526020016000206000905560019350505050610379565b6000915050610379565b604080825283519082018190526000906020906060840190828701845b8281101561056a5781516001600160a01b031684529284019290840190600101610545565b5050508381038285015284518082528583019183019060005b8181101561059f57835183529284019291840191600101610583565b5090979650505050505050565b6000602082840312156105be57600080fd5b81356003811061038b57600080fd5b6000602082840312156105df57600080fd5b81356001600160a01b038116811461038b57600080fd5b634e487b7160e01b600052602160045260246000fd5b602081016003831061062e57634e487b7160e01b600052602160045260246000fd5b91905290565b634e487b7160e01b600052604160045260246000fd5b634e487b7160e01b600052603260045260246000fd5b634e487b7160e01b600052601160045260246000fd5b600060001982141561068a5761068a610660565b5060010190565b6000828210156106a3576106a3610660565b500390565b634e487b7160e01b600052603160045260246000fdfea2646970667358221220665294e1e9a570a5eca90bb40f84fb29dfb0fd78c12d95d4a39906a89a74686864736f6c63430008090033",
  "linkReferences": {},
  "deployedLinkReferences": {}
}