{
  "_format": "hh-sol-artifact-1",
  "contractName": "SlimMinterModuleMock",
  "sourceName": "contracts/mocks/SlimMinterModuleMock.sol",
  "abi": [
    {
      "inputs": [
        {
          "internalType": "string",
          "name": "contractURI_",
          "type": "string"
        }
      ],
      "stateMutability": "nonpayable",
      "type": "constructor"
    },
    {
      "anonymous": false,
      "inputs": [
        {
          "indexed": false,
          "internalType": "string",
          "name": "contractURI",
          "type": "string"
        }
      ],
      "name": "NewContractURI",
      "type": "event"
    },
    {
      "inputs": [],
      "name": "contractURI",
      "outputs": [
        {
          "internalType": "string",
          "name": "",
          "type": "string"
        }
      ],
      "stateMutability": "view",
      "type": "function"
    },
    {
      "inputs": [
        {
          "internalType": "address",
          "name": "registry",
          "type": "address"
        },
        {
          "internalType": "uint256",
          "name": "count",
          "type": "uint256"
        }
      ],
      "name": "mintBatch",
      "outputs": [],
      "stateMutability": "nonpayable",
      "type": "function"
    },
    {
      "inputs": [],
      "name": "onAttach",
      "outputs": [
        {
          "internalType": "bool",
          "name": "",
          "type": "bool"
        }
      ],
      "stateMutability": "nonpayable",
      "type": "function"
    },
    {
      "inputs": [],
      "name": "onDisable",
      "outputs": [],
      "stateMutability": "nonpayable",
      "type": "function"
    },
    {
      "inputs": [],
      "name": "onEnable",
      "outputs": [
        {
          "internalType": "bool",
          "name": "",
          "type": "bool"
        }
      ],
      "stateMutability": "nonpayable",
      "type": "function"
    },
    {
      "inputs": [
        {
          "internalType": "bytes4",
          "name": "interfaceId",
          "type": "bytes4"
        }
      ],
      "name": "supportsInterface",
      "outputs": [
        {
          "internalType": "bool",
          "name": "",
          "type": "bool"
        }
      ],
      "stateMutability": "view",
      "type": "function"
    }
  ],
  "bytecode": "0x608060405234801561001057600080fd5b5060405161069e38038061069e83398101604081905261002f9161016d565b8061003981610040565b5050610287565b805161005390600290602084019061008e565b507fdf1280b84eee5cd4ce59294c59ec7288bd49034d7f3d142f57ba9b4779156364816040516100839190610219565b60405180910390a150565b82805461009a9061024c565b90600052602060002090601f0160209004810192826100bc5760008555610102565b82601f106100d557805160ff1916838001178555610102565b82800160010185558215610102579182015b828111156101025782518255916020019190600101906100e7565b5061010e929150610112565b5090565b5b8082111561010e5760008155600101610113565b634e487b7160e01b600052604160045260246000fd5b60005b83811015610158578181015183820152602001610140565b83811115610167576000848401525b50505050565b60006020828403121561017f57600080fd5b81516001600160401b038082111561019657600080fd5b818401915084601f8301126101aa57600080fd5b8151818111156101bc576101bc610127565b604051601f8201601f19908116603f011681019083821181831017156101e4576101e4610127565b816040528281528760208487010111156101fd57600080fd5b61020e83602083016020880161013d565b979650505050505050565b602081526000825180602084015261023881604085016020870161013d565b601f01601f19169190910160400192915050565b600181811c9082168061026057607f821691505b6020821081141561028157634e487b7160e01b600052602260045260246000fd5b50919050565b610408806102966000396000f3fe608060405234801561001057600080fd5b50600436106100625760003560e01c806301ffc9a714610067578063248b71fc146100a05780634c85eb1f146100b3578063b079ac90146100b5578063e8a3d485146100bc578063ed1b3144146100d1575b600080fd5b61008b6100753660046102b5565b6001600160e01b0319166301ffc9a760e01b1490565b60405190151581526020015b60405180910390f35b6100b36100ae3660046102e6565b6100d9565b005b600161008b565b6100c461015e565b604051610097919061031e565b61008b6101f0565b604051630922dc7f60e21b8152336004820152602481018290526001600160a01b0383169063248b71fc906044016040805180830381600087803b15801561012057600080fd5b505af1158015610134573d6000803e3d6000fd5b505050506040513d601f19601f820116820180604052508101906101589190610373565b50505050565b60606002805461016d90610397565b80601f016020809104026020016040519081016040528092919081815260200182805461019990610397565b80156101e65780601f106101bb576101008083540402835291602001916101e6565b820191906000526020600020905b8154815290600101906020018083116101c957829003601f168201915b5050505050905090565b60006101fc8133610248565b156102075750600190565b60405162461bcd60e51b815260206004820152601260248201527121414c52454144595f41545441434845442160701b604482015260640160405180910390fd5b600061025d836001600160a01b038416610266565b90505b92915050565b60008181526001830160205260408120546102ad57508154600181810184556000848152602080822090930184905584548482528286019093526040902091909155610260565b506000610260565b6000602082840312156102c757600080fd5b81356001600160e01b0319811681146102df57600080fd5b9392505050565b600080604083850312156102f957600080fd5b82356001600160a01b038116811461031057600080fd5b946020939093013593505050565b600060208083528351808285015260005b8181101561034b5785810183015185820160400152820161032f565b8181111561035d576000604083870101525b50601f01601f1916929092016040019392505050565b6000806040838503121561038657600080fd5b505080516020909101519092909150565b600181811c908216806103ab57607f821691505b602082108114156103cc57634e487b7160e01b600052602260045260246000fd5b5091905056fea2646970667358221220f0770f516be228a721cc100a5c669b46415922a9149e316679b4cc032bd5d6ad64736f6c63430008090033",
  "linkReferences": {},
  "deployedLinkReferences": {}
}